{
  "_format": "hh-sol-artifact-1",
  "contractName": "Staking",
  "sourceName": "contracts/Staking.sol",
  "abi": [
    {
      "inputs": [],
      "stateMutability": "nonpayable",
      "type": "constructor"
    },
    {
      "inputs": [
        {
          "internalType": "address",
          "name": "_differLptoken",
          "type": "address"
        },
        {
          "internalType": "address",
          "name": "_userAccount",
          "type": "address"
        },
        {
          "internalType": "address",
          "name": "_factoryAddress",
          "type": "address"
        },
        {
          "internalType": "uint256",
          "name": "_amount",
          "type": "uint256"
        },
        {
          "internalType": "uint256",
          "name": "_month",
          "type": "uint256"
        },
        {
          "internalType": "address",
          "name": "_VASDtokenAddress",
          "type": "address"
        }
      ],
      "name": "StakeDifferLp",
      "outputs": [],
      "stateMutability": "nonpayable",
      "type": "function"
    },
    {
      "inputs": [],
      "name": "getValue1",
      "outputs": [
        {
          "internalType": "uint256",
          "name": "_firstNum",
          "type": "uint256"
        },
        {
          "internalType": "uint256",
          "name": "_secondNum",
          "type": "uint256"
        },
        {
          "internalType": "address",
          "name": "_firstTokenName",
          "type": "address"
        },
        {
          "internalType": "uint256",
          "name": "_firstTokenMon",
          "type": "uint256"
        },
        {
          "internalType": "uint256",
          "name": "_firstAmount",
          "type": "uint256"
        },
        {
          "internalType": "uint256",
          "name": "_secondAmount",
          "type": "uint256"
        }
      ],
      "stateMutability": "view",
      "type": "function"
    },
    {
      "inputs": [],
      "name": "getValue2",
      "outputs": [
        {
          "internalType": "bool",
          "name": "_isPossible",
          "type": "bool"
        }
      ],
      "stateMutability": "view",
      "type": "function"
    },
    {
      "inputs": [
        {
          "internalType": "address",
          "name": "",
          "type": "address"
        },
        {
          "internalType": "address",
          "name": "",
          "type": "address"
        },
        {
          "internalType": "uint256",
          "name": "",
          "type": "uint256"
        }
      ],
      "name": "stakeInfo",
      "outputs": [
        {
          "internalType": "uint256",
          "name": "amount",
          "type": "uint256"
        },
        {
          "internalType": "uint256",
          "name": "stakedTime",
          "type": "uint256"
        },
        {
          "internalType": "bool",
          "name": "isWithdrawable",
          "type": "bool"
        },
        {
          "internalType": "address",
          "name": "Lpaddress",
          "type": "address"
        }
      ],
      "stateMutability": "view",
      "type": "function"
    },
    {
      "inputs": [
        {
          "internalType": "address",
          "name": "",
          "type": "address"
        },
        {
          "internalType": "address",
          "name": "",
          "type": "address"
        }
      ],
      "name": "stakeMonth",
      "outputs": [
        {
          "internalType": "uint256",
          "name": "",
          "type": "uint256"
        }
      ],
      "stateMutability": "view",
      "type": "function"
    },
    {
      "inputs": [
        {
          "internalType": "address",
          "name": "",
          "type": "address"
        },
        {
          "internalType": "uint256",
          "name": "",
          "type": "uint256"
        }
      ],
      "name": "stakeTokenName",
      "outputs": [
        {
          "internalType": "address",
          "name": "",
          "type": "address"
        }
      ],
      "stateMutability": "view",
      "type": "function"
    },
    {
      "inputs": [
        {
          "internalType": "address",
          "name": "",
          "type": "address"
        }
      ],
      "name": "userLenth",
      "outputs": [
        {
          "internalType": "uint256",
          "name": "",
          "type": "uint256"
        }
      ],
      "stateMutability": "view",
      "type": "function"
    },
    {
      "inputs": [
        {
          "internalType": "address",
          "name": "_userAccount",
          "type": "address"
        },
        {
          "internalType": "address",
          "name": "_factoryAddress",
          "type": "address"
        }
      ],
      "name": "withDrawDifferLp",
      "outputs": [],
      "stateMutability": "nonpayable",
      "type": "function"
    }
  ],
  "bytecode": "0x6080604052629e340060035563013c68006004556301da9c00600555603c60065534801561002c57600080fd5b5030600160006101000a81548173ffffffffffffffffffffffffffffffffffffffff021916908373ffffffffffffffffffffffffffffffffffffffff1602179055506129f28061007d6000396000f3fe608060405234801561001057600080fd5b50600436106100885760003560e01c8063a7f8cd091161005b578063a7f8cd0914610143578063b7c1bcb21461015f578063c515205d1461018f578063c7d8c823146101ad57610088565b806322f06ac11461008d578063513bc1ce146100c057806360d586f8146100f05780638274fa2a14610113575b600080fd5b6100a760048036038101906100a291906123a1565b6101c9565b6040516100b7949392919061242d565b60405180910390f35b6100da60048036038101906100d59190612472565b610240565b6040516100e7919061249f565b60405180910390f35b6100f8610258565b60405161010a969594939291906124ba565b60405180910390f35b61012d6004803603810190610128919061251b565b6102a7565b60405161013a919061255b565b60405180910390f35b61015d60048036038101906101589190612576565b6102e9565b005b61017960048036038101906101749190612603565b610e4c565b604051610186919061249f565b60405180910390f35b610197610e71565b6040516101a49190612643565b60405180910390f35b6101c760048036038101906101c29190612603565b610e88565b005b600b60205282600052604060002060205281600052604060002060205280600052604060002060009250925050508060000154908060010154908060020160009054906101000a900460ff16908060020160019054906101000a900473ffffffffffffffffffffffffffffffffffffffff16905084565b600e6020528060005260406000206000915090505481565b600080600080600080600f54601054601160009054906101000a900473ffffffffffffffffffffffffffffffffffffffff16601254601354601454955095509550955095509550909192939495565b600d6020528160005260406000206020528060005260406000206000915091509054906101000a900473ffffffffffffffffffffffffffffffffffffffff1681565b806000806101000a81548173ffffffffffffffffffffffffffffffffffffffff021916908373ffffffffffffffffffffffffffffffffffffffff16021790555060008054906101000a900473ffffffffffffffffffffffffffffffffffffffff16600260006101000a81548173ffffffffffffffffffffffffffffffffffffffff021916908373ffffffffffffffffffffffffffffffffffffffff1602179055506000600e60008773ffffffffffffffffffffffffffffffffffffffff1673ffffffffffffffffffffffffffffffffffffffff16815260200190815260200160002054905086600d60008873ffffffffffffffffffffffffffffffffffffffff1673ffffffffffffffffffffffffffffffffffffffff168152602001908152602001600020600083815260200190815260200160002060006101000a81548173ffffffffffffffffffffffffffffffffffffffff021916908373ffffffffffffffffffffffffffffffffffffffff1602179055506001600e60008873ffffffffffffffffffffffffffffffffffffffff1673ffffffffffffffffffffffffffffffffffffffff16815260200190815260200160002060008282546104ad919061268d565b925050819055506000600c60008873ffffffffffffffffffffffffffffffffffffffff1673ffffffffffffffffffffffffffffffffffffffff16815260200190815260200160002060008973ffffffffffffffffffffffffffffffffffffffff1673ffffffffffffffffffffffffffffffffffffffff1681526020019081526020016000205414156105cc5761054687878787876113ef565b82600c60008873ffffffffffffffffffffffffffffffffffffffff1673ffffffffffffffffffffffffffffffffffffffff16815260200190815260200160002060008973ffffffffffffffffffffffffffffffffffffffff1673ffffffffffffffffffffffffffffffffffffffff16815260200190815260200160002081905550610e43565b82600c60008873ffffffffffffffffffffffffffffffffffffffff1673ffffffffffffffffffffffffffffffffffffffff16815260200190815260200160002060008973ffffffffffffffffffffffffffffffffffffffff1673ffffffffffffffffffffffffffffffffffffffff168152602001908152602001600020541015610893576000600c60008873ffffffffffffffffffffffffffffffffffffffff1673ffffffffffffffffffffffffffffffffffffffff16815260200190815260200160002060008973ffffffffffffffffffffffffffffffffffffffff1673ffffffffffffffffffffffffffffffffffffffff1681526020019081526020016000205490506000600b60008973ffffffffffffffffffffffffffffffffffffffff1673ffffffffffffffffffffffffffffffffffffffff16815260200190815260200160002060008a73ffffffffffffffffffffffffffffffffffffffff1673ffffffffffffffffffffffffffffffffffffffff1681526020019081526020016000206000600c60008b73ffffffffffffffffffffffffffffffffffffffff1673ffffffffffffffffffffffffffffffffffffffff16815260200190815260200160002060008c73ffffffffffffffffffffffffffffffffffffffff1673ffffffffffffffffffffffffffffffffffffffff168152602001908152602001600020548152602001908152602001600020600001549050600081876107f0919061268d565b90506107ff8a8a8a848a6113ef565b61080a898b856114ba565b85600c60008b73ffffffffffffffffffffffffffffffffffffffff1673ffffffffffffffffffffffffffffffffffffffff16815260200190815260200160002060008c73ffffffffffffffffffffffffffffffffffffffff1673ffffffffffffffffffffffffffffffffffffffff16815260200190815260200160002081905550505050610e42565b82600c60008873ffffffffffffffffffffffffffffffffffffffff1673ffffffffffffffffffffffffffffffffffffffff16815260200190815260200160002060008973ffffffffffffffffffffffffffffffffffffffff1673ffffffffffffffffffffffffffffffffffffffff168152602001908152602001600020541115610b6e576000600c60008873ffffffffffffffffffffffffffffffffffffffff1673ffffffffffffffffffffffffffffffffffffffff16815260200190815260200160002060008973ffffffffffffffffffffffffffffffffffffffff1673ffffffffffffffffffffffffffffffffffffffff1681526020019081526020016000205490506109a588888888886113ef565b600b60008873ffffffffffffffffffffffffffffffffffffffff1673ffffffffffffffffffffffffffffffffffffffff16815260200190815260200160002060008973ffffffffffffffffffffffffffffffffffffffff1673ffffffffffffffffffffffffffffffffffffffff168152602001908152602001600020600085815260200190815260200160002060000154600b60008973ffffffffffffffffffffffffffffffffffffffff1673ffffffffffffffffffffffffffffffffffffffff16815260200190815260200160002060008a73ffffffffffffffffffffffffffffffffffffffff1673ffffffffffffffffffffffffffffffffffffffff16815260200190815260200160002060008381526020019081526020016000206000016000828254610ad5919061268d565b92505081905550610ae78789866114ba565b80600c60008973ffffffffffffffffffffffffffffffffffffffff1673ffffffffffffffffffffffffffffffffffffffff16815260200190815260200160002060008a73ffffffffffffffffffffffffffffffffffffffff1673ffffffffffffffffffffffffffffffffffffffff1681526020019081526020016000208190555050610e41565b82600c60008873ffffffffffffffffffffffffffffffffffffffff1673ffffffffffffffffffffffffffffffffffffffff16815260200190815260200160002060008973ffffffffffffffffffffffffffffffffffffffff1673ffffffffffffffffffffffffffffffffffffffff168152602001908152602001600020541415610e40576000600c60008873ffffffffffffffffffffffffffffffffffffffff1673ffffffffffffffffffffffffffffffffffffffff16815260200190815260200160002060008973ffffffffffffffffffffffffffffffffffffffff1673ffffffffffffffffffffffffffffffffffffffff1681526020019081526020016000205490506000600b60008973ffffffffffffffffffffffffffffffffffffffff1673ffffffffffffffffffffffffffffffffffffffff16815260200190815260200160002060008a73ffffffffffffffffffffffffffffffffffffffff1673ffffffffffffffffffffffffffffffffffffffff1681526020019081526020016000206000838152602001908152602001600020600001549050610d1589898989896113ef565b80600b60008a73ffffffffffffffffffffffffffffffffffffffff1673ffffffffffffffffffffffffffffffffffffffff16815260200190815260200160002060008b73ffffffffffffffffffffffffffffffffffffffff1673ffffffffffffffffffffffffffffffffffffffff16815260200190815260200160002060008781526020019081526020016000206000016000828254610db5919061268d565b9250508190555084600c60008a73ffffffffffffffffffffffffffffffffffffffff1673ffffffffffffffffffffffffffffffffffffffff16815260200190815260200160002060008b73ffffffffffffffffffffffffffffffffffffffff1673ffffffffffffffffffffffffffffffffffffffff1681526020019081526020016000208190555050505b5b5b5b50505050505050565b600c602052816000526040600020602052806000526040600020600091509150505481565b6000600a60009054906101000a900460ff16905090565b6001600e60008473ffffffffffffffffffffffffffffffffffffffff1673ffffffffffffffffffffffffffffffffffffffff16815260200190815260200160002054610ed491906126e3565b600f8190555060005b600f5481116113ea57600d60008473ffffffffffffffffffffffffffffffffffffffff1673ffffffffffffffffffffffffffffffffffffffff168152602001908152602001600020600082815260200190815260200160002060009054906101000a900473ffffffffffffffffffffffffffffffffffffffff16601160006101000a81548173ffffffffffffffffffffffffffffffffffffffff021916908373ffffffffffffffffffffffffffffffffffffffff160217905550600c60008473ffffffffffffffffffffffffffffffffffffffff1673ffffffffffffffffffffffffffffffffffffffff1681526020019081526020016000206000601160009054906101000a900473ffffffffffffffffffffffffffffffffffffffff1673ffffffffffffffffffffffffffffffffffffffff1673ffffffffffffffffffffffffffffffffffffffff16815260200190815260200160002054601281905550600b60008473ffffffffffffffffffffffffffffffffffffffff1673ffffffffffffffffffffffffffffffffffffffff1681526020019081526020016000206000601160009054906101000a900473ffffffffffffffffffffffffffffffffffffffff1673ffffffffffffffffffffffffffffffffffffffff1673ffffffffffffffffffffffffffffffffffffffff168152602001908152602001600020600060125481526020019081526020016000206000015460138190555061110083611694565b5050600b60008473ffffffffffffffffffffffffffffffffffffffff1673ffffffffffffffffffffffffffffffffffffffff1681526020019081526020016000206000601160009054906101000a900473ffffffffffffffffffffffffffffffffffffffff1673ffffffffffffffffffffffffffffffffffffffff1673ffffffffffffffffffffffffffffffffffffffff1681526020019081526020016000206000601254815260200190815260200160002060020160009054906101000a900460ff16600a60006101000a81548160ff021916908315150217905550600a60009054906101000a900460ff1661122c576040517f08c379a000000000000000000000000000000000000000000000000000000000815260040161122390612774565b60405180910390fd5b600a60009054906101000a900460ff16156113d757601160009054906101000a900473ffffffffffffffffffffffffffffffffffffffff1673ffffffffffffffffffffffffffffffffffffffff1663095ea7b3836013546040518363ffffffff1660e01b81526004016112a0929190612794565b602060405180830381600087803b1580156112ba57600080fd5b505af11580156112ce573d6000803e3d6000fd5b505050506040513d601f19601f820116820180604052508101906112f291906127e9565b50601160009054906101000a900473ffffffffffffffffffffffffffffffffffffffff1673ffffffffffffffffffffffffffffffffffffffff166323b872dd83856013546040518463ffffffff1660e01b815260040161135493929190612816565b602060405180830381600087803b15801561136e57600080fd5b505af1158015611382573d6000803e3d6000fd5b505050506040513d601f19601f820116820180604052508101906113a691906127e9565b506113d683601160009054906101000a900473ffffffffffffffffffffffffffffffffffffffff166012546114ba565b5b80806113e29061284d565b915050610edd565b505050565b6004811415611414576114058585848487611e72565b61140f84836120dc565b6114b3565b60088114156114455761142a8585848487611e72565b6114408483600261143b9190612896565b6120dc565b6114b2565b600c8114156114765761145b8585848487611e72565b6114718483600461146c9190612896565b6120dc565b6114b1565b6040517f08c379a00000000000000000000000000000000000000000000000000000000081526004016114a89061293c565b60405180910390fd5b5b5b5050505050565b6000600b60008573ffffffffffffffffffffffffffffffffffffffff1673ffffffffffffffffffffffffffffffffffffffff16815260200190815260200160002060008473ffffffffffffffffffffffffffffffffffffffff1673ffffffffffffffffffffffffffffffffffffffff1681526020019081526020016000206000838152602001908152602001600020600001819055506000600b60008573ffffffffffffffffffffffffffffffffffffffff1673ffffffffffffffffffffffffffffffffffffffff16815260200190815260200160002060008473ffffffffffffffffffffffffffffffffffffffff1673ffffffffffffffffffffffffffffffffffffffff1681526020019081526020016000206000838152602001908152602001600020600101819055506000600b60008573ffffffffffffffffffffffffffffffffffffffff1673ffffffffffffffffffffffffffffffffffffffff16815260200190815260200160002060008473ffffffffffffffffffffffffffffffffffffffff1673ffffffffffffffffffffffffffffffffffffffff168152602001908152602001600020600083815260200190815260200160002060020160006101000a81548160ff021916908315150217905550505050565b6060806001600e60008573ffffffffffffffffffffffffffffffffffffffff1673ffffffffffffffffffffffffffffffffffffffff168152602001908152602001600020546116e391906126e3565b60108190555060005b6010548111611d8a57600d60008573ffffffffffffffffffffffffffffffffffffffff1673ffffffffffffffffffffffffffffffffffffffff168152602001908152602001600020600082815260200190815260200160002060009054906101000a900473ffffffffffffffffffffffffffffffffffffffff16601560006101000a81548173ffffffffffffffffffffffffffffffffffffffff021916908373ffffffffffffffffffffffffffffffffffffffff160217905550600c60008573ffffffffffffffffffffffffffffffffffffffff1673ffffffffffffffffffffffffffffffffffffffff1681526020019081526020016000206000601560009054906101000a900473ffffffffffffffffffffffffffffffffffffffff1673ffffffffffffffffffffffffffffffffffffffff1673ffffffffffffffffffffffffffffffffffffffff168152602001908152602001600020546016819055506004601654141561193957600654600b60008673ffffffffffffffffffffffffffffffffffffffff1673ffffffffffffffffffffffffffffffffffffffff1681526020019081526020016000206000601560009054906101000a900473ffffffffffffffffffffffffffffffffffffffff1673ffffffffffffffffffffffffffffffffffffffff1673ffffffffffffffffffffffffffffffffffffffff1681526020019081526020016000206000601654815260200190815260200160002060010154611918919061268d565b421015600760006101000a81548160ff021916908315150217905550611b13565b60086016541415611a2757600654600b60008673ffffffffffffffffffffffffffffffffffffffff1673ffffffffffffffffffffffffffffffffffffffff1681526020019081526020016000206000601560009054906101000a900473ffffffffffffffffffffffffffffffffffffffff1673ffffffffffffffffffffffffffffffffffffffff1673ffffffffffffffffffffffffffffffffffffffff1681526020019081526020016000206000601654815260200190815260200160002060010154611a06919061268d565b421015600760006101000a81548160ff021916908315150217905550611b12565b600c6016541415611b1157600654600b60008673ffffffffffffffffffffffffffffffffffffffff1673ffffffffffffffffffffffffffffffffffffffff1681526020019081526020016000206000601560009054906101000a900473ffffffffffffffffffffffffffffffffffffffff1673ffffffffffffffffffffffffffffffffffffffff1673ffffffffffffffffffffffffffffffffffffffff1681526020019081526020016000206000601654815260200190815260200160002060010154611af4919061268d565b421015600760006101000a81548160ff0219169083151502179055505b5b5b600760009054906101000a900460ff1615611d77576001600b60008673ffffffffffffffffffffffffffffffffffffffff1673ffffffffffffffffffffffffffffffffffffffff1681526020019081526020016000206000601560009054906101000a900473ffffffffffffffffffffffffffffffffffffffff1673ffffffffffffffffffffffffffffffffffffffff1673ffffffffffffffffffffffffffffffffffffffff1681526020019081526020016000206000601654815260200190815260200160002060020160006101000a81548160ff0219169083151502179055506008601560009054906101000a900473ffffffffffffffffffffffffffffffffffffffff169080600181540180825580915050600190039060005260206000200160009091909190916101000a81548173ffffffffffffffffffffffffffffffffffffffff021916908373ffffffffffffffffffffffffffffffffffffffff1602179055506000600b60008673ffffffffffffffffffffffffffffffffffffffff1673ffffffffffffffffffffffffffffffffffffffff1681526020019081526020016000206000601560009054906101000a900473ffffffffffffffffffffffffffffffffffffffff1673ffffffffffffffffffffffffffffffffffffffff1673ffffffffffffffffffffffffffffffffffffffff1681526020019081526020016000206000601654815260200190815260200160002060000154905060098190806001815401808255809150506001900390600052602060002001600090919091909150558060146000828254611d6e919061268d565b92505081905550505b8080611d829061284d565b9150506116ec565b506008600981805480602002602001604051908101604052809291908181526020018280548015611e1057602002820191906000526020600020905b8160009054906101000a900473ffffffffffffffffffffffffffffffffffffffff1673ffffffffffffffffffffffffffffffffffffffff1681526020019060010190808311611dc6575b5050505050915080805480602002602001604051908101604052809291908181526020018280548015611e6257602002820191906000526020600020905b815481526020019060010190808311611e4e575b5050505050905091509150915091565b8473ffffffffffffffffffffffffffffffffffffffff166323b872dd8583866040518463ffffffff1660e01b8152600401611eaf93929190612816565b602060405180830381600087803b158015611ec957600080fd5b505af1158015611edd573d6000803e3d6000fd5b505050506040513d601f19601f82011682018060405250810190611f0191906127e9565b5082600b60008673ffffffffffffffffffffffffffffffffffffffff1673ffffffffffffffffffffffffffffffffffffffff16815260200190815260200160002060008773ffffffffffffffffffffffffffffffffffffffff1673ffffffffffffffffffffffffffffffffffffffff16815260200190815260200160002060008481526020019081526020016000206000018190555042600b60008673ffffffffffffffffffffffffffffffffffffffff1673ffffffffffffffffffffffffffffffffffffffff16815260200190815260200160002060008773ffffffffffffffffffffffffffffffffffffffff1673ffffffffffffffffffffffffffffffffffffffff1681526020019081526020016000206000848152602001908152602001600020600101819055506000600b60008673ffffffffffffffffffffffffffffffffffffffff1673ffffffffffffffffffffffffffffffffffffffff16815260200190815260200160002060008773ffffffffffffffffffffffffffffffffffffffff1673ffffffffffffffffffffffffffffffffffffffff168152602001908152602001600020600084815260200190815260200160002060020160006101000a81548160ff0219169083151502179055505050505050565b6000670de0b6b3a7640000826120f2919061298b565b9050600260009054906101000a900473ffffffffffffffffffffffffffffffffffffffff1673ffffffffffffffffffffffffffffffffffffffff1663a0712d68826040518263ffffffff1660e01b815260040161214f919061249f565b600060405180830381600087803b15801561216957600080fd5b505af115801561217d573d6000803e3d6000fd5b50505050600260009054906101000a900473ffffffffffffffffffffffffffffffffffffffff1673ffffffffffffffffffffffffffffffffffffffff1663095ea7b384836040518363ffffffff1660e01b81526004016121de929190612794565b602060405180830381600087803b1580156121f857600080fd5b505af115801561220c573d6000803e3d6000fd5b505050506040513d601f19601f8201168201806040525081019061223091906127e9565b50600260009054906101000a900473ffffffffffffffffffffffffffffffffffffffff1673ffffffffffffffffffffffffffffffffffffffff166323b872dd60008054906101000a900473ffffffffffffffffffffffffffffffffffffffff1685846040518463ffffffff1660e01b81526004016122b093929190612816565b602060405180830381600087803b1580156122ca57600080fd5b505af11580156122de573d6000803e3d6000fd5b505050506040513d601f19601f8201168201806040525081019061230291906127e9565b50505050565b600080fd5b600073ffffffffffffffffffffffffffffffffffffffff82169050919050565b60006123388261230d565b9050919050565b6123488161232d565b811461235357600080fd5b50565b6000813590506123658161233f565b92915050565b6000819050919050565b61237e8161236b565b811461238957600080fd5b50565b60008135905061239b81612375565b92915050565b6000806000606084860312156123ba576123b9612308565b5b60006123c886828701612356565b93505060206123d986828701612356565b92505060406123ea8682870161238c565b9150509250925092565b6123fd8161236b565b82525050565b60008115159050919050565b61241881612403565b82525050565b6124278161232d565b82525050565b600060808201905061244260008301876123f4565b61244f60208301866123f4565b61245c604083018561240f565b612469606083018461241e565b95945050505050565b60006020828403121561248857612487612308565b5b600061249684828501612356565b91505092915050565b60006020820190506124b460008301846123f4565b92915050565b600060c0820190506124cf60008301896123f4565b6124dc60208301886123f4565b6124e9604083018761241e565b6124f660608301866123f4565b61250360808301856123f4565b61251060a08301846123f4565b979650505050505050565b6000806040838503121561253257612531612308565b5b600061254085828601612356565b92505060206125518582860161238c565b9150509250929050565b6000602082019050612570600083018461241e565b92915050565b60008060008060008060c0878903121561259357612592612308565b5b60006125a189828a01612356565b96505060206125b289828a01612356565b95505060406125c389828a01612356565b94505060606125d489828a0161238c565b93505060806125e589828a0161238c565b92505060a06125f689828a01612356565b9150509295509295509295565b6000806040838503121561261a57612619612308565b5b600061262885828601612356565b925050602061263985828601612356565b9150509250929050565b6000602082019050612658600083018461240f565b92915050565b7f4e487b7100000000000000000000000000000000000000000000000000000000600052601160045260246000fd5b60006126988261236b565b91506126a38361236b565b9250827fffffffffffffffffffffffffffffffffffffffffffffffffffffffffffffffff038211156126d8576126d761265e565b5b828201905092915050565b60006126ee8261236b565b91506126f98361236b565b92508282101561270c5761270b61265e565b5b828203905092915050565b600082825260208201905092915050565b7f636865636b20746865206d6f6e74680000000000000000000000000000000000600082015250565b600061275e600f83612717565b915061276982612728565b602082019050919050565b6000602082019050818103600083015261278d81612751565b9050919050565b60006040820190506127a9600083018561241e565b6127b660208301846123f4565b9392505050565b6127c681612403565b81146127d157600080fd5b50565b6000815190506127e3816127bd565b92915050565b6000602082840312156127ff576127fe612308565b5b600061280d848285016127d4565b91505092915050565b600060608201905061282b600083018661241e565b612838602083018561241e565b61284560408301846123f4565b949350505050565b60006128588261236b565b91507fffffffffffffffffffffffffffffffffffffffffffffffffffffffffffffffff82141561288b5761288a61265e565b5b600182019050919050565b60006128a18261236b565b91506128ac8361236b565b9250817fffffffffffffffffffffffffffffffffffffffffffffffffffffffffffffffff04831182151516156128e5576128e461265e565b5b828202905092915050565b7f77726f6e67206d6f6e7468000000000000000000000000000000000000000000600082015250565b6000612926600b83612717565b9150612931826128f0565b602082019050919050565b6000602082019050818103600083015261295581612919565b9050919050565b7f4e487b7100000000000000000000000000000000000000000000000000000000600052601260045260246000fd5b60006129968261236b565b91506129a18361236b565b9250826129b1576129b061295c565b5b82820490509291505056fea2646970667358221220bbbb7c54caca9fc44be41735da488859cc4e2a2c8618cfe6c41e6dcb7c499c6764736f6c63430008090033",
  "linkReferences": {},
  "deployedLinkReferences": {}
}