{
  "_format": "hh-sol-artifact-1",
  "contractName": "Timelock",
  "sourceName": "contracts/timelock.sol",
  "abi": [
    {
      "inputs": [
        {
          "internalType": "uint256",
          "name": "_delay",
          "type": "uint256"
        },
        {
          "internalType": "address",
          "name": "_admin",
          "type": "address"
        }
      ],
      "stateMutability": "nonpayable",
      "type": "constructor"
    },
    {
      "inputs": [],
      "name": "GRACE_PERIOD",
      "outputs": [
        {
          "internalType": "uint256",
          "name": "",
          "type": "uint256"
        }
      ],
      "stateMutability": "view",
      "type": "function"
    },
    {
      "inputs": [],
      "name": "MAXIMUM_DELAY",
      "outputs": [
        {
          "internalType": "uint256",
          "name": "",
          "type": "uint256"
        }
      ],
      "stateMutability": "view",
      "type": "function"
    },
    {
      "inputs": [],
      "name": "MINIMUM_DELAY",
      "outputs": [
        {
          "internalType": "uint256",
          "name": "",
          "type": "uint256"
        }
      ],
      "stateMutability": "view",
      "type": "function"
    },
    {
      "inputs": [
        {
          "internalType": "bytes",
          "name": "_callData",
          "type": "bytes"
        }
      ],
      "name": "cancelTransaction",
      "outputs": [
        {
          "internalType": "bool",
          "name": "",
          "type": "bool"
        }
      ],
      "stateMutability": "nonpayable",
      "type": "function"
    },
    {
      "inputs": [
        {
          "internalType": "bytes",
          "name": "_callData",
          "type": "bytes"
        },
        {
          "internalType": "uint256",
          "name": "etc",
          "type": "uint256"
        }
      ],
      "name": "executeTransaction",
      "outputs": [
        {
          "internalType": "bool",
          "name": "",
          "type": "bool"
        }
      ],
      "stateMutability": "nonpayable",
      "type": "function"
    },
    {
      "inputs": [
        {
          "internalType": "bytes",
          "name": "_callData",
          "type": "bytes"
        }
      ],
      "name": "getHash",
      "outputs": [
        {
          "internalType": "bytes32",
          "name": "",
          "type": "bytes32"
        }
      ],
      "stateMutability": "pure",
      "type": "function"
    },
    {
      "inputs": [
        {
          "internalType": "bytes",
          "name": "_callData",
          "type": "bytes"
        }
      ],
      "name": "getTransaction",
      "outputs": [
        {
          "components": [
            {
              "internalType": "bool",
              "name": "status",
              "type": "bool"
            },
            {
              "internalType": "bool",
              "name": "canceled",
              "type": "bool"
            },
            {
              "internalType": "uint256",
              "name": "blockTime",
              "type": "uint256"
            }
          ],
          "internalType": "struct Timelock.StableState",
          "name": "",
          "type": "tuple"
        }
      ],
      "stateMutability": "view",
      "type": "function"
    },
    {
      "inputs": [
        {
          "internalType": "bytes",
          "name": "_callData",
          "type": "bytes"
        },
        {
          "internalType": "uint256",
          "name": "_blockTime",
          "type": "uint256"
        }
      ],
      "name": "queueTransaction",
      "outputs": [],
      "stateMutability": "nonpayable",
      "type": "function"
    },
    {
      "inputs": [
        {
          "internalType": "uint256",
          "name": "_delay",
          "type": "uint256"
        }
      ],
      "name": "setDelay",
      "outputs": [],
      "stateMutability": "nonpayable",
      "type": "function"
    }
  ],
  "bytecode": "0x60806040523480156200001157600080fd5b5060405162000fa838038062000fa88339818101604052810190620000379190620001b9565b600a82116200007d576040517f08c379a0000000000000000000000000000000000000000000000000000000008152600401620000749062000287565b60405180910390fd5b62278d008210620000c5576040517f08c379a0000000000000000000000000000000000000000000000000000000008152600401620000bc906200031f565b60405180910390fd5b806000806101000a81548173ffffffffffffffffffffffffffffffffffffffff021916908373ffffffffffffffffffffffffffffffffffffffff16021790555081600281905550505062000341565b600080fd5b6000819050919050565b6200012e8162000119565b81146200013a57600080fd5b50565b6000815190506200014e8162000123565b92915050565b600073ffffffffffffffffffffffffffffffffffffffff82169050919050565b6000620001818262000154565b9050919050565b620001938162000174565b81146200019f57600080fd5b50565b600081519050620001b38162000188565b92915050565b60008060408385031215620001d357620001d262000114565b5b6000620001e3858286016200013d565b9250506020620001f685828601620001a2565b9150509250929050565b600082825260208201905092915050565b7f54696d656c6f636b203a2044656c6179206d757374206265206c6f6e6765722060008201527f7468616e203220646179732e0000000000000000000000000000000000000000602082015250565b60006200026f602c8362000200565b91506200027c8262000211565b604082019050919050565b60006020820190508181036000830152620002a28162000260565b9050919050565b7f54696d656c6f636b203a2044656c6179206d757374206265206c65737320746860008201527f616e20333020646179732e000000000000000000000000000000000000000000602082015250565b600062000307602b8362000200565b91506200031482620002a9565b604082019050919050565b600060208201905081810360008301526200033a81620002f8565b9050919050565b610c5780620003516000396000f3fe608060405234801561001057600080fd5b50600436106100935760003560e01c8063b00140aa11610066578063b00140aa14610132578063b1b43ae514610162578063c1a287e214610180578063e177246e1461019e578063faa9e569146101ba57610093565b806311c90844146100985780632c4076b6146100c85780637d645fab146100e457806392e876cd14610102575b600080fd5b6100b260048036038101906100ad9190610778565b6101ea565b6040516100bf91906107dc565b60405180910390f35b6100e260048036038101906100dd919061082d565b6102bf565b005b6100ec610371565b6040516100f99190610898565b60405180910390f35b61011c6004803603810190610117919061082d565b610378565b60405161012991906107dc565b60405180910390f35b61014c60048036038101906101479190610778565b6104ba565b60405161015991906108cc565b60405180910390f35b61016a6104cb565b6040516101779190610898565b60405180910390f35b6101886104d0565b6040516101959190610898565b60405180910390f35b6101b860048036038101906101b391906108e7565b6104d7565b005b6101d460048036038101906101cf9190610778565b610569565b6040516101e19190610974565b60405180910390f35b60008060009054906101000a900473ffffffffffffffffffffffffffffffffffffffff1673ffffffffffffffffffffffffffffffffffffffff163373ffffffffffffffffffffffffffffffffffffffff161461027b576040517f08c379a0000000000000000000000000000000000000000000000000000000008152600401610272906109ec565b60405180910390fd5b600082805190602001209050600180600083815260200190815260200160002060000160016101000a81548160ff0219169083151502179055506001915050919050565b60008280519060200120905060006001600083815260200190815260200160002060010154141561036c576040518060600160405280600015158152602001600015158152602001838152506001600083815260200190815260200160002060008201518160000160006101000a81548160ff02191690831515021790555060208201518160000160016101000a81548160ff021916908315150217905550604082015181600101559050505b505050565b62278d0081565b60008060009054906101000a900473ffffffffffffffffffffffffffffffffffffffff1673ffffffffffffffffffffffffffffffffffffffff163373ffffffffffffffffffffffffffffffffffffffff1614610409576040517f08c379a0000000000000000000000000000000000000000000000000000000008152600401610400906109ec565b60405180910390fd5b60008380519060200120905061044060025460016000848152602001908152602001600020600101546105e390919063ffffffff16565b8311610481576040517f08c379a000000000000000000000000000000000000000000000000000000000815260040161047890610a58565b60405180910390fd5b600180600083815260200190815260200160002060000160006101000a81548160ff021916908315150217905550600191505092915050565b600081805190602001209050919050565b600a81565b6212750081565b600a811161051a576040517f08c379a000000000000000000000000000000000000000000000000000000000815260040161051190610aea565b60405180910390fd5b62278d00811061055f576040517f08c379a000000000000000000000000000000000000000000000000000000000815260040161055690610b7c565b60405180910390fd5b8060028190555050565b6105716105f9565b600082805190602001209050600160008281526020019081526020016000206040518060600160405290816000820160009054906101000a900460ff161515151581526020016000820160019054906101000a900460ff16151515158152602001600182015481525050915050919050565b600081836105f19190610bcb565b905092915050565b6040518060600160405280600015158152602001600015158152602001600081525090565b6000604051905090565b600080fd5b600080fd5b600080fd5b600080fd5b6000601f19601f8301169050919050565b7f4e487b7100000000000000000000000000000000000000000000000000000000600052604160045260246000fd5b6106858261063c565b810181811067ffffffffffffffff821117156106a4576106a361064d565b5b80604052505050565b60006106b761061e565b90506106c3828261067c565b919050565b600067ffffffffffffffff8211156106e3576106e261064d565b5b6106ec8261063c565b9050602081019050919050565b82818337600083830152505050565b600061071b610716846106c8565b6106ad565b90508281526020810184848401111561073757610736610637565b5b6107428482856106f9565b509392505050565b600082601f83011261075f5761075e610632565b5b813561076f848260208601610708565b91505092915050565b60006020828403121561078e5761078d610628565b5b600082013567ffffffffffffffff8111156107ac576107ab61062d565b5b6107b88482850161074a565b91505092915050565b60008115159050919050565b6107d6816107c1565b82525050565b60006020820190506107f160008301846107cd565b92915050565b6000819050919050565b61080a816107f7565b811461081557600080fd5b50565b60008135905061082781610801565b92915050565b6000806040838503121561084457610843610628565b5b600083013567ffffffffffffffff8111156108625761086161062d565b5b61086e8582860161074a565b925050602061087f85828601610818565b9150509250929050565b610892816107f7565b82525050565b60006020820190506108ad6000830184610889565b92915050565b6000819050919050565b6108c6816108b3565b82525050565b60006020820190506108e160008301846108bd565b92915050565b6000602082840312156108fd576108fc610628565b5b600061090b84828501610818565b91505092915050565b61091d816107c1565b82525050565b61092c816107f7565b82525050565b6060820160008201516109486000850182610914565b50602082015161095b6020850182610914565b50604082015161096e6040850182610923565b50505050565b60006060820190506109896000830184610932565b92915050565b600082825260208201905092915050565b7f54696d656c6f636b203a20206f6e6c79206f776e657200000000000000000000600082015250565b60006109d660168361098f565b91506109e1826109a0565b602082019050919050565b60006020820190508181036000830152610a05816109c9565b9050919050565b7f54696d656c6f636b203a206e6f2074696d696e67000000000000000000000000600082015250565b6000610a4260148361098f565b9150610a4d82610a0c565b602082019050919050565b60006020820190508181036000830152610a7181610a35565b9050919050565b7f54696d656c6f636b203a2044656c6179206d757374206265206c6f6e6765722060008201527f7468616e203220646179732e0000000000000000000000000000000000000000602082015250565b6000610ad4602c8361098f565b9150610adf82610a78565b604082019050919050565b60006020820190508181036000830152610b0381610ac7565b9050919050565b7f54696d656c6f636b203a2044656c6179206d757374206265206c65737320746860008201527f616e20333020646179732e000000000000000000000000000000000000000000602082015250565b6000610b66602b8361098f565b9150610b7182610b0a565b604082019050919050565b60006020820190508181036000830152610b9581610b59565b9050919050565b7f4e487b7100000000000000000000000000000000000000000000000000000000600052601160045260246000fd5b6000610bd6826107f7565b9150610be1836107f7565b9250827fffffffffffffffffffffffffffffffffffffffffffffffffffffffffffffffff03821115610c1657610c15610b9c565b5b82820190509291505056fea26469706673582212208e9a821a23ff1df272454ef33bdfec340033662531c0800af308c71590948c7c64736f6c63430008090033",
  "linkReferences": {},
  "deployedLinkReferences": {}
}