{
  "_format": "hh-sol-artifact-1",
  "contractName": "Timelock",
  "sourceName": "contracts/timelock.sol",
  "abi": [
    {
      "inputs": [
        {
          "internalType": "uint256",
          "name": "_delay",
          "type": "uint256"
        },
        {
          "internalType": "address",
          "name": "_admin",
          "type": "address"
        }
      ],
      "stateMutability": "nonpayable",
      "type": "constructor"
    },
    {
      "inputs": [],
      "name": "GRACE_PERIOD",
      "outputs": [
        {
          "internalType": "uint256",
          "name": "",
          "type": "uint256"
        }
      ],
      "stateMutability": "view",
      "type": "function"
    },
    {
      "inputs": [],
      "name": "MAXIMUM_DELAY",
      "outputs": [
        {
          "internalType": "uint256",
          "name": "",
          "type": "uint256"
        }
      ],
      "stateMutability": "view",
      "type": "function"
    },
    {
      "inputs": [],
      "name": "MINIMUM_DELAY",
      "outputs": [
        {
          "internalType": "uint256",
          "name": "",
          "type": "uint256"
        }
      ],
      "stateMutability": "view",
      "type": "function"
    },
    {
      "inputs": [
        {
          "internalType": "bytes",
          "name": "_callFunction",
          "type": "bytes"
        }
      ],
      "name": "cancelTransaction",
      "outputs": [
        {
          "internalType": "bool",
          "name": "",
          "type": "bool"
        }
      ],
      "stateMutability": "nonpayable",
      "type": "function"
    },
    {
      "inputs": [
        {
          "internalType": "bytes",
          "name": "funcName",
          "type": "bytes"
        }
      ],
      "name": "closePropose",
      "outputs": [
        {
          "internalType": "bool",
          "name": "",
          "type": "bool"
        }
      ],
      "stateMutability": "nonpayable",
      "type": "function"
    },
    {
      "inputs": [
        {
          "internalType": "bytes",
          "name": "_callFunction",
          "type": "bytes"
        },
        {
          "internalType": "uint256",
          "name": "etc",
          "type": "uint256"
        }
      ],
      "name": "executeTransaction",
      "outputs": [
        {
          "internalType": "bool",
          "name": "",
          "type": "bool"
        }
      ],
      "stateMutability": "nonpayable",
      "type": "function"
    },
    {
      "inputs": [
        {
          "internalType": "bytes",
          "name": "_callFunction",
          "type": "bytes"
        }
      ],
      "name": "getHash",
      "outputs": [
        {
          "internalType": "bytes32",
          "name": "",
          "type": "bytes32"
        }
      ],
      "stateMutability": "pure",
      "type": "function"
    },
    {
      "inputs": [
        {
          "internalType": "bytes",
          "name": "_callFunction",
          "type": "bytes"
        }
      ],
      "name": "getTransaction",
      "outputs": [
        {
          "components": [
            {
              "internalType": "bool",
              "name": "status",
              "type": "bool"
            },
            {
              "internalType": "bool",
              "name": "canceled",
              "type": "bool"
            },
            {
              "internalType": "uint256",
              "name": "blockTime",
              "type": "uint256"
            },
            {
              "internalType": "bool",
              "name": "close",
              "type": "bool"
            }
          ],
          "internalType": "struct Timelock.StableState",
          "name": "",
          "type": "tuple"
        }
      ],
      "stateMutability": "view",
      "type": "function"
    },
    {
      "inputs": [
        {
          "internalType": "bytes",
          "name": "_callFunction",
          "type": "bytes"
        },
        {
          "internalType": "uint256",
          "name": "_blockTime",
          "type": "uint256"
        }
      ],
      "name": "queueTransaction",
      "outputs": [],
      "stateMutability": "nonpayable",
      "type": "function"
    },
    {
      "inputs": [
        {
          "internalType": "uint256",
          "name": "_delay",
          "type": "uint256"
        }
      ],
      "name": "setDelay",
      "outputs": [],
      "stateMutability": "nonpayable",
      "type": "function"
    }
  ],
  "bytecode": "0x60806040523480156200001157600080fd5b5060405162001083380380620010838339818101604052810190620000379190620001b9565b600a82116200007d576040517f08c379a0000000000000000000000000000000000000000000000000000000008152600401620000749062000287565b60405180910390fd5b62278d008210620000c5576040517f08c379a0000000000000000000000000000000000000000000000000000000008152600401620000bc906200031f565b60405180910390fd5b806000806101000a81548173ffffffffffffffffffffffffffffffffffffffff021916908373ffffffffffffffffffffffffffffffffffffffff16021790555081600281905550505062000341565b600080fd5b6000819050919050565b6200012e8162000119565b81146200013a57600080fd5b50565b6000815190506200014e8162000123565b92915050565b600073ffffffffffffffffffffffffffffffffffffffff82169050919050565b6000620001818262000154565b9050919050565b620001938162000174565b81146200019f57600080fd5b50565b600081519050620001b38162000188565b92915050565b60008060408385031215620001d357620001d262000114565b5b6000620001e3858286016200013d565b9250506020620001f685828601620001a2565b9150509250929050565b600082825260208201905092915050565b7f54696d656c6f636b203a2044656c6179206d757374206265206c6f6e6765722060008201527f7468616e203220646179732e0000000000000000000000000000000000000000602082015250565b60006200026f602c8362000200565b91506200027c8262000211565b604082019050919050565b60006020820190508181036000830152620002a28162000260565b9050919050565b7f54696d656c6f636b203a2044656c6179206d757374206265206c65737320746860008201527f616e20333020646179732e000000000000000000000000000000000000000000602082015250565b600062000307602b8362000200565b91506200031482620002a9565b604082019050919050565b600060208201905081810360008301526200033a81620002f8565b9050919050565b610d3280620003516000396000f3fe608060405234801561001057600080fd5b506004361061009e5760003560e01c8063b00140aa11610066578063b00140aa1461016d578063b1b43ae51461019d578063c1a287e2146101bb578063e177246e146101d9578063faa9e569146101f55761009e565b806311c90844146100a35780632c4076b6146100d3578063589dad3e146100ef5780637d645fab1461011f57806392e876cd1461013d575b600080fd5b6100bd60048036038101906100b89190610840565b610225565b6040516100ca91906108a4565b60405180910390f35b6100ed60048036038101906100e891906108f5565b6102fa565b005b61010960048036038101906101049190610840565b6103d5565b60405161011691906108a4565b60405180910390f35b610127610415565b6040516101349190610960565b60405180910390f35b610157600480360381019061015291906108f5565b61041c565b60405161016491906108a4565b60405180910390f35b61018760048036038101906101829190610840565b61055e565b6040516101949190610994565b60405180910390f35b6101a561056f565b6040516101b29190610960565b60405180910390f35b6101c3610574565b6040516101d09190610960565b60405180910390f35b6101f360048036038101906101ee91906109af565b61057b565b005b61020f600480360381019061020a9190610840565b61060d565b60405161021c9190610a4f565b60405180910390f35b60008060009054906101000a900473ffffffffffffffffffffffffffffffffffffffff1673ffffffffffffffffffffffffffffffffffffffff163373ffffffffffffffffffffffffffffffffffffffff16146102b6576040517f08c379a00000000000000000000000000000000000000000000000000000000081526004016102ad90610ac7565b60405180910390fd5b600082805190602001209050600180600083815260200190815260200160002060000160016101000a81548160ff0219169083151502179055506001915050919050565b6000828051906020012090506000600160008381526020019081526020016000206001015414156103d0576040518060800160405280600015158152602001600015158152602001838152602001600015158152506001600083815260200190815260200160002060008201518160000160006101000a81548160ff02191690831515021790555060208201518160000160016101000a81548160ff0219169083151502179055506040820151816001015560608201518160020160006101000a81548160ff0219169083151502179055509050505b505050565b600060018060008480519060200120815260200190815260200160002060020160006101000a81548160ff02191690831515021790555060019050919050565b62278d0081565b60008060009054906101000a900473ffffffffffffffffffffffffffffffffffffffff1673ffffffffffffffffffffffffffffffffffffffff163373ffffffffffffffffffffffffffffffffffffffff16146104ad576040517f08c379a00000000000000000000000000000000000000000000000000000000081526004016104a490610ac7565b60405180910390fd5b6000838051906020012090506104e460025460016000848152602001908152602001600020600101546106a290919063ffffffff16565b8311610525576040517f08c379a000000000000000000000000000000000000000000000000000000000815260040161051c90610b33565b60405180910390fd5b600180600083815260200190815260200160002060000160006101000a81548160ff021916908315150217905550600191505092915050565b600081805190602001209050919050565b600a81565b6212750081565b600a81116105be576040517f08c379a00000000000000000000000000000000000000000000000000000000081526004016105b590610bc5565b60405180910390fd5b62278d008110610603576040517f08c379a00000000000000000000000000000000000000000000000000000000081526004016105fa90610c57565b60405180910390fd5b8060028190555050565b6106156106b8565b600082805190602001209050600160008281526020019081526020016000206040518060800160405290816000820160009054906101000a900460ff161515151581526020016000820160019054906101000a900460ff16151515158152602001600182015481526020016002820160009054906101000a900460ff161515151581525050915050919050565b600081836106b09190610ca6565b905092915050565b6040518060800160405280600015158152602001600015158152602001600081526020016000151581525090565b6000604051905090565b600080fd5b600080fd5b600080fd5b600080fd5b6000601f19601f8301169050919050565b7f4e487b7100000000000000000000000000000000000000000000000000000000600052604160045260246000fd5b61074d82610704565b810181811067ffffffffffffffff8211171561076c5761076b610715565b5b80604052505050565b600061077f6106e6565b905061078b8282610744565b919050565b600067ffffffffffffffff8211156107ab576107aa610715565b5b6107b482610704565b9050602081019050919050565b82818337600083830152505050565b60006107e36107de84610790565b610775565b9050828152602081018484840111156107ff576107fe6106ff565b5b61080a8482856107c1565b509392505050565b600082601f830112610827576108266106fa565b5b81356108378482602086016107d0565b91505092915050565b600060208284031215610856576108556106f0565b5b600082013567ffffffffffffffff811115610874576108736106f5565b5b61088084828501610812565b91505092915050565b60008115159050919050565b61089e81610889565b82525050565b60006020820190506108b96000830184610895565b92915050565b6000819050919050565b6108d2816108bf565b81146108dd57600080fd5b50565b6000813590506108ef816108c9565b92915050565b6000806040838503121561090c5761090b6106f0565b5b600083013567ffffffffffffffff81111561092a576109296106f5565b5b61093685828601610812565b9250506020610947858286016108e0565b9150509250929050565b61095a816108bf565b82525050565b60006020820190506109756000830184610951565b92915050565b6000819050919050565b61098e8161097b565b82525050565b60006020820190506109a96000830184610985565b92915050565b6000602082840312156109c5576109c46106f0565b5b60006109d3848285016108e0565b91505092915050565b6109e581610889565b82525050565b6109f4816108bf565b82525050565b608082016000820151610a1060008501826109dc565b506020820151610a2360208501826109dc565b506040820151610a3660408501826109eb565b506060820151610a4960608501826109dc565b50505050565b6000608082019050610a6460008301846109fa565b92915050565b600082825260208201905092915050565b7f54696d656c6f636b203a20206f6e6c79206f776e657200000000000000000000600082015250565b6000610ab1601683610a6a565b9150610abc82610a7b565b602082019050919050565b60006020820190508181036000830152610ae081610aa4565b9050919050565b7f54696d656c6f636b203a206e6f2074696d696e67000000000000000000000000600082015250565b6000610b1d601483610a6a565b9150610b2882610ae7565b602082019050919050565b60006020820190508181036000830152610b4c81610b10565b9050919050565b7f54696d656c6f636b203a2044656c6179206d757374206265206c6f6e6765722060008201527f7468616e203220646179732e0000000000000000000000000000000000000000602082015250565b6000610baf602c83610a6a565b9150610bba82610b53565b604082019050919050565b60006020820190508181036000830152610bde81610ba2565b9050919050565b7f54696d656c6f636b203a2044656c6179206d757374206265206c65737320746860008201527f616e20333020646179732e000000000000000000000000000000000000000000602082015250565b6000610c41602b83610a6a565b9150610c4c82610be5565b604082019050919050565b60006020820190508181036000830152610c7081610c34565b9050919050565b7f4e487b7100000000000000000000000000000000000000000000000000000000600052601160045260246000fd5b6000610cb1826108bf565b9150610cbc836108bf565b9250827fffffffffffffffffffffffffffffffffffffffffffffffffffffffffffffffff03821115610cf157610cf0610c77565b5b82820190509291505056fea2646970667358221220b038515006e80cb175afda7696cf2c982658232adea31f59c8766de42241698664736f6c63430008090033",
  "linkReferences": {},
  "deployedLinkReferences": {}
}