{
  "_format": "hh-sol-artifact-1",
  "contractName": "TaxControl",
  "sourceName": "contracts/TaxControl.sol",
  "abi": [
    {
      "inputs": [],
      "stateMutability": "nonpayable",
      "type": "constructor"
    },
    {
      "inputs": [
        {
          "internalType": "address",
          "name": "_differLp",
          "type": "address"
        }
      ],
      "name": "accountsMake",
      "outputs": [],
      "stateMutability": "nonpayable",
      "type": "function"
    },
    {
      "inputs": [
        {
          "internalType": "address",
          "name": "_differLpToken",
          "type": "address"
        },
        {
          "internalType": "address",
          "name": "_ArbAddress",
          "type": "address"
        },
        {
          "internalType": "address",
          "name": "_UsdtAddress",
          "type": "address"
        },
        {
          "internalType": "address",
          "name": "_EthAddress",
          "type": "address"
        }
      ],
      "name": "claimFee",
      "outputs": [],
      "stateMutability": "nonpayable",
      "type": "function"
    },
    {
      "inputs": [
        {
          "internalType": "uint256",
          "name": "number",
          "type": "uint256"
        }
      ],
      "name": "getDigitCount",
      "outputs": [
        {
          "internalType": "uint256",
          "name": "",
          "type": "uint256"
        }
      ],
      "stateMutability": "pure",
      "type": "function"
    }
  ],
  "bytecode": "0x608060405234801561001057600080fd5b50611f36806100206000396000f3fe608060405234801561001057600080fd5b50600436106100415760003560e01c8063575a3028146100465780639e493d2d14610062578063e319be0a1461007e575b600080fd5b610060600480360381019061005b9190611682565b6100ae565b005b61007c600480360381019061007791906116af565b61040f565b005b6100986004803603810190610093919061174c565b610c2f565b6040516100a59190611788565b60405180910390f35b60008173ffffffffffffffffffffffffffffffffffffffff166306fdde036040518163ffffffff1660e01b815260040160006040518083038186803b1580156100f657600080fd5b505afa15801561010a573d6000803e3d6000fd5b505050506040513d6000823e3d601f19601f82011682018060405250810190610133919061190d565b9050610174816040518060400160405280600581526020017f4554484c50000000000000000000000000000000000000000000000000000000815250610c86565b15610228578173ffffffffffffffffffffffffffffffffffffffff16638a48ac036040518163ffffffff1660e01b815260040160006040518083038186803b1580156101bf57600080fd5b505afa1580156101d3573d6000803e3d6000fd5b505050506040513d6000823e3d601f19601f820116820180604052508101906101fc9190611a48565b60046000600560008491905055839190509080519060200190610220929190611569565b50505061040b565b610267816040518060400160405280600581526020017f4152424c50000000000000000000000000000000000000000000000000000000815250610c86565b1561031a578173ffffffffffffffffffffffffffffffffffffffff16638a48ac036040518163ffffffff1660e01b815260040160006040518083038186803b1580156102b257600080fd5b505afa1580156102c6573d6000803e3d6000fd5b505050506040513d6000823e3d601f19601f820116820180604052508101906102ef9190611a48565b600080600160008491905055839190509080519060200190610312929190611569565b50505061040a565b610359816040518060400160405280600681526020017f555344544c500000000000000000000000000000000000000000000000000000815250610c86565b15610409578173ffffffffffffffffffffffffffffffffffffffff16638a48ac036040518163ffffffff1660e01b815260040160006040518083038186803b1580156103a457600080fd5b505afa1580156103b8573d6000803e3d6000fd5b505050506040513d6000823e3d601f19601f820116820180604052508101906103e19190611a48565b60026000600360008491905055839190509080519060200190610405929190611569565b5050505b5b5b5050565b61041884610ca1565b60008473ffffffffffffffffffffffffffffffffffffffff166306fdde036040518163ffffffff1660e01b815260040160006040518083038186803b15801561046057600080fd5b505afa158015610474573d6000803e3d6000fd5b505050506040513d6000823e3d601f19601f8201168201806040525081019061049d919061190d565b90506104de816040518060400160405280600581526020017f4554484c50000000000000000000000000000000000000000000000000000000815250610c86565b156107235760008273ffffffffffffffffffffffffffffffffffffffff166370a08231306040518263ffffffff1660e01b815260040161051e9190611ab3565b60206040518083038186803b15801561053657600080fd5b505afa15801561054a573d6000803e3d6000fd5b505050506040513d601f19601f8201168201806040525081019061056e9190611ace565b905060005b60055481101561071c5760006004828154811061059357610592611afb565b5b9060005260206000200160009054906101000a900473ffffffffffffffffffffffffffffffffffffffff1690506000600860008373ffffffffffffffffffffffffffffffffffffffff1673ffffffffffffffffffffffffffffffffffffffff1681526020019081526020016000206000015490506000600860008473ffffffffffffffffffffffffffffffffffffffff1673ffffffffffffffffffffffffffffffffffffffff168152602001908152602001600020600101549050600081600a61065d9190611c8c565b83876106699190611cd7565b6106739190611d60565b90508773ffffffffffffffffffffffffffffffffffffffff166323b872dd3086846040518463ffffffff1660e01b81526004016106b293929190611d91565b602060405180830381600087803b1580156106cc57600080fd5b505af11580156106e0573d6000803e3d6000fd5b505050506040513d601f19601f820116820180604052508101906107049190611e00565b5050505050808061071490611e2d565b915050610573565b5050610c28565b610762816040518060400160405280600581526020017f4152424c50000000000000000000000000000000000000000000000000000000815250610c86565b156109a65760008473ffffffffffffffffffffffffffffffffffffffff166370a08231306040518263ffffffff1660e01b81526004016107a29190611ab3565b60206040518083038186803b1580156107ba57600080fd5b505afa1580156107ce573d6000803e3d6000fd5b505050506040513d601f19601f820116820180604052508101906107f29190611ace565b905060005b60015481101561099f57600080828154811061081657610815611afb565b5b9060005260206000200160009054906101000a900473ffffffffffffffffffffffffffffffffffffffff1690506000600660008373ffffffffffffffffffffffffffffffffffffffff1673ffffffffffffffffffffffffffffffffffffffff1681526020019081526020016000206000015490506000600660008473ffffffffffffffffffffffffffffffffffffffff1673ffffffffffffffffffffffffffffffffffffffff168152602001908152602001600020600101549050600081600a6108e09190611c8c565b83876108ec9190611cd7565b6108f69190611d60565b90508973ffffffffffffffffffffffffffffffffffffffff166323b872dd3086846040518463ffffffff1660e01b815260040161093593929190611d91565b602060405180830381600087803b15801561094f57600080fd5b505af1158015610963573d6000803e3d6000fd5b505050506040513d601f19601f820116820180604052508101906109879190611e00565b5050505050808061099790611e2d565b9150506107f7565b5050610c27565b6109e5816040518060400160405280600681526020017f555344544c500000000000000000000000000000000000000000000000000000815250610c86565b15610c265760008373ffffffffffffffffffffffffffffffffffffffff166370a08231306040518263ffffffff1660e01b8152600401610a259190611ab3565b60206040518083038186803b158015610a3d57600080fd5b505afa158015610a51573d6000803e3d6000fd5b505050506040513d601f19601f82011682018060405250810190610a759190611ace565b905060005b600354811015610c2357600060028281548110610a9a57610a99611afb565b5b9060005260206000200160009054906101000a900473ffffffffffffffffffffffffffffffffffffffff1690506000600760008373ffffffffffffffffffffffffffffffffffffffff1673ffffffffffffffffffffffffffffffffffffffff1681526020019081526020016000206000015490506000600760008473ffffffffffffffffffffffffffffffffffffffff1673ffffffffffffffffffffffffffffffffffffffff168152602001908152602001600020600101549050600081600a610b649190611c8c565b8387610b709190611cd7565b610b7a9190611d60565b90508873ffffffffffffffffffffffffffffffffffffffff166323b872dd3086846040518463ffffffff1660e01b8152600401610bb993929190611d91565b602060405180830381600087803b158015610bd357600080fd5b505af1158015610be7573d6000803e3d6000fd5b505050506040513d601f19601f82011682018060405250810190610c0b9190611e00565b50505050508080610c1b90611e2d565b915050610a7a565b50505b5b5b5050505050565b600080821415610c425760019050610c81565b60005b6000831115610c70578080610c5990611e2d565b915050600a83610c699190611d60565b9250610c45565b600181610c7d9190611e76565b9150505b919050565b60008180519060200120838051906020012014905092915050565b60008173ffffffffffffffffffffffffffffffffffffffff166306fdde036040518163ffffffff1660e01b815260040160006040518083038186803b158015610ce957600080fd5b505afa158015610cfd573d6000803e3d6000fd5b505050506040513d6000823e3d601f19601f82011682018060405250810190610d26919061190d565b9050610d67816040518060400160405280600581526020017f4554484c50000000000000000000000000000000000000000000000000000000815250610c86565b15610fe85760008273ffffffffffffffffffffffffffffffffffffffff166318160ddd6040518163ffffffff1660e01b815260040160206040518083038186803b158015610db457600080fd5b505afa158015610dc8573d6000803e3d6000fd5b505050506040513d601f19601f82011682018060405250810190610dec9190611ace565b905060005b600554811015610fe157600060048281548110610e1157610e10611afb565b5b9060005260206000200160009054906101000a900473ffffffffffffffffffffffffffffffffffffffff16905060008573ffffffffffffffffffffffffffffffffffffffff166370a08231836040518263ffffffff1660e01b8152600401610e799190611ab3565b60206040518083038186803b158015610e9157600080fd5b505afa158015610ea5573d6000803e3d6000fd5b505050506040513d601f19601f82011682018060405250810190610ec99190611ace565b90506000610ed682610c2f565b90506000610ee386610c2f565b9050600060028383610ef59190611e76565b610eff9190611eaa565b905060008782600a610f119190611c8c565b86610f1c9190611cd7565b610f269190611d60565b905080600860008873ffffffffffffffffffffffffffffffffffffffff1673ffffffffffffffffffffffffffffffffffffffff1681526020019081526020016000206000016000828254610f7a9190611eaa565b9250508190555081600860008873ffffffffffffffffffffffffffffffffffffffff1673ffffffffffffffffffffffffffffffffffffffff168152602001908152602001600020600101819055505050505050508080610fd990611e2d565b915050610df1565b5050611565565b611027816040518060400160405280600581526020017f4152424c50000000000000000000000000000000000000000000000000000000815250610c86565b156112a75760008273ffffffffffffffffffffffffffffffffffffffff166318160ddd6040518163ffffffff1660e01b815260040160206040518083038186803b15801561107457600080fd5b505afa158015611088573d6000803e3d6000fd5b505050506040513d601f19601f820116820180604052508101906110ac9190611ace565b905060005b6001548110156112a05760008082815481106110d0576110cf611afb565b5b9060005260206000200160009054906101000a900473ffffffffffffffffffffffffffffffffffffffff16905060008573ffffffffffffffffffffffffffffffffffffffff166370a08231836040518263ffffffff1660e01b81526004016111389190611ab3565b60206040518083038186803b15801561115057600080fd5b505afa158015611164573d6000803e3d6000fd5b505050506040513d601f19601f820116820180604052508101906111889190611ace565b9050600061119582610c2f565b905060006111a286610c2f565b90506000600283836111b49190611e76565b6111be9190611eaa565b905060008782600a6111d09190611c8c565b866111db9190611cd7565b6111e59190611d60565b905080600660008873ffffffffffffffffffffffffffffffffffffffff1673ffffffffffffffffffffffffffffffffffffffff16815260200190815260200160002060000160008282546112399190611eaa565b9250508190555081600660008873ffffffffffffffffffffffffffffffffffffffff1673ffffffffffffffffffffffffffffffffffffffff16815260200190815260200160002060010181905550505050505050808061129890611e2d565b9150506110b1565b5050611564565b6112e6816040518060400160405280600681526020017f555344544c500000000000000000000000000000000000000000000000000000815250610c86565b156115635760008273ffffffffffffffffffffffffffffffffffffffff166318160ddd6040518163ffffffff1660e01b815260040160206040518083038186803b15801561133357600080fd5b505afa158015611347573d6000803e3d6000fd5b505050506040513d601f19601f8201168201806040525081019061136b9190611ace565b905060005b600354811015611560576000600282815481106113905761138f611afb565b5b9060005260206000200160009054906101000a900473ffffffffffffffffffffffffffffffffffffffff16905060008573ffffffffffffffffffffffffffffffffffffffff166370a08231836040518263ffffffff1660e01b81526004016113f89190611ab3565b60206040518083038186803b15801561141057600080fd5b505afa158015611424573d6000803e3d6000fd5b505050506040513d601f19601f820116820180604052508101906114489190611ace565b9050600061145582610c2f565b9050600061146286610c2f565b90506000600283836114749190611e76565b61147e9190611eaa565b905060008782600a6114909190611c8c565b8661149b9190611cd7565b6114a59190611d60565b905080600760008873ffffffffffffffffffffffffffffffffffffffff1673ffffffffffffffffffffffffffffffffffffffff16815260200190815260200160002060000160008282546114f99190611eaa565b9250508190555081600760008873ffffffffffffffffffffffffffffffffffffffff1673ffffffffffffffffffffffffffffffffffffffff16815260200190815260200160002060010181905550505050505050808061155890611e2d565b915050611370565b50505b5b5b5050565b8280548282559060005260206000209081019282156115e2579160200282015b828111156115e15782518260006101000a81548173ffffffffffffffffffffffffffffffffffffffff021916908373ffffffffffffffffffffffffffffffffffffffff16021790555091602001919060010190611589565b5b5090506115ef91906115f3565b5090565b5b8082111561160c5760008160009055506001016115f4565b5090565b6000604051905090565b600080fd5b600080fd5b600073ffffffffffffffffffffffffffffffffffffffff82169050919050565b600061164f82611624565b9050919050565b61165f81611644565b811461166a57600080fd5b50565b60008135905061167c81611656565b92915050565b6000602082840312156116985761169761161a565b5b60006116a68482850161166d565b91505092915050565b600080600080608085870312156116c9576116c861161a565b5b60006116d78782880161166d565b94505060206116e88782880161166d565b93505060406116f98782880161166d565b925050606061170a8782880161166d565b91505092959194509250565b6000819050919050565b61172981611716565b811461173457600080fd5b50565b60008135905061174681611720565b92915050565b6000602082840312156117625761176161161a565b5b600061177084828501611737565b91505092915050565b61178281611716565b82525050565b600060208201905061179d6000830184611779565b92915050565b600080fd5b600080fd5b6000601f19601f8301169050919050565b7f4e487b7100000000000000000000000000000000000000000000000000000000600052604160045260246000fd5b6117f6826117ad565b810181811067ffffffffffffffff82111715611815576118146117be565b5b80604052505050565b6000611828611610565b905061183482826117ed565b919050565b600067ffffffffffffffff821115611854576118536117be565b5b61185d826117ad565b9050602081019050919050565b60005b8381101561188857808201518184015260208101905061186d565b83811115611897576000848401525b50505050565b60006118b06118ab84611839565b61181e565b9050828152602081018484840111156118cc576118cb6117a8565b5b6118d784828561186a565b509392505050565b600082601f8301126118f4576118f36117a3565b5b815161190484826020860161189d565b91505092915050565b6000602082840312156119235761192261161a565b5b600082015167ffffffffffffffff8111156119415761194061161f565b5b61194d848285016118df565b91505092915050565b600067ffffffffffffffff821115611971576119706117be565b5b602082029050602081019050919050565b600080fd5b60008151905061199681611656565b92915050565b60006119af6119aa84611956565b61181e565b905080838252602082019050602084028301858111156119d2576119d1611982565b5b835b818110156119fb57806119e78882611987565b8452602084019350506020810190506119d4565b5050509392505050565b600082601f830112611a1a57611a196117a3565b5b8151611a2a84826020860161199c565b91505092915050565b600081519050611a4281611720565b92915050565b60008060408385031215611a5f57611a5e61161a565b5b600083015167ffffffffffffffff811115611a7d57611a7c61161f565b5b611a8985828601611a05565b9250506020611a9a85828601611a33565b9150509250929050565b611aad81611644565b82525050565b6000602082019050611ac86000830184611aa4565b92915050565b600060208284031215611ae457611ae361161a565b5b6000611af284828501611a33565b91505092915050565b7f4e487b7100000000000000000000000000000000000000000000000000000000600052603260045260246000fd5b7f4e487b7100000000000000000000000000000000000000000000000000000000600052601160045260246000fd5b60008160011c9050919050565b6000808291508390505b6001851115611bb057808604811115611b8c57611b8b611b2a565b5b6001851615611b9b5780820291505b8081029050611ba985611b59565b9450611b70565b94509492505050565b600082611bc95760019050611c85565b81611bd75760009050611c85565b8160018114611bed5760028114611bf757611c26565b6001915050611c85565b60ff841115611c0957611c08611b2a565b5b8360020a915084821115611c2057611c1f611b2a565b5b50611c85565b5060208310610133831016604e8410600b8410161715611c5b5782820a905083811115611c5657611c55611b2a565b5b611c85565b611c688484846001611b66565b92509050818404811115611c7f57611c7e611b2a565b5b81810290505b9392505050565b6000611c9782611716565b9150611ca283611716565b9250611ccf7fffffffffffffffffffffffffffffffffffffffffffffffffffffffffffffffff8484611bb9565b905092915050565b6000611ce282611716565b9150611ced83611716565b9250817fffffffffffffffffffffffffffffffffffffffffffffffffffffffffffffffff0483118215151615611d2657611d25611b2a565b5b828202905092915050565b7f4e487b7100000000000000000000000000000000000000000000000000000000600052601260045260246000fd5b6000611d6b82611716565b9150611d7683611716565b925082611d8657611d85611d31565b5b828204905092915050565b6000606082019050611da66000830186611aa4565b611db36020830185611aa4565b611dc06040830184611779565b949350505050565b60008115159050919050565b611ddd81611dc8565b8114611de857600080fd5b50565b600081519050611dfa81611dd4565b92915050565b600060208284031215611e1657611e1561161a565b5b6000611e2484828501611deb565b91505092915050565b6000611e3882611716565b91507fffffffffffffffffffffffffffffffffffffffffffffffffffffffffffffffff821415611e6b57611e6a611b2a565b5b600182019050919050565b6000611e8182611716565b9150611e8c83611716565b925082821015611e9f57611e9e611b2a565b5b828203905092915050565b6000611eb582611716565b9150611ec083611716565b9250827fffffffffffffffffffffffffffffffffffffffffffffffffffffffffffffffff03821115611ef557611ef4611b2a565b5b82820190509291505056fea2646970667358221220b1e7d9f300eb99db3c40492d8b048fd3e635505d27dc84f997fd958c041e20c664736f6c63430008090033",
  "linkReferences": {},
  "deployedLinkReferences": {}
}