{
  "_format": "hh-sol-artifact-1",
  "contractName": "Pair",
  "sourceName": "contracts/Pair.sol",
  "abi": [
    {
      "inputs": [],
      "stateMutability": "nonpayable",
      "type": "constructor"
    },
    {
      "inputs": [],
      "name": "ArbLpaddress",
      "outputs": [
        {
          "internalType": "address",
          "name": "",
          "type": "address"
        }
      ],
      "stateMutability": "view",
      "type": "function"
    },
    {
      "inputs": [],
      "name": "ETHtokenAddress",
      "outputs": [
        {
          "internalType": "address",
          "name": "",
          "type": "address"
        }
      ],
      "stateMutability": "view",
      "type": "function"
    },
    {
      "inputs": [],
      "name": "EthLpaddress",
      "outputs": [
        {
          "internalType": "address",
          "name": "",
          "type": "address"
        }
      ],
      "stateMutability": "view",
      "type": "function"
    },
    {
      "inputs": [
        {
          "internalType": "address",
          "name": "_lptoken",
          "type": "address"
        },
        {
          "internalType": "uint256",
          "name": "_level",
          "type": "uint256"
        }
      ],
      "name": "LptokenLvManagement",
      "outputs": [],
      "stateMutability": "nonpayable",
      "type": "function"
    },
    {
      "inputs": [],
      "name": "UsdtLpaddress",
      "outputs": [
        {
          "internalType": "address",
          "name": "",
          "type": "address"
        }
      ],
      "stateMutability": "view",
      "type": "function"
    },
    {
      "inputs": [],
      "name": "getLpAddress",
      "outputs": [
        {
          "internalType": "address",
          "name": "arblp",
          "type": "address"
        },
        {
          "internalType": "address",
          "name": "usdtlp",
          "type": "address"
        },
        {
          "internalType": "address",
          "name": "ethlp",
          "type": "address"
        }
      ],
      "stateMutability": "view",
      "type": "function"
    },
    {
      "inputs": [],
      "name": "getLpLv",
      "outputs": [
        {
          "internalType": "uint256",
          "name": "_ArbpoolLv",
          "type": "uint256"
        },
        {
          "internalType": "uint256",
          "name": "_ArbLpLv",
          "type": "uint256"
        },
        {
          "internalType": "uint256",
          "name": "_UsdtpoolLv",
          "type": "uint256"
        },
        {
          "internalType": "uint256",
          "name": "_UsdtLpLv",
          "type": "uint256"
        },
        {
          "internalType": "uint256",
          "name": "_EthpoolLv",
          "type": "uint256"
        },
        {
          "internalType": "uint256",
          "name": "_EthLpLv",
          "type": "uint256"
        }
      ],
      "stateMutability": "view",
      "type": "function"
    },
    {
      "inputs": [
        {
          "internalType": "address",
          "name": "_token1",
          "type": "address"
        },
        {
          "internalType": "address",
          "name": "_token2",
          "type": "address"
        },
        {
          "internalType": "address",
          "name": "_contractAddress",
          "type": "address"
        }
      ],
      "name": "makeLpPool",
      "outputs": [],
      "stateMutability": "nonpayable",
      "type": "function"
    },
    {
      "inputs": [],
      "name": "name1",
      "outputs": [
        {
          "internalType": "string",
          "name": "",
          "type": "string"
        }
      ],
      "stateMutability": "view",
      "type": "function"
    },
    {
      "inputs": [
        {
          "internalType": "address",
          "name": "",
          "type": "address"
        },
        {
          "internalType": "uint256",
          "name": "",
          "type": "uint256"
        }
      ],
      "name": "poolData",
      "outputs": [
        {
          "internalType": "address",
          "name": "token1",
          "type": "address"
        },
        {
          "internalType": "address",
          "name": "token2",
          "type": "address"
        }
      ],
      "stateMutability": "view",
      "type": "function"
    },
    {
      "inputs": [
        {
          "internalType": "uint256",
          "name": "",
          "type": "uint256"
        }
      ],
      "name": "poolDataNum",
      "outputs": [
        {
          "internalType": "uint256",
          "name": "",
          "type": "uint256"
        }
      ],
      "stateMutability": "view",
      "type": "function"
    },
    {
      "inputs": [],
      "name": "poolIndex",
      "outputs": [
        {
          "internalType": "uint256",
          "name": "",
          "type": "uint256"
        }
      ],
      "stateMutability": "view",
      "type": "function"
    },
    {
      "inputs": [
        {
          "internalType": "address",
          "name": "_lptoken",
          "type": "address"
        },
        {
          "internalType": "uint256",
          "name": "_level",
          "type": "uint256"
        }
      ],
      "name": "poolLvManagement",
      "outputs": [],
      "stateMutability": "nonpayable",
      "type": "function"
    }
  ],
  "bytecode": "0x608060405260016006556001600755600160085560016009556001600a556001600b5534801561002e57600080fd5b506141448061003e6000396000f3fe60806040523480156200001157600080fd5b5060043610620000e25760003560e01c80635ced16d21162000099578063c41a2e1f116200006f578063c41a2e1f1462000245578063d1e9a5fd1462000265578063eafaef511462000289578063ebcde5f314620002a957620000e2565b80635ced16d214620001c65780639a0b711814620001e8578063ab73bb17146200020f57620000e2565b80630b026fd414620000e757806310f227281462000107578063169f97ae146200013e5780633d1b719f146200016057806347c8efa714620001825780634ce272ee14620001a4575b600080fd5b620001056004803603810190620000ff919062001394565b620002cb565b005b6200012560048036038101906200011f91906200142b565b62000cbe565b6040516200013592919062001483565b60405180910390f35b6200014862000d2f565b604051620001579190620014b0565b60405180910390f35b6200016a62000d55565b604051620001799190620014b0565b60405180910390f35b6200018c62000d7b565b6040516200019b919062001571565b60405180910390f35b620001ae62000e11565b604051620001bd9190620015a6565b60405180910390f35b620001d062000e17565b604051620001df9190620014b0565b60405180910390f35b620001f262000e3d565b6040516200020696959493929190620015c3565b60405180910390f35b6200022d600480360381019062000227919062001630565b62000e6c565b6040516200023c9190620015a6565b60405180910390f35b6200026360048036038101906200025d91906200142b565b62000e91565b005b6200026f6200101a565b604051620002809392919062001662565b60405180910390f35b620002a76004803603810190620002a191906200142b565b62001093565b005b620002b36200121c565b604051620002c29190620014b0565b60405180910390f35b6000805b600f80549050811015620004f6576000600e60008573ffffffffffffffffffffffffffffffffffffffff1673ffffffffffffffffffffffffffffffffffffffff16815260200190815260200160002060008381526020019081526020016000206040518060400160405290816000820160009054906101000a900473ffffffffffffffffffffffffffffffffffffffff1673ffffffffffffffffffffffffffffffffffffffff1673ffffffffffffffffffffffffffffffffffffffff1681526020016001820160009054906101000a900473ffffffffffffffffffffffffffffffffffffffff1673ffffffffffffffffffffffffffffffffffffffff1673ffffffffffffffffffffffffffffffffffffffff168152505090508573ffffffffffffffffffffffffffffffffffffffff16816000015173ffffffffffffffffffffffffffffffffffffffff161480156200045757508473ffffffffffffffffffffffffffffffffffffffff16816020015173ffffffffffffffffffffffffffffffffffffffff16145b80620004ce57508473ffffffffffffffffffffffffffffffffffffffff16816000015173ffffffffffffffffffffffffffffffffffffffff16148015620004cd57508573ffffffffffffffffffffffffffffffffffffffff16816020015173ffffffffffffffffffffffffffffffffffffffff16145b5b15620004df576001925050620004f6565b508080620004ed90620016ce565b915050620002cf565b5080156200053b576040517f08c379a000000000000000000000000000000000000000000000000000000000815260040162000532906200176c565b60405180910390fd5b8062000cb857600060405180604001604052808673ffffffffffffffffffffffffffffffffffffffff1681526020018573ffffffffffffffffffffffffffffffffffffffff1681525090508473ffffffffffffffffffffffffffffffffffffffff166306fdde036040518163ffffffff1660e01b815260040160006040518083038186803b158015620005cd57600080fd5b505afa158015620005e2573d6000803e3d6000fd5b505050506040513d6000823e3d601f19601f820116820180604052508101906200060d9190620018d0565b600d9080519060200190620006249291906200125d565b5080600e60008573ffffffffffffffffffffffffffffffffffffffff1673ffffffffffffffffffffffffffffffffffffffff1681526020019081526020016000206000601054815260200190815260200160002060008201518160000160006101000a81548173ffffffffffffffffffffffffffffffffffffffff021916908373ffffffffffffffffffffffffffffffffffffffff16021790555060208201518160010160006101000a81548173ffffffffffffffffffffffffffffffffffffffff021916908373ffffffffffffffffffffffffffffffffffffffff160217905550905050600f601054908060018154018082558091505060019003906000526020600020016000909190919091505560016010600082825462000749919062001921565b9250508190555062000823600d80546200076390620019ad565b80601f01602080910402602001604051908101604052809291908181526020018280546200079190620019ad565b8015620007e25780601f10620007b657610100808354040283529160200191620007e2565b820191906000526020600020905b815481529060010190602001808311620007c457829003601f168201915b50505050506040518060400160405280600381526020017f415242000000000000000000000000000000000000000000000000000000000081525062001242565b1562000906576040516200083790620012ee565b620008429062001a83565b604051809103906000f0801580156200085f573d6000803e3d6000fd5b506000806101000a81548173ffffffffffffffffffffffffffffffffffffffff021916908373ffffffffffffffffffffffffffffffffffffffff16021790555060008054906101000a900473ffffffffffffffffffffffffffffffffffffffff16600360006101000a81548173ffffffffffffffffffffffffffffffffffffffff021916908373ffffffffffffffffffffffffffffffffffffffff16021790555062000cb6565b620009d9600d80546200091990620019ad565b80601f01602080910402602001604051908101604052809291908181526020018280546200094790620019ad565b8015620009985780601f106200096c5761010080835404028352916020019162000998565b820191906000526020600020905b8154815290600101906020018083116200097a57829003601f168201915b50505050506040518060400160405280600481526020017f555344540000000000000000000000000000000000000000000000000000000081525062001242565b1562000abf57604051620009ed90620012ee565b620009f89062001b0a565b604051809103906000f08015801562000a15573d6000803e3d6000fd5b50600160006101000a81548173ffffffffffffffffffffffffffffffffffffffff021916908373ffffffffffffffffffffffffffffffffffffffff160217905550600160009054906101000a900473ffffffffffffffffffffffffffffffffffffffff16600460006101000a81548173ffffffffffffffffffffffffffffffffffffffff021916908373ffffffffffffffffffffffffffffffffffffffff16021790555062000cb5565b62000b92600d805462000ad290620019ad565b80601f016020809104026020016040519081016040528092919081815260200182805462000b0090620019ad565b801562000b515780601f1062000b255761010080835404028352916020019162000b51565b820191906000526020600020905b81548152906001019060200180831162000b3357829003601f168201915b50505050506040518060400160405280600381526020017f455448000000000000000000000000000000000000000000000000000000000081525062001242565b1562000cb45760405162000ba690620012ee565b62000bb19062001b91565b604051809103906000f08015801562000bce573d6000803e3d6000fd5b50600260006101000a81548173ffffffffffffffffffffffffffffffffffffffff021916908373ffffffffffffffffffffffffffffffffffffffff160217905550600260009054906101000a900473ffffffffffffffffffffffffffffffffffffffff16600560006101000a81548173ffffffffffffffffffffffffffffffffffffffff021916908373ffffffffffffffffffffffffffffffffffffffff16021790555084600c60006101000a81548173ffffffffffffffffffffffffffffffffffffffff021916908373ffffffffffffffffffffffffffffffffffffffff1602179055505b5b5b505b50505050565b600e602052816000526040600020602052806000526040600020600091509150508060000160009054906101000a900473ffffffffffffffffffffffffffffffffffffffff16908060010160009054906101000a900473ffffffffffffffffffffffffffffffffffffffff16905082565b600560009054906101000a900473ffffffffffffffffffffffffffffffffffffffff1681565b600c60009054906101000a900473ffffffffffffffffffffffffffffffffffffffff1681565b600d805462000d8a90620019ad565b80601f016020809104026020016040519081016040528092919081815260200182805462000db890620019ad565b801562000e095780601f1062000ddd5761010080835404028352916020019162000e09565b820191906000526020600020905b81548152906001019060200180831162000deb57829003601f168201915b505050505081565b60105481565b600460009054906101000a900473ffffffffffffffffffffffffffffffffffffffff1681565b600080600080600080600654600954600754600a54600854600b54955095509550955095509550909192939495565b600f818154811062000e7d57600080fd5b906000526020600020016000915090505481565b60008273ffffffffffffffffffffffffffffffffffffffff166306fdde036040518163ffffffff1660e01b815260040160006040518083038186803b15801562000eda57600080fd5b505afa15801562000eef573d6000803e3d6000fd5b505050506040513d6000823e3d601f19601f8201168201806040525081019062000f1a9190620018d0565b905062000f5d816040518060400160405280600581526020017f4152424c5000000000000000000000000000000000000000000000000000000081525062001242565b1562000f70578160068190555062001015565b62000fb1816040518060400160405280600681526020017f555344544c50000000000000000000000000000000000000000000000000000081525062001242565b1562000fc4578160078190555062001014565b62001005816040518060400160405280600581526020017f4554484c5000000000000000000000000000000000000000000000000000000081525062001242565b156200101357816008819055505b5b5b505050565b6000806000600360009054906101000a900473ffffffffffffffffffffffffffffffffffffffff16600460009054906101000a900473ffffffffffffffffffffffffffffffffffffffff16600560009054906101000a900473ffffffffffffffffffffffffffffffffffffffff16925092509250909192565b60008273ffffffffffffffffffffffffffffffffffffffff166306fdde036040518163ffffffff1660e01b815260040160006040518083038186803b158015620010dc57600080fd5b505afa158015620010f1573d6000803e3d6000fd5b505050506040513d6000823e3d601f19601f820116820180604052508101906200111c9190620018d0565b90506200115f816040518060400160405280600581526020017f4152424c5000000000000000000000000000000000000000000000000000000081525062001242565b1562001172578160098190555062001217565b620011b3816040518060400160405280600681526020017f555344544c50000000000000000000000000000000000000000000000000000081525062001242565b15620011c65781600a8190555062001216565b62001207816040518060400160405280600581526020017f4554484c5000000000000000000000000000000000000000000000000000000081525062001242565b15620012155781600b819055505b5b5b505050565b600360009054906101000a900473ffffffffffffffffffffffffffffffffffffffff1681565b60008180519060200120838051906020012014905092915050565b8280546200126b90620019ad565b90600052602060002090601f0160209004810192826200128f5760008555620012db565b82601f10620012aa57805160ff1916838001178555620012db565b82800160010185558215620012db579182015b82811115620012da578251825591602001919060010190620012bd565b5b509050620012ea9190620012fc565b5090565b6125468062001bc983390190565b5b8082111562001317576000816000905550600101620012fd565b5090565b6000604051905090565b600080fd5b600080fd5b600073ffffffffffffffffffffffffffffffffffffffff82169050919050565b60006200135c826200132f565b9050919050565b6200136e816200134f565b81146200137a57600080fd5b50565b6000813590506200138e8162001363565b92915050565b600080600060608486031215620013b057620013af62001325565b5b6000620013c0868287016200137d565b9350506020620013d3868287016200137d565b9250506040620013e6868287016200137d565b9150509250925092565b6000819050919050565b6200140581620013f0565b81146200141157600080fd5b50565b6000813590506200142581620013fa565b92915050565b6000806040838503121562001445576200144462001325565b5b600062001455858286016200137d565b9250506020620014688582860162001414565b9150509250929050565b6200147d816200134f565b82525050565b60006040820190506200149a600083018562001472565b620014a9602083018462001472565b9392505050565b6000602082019050620014c7600083018462001472565b92915050565b600081519050919050565b600082825260208201905092915050565b60005b8381101562001509578082015181840152602081019050620014ec565b8381111562001519576000848401525b50505050565b6000601f19601f8301169050919050565b60006200153d82620014cd565b620015498185620014d8565b93506200155b818560208601620014e9565b62001566816200151f565b840191505092915050565b600060208201905081810360008301526200158d818462001530565b905092915050565b620015a081620013f0565b82525050565b6000602082019050620015bd600083018462001595565b92915050565b600060c082019050620015da600083018962001595565b620015e9602083018862001595565b620015f8604083018762001595565b62001607606083018662001595565b62001616608083018562001595565b6200162560a083018462001595565b979650505050505050565b60006020828403121562001649576200164862001325565b5b6000620016598482850162001414565b91505092915050565b600060608201905062001679600083018662001472565b62001688602083018562001472565b62001697604083018462001472565b949350505050565b7f4e487b7100000000000000000000000000000000000000000000000000000000600052601160045260246000fd5b6000620016db82620013f0565b91507fffffffffffffffffffffffffffffffffffffffffffffffffffffffffffffffff8214156200171157620017106200169f565b5b600182019050919050565b7f54686520706f6f6c20616c7265616479206578697374732e0000000000000000600082015250565b600062001754601883620014d8565b915062001761826200171c565b602082019050919050565b60006020820190508181036000830152620017878162001745565b9050919050565b600080fd5b600080fd5b7f4e487b7100000000000000000000000000000000000000000000000000000000600052604160045260246000fd5b620017d2826200151f565b810181811067ffffffffffffffff82111715620017f457620017f362001798565b5b80604052505050565b6000620018096200131b565b9050620018178282620017c7565b919050565b600067ffffffffffffffff8211156200183a576200183962001798565b5b62001845826200151f565b9050602081019050919050565b60006200186962001863846200181c565b620017fd565b90508281526020810184848401111562001888576200188762001793565b5b62001895848285620014e9565b509392505050565b600082601f830112620018b557620018b46200178e565b5b8151620018c784826020860162001852565b91505092915050565b600060208284031215620018e957620018e862001325565b5b600082015167ffffffffffffffff8111156200190a57620019096200132a565b5b62001918848285016200189d565b91505092915050565b60006200192e82620013f0565b91506200193b83620013f0565b9250827fffffffffffffffffffffffffffffffffffffffffffffffffffffffffffffffff038211156200197357620019726200169f565b5b828201905092915050565b7f4e487b7100000000000000000000000000000000000000000000000000000000600052602260045260246000fd5b60006002820490506001821680620019c657607f821691505b60208210811415620019dd57620019dc6200197e565b5b50919050565b7f4152424c50000000000000000000000000000000000000000000000000000000600082015250565b600062001a1b600583620014d8565b915062001a2882620019e3565b602082019050919050565b7f4c50000000000000000000000000000000000000000000000000000000000000600082015250565b600062001a6b600283620014d8565b915062001a788262001a33565b602082019050919050565b6000604082019050818103600083015262001a9e8162001a0c565b9050818103602083015262001ab38162001a5c565b9050919050565b7f555344544c500000000000000000000000000000000000000000000000000000600082015250565b600062001af2600683620014d8565b915062001aff8262001aba565b602082019050919050565b6000604082019050818103600083015262001b258162001ae3565b9050818103602083015262001b3a8162001a5c565b9050919050565b7f4554484c50000000000000000000000000000000000000000000000000000000600082015250565b600062001b79600583620014d8565b915062001b868262001b41565b602082019050919050565b6000604082019050818103600083015262001bac8162001b6a565b9050818103602083015262001bc18162001a5c565b905091905056fe60806040523480156200001157600080fd5b506040516200254638038062002546833981810160405281019062000037919062000344565b8181816003908051906020019062000051929190620000f7565b5080600490805190602001906200006a929190620000f7565b50505030600560006101000a81548173ffffffffffffffffffffffffffffffffffffffff021916908373ffffffffffffffffffffffffffffffffffffffff16021790555030600660006101000a81548173ffffffffffffffffffffffffffffffffffffffff021916908373ffffffffffffffffffffffffffffffffffffffff16021790555050506200042e565b8280546200010590620003f8565b90600052602060002090601f01602090048101928262000129576000855562000175565b82601f106200014457805160ff191683800117855562000175565b8280016001018555821562000175579182015b828111156200017457825182559160200191906001019062000157565b5b50905062000184919062000188565b5090565b5b80821115620001a357600081600090555060010162000189565b5090565b6000604051905090565b600080fd5b600080fd5b600080fd5b600080fd5b6000601f19601f8301169050919050565b7f4e487b7100000000000000000000000000000000000000000000000000000000600052604160045260246000fd5b6200021082620001c5565b810181811067ffffffffffffffff82111715620002325762000231620001d6565b5b80604052505050565b600062000247620001a7565b905062000255828262000205565b919050565b600067ffffffffffffffff821115620002785762000277620001d6565b5b6200028382620001c5565b9050602081019050919050565b60005b83811015620002b057808201518184015260208101905062000293565b83811115620002c0576000848401525b50505050565b6000620002dd620002d7846200025a565b6200023b565b905082815260208101848484011115620002fc57620002fb620001c0565b5b6200030984828562000290565b509392505050565b600082601f830112620003295762000328620001bb565b5b81516200033b848260208601620002c6565b91505092915050565b600080604083850312156200035e576200035d620001b1565b5b600083015167ffffffffffffffff8111156200037f576200037e620001b6565b5b6200038d8582860162000311565b925050602083015167ffffffffffffffff811115620003b157620003b0620001b6565b5b620003bf8582860162000311565b9150509250929050565b7f4e487b7100000000000000000000000000000000000000000000000000000000600052602260045260246000fd5b600060028204905060018216806200041157607f821691505b60208210811415620004285762000427620003c9565b5b50919050565b612108806200043e6000396000f3fe608060405234801561001057600080fd5b50600436106101165760003560e01c806395d89b41116100a2578063a0712d6811610071578063a0712d68146102fa578063a457c2d714610316578063a9059cbb14610346578063dd62ed3e14610376578063e2344963146103a657610116565b806395d89b4114610270578063993a86bd1461028e5780639c53f267146102ac5780639d76ea58146102dc57610116565b8063313ce567116100e9578063313ce567146101b757806339509351146101d55780636161eb181461020557806370a08231146102215780638a48ac031461025157610116565b806306fdde031461011b578063095ea7b31461013957806318160ddd1461016957806323b872dd14610187575b600080fd5b6101236103c2565b604051610130919061145d565b60405180910390f35b610153600480360381019061014e9190611518565b610454565b6040516101609190611573565b60405180910390f35b610171610492565b60405161017e919061159d565b60405180910390f35b6101a1600480360381019061019c91906115b8565b61049c565b6040516101ae9190611573565b60405180910390f35b6101bf6104bf565b6040516101cc9190611627565b60405180910390f35b6101ef60048036038101906101ea9190611518565b6104c8565b6040516101fc9190611573565b60405180910390f35b61021f600480360381019061021a9190611518565b61051a565b005b61023b60048036038101906102369190611642565b6106ea565b604051610248919061159d565b60405180910390f35b610259610733565b60405161026792919061172d565b60405180910390f35b6102786107cc565b604051610285919061145d565b60405180910390f35b61029661085e565b6040516102a3919061176c565b60405180910390f35b6102c660048036038101906102c19190611642565b610884565b6040516102d3919061159d565b60405180910390f35b6102e461089c565b6040516102f1919061176c565b60405180910390f35b610314600480360381019061030f9190611787565b6108c2565b005b610330600480360381019061032b9190611518565b6109ab565b60405161033d9190611573565b60405180910390f35b610360600480360381019061035b9190611518565b610a3d565b60405161036d9190611573565b60405180910390f35b610390600480360381019061038b91906117b4565b610a59565b60405161039d919061159d565b60405180910390f35b6103c060048036038101906103bb91906117f4565b610ae0565b005b6060600380546103d190611863565b80601f01602080910402602001604051908101604052809291908181526020018280546103fd90611863565b801561044a5780601f1061041f5761010080835404028352916020019161044a565b820191906000526020600020905b81548152906001019060200180831161042d57829003601f168201915b5050505050905090565b600080600660009054906101000a900473ffffffffffffffffffffffffffffffffffffffff169050610487818585610bcd565b600191505092915050565b6000600c54905090565b60006104a9848484610d98565b6104b4848484611013565b600190509392505050565b60006012905090565b600080600660009054906101000a900473ffffffffffffffffffffffffffffffffffffffff16905061050f8185856105008589610a59565b61050a91906118c4565b610bcd565b600191505092915050565b600073ffffffffffffffffffffffffffffffffffffffff168273ffffffffffffffffffffffffffffffffffffffff16141561058a576040517f08c379a00000000000000000000000000000000000000000000000000000000081526004016105819061198c565b60405180910390fd5b61059682600083611143565b6000600760008473ffffffffffffffffffffffffffffffffffffffff1673ffffffffffffffffffffffffffffffffffffffff1681526020019081526020016000205490508181101561061d576040517f08c379a000000000000000000000000000000000000000000000000000000000815260040161061490611a1e565b60405180910390fd5b818103600760008573ffffffffffffffffffffffffffffffffffffffff1673ffffffffffffffffffffffffffffffffffffffff1681526020019081526020016000208190555081600c60008282540392505081905550600073ffffffffffffffffffffffffffffffffffffffff168373ffffffffffffffffffffffffffffffffffffffff167fddf252ad1be2c89b69c2b068fc378daa952ba7f163c4a11628f55a4df523b3ef846040516106d1919061159d565b60405180910390a36106e583600084611267565b505050565b6000600760008373ffffffffffffffffffffffffffffffffffffffff1673ffffffffffffffffffffffffffffffffffffffff168152602001908152602001600020549050919050565b60606000600a600b54818054806020026020016040519081016040528092919081815260200182805480156107bd57602002820191906000526020600020905b8160009054906101000a900473ffffffffffffffffffffffffffffffffffffffff1673ffffffffffffffffffffffffffffffffffffffff1681526020019060010190808311610773575b50505050509150915091509091565b6060600480546107db90611863565b80601f016020809104026020016040519081016040528092919081815260200182805461080790611863565b80156108545780601f1061082957610100808354040283529160200191610854565b820191906000526020600020905b81548152906001019060200180831161083757829003601f168201915b5050505050905090565b600660009054906101000a900473ffffffffffffffffffffffffffffffffffffffff1681565b60096020528060005260406000206000915090505481565b600560009054906101000a900473ffffffffffffffffffffffffffffffffffffffff1681565b610901600660009054906101000a900473ffffffffffffffffffffffffffffffffffffffff16670de0b6b3a7640000836108fc9190611a3e565b61126c565b610940600660009054906101000a900473ffffffffffffffffffffffffffffffffffffffff16670de0b6b3a76400008361093b9190611a3e565b610454565b50600160096000600660009054906101000a900473ffffffffffffffffffffffffffffffffffffffff1673ffffffffffffffffffffffffffffffffffffffff1673ffffffffffffffffffffffffffffffffffffffff1681526020019081526020016000208190555050565b600080600660009054906101000a900473ffffffffffffffffffffffffffffffffffffffff16905060006109df8286610a59565b905083811015610a24576040517f08c379a0000000000000000000000000000000000000000000000000000000008152600401610a1b90611b0a565b60405180910390fd5b610a318286868403610bcd565b60019250505092915050565b600080309050610a4e818585610d98565b600191505092915050565b6000600860008473ffffffffffffffffffffffffffffffffffffffff1673ffffffffffffffffffffffffffffffffffffffff16815260200190815260200160002060008373ffffffffffffffffffffffffffffffffffffffff1673ffffffffffffffffffffffffffffffffffffffff16815260200190815260200160002054905092915050565b610b23600660009054906101000a900473ffffffffffffffffffffffffffffffffffffffff1682600a610b139190611c5d565b84610b1e9190611a3e565b61126c565b610b66600660009054906101000a900473ffffffffffffffffffffffffffffffffffffffff1682600a610b569190611c5d565b84610b619190611a3e565b610454565b5060096000600660009054906101000a900473ffffffffffffffffffffffffffffffffffffffff1673ffffffffffffffffffffffffffffffffffffffff1673ffffffffffffffffffffffffffffffffffffffff168152602001908152602001600020505050565b600073ffffffffffffffffffffffffffffffffffffffff168373ffffffffffffffffffffffffffffffffffffffff161415610c3d576040517f08c379a0000000000000000000000000000000000000000000000000000000008152600401610c3490611d1a565b60405180910390fd5b600073ffffffffffffffffffffffffffffffffffffffff168273ffffffffffffffffffffffffffffffffffffffff161415610cad576040517f08c379a0000000000000000000000000000000000000000000000000000000008152600401610ca490611dac565b60405180910390fd5b80600860008573ffffffffffffffffffffffffffffffffffffffff1673ffffffffffffffffffffffffffffffffffffffff16815260200190815260200160002060008473ffffffffffffffffffffffffffffffffffffffff1673ffffffffffffffffffffffffffffffffffffffff168152602001908152602001600020819055508173ffffffffffffffffffffffffffffffffffffffff168373ffffffffffffffffffffffffffffffffffffffff167f8c5be1e5ebec7d5bd14f71427d1e84f3dd0314c0f7b2291e5b200ac8c7c3b92583604051610d8b919061159d565b60405180910390a3505050565b600073ffffffffffffffffffffffffffffffffffffffff168373ffffffffffffffffffffffffffffffffffffffff161415610e08576040517f08c379a0000000000000000000000000000000000000000000000000000000008152600401610dff90611e3e565b60405180910390fd5b600073ffffffffffffffffffffffffffffffffffffffff168273ffffffffffffffffffffffffffffffffffffffff161415610e78576040517f08c379a0000000000000000000000000000000000000000000000000000000008152600401610e6f90611ed0565b60405180910390fd5b610e83838383611143565b6000600760008573ffffffffffffffffffffffffffffffffffffffff1673ffffffffffffffffffffffffffffffffffffffff16815260200190815260200160002054905081811015610f0a576040517f08c379a0000000000000000000000000000000000000000000000000000000008152600401610f0190611f62565b60405180910390fd5b818103600760008673ffffffffffffffffffffffffffffffffffffffff1673ffffffffffffffffffffffffffffffffffffffff1681526020019081526020016000208190555081600760008573ffffffffffffffffffffffffffffffffffffffff1673ffffffffffffffffffffffffffffffffffffffff168152602001908152602001600020600082825401925050819055508273ffffffffffffffffffffffffffffffffffffffff168473ffffffffffffffffffffffffffffffffffffffff167fddf252ad1be2c89b69c2b068fc378daa952ba7f163c4a11628f55a4df523b3ef84604051610ffa919061159d565b60405180910390a361100d848484611267565b50505050565b6000611041600660009054906101000a900473ffffffffffffffffffffffffffffffffffffffff1685610a59565b90506000611071600660009054906101000a900473ffffffffffffffffffffffffffffffffffffffff1685610a59565b90507fffffffffffffffffffffffffffffffffffffffffffffffffffffffffffffffff821461113c57828210156110dd576040517f08c379a00000000000000000000000000000000000000000000000000000000081526004016110d490611fce565b60405180910390fd5b61110c600660009054906101000a900473ffffffffffffffffffffffffffffffffffffffff1686858503610bcd565b61113b600660009054906101000a900473ffffffffffffffffffffffffffffffffffffffff1685858401610bcd565b5b5050505050565b6000805b600b548110156111df578373ffffffffffffffffffffffffffffffffffffffff16600a828154811061117c5761117b611fee565b5b9060005260206000200160009054906101000a900473ffffffffffffffffffffffffffffffffffffffff1673ffffffffffffffffffffffffffffffffffffffff1614156111cc57600191506111df565b80806111d79061201d565b915050611147565b508061126157600a839080600181540180825580915050600190039060005260206000200160009091909190916101000a81548173ffffffffffffffffffffffffffffffffffffffff021916908373ffffffffffffffffffffffffffffffffffffffff160217905550600b600081548092919061125b9061201d565b91905055505b50505050565b505050565b600073ffffffffffffffffffffffffffffffffffffffff168273ffffffffffffffffffffffffffffffffffffffff1614156112dc576040517f08c379a00000000000000000000000000000000000000000000000000000000081526004016112d3906120b2565b60405180910390fd5b6112e860008383611143565b80600c60008282546112fa91906118c4565b9250508190555080600760008473ffffffffffffffffffffffffffffffffffffffff1673ffffffffffffffffffffffffffffffffffffffff168152602001908152602001600020600082825401925050819055508173ffffffffffffffffffffffffffffffffffffffff16600073ffffffffffffffffffffffffffffffffffffffff167fddf252ad1be2c89b69c2b068fc378daa952ba7f163c4a11628f55a4df523b3ef836040516113ac919061159d565b60405180910390a36113c060008383611267565b5050565b600081519050919050565b600082825260208201905092915050565b60005b838110156113fe5780820151818401526020810190506113e3565b8381111561140d576000848401525b50505050565b6000601f19601f8301169050919050565b600061142f826113c4565b61143981856113cf565b93506114498185602086016113e0565b61145281611413565b840191505092915050565b600060208201905081810360008301526114778184611424565b905092915050565b600080fd5b600073ffffffffffffffffffffffffffffffffffffffff82169050919050565b60006114af82611484565b9050919050565b6114bf816114a4565b81146114ca57600080fd5b50565b6000813590506114dc816114b6565b92915050565b6000819050919050565b6114f5816114e2565b811461150057600080fd5b50565b600081359050611512816114ec565b92915050565b6000806040838503121561152f5761152e61147f565b5b600061153d858286016114cd565b925050602061154e85828601611503565b9150509250929050565b60008115159050919050565b61156d81611558565b82525050565b60006020820190506115886000830184611564565b92915050565b611597816114e2565b82525050565b60006020820190506115b2600083018461158e565b92915050565b6000806000606084860312156115d1576115d061147f565b5b60006115df868287016114cd565b93505060206115f0868287016114cd565b925050604061160186828701611503565b9150509250925092565b600060ff82169050919050565b6116218161160b565b82525050565b600060208201905061163c6000830184611618565b92915050565b6000602082840312156116585761165761147f565b5b6000611666848285016114cd565b91505092915050565b600081519050919050565b600082825260208201905092915050565b6000819050602082019050919050565b6116a4816114a4565b82525050565b60006116b6838361169b565b60208301905092915050565b6000602082019050919050565b60006116da8261166f565b6116e4818561167a565b93506116ef8361168b565b8060005b8381101561172057815161170788826116aa565b9750611712836116c2565b9250506001810190506116f3565b5085935050505092915050565b6000604082019050818103600083015261174781856116cf565b9050611756602083018461158e565b9392505050565b611766816114a4565b82525050565b6000602082019050611781600083018461175d565b92915050565b60006020828403121561179d5761179c61147f565b5b60006117ab84828501611503565b91505092915050565b600080604083850312156117cb576117ca61147f565b5b60006117d9858286016114cd565b92505060206117ea858286016114cd565b9150509250929050565b6000806040838503121561180b5761180a61147f565b5b600061181985828601611503565b925050602061182a85828601611503565b9150509250929050565b7f4e487b7100000000000000000000000000000000000000000000000000000000600052602260045260246000fd5b6000600282049050600182168061187b57607f821691505b6020821081141561188f5761188e611834565b5b50919050565b7f4e487b7100000000000000000000000000000000000000000000000000000000600052601160045260246000fd5b60006118cf826114e2565b91506118da836114e2565b9250827fffffffffffffffffffffffffffffffffffffffffffffffffffffffffffffffff0382111561190f5761190e611895565b5b828201905092915050565b7f45524332303a206275726e2066726f6d20746865207a65726f2061646472657360008201527f7300000000000000000000000000000000000000000000000000000000000000602082015250565b60006119766021836113cf565b91506119818261191a565b604082019050919050565b600060208201905081810360008301526119a581611969565b9050919050565b7f45524332303a206275726e20616d6f756e7420657863656564732062616c616e60008201527f6365000000000000000000000000000000000000000000000000000000000000602082015250565b6000611a086022836113cf565b9150611a13826119ac565b604082019050919050565b60006020820190508181036000830152611a37816119fb565b9050919050565b6000611a49826114e2565b9150611a54836114e2565b9250817fffffffffffffffffffffffffffffffffffffffffffffffffffffffffffffffff0483118215151615611a8d57611a8c611895565b5b828202905092915050565b7f45524332303a2064656372656173656420616c6c6f77616e63652062656c6f7760008201527f207a65726f000000000000000000000000000000000000000000000000000000602082015250565b6000611af46025836113cf565b9150611aff82611a98565b604082019050919050565b60006020820190508181036000830152611b2381611ae7565b9050919050565b60008160011c9050919050565b6000808291508390505b6001851115611b8157808604811115611b5d57611b5c611895565b5b6001851615611b6c5780820291505b8081029050611b7a85611b2a565b9450611b41565b94509492505050565b600082611b9a5760019050611c56565b81611ba85760009050611c56565b8160018114611bbe5760028114611bc857611bf7565b6001915050611c56565b60ff841115611bda57611bd9611895565b5b8360020a915084821115611bf157611bf0611895565b5b50611c56565b5060208310610133831016604e8410600b8410161715611c2c5782820a905083811115611c2757611c26611895565b5b611c56565b611c398484846001611b37565b92509050818404811115611c5057611c4f611895565b5b81810290505b9392505050565b6000611c68826114e2565b9150611c73836114e2565b9250611ca07fffffffffffffffffffffffffffffffffffffffffffffffffffffffffffffffff8484611b8a565b905092915050565b7f45524332303a20617070726f76652066726f6d20746865207a65726f2061646460008201527f7265737300000000000000000000000000000000000000000000000000000000602082015250565b6000611d046024836113cf565b9150611d0f82611ca8565b604082019050919050565b60006020820190508181036000830152611d3381611cf7565b9050919050565b7f45524332303a20617070726f766520746f20746865207a65726f20616464726560008201527f7373000000000000000000000000000000000000000000000000000000000000602082015250565b6000611d966022836113cf565b9150611da182611d3a565b604082019050919050565b60006020820190508181036000830152611dc581611d89565b9050919050565b7f45524332303a207472616e736665722066726f6d20746865207a65726f20616460008201527f6472657373000000000000000000000000000000000000000000000000000000602082015250565b6000611e286025836113cf565b9150611e3382611dcc565b604082019050919050565b60006020820190508181036000830152611e5781611e1b565b9050919050565b7f45524332303a207472616e7366657220746f20746865207a65726f206164647260008201527f6573730000000000000000000000000000000000000000000000000000000000602082015250565b6000611eba6023836113cf565b9150611ec582611e5e565b604082019050919050565b60006020820190508181036000830152611ee981611ead565b9050919050565b7f45524332303a207472616e7366657220616d6f756e742065786365656473206260008201527f616c616e63650000000000000000000000000000000000000000000000000000602082015250565b6000611f4c6026836113cf565b9150611f5782611ef0565b604082019050919050565b60006020820190508181036000830152611f7b81611f3f565b9050919050565b7f45524332303a20696e73756666696369656e7420616c6c6f77616e6365000000600082015250565b6000611fb8601d836113cf565b9150611fc382611f82565b602082019050919050565b60006020820190508181036000830152611fe781611fab565b9050919050565b7f4e487b7100000000000000000000000000000000000000000000000000000000600052603260045260246000fd5b6000612028826114e2565b91507fffffffffffffffffffffffffffffffffffffffffffffffffffffffffffffffff82141561205b5761205a611895565b5b600182019050919050565b7f45524332303a206d696e7420746f20746865207a65726f206164647265737300600082015250565b600061209c601f836113cf565b91506120a782612066565b602082019050919050565b600060208201905081810360008301526120cb8161208f565b905091905056fea26469706673582212208222783b61bbdf80670f42f06f24ac4bcf8e428df2c73867cb258a6080617a2864736f6c63430008090033a2646970667358221220810a87496523b939d46f739c793f64385ebc640ac4227ca6fa1ec1ef1bf5f50e64736f6c63430008090033",
  "linkReferences": {},
  "deployedLinkReferences": {}
}