{
  "_format": "hh-sol-artifact-1",
  "contractName": "ASDToken",
  "sourceName": "contracts/Lock.sol",
  "abi": [
    {
      "inputs": [],
      "stateMutability": "nonpayable",
      "type": "constructor"
    },
    {
      "anonymous": false,
      "inputs": [
        {
          "indexed": true,
          "internalType": "address",
          "name": "owner",
          "type": "address"
        },
        {
          "indexed": true,
          "internalType": "address",
          "name": "spender",
          "type": "address"
        },
        {
          "indexed": false,
          "internalType": "uint256",
          "name": "value",
          "type": "uint256"
        }
      ],
      "name": "Approval",
      "type": "event"
    },
    {
      "anonymous": false,
      "inputs": [
        {
          "indexed": true,
          "internalType": "address",
          "name": "from",
          "type": "address"
        },
        {
          "indexed": true,
          "internalType": "address",
          "name": "to",
          "type": "address"
        },
        {
          "indexed": false,
          "internalType": "uint256",
          "name": "value",
          "type": "uint256"
        }
      ],
      "name": "Transfer",
      "type": "event"
    },
    {
      "inputs": [
        {
          "internalType": "address",
          "name": "owner",
          "type": "address"
        },
        {
          "internalType": "address",
          "name": "spender",
          "type": "address"
        }
      ],
      "name": "allowance",
      "outputs": [
        {
          "internalType": "uint256",
          "name": "",
          "type": "uint256"
        }
      ],
      "stateMutability": "view",
      "type": "function"
    },
    {
      "inputs": [
        {
          "internalType": "address",
          "name": "spender",
          "type": "address"
        },
        {
          "internalType": "uint256",
          "name": "amount",
          "type": "uint256"
        }
      ],
      "name": "approve",
      "outputs": [
        {
          "internalType": "bool",
          "name": "",
          "type": "bool"
        }
      ],
      "stateMutability": "nonpayable",
      "type": "function"
    },
    {
      "inputs": [
        {
          "internalType": "address",
          "name": "account",
          "type": "address"
        }
      ],
      "name": "balanceOf",
      "outputs": [
        {
          "internalType": "uint256",
          "name": "",
          "type": "uint256"
        }
      ],
      "stateMutability": "view",
      "type": "function"
    },
    {
      "inputs": [
        {
          "internalType": "address",
          "name": "to",
          "type": "address"
        },
        {
          "internalType": "uint256",
          "name": "amount",
          "type": "uint256"
        }
      ],
      "name": "burn",
      "outputs": [],
      "stateMutability": "nonpayable",
      "type": "function"
    },
    {
      "inputs": [],
      "name": "decimals",
      "outputs": [
        {
          "internalType": "uint8",
          "name": "",
          "type": "uint8"
        }
      ],
      "stateMutability": "view",
      "type": "function"
    },
    {
      "inputs": [
        {
          "internalType": "address",
          "name": "spender",
          "type": "address"
        },
        {
          "internalType": "uint256",
          "name": "subtractedValue",
          "type": "uint256"
        }
      ],
      "name": "decreaseAllowance",
      "outputs": [
        {
          "internalType": "bool",
          "name": "",
          "type": "bool"
        }
      ],
      "stateMutability": "nonpayable",
      "type": "function"
    },
    {
      "inputs": [
        {
          "internalType": "address",
          "name": "spender",
          "type": "address"
        },
        {
          "internalType": "uint256",
          "name": "addedValue",
          "type": "uint256"
        }
      ],
      "name": "increaseAllowance",
      "outputs": [
        {
          "internalType": "bool",
          "name": "",
          "type": "bool"
        }
      ],
      "stateMutability": "nonpayable",
      "type": "function"
    },
    {
      "inputs": [
        {
          "internalType": "address",
          "name": "to",
          "type": "address"
        },
        {
          "internalType": "uint256",
          "name": "amount",
          "type": "uint256"
        }
      ],
      "name": "mint",
      "outputs": [],
      "stateMutability": "nonpayable",
      "type": "function"
    },
    {
      "inputs": [],
      "name": "minter",
      "outputs": [
        {
          "internalType": "address",
          "name": "",
          "type": "address"
        }
      ],
      "stateMutability": "view",
      "type": "function"
    },
    {
      "inputs": [],
      "name": "name",
      "outputs": [
        {
          "internalType": "string",
          "name": "",
          "type": "string"
        }
      ],
      "stateMutability": "view",
      "type": "function"
    },
    {
      "inputs": [],
      "name": "symbol",
      "outputs": [
        {
          "internalType": "string",
          "name": "",
          "type": "string"
        }
      ],
      "stateMutability": "view",
      "type": "function"
    },
    {
      "inputs": [],
      "name": "totalSupply",
      "outputs": [
        {
          "internalType": "uint256",
          "name": "",
          "type": "uint256"
        }
      ],
      "stateMutability": "view",
      "type": "function"
    },
    {
      "inputs": [
        {
          "internalType": "address",
          "name": "to",
          "type": "address"
        },
        {
          "internalType": "uint256",
          "name": "amount",
          "type": "uint256"
        }
      ],
      "name": "transfer",
      "outputs": [
        {
          "internalType": "bool",
          "name": "",
          "type": "bool"
        }
      ],
      "stateMutability": "nonpayable",
      "type": "function"
    },
    {
      "inputs": [
        {
          "internalType": "address",
          "name": "from",
          "type": "address"
        },
        {
          "internalType": "address",
          "name": "to",
          "type": "address"
        },
        {
          "internalType": "uint256",
          "name": "amount",
          "type": "uint256"
        }
      ],
      "name": "transferFrom",
      "outputs": [
        {
          "internalType": "bool",
          "name": "",
          "type": "bool"
        }
      ],
      "stateMutability": "nonpayable",
      "type": "function"
    }
  ],
  "bytecode": "0x60806040523480156200001157600080fd5b506040518060400160405280600881526020017f415344546f6b656e0000000000000000000000000000000000000000000000008152506040518060400160405280600381526020017f41534400000000000000000000000000000000000000000000000000000000008152508160039080519060200190620000969291906200028d565b508060049080519060200190620000af9291906200028d565b50505033600560006101000a81548173ffffffffffffffffffffffffffffffffffffffff021916908373ffffffffffffffffffffffffffffffffffffffff1602179055506200010f3369021e19e0c9bab24000006200011560201b60201c565b620004e9565b600073ffffffffffffffffffffffffffffffffffffffff168273ffffffffffffffffffffffffffffffffffffffff16141562000188576040517f08c379a00000000000000000000000000000000000000000000000000000000081526004016200017f906200039e565b60405180910390fd5b6200019c600083836200028360201b60201c565b8060026000828254620001b09190620003f9565b92505081905550806000808473ffffffffffffffffffffffffffffffffffffffff1673ffffffffffffffffffffffffffffffffffffffff168152602001908152602001600020600082825401925050819055508173ffffffffffffffffffffffffffffffffffffffff16600073ffffffffffffffffffffffffffffffffffffffff167fddf252ad1be2c89b69c2b068fc378daa952ba7f163c4a11628f55a4df523b3ef8360405162000263919062000467565b60405180910390a36200027f600083836200028860201b60201c565b5050565b505050565b505050565b8280546200029b90620004b3565b90600052602060002090601f016020900481019282620002bf57600085556200030b565b82601f10620002da57805160ff19168380011785556200030b565b828001600101855582156200030b579182015b828111156200030a578251825591602001919060010190620002ed565b5b5090506200031a91906200031e565b5090565b5b80821115620003395760008160009055506001016200031f565b5090565b600082825260208201905092915050565b7f45524332303a206d696e7420746f20746865207a65726f206164647265737300600082015250565b600062000386601f836200033d565b915062000393826200034e565b602082019050919050565b60006020820190508181036000830152620003b98162000377565b9050919050565b6000819050919050565b7f4e487b7100000000000000000000000000000000000000000000000000000000600052601160045260246000fd5b60006200040682620003c0565b91506200041383620003c0565b9250827fffffffffffffffffffffffffffffffffffffffffffffffffffffffffffffffff038211156200044b576200044a620003ca565b5b828201905092915050565b6200046181620003c0565b82525050565b60006020820190506200047e600083018462000456565b92915050565b7f4e487b7100000000000000000000000000000000000000000000000000000000600052602260045260246000fd5b60006002820490506001821680620004cc57607f821691505b60208210811415620004e357620004e262000484565b5b50919050565b6119a380620004f96000396000f3fe608060405234801561001057600080fd5b50600436106100ea5760003560e01c806340c10f191161008c5780639dc29fac116100665780639dc29fac14610261578063a457c2d71461027d578063a9059cbb146102ad578063dd62ed3e146102dd576100ea565b806340c10f19146101f757806370a082311461021357806395d89b4114610243576100ea565b806318160ddd116100c857806318160ddd1461015b57806323b872dd14610179578063313ce567146101a957806339509351146101c7576100ea565b806306fdde03146100ef578063075461721461010d578063095ea7b31461012b575b600080fd5b6100f761030d565b6040516101049190611037565b60405180910390f35b61011561039f565b604051610122919061109a565b60405180910390f35b6101456004803603810190610140919061111c565b6103c5565b6040516101529190611177565b60405180910390f35b6101636103e8565b60405161017091906111a1565b60405180910390f35b610193600480360381019061018e91906111bc565b6103f2565b6040516101a09190611177565b60405180910390f35b6101b1610421565b6040516101be919061122b565b60405180910390f35b6101e160048036038101906101dc919061111c565b61042a565b6040516101ee9190611177565b60405180910390f35b610211600480360381019061020c919061111c565b610461565b005b61022d60048036038101906102289190611246565b6104ff565b60405161023a91906111a1565b60405180910390f35b61024b610547565b6040516102589190611037565b60405180910390f35b61027b6004803603810190610276919061111c565b6105d9565b005b6102976004803603810190610292919061111c565b610677565b6040516102a49190611177565b60405180910390f35b6102c760048036038101906102c2919061111c565b6106ee565b6040516102d49190611177565b60405180910390f35b6102f760048036038101906102f29190611273565b610711565b60405161030491906111a1565b60405180910390f35b60606003805461031c906112e2565b80601f0160208091040260200160405190810160405280929190818152602001828054610348906112e2565b80156103955780601f1061036a57610100808354040283529160200191610395565b820191906000526020600020905b81548152906001019060200180831161037857829003601f168201915b5050505050905090565b600560009054906101000a900473ffffffffffffffffffffffffffffffffffffffff1681565b6000806103d0610798565b90506103dd8185856107a0565b600191505092915050565b6000600254905090565b6000806103fd610798565b905061040a85828561096b565b6104158585856109f7565b60019150509392505050565b60006012905090565b600080610435610798565b90506104568185856104478589610711565b6104519190611343565b6107a0565b600191505092915050565b600560009054906101000a900473ffffffffffffffffffffffffffffffffffffffff1673ffffffffffffffffffffffffffffffffffffffff163373ffffffffffffffffffffffffffffffffffffffff16146104f1576040517f08c379a00000000000000000000000000000000000000000000000000000000081526004016104e8906113e5565b60405180910390fd5b6104fb8282610c6f565b5050565b60008060008373ffffffffffffffffffffffffffffffffffffffff1673ffffffffffffffffffffffffffffffffffffffff168152602001908152602001600020549050919050565b606060048054610556906112e2565b80601f0160208091040260200160405190810160405280929190818152602001828054610582906112e2565b80156105cf5780601f106105a4576101008083540402835291602001916105cf565b820191906000526020600020905b8154815290600101906020018083116105b257829003601f168201915b5050505050905090565b600560009054906101000a900473ffffffffffffffffffffffffffffffffffffffff1673ffffffffffffffffffffffffffffffffffffffff163373ffffffffffffffffffffffffffffffffffffffff1614610669576040517f08c379a0000000000000000000000000000000000000000000000000000000008152600401610660906113e5565b60405180910390fd5b6106738282610dc6565b5050565b600080610682610798565b905060006106908286610711565b9050838110156106d5576040517f08c379a00000000000000000000000000000000000000000000000000000000081526004016106cc90611477565b60405180910390fd5b6106e282868684036107a0565b60019250505092915050565b6000806106f9610798565b90506107068185856109f7565b600191505092915050565b6000600160008473ffffffffffffffffffffffffffffffffffffffff1673ffffffffffffffffffffffffffffffffffffffff16815260200190815260200160002060008373ffffffffffffffffffffffffffffffffffffffff1673ffffffffffffffffffffffffffffffffffffffff16815260200190815260200160002054905092915050565b600033905090565b600073ffffffffffffffffffffffffffffffffffffffff168373ffffffffffffffffffffffffffffffffffffffff161415610810576040517f08c379a000000000000000000000000000000000000000000000000000000000815260040161080790611509565b60405180910390fd5b600073ffffffffffffffffffffffffffffffffffffffff168273ffffffffffffffffffffffffffffffffffffffff161415610880576040517f08c379a00000000000000000000000000000000000000000000000000000000081526004016108779061159b565b60405180910390fd5b80600160008573ffffffffffffffffffffffffffffffffffffffff1673ffffffffffffffffffffffffffffffffffffffff16815260200190815260200160002060008473ffffffffffffffffffffffffffffffffffffffff1673ffffffffffffffffffffffffffffffffffffffff168152602001908152602001600020819055508173ffffffffffffffffffffffffffffffffffffffff168373ffffffffffffffffffffffffffffffffffffffff167f8c5be1e5ebec7d5bd14f71427d1e84f3dd0314c0f7b2291e5b200ac8c7c3b9258360405161095e91906111a1565b60405180910390a3505050565b60006109778484610711565b90507fffffffffffffffffffffffffffffffffffffffffffffffffffffffffffffffff81146109f157818110156109e3576040517f08c379a00000000000000000000000000000000000000000000000000000000081526004016109da90611607565b60405180910390fd5b6109f084848484036107a0565b5b50505050565b600073ffffffffffffffffffffffffffffffffffffffff168373ffffffffffffffffffffffffffffffffffffffff161415610a67576040517f08c379a0000000000000000000000000000000000000000000000000000000008152600401610a5e90611699565b60405180910390fd5b600073ffffffffffffffffffffffffffffffffffffffff168273ffffffffffffffffffffffffffffffffffffffff161415610ad7576040517f08c379a0000000000000000000000000000000000000000000000000000000008152600401610ace9061172b565b60405180910390fd5b610ae2838383610f94565b60008060008573ffffffffffffffffffffffffffffffffffffffff1673ffffffffffffffffffffffffffffffffffffffff16815260200190815260200160002054905081811015610b68576040517f08c379a0000000000000000000000000000000000000000000000000000000008152600401610b5f906117bd565b60405180910390fd5b8181036000808673ffffffffffffffffffffffffffffffffffffffff1673ffffffffffffffffffffffffffffffffffffffff16815260200190815260200160002081905550816000808573ffffffffffffffffffffffffffffffffffffffff1673ffffffffffffffffffffffffffffffffffffffff168152602001908152602001600020600082825401925050819055508273ffffffffffffffffffffffffffffffffffffffff168473ffffffffffffffffffffffffffffffffffffffff167fddf252ad1be2c89b69c2b068fc378daa952ba7f163c4a11628f55a4df523b3ef84604051610c5691906111a1565b60405180910390a3610c69848484610f99565b50505050565b600073ffffffffffffffffffffffffffffffffffffffff168273ffffffffffffffffffffffffffffffffffffffff161415610cdf576040517f08c379a0000000000000000000000000000000000000000000000000000000008152600401610cd690611829565b60405180910390fd5b610ceb60008383610f94565b8060026000828254610cfd9190611343565b92505081905550806000808473ffffffffffffffffffffffffffffffffffffffff1673ffffffffffffffffffffffffffffffffffffffff168152602001908152602001600020600082825401925050819055508173ffffffffffffffffffffffffffffffffffffffff16600073ffffffffffffffffffffffffffffffffffffffff167fddf252ad1be2c89b69c2b068fc378daa952ba7f163c4a11628f55a4df523b3ef83604051610dae91906111a1565b60405180910390a3610dc260008383610f99565b5050565b600073ffffffffffffffffffffffffffffffffffffffff168273ffffffffffffffffffffffffffffffffffffffff161415610e36576040517f08c379a0000000000000000000000000000000000000000000000000000000008152600401610e2d906118bb565b60405180910390fd5b610e4282600083610f94565b60008060008473ffffffffffffffffffffffffffffffffffffffff1673ffffffffffffffffffffffffffffffffffffffff16815260200190815260200160002054905081811015610ec8576040517f08c379a0000000000000000000000000000000000000000000000000000000008152600401610ebf9061194d565b60405180910390fd5b8181036000808573ffffffffffffffffffffffffffffffffffffffff1673ffffffffffffffffffffffffffffffffffffffff1681526020019081526020016000208190555081600260008282540392505081905550600073ffffffffffffffffffffffffffffffffffffffff168373ffffffffffffffffffffffffffffffffffffffff167fddf252ad1be2c89b69c2b068fc378daa952ba7f163c4a11628f55a4df523b3ef84604051610f7b91906111a1565b60405180910390a3610f8f83600084610f99565b505050565b505050565b505050565b600081519050919050565b600082825260208201905092915050565b60005b83811015610fd8578082015181840152602081019050610fbd565b83811115610fe7576000848401525b50505050565b6000601f19601f8301169050919050565b600061100982610f9e565b6110138185610fa9565b9350611023818560208601610fba565b61102c81610fed565b840191505092915050565b600060208201905081810360008301526110518184610ffe565b905092915050565b600073ffffffffffffffffffffffffffffffffffffffff82169050919050565b600061108482611059565b9050919050565b61109481611079565b82525050565b60006020820190506110af600083018461108b565b92915050565b600080fd5b6110c381611079565b81146110ce57600080fd5b50565b6000813590506110e0816110ba565b92915050565b6000819050919050565b6110f9816110e6565b811461110457600080fd5b50565b600081359050611116816110f0565b92915050565b60008060408385031215611133576111326110b5565b5b6000611141858286016110d1565b925050602061115285828601611107565b9150509250929050565b60008115159050919050565b6111718161115c565b82525050565b600060208201905061118c6000830184611168565b92915050565b61119b816110e6565b82525050565b60006020820190506111b66000830184611192565b92915050565b6000806000606084860312156111d5576111d46110b5565b5b60006111e3868287016110d1565b93505060206111f4868287016110d1565b925050604061120586828701611107565b9150509250925092565b600060ff82169050919050565b6112258161120f565b82525050565b6000602082019050611240600083018461121c565b92915050565b60006020828403121561125c5761125b6110b5565b5b600061126a848285016110d1565b91505092915050565b6000806040838503121561128a576112896110b5565b5b6000611298858286016110d1565b92505060206112a9858286016110d1565b9150509250929050565b7f4e487b7100000000000000000000000000000000000000000000000000000000600052602260045260246000fd5b600060028204905060018216806112fa57607f821691505b6020821081141561130e5761130d6112b3565b5b50919050565b7f4e487b7100000000000000000000000000000000000000000000000000000000600052601160045260246000fd5b600061134e826110e6565b9150611359836110e6565b9250827fffffffffffffffffffffffffffffffffffffffffffffffffffffffffffffffff0382111561138e5761138d611314565b5b828201905092915050565b7f416c657274203a204f6e6c79204f776e65720000000000000000000000000000600082015250565b60006113cf601283610fa9565b91506113da82611399565b602082019050919050565b600060208201905081810360008301526113fe816113c2565b9050919050565b7f45524332303a2064656372656173656420616c6c6f77616e63652062656c6f7760008201527f207a65726f000000000000000000000000000000000000000000000000000000602082015250565b6000611461602583610fa9565b915061146c82611405565b604082019050919050565b6000602082019050818103600083015261149081611454565b9050919050565b7f45524332303a20617070726f76652066726f6d20746865207a65726f2061646460008201527f7265737300000000000000000000000000000000000000000000000000000000602082015250565b60006114f3602483610fa9565b91506114fe82611497565b604082019050919050565b60006020820190508181036000830152611522816114e6565b9050919050565b7f45524332303a20617070726f766520746f20746865207a65726f20616464726560008201527f7373000000000000000000000000000000000000000000000000000000000000602082015250565b6000611585602283610fa9565b915061159082611529565b604082019050919050565b600060208201905081810360008301526115b481611578565b9050919050565b7f45524332303a20696e73756666696369656e7420616c6c6f77616e6365000000600082015250565b60006115f1601d83610fa9565b91506115fc826115bb565b602082019050919050565b60006020820190508181036000830152611620816115e4565b9050919050565b7f45524332303a207472616e736665722066726f6d20746865207a65726f20616460008201527f6472657373000000000000000000000000000000000000000000000000000000602082015250565b6000611683602583610fa9565b915061168e82611627565b604082019050919050565b600060208201905081810360008301526116b281611676565b9050919050565b7f45524332303a207472616e7366657220746f20746865207a65726f206164647260008201527f6573730000000000000000000000000000000000000000000000000000000000602082015250565b6000611715602383610fa9565b9150611720826116b9565b604082019050919050565b6000602082019050818103600083015261174481611708565b9050919050565b7f45524332303a207472616e7366657220616d6f756e742065786365656473206260008201527f616c616e63650000000000000000000000000000000000000000000000000000602082015250565b60006117a7602683610fa9565b91506117b28261174b565b604082019050919050565b600060208201905081810360008301526117d68161179a565b9050919050565b7f45524332303a206d696e7420746f20746865207a65726f206164647265737300600082015250565b6000611813601f83610fa9565b915061181e826117dd565b602082019050919050565b6000602082019050818103600083015261184281611806565b9050919050565b7f45524332303a206275726e2066726f6d20746865207a65726f2061646472657360008201527f7300000000000000000000000000000000000000000000000000000000000000602082015250565b60006118a5602183610fa9565b91506118b082611849565b604082019050919050565b600060208201905081810360008301526118d481611898565b9050919050565b7f45524332303a206275726e20616d6f756e7420657863656564732062616c616e60008201527f6365000000000000000000000000000000000000000000000000000000000000602082015250565b6000611937602283610fa9565b9150611942826118db565b604082019050919050565b600060208201905081810360008301526119668161192a565b905091905056fea2646970667358221220b9f670a4516bf705e3412267560f71c3846546c8ad37b45c96f4f7d4e7b9862064736f6c63430008090033",
  "linkReferences": {},
  "deployedLinkReferences": {}
}