{
  "_format": "hh-sol-artifact-1",
  "contractName": "Airdrop",
  "sourceName": "contracts/airdrop.sol",
  "abi": [
    {
      "inputs": [
        {
          "internalType": "address",
          "name": "_owner",
          "type": "address"
        },
        {
          "internalType": "address",
          "name": "_factory",
          "type": "address"
        }
      ],
      "stateMutability": "nonpayable",
      "type": "constructor"
    },
    {
      "inputs": [],
      "name": "deployaddress",
      "outputs": [
        {
          "internalType": "address",
          "name": "",
          "type": "address"
        }
      ],
      "stateMutability": "view",
      "type": "function"
    },
    {
      "inputs": [
        {
          "internalType": "uint256",
          "name": "x",
          "type": "uint256"
        },
        {
          "internalType": "uint256",
          "name": "y",
          "type": "uint256"
        }
      ],
      "name": "div",
      "outputs": [
        {
          "internalType": "uint256",
          "name": "",
          "type": "uint256"
        }
      ],
      "stateMutability": "pure",
      "type": "function"
    },
    {
      "inputs": [
        {
          "internalType": "address[]",
          "name": "_accounts",
          "type": "address[]"
        },
        {
          "internalType": "address",
          "name": "_droptoken",
          "type": "address"
        },
        {
          "internalType": "address",
          "name": "_lptoken",
          "type": "address"
        }
      ],
      "name": "doAirdrop",
      "outputs": [],
      "stateMutability": "nonpayable",
      "type": "function"
    },
    {
      "inputs": [
        {
          "internalType": "address",
          "name": "_token",
          "type": "address"
        }
      ],
      "name": "getToken",
      "outputs": [
        {
          "internalType": "uint256",
          "name": "",
          "type": "uint256"
        }
      ],
      "stateMutability": "view",
      "type": "function"
    }
  ],
  "bytecode": "0x608060405234801561001057600080fd5b50604051610d36380380610d368339818101604052810190610032919061015e565b816000806101000a81548173ffffffffffffffffffffffffffffffffffffffff021916908373ffffffffffffffffffffffffffffffffffffffff16021790555080600160006101000a81548173ffffffffffffffffffffffffffffffffffffffff021916908373ffffffffffffffffffffffffffffffffffffffff16021790555030600260006101000a81548173ffffffffffffffffffffffffffffffffffffffff021916908373ffffffffffffffffffffffffffffffffffffffff160217905550505061019e565b600080fd5b600073ffffffffffffffffffffffffffffffffffffffff82169050919050565b600061012b82610100565b9050919050565b61013b81610120565b811461014657600080fd5b50565b60008151905061015881610132565b92915050565b60008060408385031215610175576101746100fb565b5b600061018385828601610149565b925050602061019485828601610149565b9150509250929050565b610b89806101ad6000396000f3fe608060405234801561001057600080fd5b506004361061004c5760003560e01c80635977043814610051578063a391c15b14610081578063e3fecd21146100b1578063f2f522c5146100cf575b600080fd5b61006b6004803603810190610066919061062c565b6100eb565b6040516100789190610672565b60405180910390f35b61009b600480360381019061009691906106b9565b61017d565b6040516100a89190610672565b60405180910390f35b6100b96101b9565b6040516100c69190610708565b60405180910390f35b6100e960048036038101906100e4919061087c565b6101c1565b005b60008173ffffffffffffffffffffffffffffffffffffffff166370a08231306040518263ffffffff1660e01b81526004016101269190610708565b60206040518083038186803b15801561013e57600080fd5b505afa158015610152573d6000803e3d6000fd5b505050506040513d601f19601f820116820180604052508101906101769190610900565b9050919050565b60008082141561018c57600080fd5b600082670de0b6b3a7640000856101a3919061095c565b6101ad91906109e5565b90508091505092915050565b600030905090565b60008273ffffffffffffffffffffffffffffffffffffffff166370a08231846040518263ffffffff1660e01b81526004016101fc9190610708565b60206040518083038186803b15801561021457600080fd5b505afa158015610228573d6000803e3d6000fd5b505050506040513d601f19601f8201168201806040525081019061024c9190610900565b1161025657600080fd5b60008273ffffffffffffffffffffffffffffffffffffffff1663dd62ed3e84600260009054906101000a900473ffffffffffffffffffffffffffffffffffffffff166040518363ffffffff1660e01b81526004016102b5929190610a16565b60206040518083038186803b1580156102cd57600080fd5b505afa1580156102e1573d6000803e3d6000fd5b505050506040513d601f19601f820116820180604052508101906103059190610900565b141561031057600080fd5b60008173ffffffffffffffffffffffffffffffffffffffff166318160ddd6040518163ffffffff1660e01b815260040160206040518083038186803b15801561035857600080fd5b505afa15801561036c573d6000803e3d6000fd5b505050506040513d601f19601f820116820180604052508101906103909190610900565b905060008373ffffffffffffffffffffffffffffffffffffffff166318160ddd6040518163ffffffff1660e01b815260040160206040518083038186803b1580156103da57600080fd5b505afa1580156103ee573d6000803e3d6000fd5b505050506040513d601f19601f820116820180604052508101906104129190610900565b905060008551905060005b818110156105b15760008573ffffffffffffffffffffffffffffffffffffffff166370a0823189848151811061045657610455610a3f565b5b60200260200101516040518263ffffffff1660e01b815260040161047a9190610708565b60206040518083038186803b15801561049257600080fd5b505afa1580156104a6573d6000803e3d6000fd5b505050506040513d601f19601f820116820180604052508101906104ca9190610900565b90508673ffffffffffffffffffffffffffffffffffffffff166323b872dd888a85815181106104fc576104fb610a3f565b5b6020026020010151670de0b6b3a7640000610517868b61017d565b89610522919061095c565b61052c91906109e5565b6040518463ffffffff1660e01b815260040161054a93929190610a6e565b602060405180830381600087803b15801561056457600080fd5b505af1158015610578573d6000803e3d6000fd5b505050506040513d601f19601f8201168201806040525081019061059c9190610add565b505080806105a990610b0a565b91505061041d565b50505050505050565b6000604051905090565b600080fd5b600080fd5b600073ffffffffffffffffffffffffffffffffffffffff82169050919050565b60006105f9826105ce565b9050919050565b610609816105ee565b811461061457600080fd5b50565b60008135905061062681610600565b92915050565b600060208284031215610642576106416105c4565b5b600061065084828501610617565b91505092915050565b6000819050919050565b61066c81610659565b82525050565b60006020820190506106876000830184610663565b92915050565b61069681610659565b81146106a157600080fd5b50565b6000813590506106b38161068d565b92915050565b600080604083850312156106d0576106cf6105c4565b5b60006106de858286016106a4565b92505060206106ef858286016106a4565b9150509250929050565b610702816105ee565b82525050565b600060208201905061071d60008301846106f9565b92915050565b600080fd5b6000601f19601f8301169050919050565b7f4e487b7100000000000000000000000000000000000000000000000000000000600052604160045260246000fd5b61077182610728565b810181811067ffffffffffffffff821117156107905761078f610739565b5b80604052505050565b60006107a36105ba565b90506107af8282610768565b919050565b600067ffffffffffffffff8211156107cf576107ce610739565b5b602082029050602081019050919050565b600080fd5b60006107f86107f3846107b4565b610799565b9050808382526020820190506020840283018581111561081b5761081a6107e0565b5b835b8181101561084457806108308882610617565b84526020840193505060208101905061081d565b5050509392505050565b600082601f83011261086357610862610723565b5b81356108738482602086016107e5565b91505092915050565b600080600060608486031215610895576108946105c4565b5b600084013567ffffffffffffffff8111156108b3576108b26105c9565b5b6108bf8682870161084e565b93505060206108d086828701610617565b92505060406108e186828701610617565b9150509250925092565b6000815190506108fa8161068d565b92915050565b600060208284031215610916576109156105c4565b5b6000610924848285016108eb565b91505092915050565b7f4e487b7100000000000000000000000000000000000000000000000000000000600052601160045260246000fd5b600061096782610659565b915061097283610659565b9250817fffffffffffffffffffffffffffffffffffffffffffffffffffffffffffffffff04831182151516156109ab576109aa61092d565b5b828202905092915050565b7f4e487b7100000000000000000000000000000000000000000000000000000000600052601260045260246000fd5b60006109f082610659565b91506109fb83610659565b925082610a0b57610a0a6109b6565b5b828204905092915050565b6000604082019050610a2b60008301856106f9565b610a3860208301846106f9565b9392505050565b7f4e487b7100000000000000000000000000000000000000000000000000000000600052603260045260246000fd5b6000606082019050610a8360008301866106f9565b610a9060208301856106f9565b610a9d6040830184610663565b949350505050565b60008115159050919050565b610aba81610aa5565b8114610ac557600080fd5b50565b600081519050610ad781610ab1565b92915050565b600060208284031215610af357610af26105c4565b5b6000610b0184828501610ac8565b91505092915050565b6000610b1582610659565b91507fffffffffffffffffffffffffffffffffffffffffffffffffffffffffffffffff821415610b4857610b4761092d565b5b60018201905091905056fea2646970667358221220ad29c788e70e31d4d04344e854aa8c9a99e608517dfc1e3090a01448aad322a064736f6c63430008090033",
  "linkReferences": {},
  "deployedLinkReferences": {}
}