{
  "_format": "hh-sol-artifact-1",
  "contractName": "Airdrop",
  "sourceName": "contracts/airdrop.sol",
  "abi": [
    {
      "inputs": [
        {
          "internalType": "contract IERC20",
          "name": "_governanceToken",
          "type": "address"
        },
        {
          "internalType": "address",
          "name": "_owner",
          "type": "address"
        }
      ],
      "stateMutability": "nonpayable",
      "type": "constructor"
    },
    {
      "anonymous": false,
      "inputs": [
        {
          "indexed": true,
          "internalType": "address",
          "name": "previousOwner",
          "type": "address"
        },
        {
          "indexed": true,
          "internalType": "address",
          "name": "newOwner",
          "type": "address"
        }
      ],
      "name": "OwnershipTransferred",
      "type": "event"
    },
    {
      "anonymous": false,
      "inputs": [
        {
          "indexed": false,
          "internalType": "address",
          "name": "account",
          "type": "address"
        }
      ],
      "name": "Paused",
      "type": "event"
    },
    {
      "anonymous": false,
      "inputs": [
        {
          "indexed": false,
          "internalType": "address",
          "name": "account",
          "type": "address"
        }
      ],
      "name": "Unpaused",
      "type": "event"
    },
    {
      "inputs": [
        {
          "internalType": "address[]",
          "name": "recipients",
          "type": "address[]"
        },
        {
          "internalType": "uint256[]",
          "name": "amounts",
          "type": "uint256[]"
        }
      ],
      "name": "airdrop",
      "outputs": [],
      "stateMutability": "nonpayable",
      "type": "function"
    },
    {
      "inputs": [
        {
          "internalType": "address",
          "name": "",
          "type": "address"
        }
      ],
      "name": "claimed",
      "outputs": [
        {
          "internalType": "bool",
          "name": "",
          "type": "bool"
        }
      ],
      "stateMutability": "view",
      "type": "function"
    },
    {
      "inputs": [],
      "name": "governanceToken",
      "outputs": [
        {
          "internalType": "contract IERC20",
          "name": "",
          "type": "address"
        }
      ],
      "stateMutability": "view",
      "type": "function"
    },
    {
      "inputs": [],
      "name": "owner",
      "outputs": [
        {
          "internalType": "address",
          "name": "",
          "type": "address"
        }
      ],
      "stateMutability": "view",
      "type": "function"
    },
    {
      "inputs": [],
      "name": "paused",
      "outputs": [
        {
          "internalType": "bool",
          "name": "",
          "type": "bool"
        }
      ],
      "stateMutability": "view",
      "type": "function"
    },
    {
      "inputs": [],
      "name": "renounceOwnership",
      "outputs": [],
      "stateMutability": "nonpayable",
      "type": "function"
    },
    {
      "inputs": [
        {
          "internalType": "address",
          "name": "newOwner",
          "type": "address"
        }
      ],
      "name": "transferOwnership",
      "outputs": [],
      "stateMutability": "nonpayable",
      "type": "function"
    }
  ],
  "bytecode": "0x60806040523480156200001157600080fd5b50604051620019e9380380620019e983398181016040528101906200003791906200039e565b620000576200004b620000d260201b60201c565b620000da60201b60201c565b60008060146101000a81548160ff0219169083151502179055506001808190555081600260006101000a81548173ffffffffffffffffffffffffffffffffffffffff021916908373ffffffffffffffffffffffffffffffffffffffff160217905550620000ca816200019e60201b60201c565b505062000500565b600033905090565b60008060009054906101000a900473ffffffffffffffffffffffffffffffffffffffff169050816000806101000a81548173ffffffffffffffffffffffffffffffffffffffff021916908373ffffffffffffffffffffffffffffffffffffffff1602179055508173ffffffffffffffffffffffffffffffffffffffff168173ffffffffffffffffffffffffffffffffffffffff167f8be0079c531659141344cd1fd0a4f28419497f9722a3daafe3b4186f6b6457e060405160405180910390a35050565b620001ae6200023560201b60201c565b600073ffffffffffffffffffffffffffffffffffffffff168173ffffffffffffffffffffffffffffffffffffffff16141562000221576040517f08c379a000000000000000000000000000000000000000000000000000000000815260040162000218906200046c565b60405180910390fd5b6200023281620000da60201b60201c565b50565b62000245620000d260201b60201c565b73ffffffffffffffffffffffffffffffffffffffff166200026b620002c660201b60201c565b73ffffffffffffffffffffffffffffffffffffffff1614620002c4576040517f08c379a0000000000000000000000000000000000000000000000000000000008152600401620002bb90620004de565b60405180910390fd5b565b60008060009054906101000a900473ffffffffffffffffffffffffffffffffffffffff16905090565b600080fd5b600073ffffffffffffffffffffffffffffffffffffffff82169050919050565b60006200032182620002f4565b9050919050565b6000620003358262000314565b9050919050565b620003478162000328565b81146200035357600080fd5b50565b60008151905062000367816200033c565b92915050565b620003788162000314565b81146200038457600080fd5b50565b60008151905062000398816200036d565b92915050565b60008060408385031215620003b857620003b7620002ef565b5b6000620003c88582860162000356565b9250506020620003db8582860162000387565b9150509250929050565b600082825260208201905092915050565b7f4f776e61626c653a206e6577206f776e657220697320746865207a65726f206160008201527f6464726573730000000000000000000000000000000000000000000000000000602082015250565b600062000454602683620003e5565b91506200046182620003f6565b604082019050919050565b60006020820190508181036000830152620004878162000445565b9050919050565b7f4f776e61626c653a2063616c6c6572206973206e6f7420746865206f776e6572600082015250565b6000620004c6602083620003e5565b9150620004d3826200048e565b602082019050919050565b60006020820190508181036000830152620004f981620004b7565b9050919050565b6114d980620005106000396000f3fe608060405234801561001057600080fd5b506004361061007d5760003560e01c80638da5cb5b1161005b5780638da5cb5b146100c6578063c884ef83146100e4578063f2fde38b14610114578063f96dae0a146101305761007d565b80635c975abb1461008257806367243482146100a0578063715018a6146100bc575b600080fd5b61008a61014e565b60405161009791906109b1565b60405180910390f35b6100ba60048036038101906100b59190610c90565b610164565b005b6100c4610386565b005b6100ce61039a565b6040516100db9190610d17565b60405180910390f35b6100fe60048036038101906100f99190610d32565b6103c3565b60405161010b91906109b1565b60405180910390f35b61012e60048036038101906101299190610d32565b6103e3565b005b610138610467565b6040516101459190610dbe565b60405180910390f35b60008060149054906101000a900460ff16905090565b61016c61048d565b61017461050b565b61017c610555565b80518251146101c0576040517f08c379a00000000000000000000000000000000000000000000000000000000081526004016101b790610e5c565b60405180910390fd5b60005b825181101561037957600360008483815181106101e3576101e2610e7c565b5b602002602001015173ffffffffffffffffffffffffffffffffffffffff1673ffffffffffffffffffffffffffffffffffffffff16815260200190815260200160002060009054906101000a900460ff1615610273576040517f08c379a000000000000000000000000000000000000000000000000000000000815260040161026a90610f1d565b60405180910390fd5b60016003600085848151811061028c5761028b610e7c565b5b602002602001015173ffffffffffffffffffffffffffffffffffffffff1673ffffffffffffffffffffffffffffffffffffffff16815260200190815260200160002060006101000a81548160ff0219169083151502179055506103668382815181106102fb576102fa610e7c565b5b602002602001015183838151811061031657610315610e7c565b5b6020026020010151600260009054906101000a900473ffffffffffffffffffffffffffffffffffffffff1673ffffffffffffffffffffffffffffffffffffffff166105a59092919063ffffffff16565b808061037190610f6c565b9150506101c3565b5061038261062b565b5050565b61038e61048d565b6103986000610634565b565b60008060009054906101000a900473ffffffffffffffffffffffffffffffffffffffff16905090565b60036020528060005260406000206000915054906101000a900460ff1681565b6103eb61048d565b600073ffffffffffffffffffffffffffffffffffffffff168173ffffffffffffffffffffffffffffffffffffffff16141561045b576040517f08c379a000000000000000000000000000000000000000000000000000000000815260040161045290611027565b60405180910390fd5b61046481610634565b50565b600260009054906101000a900473ffffffffffffffffffffffffffffffffffffffff1681565b6104956106f8565b73ffffffffffffffffffffffffffffffffffffffff166104b361039a565b73ffffffffffffffffffffffffffffffffffffffff1614610509576040517f08c379a000000000000000000000000000000000000000000000000000000000815260040161050090611093565b60405180910390fd5b565b61051361014e565b15610553576040517f08c379a000000000000000000000000000000000000000000000000000000000815260040161054a906110ff565b60405180910390fd5b565b6002600154141561059b576040517f08c379a00000000000000000000000000000000000000000000000000000000081526004016105929061116b565b60405180910390fd5b6002600181905550565b6106268363a9059cbb60e01b84846040516024016105c492919061119a565b604051602081830303815290604052907bffffffffffffffffffffffffffffffffffffffffffffffffffffffff19166020820180517bffffffffffffffffffffffffffffffffffffffffffffffffffffffff8381831617835250505050610700565b505050565b60018081905550565b60008060009054906101000a900473ffffffffffffffffffffffffffffffffffffffff169050816000806101000a81548173ffffffffffffffffffffffffffffffffffffffff021916908373ffffffffffffffffffffffffffffffffffffffff1602179055508173ffffffffffffffffffffffffffffffffffffffff168173ffffffffffffffffffffffffffffffffffffffff167f8be0079c531659141344cd1fd0a4f28419497f9722a3daafe3b4186f6b6457e060405160405180910390a35050565b600033905090565b6000610762826040518060400160405280602081526020017f5361666545524332303a206c6f772d6c6576656c2063616c6c206661696c65648152508573ffffffffffffffffffffffffffffffffffffffff166107c89092919063ffffffff16565b905060008151148061078457508080602001905181019061078391906111ef565b5b6107c3576040517f08c379a00000000000000000000000000000000000000000000000000000000081526004016107ba9061128e565b60405180910390fd5b505050565b60606107d784846000856107e0565b90509392505050565b606082471015610825576040517f08c379a000000000000000000000000000000000000000000000000000000000815260040161081c90611320565b60405180910390fd5b6000808673ffffffffffffffffffffffffffffffffffffffff16858760405161084e91906113ba565b60006040518083038185875af1925050503d806000811461088b576040519150601f19603f3d011682016040523d82523d6000602084013e610890565b606091505b50915091506108a1878383876108ad565b92505050949350505050565b6060831561091057600083511415610908576108c885610923565b610907576040517f08c379a00000000000000000000000000000000000000000000000000000000081526004016108fe9061141d565b60405180910390fd5b5b82905061091b565b61091a8383610946565b5b949350505050565b6000808273ffffffffffffffffffffffffffffffffffffffff163b119050919050565b6000825111156109595781518083602001fd5b806040517f08c379a000000000000000000000000000000000000000000000000000000000815260040161098d9190611481565b60405180910390fd5b60008115159050919050565b6109ab81610996565b82525050565b60006020820190506109c660008301846109a2565b92915050565b6000604051905090565b600080fd5b600080fd5b600080fd5b6000601f19601f8301169050919050565b7f4e487b7100000000000000000000000000000000000000000000000000000000600052604160045260246000fd5b610a2e826109e5565b810181811067ffffffffffffffff82111715610a4d57610a4c6109f6565b5b80604052505050565b6000610a606109cc565b9050610a6c8282610a25565b919050565b600067ffffffffffffffff821115610a8c57610a8b6109f6565b5b602082029050602081019050919050565b600080fd5b600073ffffffffffffffffffffffffffffffffffffffff82169050919050565b6000610acd82610aa2565b9050919050565b610add81610ac2565b8114610ae857600080fd5b50565b600081359050610afa81610ad4565b92915050565b6000610b13610b0e84610a71565b610a56565b90508083825260208201905060208402830185811115610b3657610b35610a9d565b5b835b81811015610b5f5780610b4b8882610aeb565b845260208401935050602081019050610b38565b5050509392505050565b600082601f830112610b7e57610b7d6109e0565b5b8135610b8e848260208601610b00565b91505092915050565b600067ffffffffffffffff821115610bb257610bb16109f6565b5b602082029050602081019050919050565b6000819050919050565b610bd681610bc3565b8114610be157600080fd5b50565b600081359050610bf381610bcd565b92915050565b6000610c0c610c0784610b97565b610a56565b90508083825260208201905060208402830185811115610c2f57610c2e610a9d565b5b835b81811015610c585780610c448882610be4565b845260208401935050602081019050610c31565b5050509392505050565b600082601f830112610c7757610c766109e0565b5b8135610c87848260208601610bf9565b91505092915050565b60008060408385031215610ca757610ca66109d6565b5b600083013567ffffffffffffffff811115610cc557610cc46109db565b5b610cd185828601610b69565b925050602083013567ffffffffffffffff811115610cf257610cf16109db565b5b610cfe85828601610c62565b9150509250929050565b610d1181610ac2565b82525050565b6000602082019050610d2c6000830184610d08565b92915050565b600060208284031215610d4857610d476109d6565b5b6000610d5684828501610aeb565b91505092915050565b6000819050919050565b6000610d84610d7f610d7a84610aa2565b610d5f565b610aa2565b9050919050565b6000610d9682610d69565b9050919050565b6000610da882610d8b565b9050919050565b610db881610d9d565b82525050565b6000602082019050610dd36000830184610daf565b92915050565b600082825260208201905092915050565b7f526563697069656e747320616e6420616d6f756e7473206172726179206c656e60008201527f6774682073686f756c642062652073616d650000000000000000000000000000602082015250565b6000610e46603283610dd9565b9150610e5182610dea565b604082019050919050565b60006020820190508181036000830152610e7581610e39565b9050919050565b7f4e487b7100000000000000000000000000000000000000000000000000000000600052603260045260246000fd5b7f416464726573732068617320616c726561647920636c61696d6564207468652060008201527f61697264726f7000000000000000000000000000000000000000000000000000602082015250565b6000610f07602783610dd9565b9150610f1282610eab565b604082019050919050565b60006020820190508181036000830152610f3681610efa565b9050919050565b7f4e487b7100000000000000000000000000000000000000000000000000000000600052601160045260246000fd5b6000610f7782610bc3565b91507fffffffffffffffffffffffffffffffffffffffffffffffffffffffffffffffff821415610faa57610fa9610f3d565b5b600182019050919050565b7f4f776e61626c653a206e6577206f776e657220697320746865207a65726f206160008201527f6464726573730000000000000000000000000000000000000000000000000000602082015250565b6000611011602683610dd9565b915061101c82610fb5565b604082019050919050565b6000602082019050818103600083015261104081611004565b9050919050565b7f4f776e61626c653a2063616c6c6572206973206e6f7420746865206f776e6572600082015250565b600061107d602083610dd9565b915061108882611047565b602082019050919050565b600060208201905081810360008301526110ac81611070565b9050919050565b7f5061757361626c653a2070617573656400000000000000000000000000000000600082015250565b60006110e9601083610dd9565b91506110f4826110b3565b602082019050919050565b60006020820190508181036000830152611118816110dc565b9050919050565b7f5265656e7472616e637947756172643a207265656e7472616e742063616c6c00600082015250565b6000611155601f83610dd9565b91506111608261111f565b602082019050919050565b6000602082019050818103600083015261118481611148565b9050919050565b61119481610bc3565b82525050565b60006040820190506111af6000830185610d08565b6111bc602083018461118b565b9392505050565b6111cc81610996565b81146111d757600080fd5b50565b6000815190506111e9816111c3565b92915050565b600060208284031215611205576112046109d6565b5b6000611213848285016111da565b91505092915050565b7f5361666545524332303a204552433230206f7065726174696f6e20646964206e60008201527f6f74207375636365656400000000000000000000000000000000000000000000602082015250565b6000611278602a83610dd9565b91506112838261121c565b604082019050919050565b600060208201905081810360008301526112a78161126b565b9050919050565b7f416464726573733a20696e73756666696369656e742062616c616e636520666f60008201527f722063616c6c0000000000000000000000000000000000000000000000000000602082015250565b600061130a602683610dd9565b9150611315826112ae565b604082019050919050565b60006020820190508181036000830152611339816112fd565b9050919050565b600081519050919050565b600081905092915050565b60005b83811015611374578082015181840152602081019050611359565b83811115611383576000848401525b50505050565b600061139482611340565b61139e818561134b565b93506113ae818560208601611356565b80840191505092915050565b60006113c68284611389565b915081905092915050565b7f416464726573733a2063616c6c20746f206e6f6e2d636f6e7472616374000000600082015250565b6000611407601d83610dd9565b9150611412826113d1565b602082019050919050565b60006020820190508181036000830152611436816113fa565b9050919050565b600081519050919050565b60006114538261143d565b61145d8185610dd9565b935061146d818560208601611356565b611476816109e5565b840191505092915050565b6000602082019050818103600083015261149b8184611448565b90509291505056fea2646970667358221220a7a45eb51770d3387bcfd5a8a96cd37f261c16ccc8600db56ed971f9a566ed0f64736f6c63430008090033",
  "linkReferences": {},
  "deployedLinkReferences": {}
}