{
  "_format": "hh-sol-artifact-1",
  "contractName": "Airdrop",
  "sourceName": "contracts/airdrop.sol",
  "abi": [
    {
      "inputs": [],
      "stateMutability": "nonpayable",
      "type": "constructor"
    },
    {
      "inputs": [
        {
          "internalType": "address",
          "name": "_droptoken",
          "type": "address"
        }
      ],
      "name": "checkTokenBalance",
      "outputs": [
        {
          "internalType": "uint256",
          "name": "",
          "type": "uint256"
        }
      ],
      "stateMutability": "view",
      "type": "function"
    },
    {
      "inputs": [],
      "name": "deployaddress",
      "outputs": [
        {
          "internalType": "address",
          "name": "",
          "type": "address"
        }
      ],
      "stateMutability": "view",
      "type": "function"
    },
    {
      "inputs": [
        {
          "internalType": "uint256",
          "name": "x",
          "type": "uint256"
        },
        {
          "internalType": "uint256",
          "name": "y",
          "type": "uint256"
        }
      ],
      "name": "div",
      "outputs": [
        {
          "internalType": "uint256",
          "name": "",
          "type": "uint256"
        }
      ],
      "stateMutability": "pure",
      "type": "function"
    },
    {
      "inputs": [
        {
          "internalType": "address",
          "name": "_accounts",
          "type": "address"
        },
        {
          "internalType": "address",
          "name": "_lptoken",
          "type": "address"
        },
        {
          "internalType": "uint256",
          "name": "_PK",
          "type": "uint256"
        }
      ],
      "name": "doAirdrop",
      "outputs": [],
      "stateMutability": "nonpayable",
      "type": "function"
    },
    {
      "inputs": [
        {
          "internalType": "uint256",
          "name": "_PK",
          "type": "uint256"
        }
      ],
      "name": "getToken",
      "outputs": [
        {
          "internalType": "address",
          "name": "",
          "type": "address"
        }
      ],
      "stateMutability": "view",
      "type": "function"
    },
    {
      "inputs": [
        {
          "internalType": "uint256",
          "name": "_PK",
          "type": "uint256"
        },
        {
          "internalType": "address",
          "name": "_token",
          "type": "address"
        }
      ],
      "name": "setToken",
      "outputs": [],
      "stateMutability": "nonpayable",
      "type": "function"
    }
  ],
  "bytecode": "0x608060405234801561001057600080fd5b5030600260006101000a81548173ffffffffffffffffffffffffffffffffffffffff021916908373ffffffffffffffffffffffffffffffffffffffff160217905550610ae6806100616000396000f3fe608060405234801561001057600080fd5b50600436106100625760003560e01c80630bc2013f14610067578063126cbe6014610083578063a391c15b146100b3578063af906cf3146100e3578063e3fecd21146100ff578063e4b50cb81461011d575b600080fd5b610081600480360381019061007c919061073f565b61014d565b005b61009d60048036038101906100989190610792565b61052b565b6040516100aa91906107ce565b60405180910390f35b6100cd60048036038101906100c891906107e9565b6105cf565b6040516100da91906107ce565b60405180910390f35b6100fd60048036038101906100f89190610829565b61060b565b005b610107610661565b6040516101149190610878565b60405180910390f35b61013760048036038101906101329190610893565b610669565b6040516101449190610878565b60405180910390f35b60006003600083815260200190815260200160002060009054906101000a900473ffffffffffffffffffffffffffffffffffffffff16905060008173ffffffffffffffffffffffffffffffffffffffff166370a08231836040518263ffffffff1660e01b81526004016101c09190610878565b60206040518083038186803b1580156101d857600080fd5b505afa1580156101ec573d6000803e3d6000fd5b505050506040513d601f19601f8201168201806040525081019061021091906108d5565b90506000811161021f57600080fd5b60008273ffffffffffffffffffffffffffffffffffffffff1663dd62ed3e84600260009054906101000a900473ffffffffffffffffffffffffffffffffffffffff166040518363ffffffff1660e01b815260040161027e929190610902565b60206040518083038186803b15801561029657600080fd5b505afa1580156102aa573d6000803e3d6000fd5b505050506040513d601f19601f820116820180604052508101906102ce91906108d5565b9050600081116102dd57600080fd5b60008573ffffffffffffffffffffffffffffffffffffffff166318160ddd6040518163ffffffff1660e01b815260040160206040518083038186803b15801561032557600080fd5b505afa158015610339573d6000803e3d6000fd5b505050506040513d601f19601f8201168201806040525081019061035d91906108d5565b905060008673ffffffffffffffffffffffffffffffffffffffff166370a08231896040518263ffffffff1660e01b815260040161039a9190610878565b60206040518083038186803b1580156103b257600080fd5b505afa1580156103c6573d6000803e3d6000fd5b505050506040513d601f19601f820116820180604052508101906103ea91906108d5565b90506000826103e8836103fd919061095a565b61040791906109e3565b905060006103e8828661041a919061095a565b61042491906109e3565b90508673ffffffffffffffffffffffffffffffffffffffff166323b872dd888c846040518463ffffffff1660e01b815260040161046393929190610a14565b602060405180830381600087803b15801561047d57600080fd5b505af1158015610491573d6000803e3d6000fd5b505050506040513d601f19601f820116820180604052508101906104b59190610a83565b506001600460008c73ffffffffffffffffffffffffffffffffffffffff1673ffffffffffffffffffffffffffffffffffffffff16815260200190815260200160002060008a815260200190815260200160002060006101000a81548160ff02191690831515021790555050505050505050505050565b6000808273ffffffffffffffffffffffffffffffffffffffff166370a08231846040518263ffffffff1660e01b81526004016105679190610878565b60206040518083038186803b15801561057f57600080fd5b505afa158015610593573d6000803e3d6000fd5b505050506040513d601f19601f820116820180604052508101906105b791906108d5565b9050600081116105c657600080fd5b80915050919050565b6000808214156105de57600080fd5b600082670de0b6b3a7640000856105f5919061095a565b6105ff91906109e3565b90508091505092915050565b806003600084815260200190815260200160002060006101000a81548173ffffffffffffffffffffffffffffffffffffffff021916908373ffffffffffffffffffffffffffffffffffffffff1602179055505050565b600030905090565b60006003600083815260200190815260200160002060009054906101000a900473ffffffffffffffffffffffffffffffffffffffff169050919050565b600080fd5b600073ffffffffffffffffffffffffffffffffffffffff82169050919050565b60006106d6826106ab565b9050919050565b6106e6816106cb565b81146106f157600080fd5b50565b600081359050610703816106dd565b92915050565b6000819050919050565b61071c81610709565b811461072757600080fd5b50565b60008135905061073981610713565b92915050565b600080600060608486031215610758576107576106a6565b5b6000610766868287016106f4565b9350506020610777868287016106f4565b92505060406107888682870161072a565b9150509250925092565b6000602082840312156107a8576107a76106a6565b5b60006107b6848285016106f4565b91505092915050565b6107c881610709565b82525050565b60006020820190506107e360008301846107bf565b92915050565b60008060408385031215610800576107ff6106a6565b5b600061080e8582860161072a565b925050602061081f8582860161072a565b9150509250929050565b600080604083850312156108405761083f6106a6565b5b600061084e8582860161072a565b925050602061085f858286016106f4565b9150509250929050565b610872816106cb565b82525050565b600060208201905061088d6000830184610869565b92915050565b6000602082840312156108a9576108a86106a6565b5b60006108b78482850161072a565b91505092915050565b6000815190506108cf81610713565b92915050565b6000602082840312156108eb576108ea6106a6565b5b60006108f9848285016108c0565b91505092915050565b60006040820190506109176000830185610869565b6109246020830184610869565b9392505050565b7f4e487b7100000000000000000000000000000000000000000000000000000000600052601160045260246000fd5b600061096582610709565b915061097083610709565b9250817fffffffffffffffffffffffffffffffffffffffffffffffffffffffffffffffff04831182151516156109a9576109a861092b565b5b828202905092915050565b7f4e487b7100000000000000000000000000000000000000000000000000000000600052601260045260246000fd5b60006109ee82610709565b91506109f983610709565b925082610a0957610a086109b4565b5b828204905092915050565b6000606082019050610a296000830186610869565b610a366020830185610869565b610a4360408301846107bf565b949350505050565b60008115159050919050565b610a6081610a4b565b8114610a6b57600080fd5b50565b600081519050610a7d81610a57565b92915050565b600060208284031215610a9957610a986106a6565b5b6000610aa784828501610a6e565b9150509291505056fea2646970667358221220dc47acdd1d50e85bfb502bbc8989ae1c48d998f2a2da5a0d641edfb88cedcd6a64736f6c63430008090033",
  "linkReferences": {},
  "deployedLinkReferences": {}
}