{
  "_format": "hh-sol-artifact-1",
  "contractName": "Sdeploy",
  "sourceName": "contracts/Sdeploy.sol",
  "abi": [
    {
      "inputs": [],
      "stateMutability": "nonpayable",
      "type": "constructor"
    },
    {
      "inputs": [],
      "name": "getFeatureAddress",
      "outputs": [
        {
          "internalType": "address",
          "name": "",
          "type": "address"
        },
        {
          "internalType": "address",
          "name": "",
          "type": "address"
        }
      ],
      "stateMutability": "view",
      "type": "function"
    },
    {
      "inputs": [],
      "name": "tokenAddress",
      "outputs": [
        {
          "internalType": "address",
          "name": "vasdToken",
          "type": "address"
        }
      ],
      "stateMutability": "view",
      "type": "function"
    }
  ],
  "bytecode": "0x608060405234801561001057600080fd5b5060405161001d90610280565b604051809103906000f080158015610039573d6000803e3d6000fd5b506000806101000a81548173ffffffffffffffffffffffffffffffffffffffff021916908373ffffffffffffffffffffffffffffffffffffffff16021790555060008054906101000a900473ffffffffffffffffffffffffffffffffffffffff16600360006101000a81548173ffffffffffffffffffffffffffffffffffffffff021916908373ffffffffffffffffffffffffffffffffffffffff1602179055506040516100e69061028d565b6100ef90610304565b604051809103906000f08015801561010b573d6000803e3d6000fd5b50600660006101000a81548173ffffffffffffffffffffffffffffffffffffffff021916908373ffffffffffffffffffffffffffffffffffffffff160217905550600660009054906101000a900473ffffffffffffffffffffffffffffffffffffffff16600260006101000a81548173ffffffffffffffffffffffffffffffffffffffff021916908373ffffffffffffffffffffffffffffffffffffffff1602179055506040516101bb9061029a565b604051809103906000f0801580156101d7573d6000803e3d6000fd5b50600160006101000a81548173ffffffffffffffffffffffffffffffffffffffff021916908373ffffffffffffffffffffffffffffffffffffffff160217905550600160009054906101000a900473ffffffffffffffffffffffffffffffffffffffff16600460006101000a81548173ffffffffffffffffffffffffffffffffffffffff021916908373ffffffffffffffffffffffffffffffffffffffff160217905550610337565b612a6f806104f483390190565b61254680612f6383390190565b611f56806154a983390190565b600082825260208201905092915050565b7f5641534400000000000000000000000000000000000000000000000000000000600082015250565b60006102ee6004836102a7565b91506102f9826102b8565b602082019050919050565b6000604082019050818103600083015261031d816102e1565b90508181036020830152610330816102e1565b9050919050565b6101ae806103466000396000f3fe608060405234801561001057600080fd5b50600436106100365760003560e01c80639d76ea581461003b578063b470e8e814610059575b600080fd5b610043610078565b6040516100509190610134565b60405180910390f35b6100616100a2565b60405161006f92919061014f565b60405180910390f35b6000600260009054906101000a900473ffffffffffffffffffffffffffffffffffffffff16905090565b600080600360009054906101000a900473ffffffffffffffffffffffffffffffffffffffff16600460009054906101000a900473ffffffffffffffffffffffffffffffffffffffff16915091509091565b600073ffffffffffffffffffffffffffffffffffffffff82169050919050565b600061011e826100f3565b9050919050565b61012e81610113565b82525050565b60006020820190506101496000830184610125565b92915050565b60006040820190506101646000830185610125565b6101716020830184610125565b939250505056fea2646970667358221220f7e4d8649275cfcb969a90ff7da38c5ceaae26998a6140c94e808d51566348c464736f6c634300080900336080604052629e340060035563013c68006004556301da9c00600555603c60065534801561002c57600080fd5b5030600160006101000a81548173ffffffffffffffffffffffffffffffffffffffff021916908373ffffffffffffffffffffffffffffffffffffffff1602179055506129f28061007d6000396000f3fe608060405234801561001057600080fd5b50600436106100885760003560e01c8063a7f8cd091161005b578063a7f8cd0914610143578063b7c1bcb21461015f578063c515205d1461018f578063c7d8c823146101ad57610088565b806322f06ac11461008d578063513bc1ce146100c057806360d586f8146100f05780638274fa2a14610113575b600080fd5b6100a760048036038101906100a291906123a1565b6101c9565b6040516100b7949392919061242d565b60405180910390f35b6100da60048036038101906100d59190612472565b610240565b6040516100e7919061249f565b60405180910390f35b6100f8610258565b60405161010a969594939291906124ba565b60405180910390f35b61012d6004803603810190610128919061251b565b6102a7565b60405161013a919061255b565b60405180910390f35b61015d60048036038101906101589190612576565b6102e9565b005b61017960048036038101906101749190612603565b610e4c565b604051610186919061249f565b60405180910390f35b610197610e71565b6040516101a49190612643565b60405180910390f35b6101c760048036038101906101c29190612603565b610e88565b005b600b60205282600052604060002060205281600052604060002060205280600052604060002060009250925050508060000154908060010154908060020160009054906101000a900460ff16908060020160019054906101000a900473ffffffffffffffffffffffffffffffffffffffff16905084565b600e6020528060005260406000206000915090505481565b600080600080600080600f54601054601160009054906101000a900473ffffffffffffffffffffffffffffffffffffffff16601254601354601454955095509550955095509550909192939495565b600d6020528160005260406000206020528060005260406000206000915091509054906101000a900473ffffffffffffffffffffffffffffffffffffffff1681565b806000806101000a81548173ffffffffffffffffffffffffffffffffffffffff021916908373ffffffffffffffffffffffffffffffffffffffff16021790555060008054906101000a900473ffffffffffffffffffffffffffffffffffffffff16600260006101000a81548173ffffffffffffffffffffffffffffffffffffffff021916908373ffffffffffffffffffffffffffffffffffffffff1602179055506000600e60008773ffffffffffffffffffffffffffffffffffffffff1673ffffffffffffffffffffffffffffffffffffffff16815260200190815260200160002054905086600d60008873ffffffffffffffffffffffffffffffffffffffff1673ffffffffffffffffffffffffffffffffffffffff168152602001908152602001600020600083815260200190815260200160002060006101000a81548173ffffffffffffffffffffffffffffffffffffffff021916908373ffffffffffffffffffffffffffffffffffffffff1602179055506001600e60008873ffffffffffffffffffffffffffffffffffffffff1673ffffffffffffffffffffffffffffffffffffffff16815260200190815260200160002060008282546104ad919061268d565b925050819055506000600c60008873ffffffffffffffffffffffffffffffffffffffff1673ffffffffffffffffffffffffffffffffffffffff16815260200190815260200160002060008973ffffffffffffffffffffffffffffffffffffffff1673ffffffffffffffffffffffffffffffffffffffff1681526020019081526020016000205414156105cc5761054687878787876113ef565b82600c60008873ffffffffffffffffffffffffffffffffffffffff1673ffffffffffffffffffffffffffffffffffffffff16815260200190815260200160002060008973ffffffffffffffffffffffffffffffffffffffff1673ffffffffffffffffffffffffffffffffffffffff16815260200190815260200160002081905550610e43565b82600c60008873ffffffffffffffffffffffffffffffffffffffff1673ffffffffffffffffffffffffffffffffffffffff16815260200190815260200160002060008973ffffffffffffffffffffffffffffffffffffffff1673ffffffffffffffffffffffffffffffffffffffff168152602001908152602001600020541015610893576000600c60008873ffffffffffffffffffffffffffffffffffffffff1673ffffffffffffffffffffffffffffffffffffffff16815260200190815260200160002060008973ffffffffffffffffffffffffffffffffffffffff1673ffffffffffffffffffffffffffffffffffffffff1681526020019081526020016000205490506000600b60008973ffffffffffffffffffffffffffffffffffffffff1673ffffffffffffffffffffffffffffffffffffffff16815260200190815260200160002060008a73ffffffffffffffffffffffffffffffffffffffff1673ffffffffffffffffffffffffffffffffffffffff1681526020019081526020016000206000600c60008b73ffffffffffffffffffffffffffffffffffffffff1673ffffffffffffffffffffffffffffffffffffffff16815260200190815260200160002060008c73ffffffffffffffffffffffffffffffffffffffff1673ffffffffffffffffffffffffffffffffffffffff168152602001908152602001600020548152602001908152602001600020600001549050600081876107f0919061268d565b90506107ff8a8a8a848a6113ef565b61080a898b856114ba565b85600c60008b73ffffffffffffffffffffffffffffffffffffffff1673ffffffffffffffffffffffffffffffffffffffff16815260200190815260200160002060008c73ffffffffffffffffffffffffffffffffffffffff1673ffffffffffffffffffffffffffffffffffffffff16815260200190815260200160002081905550505050610e42565b82600c60008873ffffffffffffffffffffffffffffffffffffffff1673ffffffffffffffffffffffffffffffffffffffff16815260200190815260200160002060008973ffffffffffffffffffffffffffffffffffffffff1673ffffffffffffffffffffffffffffffffffffffff168152602001908152602001600020541115610b6e576000600c60008873ffffffffffffffffffffffffffffffffffffffff1673ffffffffffffffffffffffffffffffffffffffff16815260200190815260200160002060008973ffffffffffffffffffffffffffffffffffffffff1673ffffffffffffffffffffffffffffffffffffffff1681526020019081526020016000205490506109a588888888886113ef565b600b60008873ffffffffffffffffffffffffffffffffffffffff1673ffffffffffffffffffffffffffffffffffffffff16815260200190815260200160002060008973ffffffffffffffffffffffffffffffffffffffff1673ffffffffffffffffffffffffffffffffffffffff168152602001908152602001600020600085815260200190815260200160002060000154600b60008973ffffffffffffffffffffffffffffffffffffffff1673ffffffffffffffffffffffffffffffffffffffff16815260200190815260200160002060008a73ffffffffffffffffffffffffffffffffffffffff1673ffffffffffffffffffffffffffffffffffffffff16815260200190815260200160002060008381526020019081526020016000206000016000828254610ad5919061268d565b92505081905550610ae78789866114ba565b80600c60008973ffffffffffffffffffffffffffffffffffffffff1673ffffffffffffffffffffffffffffffffffffffff16815260200190815260200160002060008a73ffffffffffffffffffffffffffffffffffffffff1673ffffffffffffffffffffffffffffffffffffffff1681526020019081526020016000208190555050610e41565b82600c60008873ffffffffffffffffffffffffffffffffffffffff1673ffffffffffffffffffffffffffffffffffffffff16815260200190815260200160002060008973ffffffffffffffffffffffffffffffffffffffff1673ffffffffffffffffffffffffffffffffffffffff168152602001908152602001600020541415610e40576000600c60008873ffffffffffffffffffffffffffffffffffffffff1673ffffffffffffffffffffffffffffffffffffffff16815260200190815260200160002060008973ffffffffffffffffffffffffffffffffffffffff1673ffffffffffffffffffffffffffffffffffffffff1681526020019081526020016000205490506000600b60008973ffffffffffffffffffffffffffffffffffffffff1673ffffffffffffffffffffffffffffffffffffffff16815260200190815260200160002060008a73ffffffffffffffffffffffffffffffffffffffff1673ffffffffffffffffffffffffffffffffffffffff1681526020019081526020016000206000838152602001908152602001600020600001549050610d1589898989896113ef565b80600b60008a73ffffffffffffffffffffffffffffffffffffffff1673ffffffffffffffffffffffffffffffffffffffff16815260200190815260200160002060008b73ffffffffffffffffffffffffffffffffffffffff1673ffffffffffffffffffffffffffffffffffffffff16815260200190815260200160002060008781526020019081526020016000206000016000828254610db5919061268d565b9250508190555084600c60008a73ffffffffffffffffffffffffffffffffffffffff1673ffffffffffffffffffffffffffffffffffffffff16815260200190815260200160002060008b73ffffffffffffffffffffffffffffffffffffffff1673ffffffffffffffffffffffffffffffffffffffff1681526020019081526020016000208190555050505b5b5b5b50505050505050565b600c602052816000526040600020602052806000526040600020600091509150505481565b6000600a60009054906101000a900460ff16905090565b6001600e60008473ffffffffffffffffffffffffffffffffffffffff1673ffffffffffffffffffffffffffffffffffffffff16815260200190815260200160002054610ed491906126e3565b600f8190555060005b600f5481116113ea57600d60008473ffffffffffffffffffffffffffffffffffffffff1673ffffffffffffffffffffffffffffffffffffffff168152602001908152602001600020600082815260200190815260200160002060009054906101000a900473ffffffffffffffffffffffffffffffffffffffff16601160006101000a81548173ffffffffffffffffffffffffffffffffffffffff021916908373ffffffffffffffffffffffffffffffffffffffff160217905550600c60008473ffffffffffffffffffffffffffffffffffffffff1673ffffffffffffffffffffffffffffffffffffffff1681526020019081526020016000206000601160009054906101000a900473ffffffffffffffffffffffffffffffffffffffff1673ffffffffffffffffffffffffffffffffffffffff1673ffffffffffffffffffffffffffffffffffffffff16815260200190815260200160002054601281905550600b60008473ffffffffffffffffffffffffffffffffffffffff1673ffffffffffffffffffffffffffffffffffffffff1681526020019081526020016000206000601160009054906101000a900473ffffffffffffffffffffffffffffffffffffffff1673ffffffffffffffffffffffffffffffffffffffff1673ffffffffffffffffffffffffffffffffffffffff168152602001908152602001600020600060125481526020019081526020016000206000015460138190555061110083611694565b5050600b60008473ffffffffffffffffffffffffffffffffffffffff1673ffffffffffffffffffffffffffffffffffffffff1681526020019081526020016000206000601160009054906101000a900473ffffffffffffffffffffffffffffffffffffffff1673ffffffffffffffffffffffffffffffffffffffff1673ffffffffffffffffffffffffffffffffffffffff1681526020019081526020016000206000601254815260200190815260200160002060020160009054906101000a900460ff16600a60006101000a81548160ff021916908315150217905550600a60009054906101000a900460ff1661122c576040517f08c379a000000000000000000000000000000000000000000000000000000000815260040161122390612774565b60405180910390fd5b600a60009054906101000a900460ff16156113d757601160009054906101000a900473ffffffffffffffffffffffffffffffffffffffff1673ffffffffffffffffffffffffffffffffffffffff1663095ea7b3836013546040518363ffffffff1660e01b81526004016112a0929190612794565b602060405180830381600087803b1580156112ba57600080fd5b505af11580156112ce573d6000803e3d6000fd5b505050506040513d601f19601f820116820180604052508101906112f291906127e9565b50601160009054906101000a900473ffffffffffffffffffffffffffffffffffffffff1673ffffffffffffffffffffffffffffffffffffffff166323b872dd83856013546040518463ffffffff1660e01b815260040161135493929190612816565b602060405180830381600087803b15801561136e57600080fd5b505af1158015611382573d6000803e3d6000fd5b505050506040513d601f19601f820116820180604052508101906113a691906127e9565b506113d683601160009054906101000a900473ffffffffffffffffffffffffffffffffffffffff166012546114ba565b5b80806113e29061284d565b915050610edd565b505050565b6004811415611414576114058585848487611e72565b61140f84836120dc565b6114b3565b60088114156114455761142a8585848487611e72565b6114408483600261143b9190612896565b6120dc565b6114b2565b600c8114156114765761145b8585848487611e72565b6114718483600461146c9190612896565b6120dc565b6114b1565b6040517f08c379a00000000000000000000000000000000000000000000000000000000081526004016114a89061293c565b60405180910390fd5b5b5b5050505050565b6000600b60008573ffffffffffffffffffffffffffffffffffffffff1673ffffffffffffffffffffffffffffffffffffffff16815260200190815260200160002060008473ffffffffffffffffffffffffffffffffffffffff1673ffffffffffffffffffffffffffffffffffffffff1681526020019081526020016000206000838152602001908152602001600020600001819055506000600b60008573ffffffffffffffffffffffffffffffffffffffff1673ffffffffffffffffffffffffffffffffffffffff16815260200190815260200160002060008473ffffffffffffffffffffffffffffffffffffffff1673ffffffffffffffffffffffffffffffffffffffff1681526020019081526020016000206000838152602001908152602001600020600101819055506000600b60008573ffffffffffffffffffffffffffffffffffffffff1673ffffffffffffffffffffffffffffffffffffffff16815260200190815260200160002060008473ffffffffffffffffffffffffffffffffffffffff1673ffffffffffffffffffffffffffffffffffffffff168152602001908152602001600020600083815260200190815260200160002060020160006101000a81548160ff021916908315150217905550505050565b6060806001600e60008573ffffffffffffffffffffffffffffffffffffffff1673ffffffffffffffffffffffffffffffffffffffff168152602001908152602001600020546116e391906126e3565b60108190555060005b6010548111611d8a57600d60008573ffffffffffffffffffffffffffffffffffffffff1673ffffffffffffffffffffffffffffffffffffffff168152602001908152602001600020600082815260200190815260200160002060009054906101000a900473ffffffffffffffffffffffffffffffffffffffff16601560006101000a81548173ffffffffffffffffffffffffffffffffffffffff021916908373ffffffffffffffffffffffffffffffffffffffff160217905550600c60008573ffffffffffffffffffffffffffffffffffffffff1673ffffffffffffffffffffffffffffffffffffffff1681526020019081526020016000206000601560009054906101000a900473ffffffffffffffffffffffffffffffffffffffff1673ffffffffffffffffffffffffffffffffffffffff1673ffffffffffffffffffffffffffffffffffffffff168152602001908152602001600020546016819055506004601654141561193957600654600b60008673ffffffffffffffffffffffffffffffffffffffff1673ffffffffffffffffffffffffffffffffffffffff1681526020019081526020016000206000601560009054906101000a900473ffffffffffffffffffffffffffffffffffffffff1673ffffffffffffffffffffffffffffffffffffffff1673ffffffffffffffffffffffffffffffffffffffff1681526020019081526020016000206000601654815260200190815260200160002060010154611918919061268d565b421015600760006101000a81548160ff021916908315150217905550611b13565b60086016541415611a2757600654600b60008673ffffffffffffffffffffffffffffffffffffffff1673ffffffffffffffffffffffffffffffffffffffff1681526020019081526020016000206000601560009054906101000a900473ffffffffffffffffffffffffffffffffffffffff1673ffffffffffffffffffffffffffffffffffffffff1673ffffffffffffffffffffffffffffffffffffffff1681526020019081526020016000206000601654815260200190815260200160002060010154611a06919061268d565b421015600760006101000a81548160ff021916908315150217905550611b12565b600c6016541415611b1157600654600b60008673ffffffffffffffffffffffffffffffffffffffff1673ffffffffffffffffffffffffffffffffffffffff1681526020019081526020016000206000601560009054906101000a900473ffffffffffffffffffffffffffffffffffffffff1673ffffffffffffffffffffffffffffffffffffffff1673ffffffffffffffffffffffffffffffffffffffff1681526020019081526020016000206000601654815260200190815260200160002060010154611af4919061268d565b421015600760006101000a81548160ff0219169083151502179055505b5b5b600760009054906101000a900460ff1615611d77576001600b60008673ffffffffffffffffffffffffffffffffffffffff1673ffffffffffffffffffffffffffffffffffffffff1681526020019081526020016000206000601560009054906101000a900473ffffffffffffffffffffffffffffffffffffffff1673ffffffffffffffffffffffffffffffffffffffff1673ffffffffffffffffffffffffffffffffffffffff1681526020019081526020016000206000601654815260200190815260200160002060020160006101000a81548160ff0219169083151502179055506008601560009054906101000a900473ffffffffffffffffffffffffffffffffffffffff169080600181540180825580915050600190039060005260206000200160009091909190916101000a81548173ffffffffffffffffffffffffffffffffffffffff021916908373ffffffffffffffffffffffffffffffffffffffff1602179055506000600b60008673ffffffffffffffffffffffffffffffffffffffff1673ffffffffffffffffffffffffffffffffffffffff1681526020019081526020016000206000601560009054906101000a900473ffffffffffffffffffffffffffffffffffffffff1673ffffffffffffffffffffffffffffffffffffffff1673ffffffffffffffffffffffffffffffffffffffff1681526020019081526020016000206000601654815260200190815260200160002060000154905060098190806001815401808255809150506001900390600052602060002001600090919091909150558060146000828254611d6e919061268d565b92505081905550505b8080611d829061284d565b9150506116ec565b506008600981805480602002602001604051908101604052809291908181526020018280548015611e1057602002820191906000526020600020905b8160009054906101000a900473ffffffffffffffffffffffffffffffffffffffff1673ffffffffffffffffffffffffffffffffffffffff1681526020019060010190808311611dc6575b5050505050915080805480602002602001604051908101604052809291908181526020018280548015611e6257602002820191906000526020600020905b815481526020019060010190808311611e4e575b5050505050905091509150915091565b8473ffffffffffffffffffffffffffffffffffffffff166323b872dd8583866040518463ffffffff1660e01b8152600401611eaf93929190612816565b602060405180830381600087803b158015611ec957600080fd5b505af1158015611edd573d6000803e3d6000fd5b505050506040513d601f19601f82011682018060405250810190611f0191906127e9565b5082600b60008673ffffffffffffffffffffffffffffffffffffffff1673ffffffffffffffffffffffffffffffffffffffff16815260200190815260200160002060008773ffffffffffffffffffffffffffffffffffffffff1673ffffffffffffffffffffffffffffffffffffffff16815260200190815260200160002060008481526020019081526020016000206000018190555042600b60008673ffffffffffffffffffffffffffffffffffffffff1673ffffffffffffffffffffffffffffffffffffffff16815260200190815260200160002060008773ffffffffffffffffffffffffffffffffffffffff1673ffffffffffffffffffffffffffffffffffffffff1681526020019081526020016000206000848152602001908152602001600020600101819055506000600b60008673ffffffffffffffffffffffffffffffffffffffff1673ffffffffffffffffffffffffffffffffffffffff16815260200190815260200160002060008773ffffffffffffffffffffffffffffffffffffffff1673ffffffffffffffffffffffffffffffffffffffff168152602001908152602001600020600084815260200190815260200160002060020160006101000a81548160ff0219169083151502179055505050505050565b6000670de0b6b3a7640000826120f2919061298b565b9050600260009054906101000a900473ffffffffffffffffffffffffffffffffffffffff1673ffffffffffffffffffffffffffffffffffffffff1663a0712d68826040518263ffffffff1660e01b815260040161214f919061249f565b600060405180830381600087803b15801561216957600080fd5b505af115801561217d573d6000803e3d6000fd5b50505050600260009054906101000a900473ffffffffffffffffffffffffffffffffffffffff1673ffffffffffffffffffffffffffffffffffffffff1663095ea7b384836040518363ffffffff1660e01b81526004016121de929190612794565b602060405180830381600087803b1580156121f857600080fd5b505af115801561220c573d6000803e3d6000fd5b505050506040513d601f19601f8201168201806040525081019061223091906127e9565b50600260009054906101000a900473ffffffffffffffffffffffffffffffffffffffff1673ffffffffffffffffffffffffffffffffffffffff166323b872dd60008054906101000a900473ffffffffffffffffffffffffffffffffffffffff1685846040518463ffffffff1660e01b81526004016122b093929190612816565b602060405180830381600087803b1580156122ca57600080fd5b505af11580156122de573d6000803e3d6000fd5b505050506040513d601f19601f8201168201806040525081019061230291906127e9565b50505050565b600080fd5b600073ffffffffffffffffffffffffffffffffffffffff82169050919050565b60006123388261230d565b9050919050565b6123488161232d565b811461235357600080fd5b50565b6000813590506123658161233f565b92915050565b6000819050919050565b61237e8161236b565b811461238957600080fd5b50565b60008135905061239b81612375565b92915050565b6000806000606084860312156123ba576123b9612308565b5b60006123c886828701612356565b93505060206123d986828701612356565b92505060406123ea8682870161238c565b9150509250925092565b6123fd8161236b565b82525050565b60008115159050919050565b61241881612403565b82525050565b6124278161232d565b82525050565b600060808201905061244260008301876123f4565b61244f60208301866123f4565b61245c604083018561240f565b612469606083018461241e565b95945050505050565b60006020828403121561248857612487612308565b5b600061249684828501612356565b91505092915050565b60006020820190506124b460008301846123f4565b92915050565b600060c0820190506124cf60008301896123f4565b6124dc60208301886123f4565b6124e9604083018761241e565b6124f660608301866123f4565b61250360808301856123f4565b61251060a08301846123f4565b979650505050505050565b6000806040838503121561253257612531612308565b5b600061254085828601612356565b92505060206125518582860161238c565b9150509250929050565b6000602082019050612570600083018461241e565b92915050565b60008060008060008060c0878903121561259357612592612308565b5b60006125a189828a01612356565b96505060206125b289828a01612356565b95505060406125c389828a01612356565b94505060606125d489828a0161238c565b93505060806125e589828a0161238c565b92505060a06125f689828a01612356565b9150509295509295509295565b6000806040838503121561261a57612619612308565b5b600061262885828601612356565b925050602061263985828601612356565b9150509250929050565b6000602082019050612658600083018461240f565b92915050565b7f4e487b7100000000000000000000000000000000000000000000000000000000600052601160045260246000fd5b60006126988261236b565b91506126a38361236b565b9250827fffffffffffffffffffffffffffffffffffffffffffffffffffffffffffffffff038211156126d8576126d761265e565b5b828201905092915050565b60006126ee8261236b565b91506126f98361236b565b92508282101561270c5761270b61265e565b5b828203905092915050565b600082825260208201905092915050565b7f636865636b20746865206d6f6e74680000000000000000000000000000000000600082015250565b600061275e600f83612717565b915061276982612728565b602082019050919050565b6000602082019050818103600083015261278d81612751565b9050919050565b60006040820190506127a9600083018561241e565b6127b660208301846123f4565b9392505050565b6127c681612403565b81146127d157600080fd5b50565b6000815190506127e3816127bd565b92915050565b6000602082840312156127ff576127fe612308565b5b600061280d848285016127d4565b91505092915050565b600060608201905061282b600083018661241e565b612838602083018561241e565b61284560408301846123f4565b949350505050565b60006128588261236b565b91507fffffffffffffffffffffffffffffffffffffffffffffffffffffffffffffffff82141561288b5761288a61265e565b5b600182019050919050565b60006128a18261236b565b91506128ac8361236b565b9250817fffffffffffffffffffffffffffffffffffffffffffffffffffffffffffffffff04831182151516156128e5576128e461265e565b5b828202905092915050565b7f77726f6e67206d6f6e7468000000000000000000000000000000000000000000600082015250565b6000612926600b83612717565b9150612931826128f0565b602082019050919050565b6000602082019050818103600083015261295581612919565b9050919050565b7f4e487b7100000000000000000000000000000000000000000000000000000000600052601260045260246000fd5b60006129968261236b565b91506129a18361236b565b9250826129b1576129b061295c565b5b82820490509291505056fea2646970667358221220bbbb7c54caca9fc44be41735da488859cc4e2a2c8618cfe6c41e6dcb7c499c6764736f6c6343000809003360806040523480156200001157600080fd5b506040516200254638038062002546833981810160405281019062000037919062000344565b8181816003908051906020019062000051929190620000f7565b5080600490805190602001906200006a929190620000f7565b50505030600560006101000a81548173ffffffffffffffffffffffffffffffffffffffff021916908373ffffffffffffffffffffffffffffffffffffffff16021790555030600660006101000a81548173ffffffffffffffffffffffffffffffffffffffff021916908373ffffffffffffffffffffffffffffffffffffffff16021790555050506200042e565b8280546200010590620003f8565b90600052602060002090601f01602090048101928262000129576000855562000175565b82601f106200014457805160ff191683800117855562000175565b8280016001018555821562000175579182015b828111156200017457825182559160200191906001019062000157565b5b50905062000184919062000188565b5090565b5b80821115620001a357600081600090555060010162000189565b5090565b6000604051905090565b600080fd5b600080fd5b600080fd5b600080fd5b6000601f19601f8301169050919050565b7f4e487b7100000000000000000000000000000000000000000000000000000000600052604160045260246000fd5b6200021082620001c5565b810181811067ffffffffffffffff82111715620002325762000231620001d6565b5b80604052505050565b600062000247620001a7565b905062000255828262000205565b919050565b600067ffffffffffffffff821115620002785762000277620001d6565b5b6200028382620001c5565b9050602081019050919050565b60005b83811015620002b057808201518184015260208101905062000293565b83811115620002c0576000848401525b50505050565b6000620002dd620002d7846200025a565b6200023b565b905082815260208101848484011115620002fc57620002fb620001c0565b5b6200030984828562000290565b509392505050565b600082601f830112620003295762000328620001bb565b5b81516200033b848260208601620002c6565b91505092915050565b600080604083850312156200035e576200035d620001b1565b5b600083015167ffffffffffffffff8111156200037f576200037e620001b6565b5b6200038d8582860162000311565b925050602083015167ffffffffffffffff811115620003b157620003b0620001b6565b5b620003bf8582860162000311565b9150509250929050565b7f4e487b7100000000000000000000000000000000000000000000000000000000600052602260045260246000fd5b600060028204905060018216806200041157607f821691505b60208210811415620004285762000427620003c9565b5b50919050565b612108806200043e6000396000f3fe608060405234801561001057600080fd5b50600436106101165760003560e01c806395d89b41116100a2578063a0712d6811610071578063a0712d68146102fa578063a457c2d714610316578063a9059cbb14610346578063dd62ed3e14610376578063e2344963146103a657610116565b806395d89b4114610270578063993a86bd1461028e5780639c53f267146102ac5780639d76ea58146102dc57610116565b8063313ce567116100e9578063313ce567146101b757806339509351146101d55780636161eb181461020557806370a08231146102215780638a48ac031461025157610116565b806306fdde031461011b578063095ea7b31461013957806318160ddd1461016957806323b872dd14610187575b600080fd5b6101236103c2565b604051610130919061145d565b60405180910390f35b610153600480360381019061014e9190611518565b610454565b6040516101609190611573565b60405180910390f35b610171610492565b60405161017e919061159d565b60405180910390f35b6101a1600480360381019061019c91906115b8565b61049c565b6040516101ae9190611573565b60405180910390f35b6101bf6104bf565b6040516101cc9190611627565b60405180910390f35b6101ef60048036038101906101ea9190611518565b6104c8565b6040516101fc9190611573565b60405180910390f35b61021f600480360381019061021a9190611518565b61051a565b005b61023b60048036038101906102369190611642565b6106ea565b604051610248919061159d565b60405180910390f35b610259610733565b60405161026792919061172d565b60405180910390f35b6102786107cc565b604051610285919061145d565b60405180910390f35b61029661085e565b6040516102a3919061176c565b60405180910390f35b6102c660048036038101906102c19190611642565b610884565b6040516102d3919061159d565b60405180910390f35b6102e461089c565b6040516102f1919061176c565b60405180910390f35b610314600480360381019061030f9190611787565b6108c2565b005b610330600480360381019061032b9190611518565b6109ab565b60405161033d9190611573565b60405180910390f35b610360600480360381019061035b9190611518565b610a3d565b60405161036d9190611573565b60405180910390f35b610390600480360381019061038b91906117b4565b610a59565b60405161039d919061159d565b60405180910390f35b6103c060048036038101906103bb91906117f4565b610ae0565b005b6060600380546103d190611863565b80601f01602080910402602001604051908101604052809291908181526020018280546103fd90611863565b801561044a5780601f1061041f5761010080835404028352916020019161044a565b820191906000526020600020905b81548152906001019060200180831161042d57829003601f168201915b5050505050905090565b600080600660009054906101000a900473ffffffffffffffffffffffffffffffffffffffff169050610487818585610bcd565b600191505092915050565b6000600c54905090565b60006104a9848484610d98565b6104b4848484611013565b600190509392505050565b60006012905090565b600080600660009054906101000a900473ffffffffffffffffffffffffffffffffffffffff16905061050f8185856105008589610a59565b61050a91906118c4565b610bcd565b600191505092915050565b600073ffffffffffffffffffffffffffffffffffffffff168273ffffffffffffffffffffffffffffffffffffffff16141561058a576040517f08c379a00000000000000000000000000000000000000000000000000000000081526004016105819061198c565b60405180910390fd5b61059682600083611143565b6000600760008473ffffffffffffffffffffffffffffffffffffffff1673ffffffffffffffffffffffffffffffffffffffff1681526020019081526020016000205490508181101561061d576040517f08c379a000000000000000000000000000000000000000000000000000000000815260040161061490611a1e565b60405180910390fd5b818103600760008573ffffffffffffffffffffffffffffffffffffffff1673ffffffffffffffffffffffffffffffffffffffff1681526020019081526020016000208190555081600c60008282540392505081905550600073ffffffffffffffffffffffffffffffffffffffff168373ffffffffffffffffffffffffffffffffffffffff167fddf252ad1be2c89b69c2b068fc378daa952ba7f163c4a11628f55a4df523b3ef846040516106d1919061159d565b60405180910390a36106e583600084611267565b505050565b6000600760008373ffffffffffffffffffffffffffffffffffffffff1673ffffffffffffffffffffffffffffffffffffffff168152602001908152602001600020549050919050565b60606000600a600b54818054806020026020016040519081016040528092919081815260200182805480156107bd57602002820191906000526020600020905b8160009054906101000a900473ffffffffffffffffffffffffffffffffffffffff1673ffffffffffffffffffffffffffffffffffffffff1681526020019060010190808311610773575b50505050509150915091509091565b6060600480546107db90611863565b80601f016020809104026020016040519081016040528092919081815260200182805461080790611863565b80156108545780601f1061082957610100808354040283529160200191610854565b820191906000526020600020905b81548152906001019060200180831161083757829003601f168201915b5050505050905090565b600660009054906101000a900473ffffffffffffffffffffffffffffffffffffffff1681565b60096020528060005260406000206000915090505481565b600560009054906101000a900473ffffffffffffffffffffffffffffffffffffffff1681565b610901600660009054906101000a900473ffffffffffffffffffffffffffffffffffffffff16670de0b6b3a7640000836108fc9190611a3e565b61126c565b610940600660009054906101000a900473ffffffffffffffffffffffffffffffffffffffff16670de0b6b3a76400008361093b9190611a3e565b610454565b50600160096000600660009054906101000a900473ffffffffffffffffffffffffffffffffffffffff1673ffffffffffffffffffffffffffffffffffffffff1673ffffffffffffffffffffffffffffffffffffffff1681526020019081526020016000208190555050565b600080600660009054906101000a900473ffffffffffffffffffffffffffffffffffffffff16905060006109df8286610a59565b905083811015610a24576040517f08c379a0000000000000000000000000000000000000000000000000000000008152600401610a1b90611b0a565b60405180910390fd5b610a318286868403610bcd565b60019250505092915050565b600080309050610a4e818585610d98565b600191505092915050565b6000600860008473ffffffffffffffffffffffffffffffffffffffff1673ffffffffffffffffffffffffffffffffffffffff16815260200190815260200160002060008373ffffffffffffffffffffffffffffffffffffffff1673ffffffffffffffffffffffffffffffffffffffff16815260200190815260200160002054905092915050565b610b23600660009054906101000a900473ffffffffffffffffffffffffffffffffffffffff1682600a610b139190611c5d565b84610b1e9190611a3e565b61126c565b610b66600660009054906101000a900473ffffffffffffffffffffffffffffffffffffffff1682600a610b569190611c5d565b84610b619190611a3e565b610454565b5060096000600660009054906101000a900473ffffffffffffffffffffffffffffffffffffffff1673ffffffffffffffffffffffffffffffffffffffff1673ffffffffffffffffffffffffffffffffffffffff168152602001908152602001600020505050565b600073ffffffffffffffffffffffffffffffffffffffff168373ffffffffffffffffffffffffffffffffffffffff161415610c3d576040517f08c379a0000000000000000000000000000000000000000000000000000000008152600401610c3490611d1a565b60405180910390fd5b600073ffffffffffffffffffffffffffffffffffffffff168273ffffffffffffffffffffffffffffffffffffffff161415610cad576040517f08c379a0000000000000000000000000000000000000000000000000000000008152600401610ca490611dac565b60405180910390fd5b80600860008573ffffffffffffffffffffffffffffffffffffffff1673ffffffffffffffffffffffffffffffffffffffff16815260200190815260200160002060008473ffffffffffffffffffffffffffffffffffffffff1673ffffffffffffffffffffffffffffffffffffffff168152602001908152602001600020819055508173ffffffffffffffffffffffffffffffffffffffff168373ffffffffffffffffffffffffffffffffffffffff167f8c5be1e5ebec7d5bd14f71427d1e84f3dd0314c0f7b2291e5b200ac8c7c3b92583604051610d8b919061159d565b60405180910390a3505050565b600073ffffffffffffffffffffffffffffffffffffffff168373ffffffffffffffffffffffffffffffffffffffff161415610e08576040517f08c379a0000000000000000000000000000000000000000000000000000000008152600401610dff90611e3e565b60405180910390fd5b600073ffffffffffffffffffffffffffffffffffffffff168273ffffffffffffffffffffffffffffffffffffffff161415610e78576040517f08c379a0000000000000000000000000000000000000000000000000000000008152600401610e6f90611ed0565b60405180910390fd5b610e83838383611143565b6000600760008573ffffffffffffffffffffffffffffffffffffffff1673ffffffffffffffffffffffffffffffffffffffff16815260200190815260200160002054905081811015610f0a576040517f08c379a0000000000000000000000000000000000000000000000000000000008152600401610f0190611f62565b60405180910390fd5b818103600760008673ffffffffffffffffffffffffffffffffffffffff1673ffffffffffffffffffffffffffffffffffffffff1681526020019081526020016000208190555081600760008573ffffffffffffffffffffffffffffffffffffffff1673ffffffffffffffffffffffffffffffffffffffff168152602001908152602001600020600082825401925050819055508273ffffffffffffffffffffffffffffffffffffffff168473ffffffffffffffffffffffffffffffffffffffff167fddf252ad1be2c89b69c2b068fc378daa952ba7f163c4a11628f55a4df523b3ef84604051610ffa919061159d565b60405180910390a361100d848484611267565b50505050565b6000611041600660009054906101000a900473ffffffffffffffffffffffffffffffffffffffff1685610a59565b90506000611071600660009054906101000a900473ffffffffffffffffffffffffffffffffffffffff1685610a59565b90507fffffffffffffffffffffffffffffffffffffffffffffffffffffffffffffffff821461113c57828210156110dd576040517f08c379a00000000000000000000000000000000000000000000000000000000081526004016110d490611fce565b60405180910390fd5b61110c600660009054906101000a900473ffffffffffffffffffffffffffffffffffffffff1686858503610bcd565b61113b600660009054906101000a900473ffffffffffffffffffffffffffffffffffffffff1685858401610bcd565b5b5050505050565b6000805b600b548110156111df578373ffffffffffffffffffffffffffffffffffffffff16600a828154811061117c5761117b611fee565b5b9060005260206000200160009054906101000a900473ffffffffffffffffffffffffffffffffffffffff1673ffffffffffffffffffffffffffffffffffffffff1614156111cc57600191506111df565b80806111d79061201d565b915050611147565b508061126157600a839080600181540180825580915050600190039060005260206000200160009091909190916101000a81548173ffffffffffffffffffffffffffffffffffffffff021916908373ffffffffffffffffffffffffffffffffffffffff160217905550600b600081548092919061125b9061201d565b91905055505b50505050565b505050565b600073ffffffffffffffffffffffffffffffffffffffff168273ffffffffffffffffffffffffffffffffffffffff1614156112dc576040517f08c379a00000000000000000000000000000000000000000000000000000000081526004016112d3906120b2565b60405180910390fd5b6112e860008383611143565b80600c60008282546112fa91906118c4565b9250508190555080600760008473ffffffffffffffffffffffffffffffffffffffff1673ffffffffffffffffffffffffffffffffffffffff168152602001908152602001600020600082825401925050819055508173ffffffffffffffffffffffffffffffffffffffff16600073ffffffffffffffffffffffffffffffffffffffff167fddf252ad1be2c89b69c2b068fc378daa952ba7f163c4a11628f55a4df523b3ef836040516113ac919061159d565b60405180910390a36113c060008383611267565b5050565b600081519050919050565b600082825260208201905092915050565b60005b838110156113fe5780820151818401526020810190506113e3565b8381111561140d576000848401525b50505050565b6000601f19601f8301169050919050565b600061142f826113c4565b61143981856113cf565b93506114498185602086016113e0565b61145281611413565b840191505092915050565b600060208201905081810360008301526114778184611424565b905092915050565b600080fd5b600073ffffffffffffffffffffffffffffffffffffffff82169050919050565b60006114af82611484565b9050919050565b6114bf816114a4565b81146114ca57600080fd5b50565b6000813590506114dc816114b6565b92915050565b6000819050919050565b6114f5816114e2565b811461150057600080fd5b50565b600081359050611512816114ec565b92915050565b6000806040838503121561152f5761152e61147f565b5b600061153d858286016114cd565b925050602061154e85828601611503565b9150509250929050565b60008115159050919050565b61156d81611558565b82525050565b60006020820190506115886000830184611564565b92915050565b611597816114e2565b82525050565b60006020820190506115b2600083018461158e565b92915050565b6000806000606084860312156115d1576115d061147f565b5b60006115df868287016114cd565b93505060206115f0868287016114cd565b925050604061160186828701611503565b9150509250925092565b600060ff82169050919050565b6116218161160b565b82525050565b600060208201905061163c6000830184611618565b92915050565b6000602082840312156116585761165761147f565b5b6000611666848285016114cd565b91505092915050565b600081519050919050565b600082825260208201905092915050565b6000819050602082019050919050565b6116a4816114a4565b82525050565b60006116b6838361169b565b60208301905092915050565b6000602082019050919050565b60006116da8261166f565b6116e4818561167a565b93506116ef8361168b565b8060005b8381101561172057815161170788826116aa565b9750611712836116c2565b9250506001810190506116f3565b5085935050505092915050565b6000604082019050818103600083015261174781856116cf565b9050611756602083018461158e565b9392505050565b611766816114a4565b82525050565b6000602082019050611781600083018461175d565b92915050565b60006020828403121561179d5761179c61147f565b5b60006117ab84828501611503565b91505092915050565b600080604083850312156117cb576117ca61147f565b5b60006117d9858286016114cd565b92505060206117ea858286016114cd565b9150509250929050565b6000806040838503121561180b5761180a61147f565b5b600061181985828601611503565b925050602061182a85828601611503565b9150509250929050565b7f4e487b7100000000000000000000000000000000000000000000000000000000600052602260045260246000fd5b6000600282049050600182168061187b57607f821691505b6020821081141561188f5761188e611834565b5b50919050565b7f4e487b7100000000000000000000000000000000000000000000000000000000600052601160045260246000fd5b60006118cf826114e2565b91506118da836114e2565b9250827fffffffffffffffffffffffffffffffffffffffffffffffffffffffffffffffff0382111561190f5761190e611895565b5b828201905092915050565b7f45524332303a206275726e2066726f6d20746865207a65726f2061646472657360008201527f7300000000000000000000000000000000000000000000000000000000000000602082015250565b60006119766021836113cf565b91506119818261191a565b604082019050919050565b600060208201905081810360008301526119a581611969565b9050919050565b7f45524332303a206275726e20616d6f756e7420657863656564732062616c616e60008201527f6365000000000000000000000000000000000000000000000000000000000000602082015250565b6000611a086022836113cf565b9150611a13826119ac565b604082019050919050565b60006020820190508181036000830152611a37816119fb565b9050919050565b6000611a49826114e2565b9150611a54836114e2565b9250817fffffffffffffffffffffffffffffffffffffffffffffffffffffffffffffffff0483118215151615611a8d57611a8c611895565b5b828202905092915050565b7f45524332303a2064656372656173656420616c6c6f77616e63652062656c6f7760008201527f207a65726f000000000000000000000000000000000000000000000000000000602082015250565b6000611af46025836113cf565b9150611aff82611a98565b604082019050919050565b60006020820190508181036000830152611b2381611ae7565b9050919050565b60008160011c9050919050565b6000808291508390505b6001851115611b8157808604811115611b5d57611b5c611895565b5b6001851615611b6c5780820291505b8081029050611b7a85611b2a565b9450611b41565b94509492505050565b600082611b9a5760019050611c56565b81611ba85760009050611c56565b8160018114611bbe5760028114611bc857611bf7565b6001915050611c56565b60ff841115611bda57611bd9611895565b5b8360020a915084821115611bf157611bf0611895565b5b50611c56565b5060208310610133831016604e8410600b8410161715611c2c5782820a905083811115611c2757611c26611895565b5b611c56565b611c398484846001611b37565b92509050818404811115611c5057611c4f611895565b5b81810290505b9392505050565b6000611c68826114e2565b9150611c73836114e2565b9250611ca07fffffffffffffffffffffffffffffffffffffffffffffffffffffffffffffffff8484611b8a565b905092915050565b7f45524332303a20617070726f76652066726f6d20746865207a65726f2061646460008201527f7265737300000000000000000000000000000000000000000000000000000000602082015250565b6000611d046024836113cf565b9150611d0f82611ca8565b604082019050919050565b60006020820190508181036000830152611d3381611cf7565b9050919050565b7f45524332303a20617070726f766520746f20746865207a65726f20616464726560008201527f7373000000000000000000000000000000000000000000000000000000000000602082015250565b6000611d966022836113cf565b9150611da182611d3a565b604082019050919050565b60006020820190508181036000830152611dc581611d89565b9050919050565b7f45524332303a207472616e736665722066726f6d20746865207a65726f20616460008201527f6472657373000000000000000000000000000000000000000000000000000000602082015250565b6000611e286025836113cf565b9150611e3382611dcc565b604082019050919050565b60006020820190508181036000830152611e5781611e1b565b9050919050565b7f45524332303a207472616e7366657220746f20746865207a65726f206164647260008201527f6573730000000000000000000000000000000000000000000000000000000000602082015250565b6000611eba6023836113cf565b9150611ec582611e5e565b604082019050919050565b60006020820190508181036000830152611ee981611ead565b9050919050565b7f45524332303a207472616e7366657220616d6f756e742065786365656473206260008201527f616c616e63650000000000000000000000000000000000000000000000000000602082015250565b6000611f4c6026836113cf565b9150611f5782611ef0565b604082019050919050565b60006020820190508181036000830152611f7b81611f3f565b9050919050565b7f45524332303a20696e73756666696369656e7420616c6c6f77616e6365000000600082015250565b6000611fb8601d836113cf565b9150611fc382611f82565b602082019050919050565b60006020820190508181036000830152611fe781611fab565b9050919050565b7f4e487b7100000000000000000000000000000000000000000000000000000000600052603260045260246000fd5b6000612028826114e2565b91507fffffffffffffffffffffffffffffffffffffffffffffffffffffffffffffffff82141561205b5761205a611895565b5b600182019050919050565b7f45524332303a206d696e7420746f20746865207a65726f206164647265737300600082015250565b600061209c601f836113cf565b91506120a782612066565b602082019050919050565b600060208201905081810360008301526120cb8161208f565b905091905056fea2646970667358221220750918f1b2a270ccbd2275575c42892a5dedac1853b341ebc7dc0213d71d947164736f6c63430008090033608060405234801561001057600080fd5b50611f36806100206000396000f3fe608060405234801561001057600080fd5b50600436106100415760003560e01c8063575a3028146100465780639e493d2d14610062578063e319be0a1461007e575b600080fd5b610060600480360381019061005b9190611682565b6100ae565b005b61007c600480360381019061007791906116af565b61040f565b005b6100986004803603810190610093919061174c565b610c2f565b6040516100a59190611788565b60405180910390f35b60008173ffffffffffffffffffffffffffffffffffffffff166306fdde036040518163ffffffff1660e01b815260040160006040518083038186803b1580156100f657600080fd5b505afa15801561010a573d6000803e3d6000fd5b505050506040513d6000823e3d601f19601f82011682018060405250810190610133919061190d565b9050610174816040518060400160405280600581526020017f4554484c50000000000000000000000000000000000000000000000000000000815250610c86565b15610228578173ffffffffffffffffffffffffffffffffffffffff16638a48ac036040518163ffffffff1660e01b815260040160006040518083038186803b1580156101bf57600080fd5b505afa1580156101d3573d6000803e3d6000fd5b505050506040513d6000823e3d601f19601f820116820180604052508101906101fc9190611a48565b60046000600560008491905055839190509080519060200190610220929190611569565b50505061040b565b610267816040518060400160405280600581526020017f4152424c50000000000000000000000000000000000000000000000000000000815250610c86565b1561031a578173ffffffffffffffffffffffffffffffffffffffff16638a48ac036040518163ffffffff1660e01b815260040160006040518083038186803b1580156102b257600080fd5b505afa1580156102c6573d6000803e3d6000fd5b505050506040513d6000823e3d601f19601f820116820180604052508101906102ef9190611a48565b600080600160008491905055839190509080519060200190610312929190611569565b50505061040a565b610359816040518060400160405280600681526020017f555344544c500000000000000000000000000000000000000000000000000000815250610c86565b15610409578173ffffffffffffffffffffffffffffffffffffffff16638a48ac036040518163ffffffff1660e01b815260040160006040518083038186803b1580156103a457600080fd5b505afa1580156103b8573d6000803e3d6000fd5b505050506040513d6000823e3d601f19601f820116820180604052508101906103e19190611a48565b60026000600360008491905055839190509080519060200190610405929190611569565b5050505b5b5b5050565b61041884610ca1565b60008473ffffffffffffffffffffffffffffffffffffffff166306fdde036040518163ffffffff1660e01b815260040160006040518083038186803b15801561046057600080fd5b505afa158015610474573d6000803e3d6000fd5b505050506040513d6000823e3d601f19601f8201168201806040525081019061049d919061190d565b90506104de816040518060400160405280600581526020017f4554484c50000000000000000000000000000000000000000000000000000000815250610c86565b156107235760008273ffffffffffffffffffffffffffffffffffffffff166370a08231306040518263ffffffff1660e01b815260040161051e9190611ab3565b60206040518083038186803b15801561053657600080fd5b505afa15801561054a573d6000803e3d6000fd5b505050506040513d601f19601f8201168201806040525081019061056e9190611ace565b905060005b60055481101561071c5760006004828154811061059357610592611afb565b5b9060005260206000200160009054906101000a900473ffffffffffffffffffffffffffffffffffffffff1690506000600860008373ffffffffffffffffffffffffffffffffffffffff1673ffffffffffffffffffffffffffffffffffffffff1681526020019081526020016000206000015490506000600860008473ffffffffffffffffffffffffffffffffffffffff1673ffffffffffffffffffffffffffffffffffffffff168152602001908152602001600020600101549050600081600a61065d9190611c8c565b83876106699190611cd7565b6106739190611d60565b90508773ffffffffffffffffffffffffffffffffffffffff166323b872dd3086846040518463ffffffff1660e01b81526004016106b293929190611d91565b602060405180830381600087803b1580156106cc57600080fd5b505af11580156106e0573d6000803e3d6000fd5b505050506040513d601f19601f820116820180604052508101906107049190611e00565b5050505050808061071490611e2d565b915050610573565b5050610c28565b610762816040518060400160405280600581526020017f4152424c50000000000000000000000000000000000000000000000000000000815250610c86565b156109a65760008473ffffffffffffffffffffffffffffffffffffffff166370a08231306040518263ffffffff1660e01b81526004016107a29190611ab3565b60206040518083038186803b1580156107ba57600080fd5b505afa1580156107ce573d6000803e3d6000fd5b505050506040513d601f19601f820116820180604052508101906107f29190611ace565b905060005b60015481101561099f57600080828154811061081657610815611afb565b5b9060005260206000200160009054906101000a900473ffffffffffffffffffffffffffffffffffffffff1690506000600660008373ffffffffffffffffffffffffffffffffffffffff1673ffffffffffffffffffffffffffffffffffffffff1681526020019081526020016000206000015490506000600660008473ffffffffffffffffffffffffffffffffffffffff1673ffffffffffffffffffffffffffffffffffffffff168152602001908152602001600020600101549050600081600a6108e09190611c8c565b83876108ec9190611cd7565b6108f69190611d60565b90508973ffffffffffffffffffffffffffffffffffffffff166323b872dd3086846040518463ffffffff1660e01b815260040161093593929190611d91565b602060405180830381600087803b15801561094f57600080fd5b505af1158015610963573d6000803e3d6000fd5b505050506040513d601f19601f820116820180604052508101906109879190611e00565b5050505050808061099790611e2d565b9150506107f7565b5050610c27565b6109e5816040518060400160405280600681526020017f555344544c500000000000000000000000000000000000000000000000000000815250610c86565b15610c265760008373ffffffffffffffffffffffffffffffffffffffff166370a08231306040518263ffffffff1660e01b8152600401610a259190611ab3565b60206040518083038186803b158015610a3d57600080fd5b505afa158015610a51573d6000803e3d6000fd5b505050506040513d601f19601f82011682018060405250810190610a759190611ace565b905060005b600354811015610c2357600060028281548110610a9a57610a99611afb565b5b9060005260206000200160009054906101000a900473ffffffffffffffffffffffffffffffffffffffff1690506000600760008373ffffffffffffffffffffffffffffffffffffffff1673ffffffffffffffffffffffffffffffffffffffff1681526020019081526020016000206000015490506000600760008473ffffffffffffffffffffffffffffffffffffffff1673ffffffffffffffffffffffffffffffffffffffff168152602001908152602001600020600101549050600081600a610b649190611c8c565b8387610b709190611cd7565b610b7a9190611d60565b90508873ffffffffffffffffffffffffffffffffffffffff166323b872dd3086846040518463ffffffff1660e01b8152600401610bb993929190611d91565b602060405180830381600087803b158015610bd357600080fd5b505af1158015610be7573d6000803e3d6000fd5b505050506040513d601f19601f82011682018060405250810190610c0b9190611e00565b50505050508080610c1b90611e2d565b915050610a7a565b50505b5b5b5050505050565b600080821415610c425760019050610c81565b60005b6000831115610c70578080610c5990611e2d565b915050600a83610c699190611d60565b9250610c45565b600181610c7d9190611e76565b9150505b919050565b60008180519060200120838051906020012014905092915050565b60008173ffffffffffffffffffffffffffffffffffffffff166306fdde036040518163ffffffff1660e01b815260040160006040518083038186803b158015610ce957600080fd5b505afa158015610cfd573d6000803e3d6000fd5b505050506040513d6000823e3d601f19601f82011682018060405250810190610d26919061190d565b9050610d67816040518060400160405280600581526020017f4554484c50000000000000000000000000000000000000000000000000000000815250610c86565b15610fe85760008273ffffffffffffffffffffffffffffffffffffffff166318160ddd6040518163ffffffff1660e01b815260040160206040518083038186803b158015610db457600080fd5b505afa158015610dc8573d6000803e3d6000fd5b505050506040513d601f19601f82011682018060405250810190610dec9190611ace565b905060005b600554811015610fe157600060048281548110610e1157610e10611afb565b5b9060005260206000200160009054906101000a900473ffffffffffffffffffffffffffffffffffffffff16905060008573ffffffffffffffffffffffffffffffffffffffff166370a08231836040518263ffffffff1660e01b8152600401610e799190611ab3565b60206040518083038186803b158015610e9157600080fd5b505afa158015610ea5573d6000803e3d6000fd5b505050506040513d601f19601f82011682018060405250810190610ec99190611ace565b90506000610ed682610c2f565b90506000610ee386610c2f565b9050600060028383610ef59190611e76565b610eff9190611eaa565b905060008782600a610f119190611c8c565b86610f1c9190611cd7565b610f269190611d60565b905080600860008873ffffffffffffffffffffffffffffffffffffffff1673ffffffffffffffffffffffffffffffffffffffff1681526020019081526020016000206000016000828254610f7a9190611eaa565b9250508190555081600860008873ffffffffffffffffffffffffffffffffffffffff1673ffffffffffffffffffffffffffffffffffffffff168152602001908152602001600020600101819055505050505050508080610fd990611e2d565b915050610df1565b5050611565565b611027816040518060400160405280600581526020017f4152424c50000000000000000000000000000000000000000000000000000000815250610c86565b156112a75760008273ffffffffffffffffffffffffffffffffffffffff166318160ddd6040518163ffffffff1660e01b815260040160206040518083038186803b15801561107457600080fd5b505afa158015611088573d6000803e3d6000fd5b505050506040513d601f19601f820116820180604052508101906110ac9190611ace565b905060005b6001548110156112a05760008082815481106110d0576110cf611afb565b5b9060005260206000200160009054906101000a900473ffffffffffffffffffffffffffffffffffffffff16905060008573ffffffffffffffffffffffffffffffffffffffff166370a08231836040518263ffffffff1660e01b81526004016111389190611ab3565b60206040518083038186803b15801561115057600080fd5b505afa158015611164573d6000803e3d6000fd5b505050506040513d601f19601f820116820180604052508101906111889190611ace565b9050600061119582610c2f565b905060006111a286610c2f565b90506000600283836111b49190611e76565b6111be9190611eaa565b905060008782600a6111d09190611c8c565b866111db9190611cd7565b6111e59190611d60565b905080600660008873ffffffffffffffffffffffffffffffffffffffff1673ffffffffffffffffffffffffffffffffffffffff16815260200190815260200160002060000160008282546112399190611eaa565b9250508190555081600660008873ffffffffffffffffffffffffffffffffffffffff1673ffffffffffffffffffffffffffffffffffffffff16815260200190815260200160002060010181905550505050505050808061129890611e2d565b9150506110b1565b5050611564565b6112e6816040518060400160405280600681526020017f555344544c500000000000000000000000000000000000000000000000000000815250610c86565b156115635760008273ffffffffffffffffffffffffffffffffffffffff166318160ddd6040518163ffffffff1660e01b815260040160206040518083038186803b15801561133357600080fd5b505afa158015611347573d6000803e3d6000fd5b505050506040513d601f19601f8201168201806040525081019061136b9190611ace565b905060005b600354811015611560576000600282815481106113905761138f611afb565b5b9060005260206000200160009054906101000a900473ffffffffffffffffffffffffffffffffffffffff16905060008573ffffffffffffffffffffffffffffffffffffffff166370a08231836040518263ffffffff1660e01b81526004016113f89190611ab3565b60206040518083038186803b15801561141057600080fd5b505afa158015611424573d6000803e3d6000fd5b505050506040513d601f19601f820116820180604052508101906114489190611ace565b9050600061145582610c2f565b9050600061146286610c2f565b90506000600283836114749190611e76565b61147e9190611eaa565b905060008782600a6114909190611c8c565b8661149b9190611cd7565b6114a59190611d60565b905080600760008873ffffffffffffffffffffffffffffffffffffffff1673ffffffffffffffffffffffffffffffffffffffff16815260200190815260200160002060000160008282546114f99190611eaa565b9250508190555081600760008873ffffffffffffffffffffffffffffffffffffffff1673ffffffffffffffffffffffffffffffffffffffff16815260200190815260200160002060010181905550505050505050808061155890611e2d565b915050611370565b50505b5b5b5050565b8280548282559060005260206000209081019282156115e2579160200282015b828111156115e15782518260006101000a81548173ffffffffffffffffffffffffffffffffffffffff021916908373ffffffffffffffffffffffffffffffffffffffff16021790555091602001919060010190611589565b5b5090506115ef91906115f3565b5090565b5b8082111561160c5760008160009055506001016115f4565b5090565b6000604051905090565b600080fd5b600080fd5b600073ffffffffffffffffffffffffffffffffffffffff82169050919050565b600061164f82611624565b9050919050565b61165f81611644565b811461166a57600080fd5b50565b60008135905061167c81611656565b92915050565b6000602082840312156116985761169761161a565b5b60006116a68482850161166d565b91505092915050565b600080600080608085870312156116c9576116c861161a565b5b60006116d78782880161166d565b94505060206116e88782880161166d565b93505060406116f98782880161166d565b925050606061170a8782880161166d565b91505092959194509250565b6000819050919050565b61172981611716565b811461173457600080fd5b50565b60008135905061174681611720565b92915050565b6000602082840312156117625761176161161a565b5b600061177084828501611737565b91505092915050565b61178281611716565b82525050565b600060208201905061179d6000830184611779565b92915050565b600080fd5b600080fd5b6000601f19601f8301169050919050565b7f4e487b7100000000000000000000000000000000000000000000000000000000600052604160045260246000fd5b6117f6826117ad565b810181811067ffffffffffffffff82111715611815576118146117be565b5b80604052505050565b6000611828611610565b905061183482826117ed565b919050565b600067ffffffffffffffff821115611854576118536117be565b5b61185d826117ad565b9050602081019050919050565b60005b8381101561188857808201518184015260208101905061186d565b83811115611897576000848401525b50505050565b60006118b06118ab84611839565b61181e565b9050828152602081018484840111156118cc576118cb6117a8565b5b6118d784828561186a565b509392505050565b600082601f8301126118f4576118f36117a3565b5b815161190484826020860161189d565b91505092915050565b6000602082840312156119235761192261161a565b5b600082015167ffffffffffffffff8111156119415761194061161f565b5b61194d848285016118df565b91505092915050565b600067ffffffffffffffff821115611971576119706117be565b5b602082029050602081019050919050565b600080fd5b60008151905061199681611656565b92915050565b60006119af6119aa84611956565b61181e565b905080838252602082019050602084028301858111156119d2576119d1611982565b5b835b818110156119fb57806119e78882611987565b8452602084019350506020810190506119d4565b5050509392505050565b600082601f830112611a1a57611a196117a3565b5b8151611a2a84826020860161199c565b91505092915050565b600081519050611a4281611720565b92915050565b60008060408385031215611a5f57611a5e61161a565b5b600083015167ffffffffffffffff811115611a7d57611a7c61161f565b5b611a8985828601611a05565b9250506020611a9a85828601611a33565b9150509250929050565b611aad81611644565b82525050565b6000602082019050611ac86000830184611aa4565b92915050565b600060208284031215611ae457611ae361161a565b5b6000611af284828501611a33565b91505092915050565b7f4e487b7100000000000000000000000000000000000000000000000000000000600052603260045260246000fd5b7f4e487b7100000000000000000000000000000000000000000000000000000000600052601160045260246000fd5b60008160011c9050919050565b6000808291508390505b6001851115611bb057808604811115611b8c57611b8b611b2a565b5b6001851615611b9b5780820291505b8081029050611ba985611b59565b9450611b70565b94509492505050565b600082611bc95760019050611c85565b81611bd75760009050611c85565b8160018114611bed5760028114611bf757611c26565b6001915050611c85565b60ff841115611c0957611c08611b2a565b5b8360020a915084821115611c2057611c1f611b2a565b5b50611c85565b5060208310610133831016604e8410600b8410161715611c5b5782820a905083811115611c5657611c55611b2a565b5b611c85565b611c688484846001611b66565b92509050818404811115611c7f57611c7e611b2a565b5b81810290505b9392505050565b6000611c9782611716565b9150611ca283611716565b9250611ccf7fffffffffffffffffffffffffffffffffffffffffffffffffffffffffffffffff8484611bb9565b905092915050565b6000611ce282611716565b9150611ced83611716565b9250817fffffffffffffffffffffffffffffffffffffffffffffffffffffffffffffffff0483118215151615611d2657611d25611b2a565b5b828202905092915050565b7f4e487b7100000000000000000000000000000000000000000000000000000000600052601260045260246000fd5b6000611d6b82611716565b9150611d7683611716565b925082611d8657611d85611d31565b5b828204905092915050565b6000606082019050611da66000830186611aa4565b611db36020830185611aa4565b611dc06040830184611779565b949350505050565b60008115159050919050565b611ddd81611dc8565b8114611de857600080fd5b50565b600081519050611dfa81611dd4565b92915050565b600060208284031215611e1657611e1561161a565b5b6000611e2484828501611deb565b91505092915050565b6000611e3882611716565b91507fffffffffffffffffffffffffffffffffffffffffffffffffffffffffffffffff821415611e6b57611e6a611b2a565b5b600182019050919050565b6000611e8182611716565b9150611e8c83611716565b925082821015611e9f57611e9e611b2a565b5b828203905092915050565b6000611eb582611716565b9150611ec083611716565b9250827fffffffffffffffffffffffffffffffffffffffffffffffffffffffffffffffff03821115611ef557611ef4611b2a565b5b82820190509291505056fea2646970667358221220f1a078293f9eb9c20c79e290dd359efcd3aa172ea1b410afe351241698be2a1164736f6c63430008090033",
  "linkReferences": {},
  "deployedLinkReferences": {}
}