{
  "_format": "hh-sol-artifact-1",
  "contractName": "Governance",
  "sourceName": "contracts/governance.sol",
  "abi": [
    {
      "inputs": [
        {
          "internalType": "address",
          "name": "_owner",
          "type": "address"
        }
      ],
      "stateMutability": "nonpayable",
      "type": "constructor"
    },
    {
      "anonymous": false,
      "inputs": [
        {
          "indexed": false,
          "internalType": "bool",
          "name": "success",
          "type": "bool"
        },
        {
          "indexed": false,
          "internalType": "string",
          "name": "message",
          "type": "string"
        }
      ],
      "name": "ExecuteResult",
      "type": "event"
    },
    {
      "inputs": [
        {
          "internalType": "address",
          "name": "_token",
          "type": "address"
        },
        {
          "internalType": "uint256",
          "name": "_level",
          "type": "uint256"
        },
        {
          "internalType": "uint256",
          "name": "_proposal",
          "type": "uint256"
        }
      ],
      "name": "changeLevel",
      "outputs": [],
      "stateMutability": "nonpayable",
      "type": "function"
    },
    {
      "inputs": [
        {
          "internalType": "address",
          "name": "proposal",
          "type": "address"
        }
      ],
      "name": "checkedToken",
      "outputs": [
        {
          "internalType": "uint256",
          "name": "",
          "type": "uint256"
        }
      ],
      "stateMutability": "view",
      "type": "function"
    },
    {
      "inputs": [
        {
          "internalType": "address",
          "name": "_differentToken",
          "type": "address"
        },
        {
          "internalType": "address",
          "name": "_AsdToken",
          "type": "address"
        },
        {
          "internalType": "uint256",
          "name": "_proposal",
          "type": "uint256"
        }
      ],
      "name": "createPool",
      "outputs": [
        {
          "internalType": "bool",
          "name": "",
          "type": "bool"
        }
      ],
      "stateMutability": "nonpayable",
      "type": "function"
    },
    {
      "inputs": [
        {
          "internalType": "uint256",
          "name": "_proposal",
          "type": "uint256"
        }
      ],
      "name": "getCallFunction",
      "outputs": [
        {
          "internalType": "bytes",
          "name": "",
          "type": "bytes"
        }
      ],
      "stateMutability": "view",
      "type": "function"
    },
    {
      "inputs": [
        {
          "internalType": "uint256",
          "name": "_proposal",
          "type": "uint256"
        }
      ],
      "name": "getHasVote",
      "outputs": [
        {
          "internalType": "bool",
          "name": "",
          "type": "bool"
        }
      ],
      "stateMutability": "view",
      "type": "function"
    },
    {
      "inputs": [
        {
          "internalType": "uint256",
          "name": "_idx",
          "type": "uint256"
        }
      ],
      "name": "getProposal",
      "outputs": [
        {
          "internalType": "address",
          "name": "",
          "type": "address"
        },
        {
          "internalType": "uint256",
          "name": "",
          "type": "uint256"
        },
        {
          "internalType": "uint256",
          "name": "",
          "type": "uint256"
        },
        {
          "internalType": "bytes",
          "name": "",
          "type": "bytes"
        },
        {
          "internalType": "bool",
          "name": "",
          "type": "bool"
        },
        {
          "internalType": "bool",
          "name": "",
          "type": "bool"
        },
        {
          "internalType": "uint256",
          "name": "",
          "type": "uint256"
        },
        {
          "internalType": "bool",
          "name": "",
          "type": "bool"
        }
      ],
      "stateMutability": "view",
      "type": "function"
    },
    {
      "inputs": [
        {
          "internalType": "uint256",
          "name": "_idx",
          "type": "uint256"
        }
      ],
      "name": "getProposalToFE",
      "outputs": [
        {
          "internalType": "address",
          "name": "",
          "type": "address"
        },
        {
          "internalType": "uint256",
          "name": "",
          "type": "uint256"
        },
        {
          "internalType": "uint256",
          "name": "",
          "type": "uint256"
        },
        {
          "internalType": "bytes",
          "name": "",
          "type": "bytes"
        },
        {
          "internalType": "bool",
          "name": "",
          "type": "bool"
        },
        {
          "internalType": "bool",
          "name": "",
          "type": "bool"
        },
        {
          "internalType": "bool",
          "name": "",
          "type": "bool"
        }
      ],
      "stateMutability": "view",
      "type": "function"
    },
    {
      "inputs": [],
      "name": "getTokenAddress",
      "outputs": [
        {
          "internalType": "address",
          "name": "",
          "type": "address"
        }
      ],
      "stateMutability": "view",
      "type": "function"
    },
    {
      "inputs": [
        {
          "internalType": "bytes",
          "name": "funcName",
          "type": "bytes"
        }
      ],
      "name": "isClose",
      "outputs": [
        {
          "internalType": "bool",
          "name": "",
          "type": "bool"
        }
      ],
      "stateMutability": "view",
      "type": "function"
    },
    {
      "inputs": [
        {
          "internalType": "bytes",
          "name": "funcName",
          "type": "bytes"
        }
      ],
      "name": "isStatus",
      "outputs": [
        {
          "internalType": "bool",
          "name": "",
          "type": "bool"
        }
      ],
      "stateMutability": "view",
      "type": "function"
    },
    {
      "inputs": [
        {
          "internalType": "uint256",
          "name": "",
          "type": "uint256"
        }
      ],
      "name": "participants",
      "outputs": [
        {
          "internalType": "address",
          "name": "",
          "type": "address"
        }
      ],
      "stateMutability": "view",
      "type": "function"
    },
    {
      "inputs": [
        {
          "internalType": "uint256",
          "name": "_proposal",
          "type": "uint256"
        }
      ],
      "name": "proposalExecute",
      "outputs": [],
      "stateMutability": "nonpayable",
      "type": "function"
    },
    {
      "inputs": [
        {
          "internalType": "address",
          "name": "_proposer",
          "type": "address"
        },
        {
          "internalType": "string",
          "name": "_callFunction",
          "type": "string"
        }
      ],
      "name": "propose",
      "outputs": [],
      "stateMutability": "nonpayable",
      "type": "function"
    },
    {
      "inputs": [
        {
          "internalType": "address",
          "name": "_factory",
          "type": "address"
        }
      ],
      "name": "setFactoryAddress",
      "outputs": [],
      "stateMutability": "nonpayable",
      "type": "function"
    },
    {
      "inputs": [
        {
          "internalType": "address",
          "name": "_timelock",
          "type": "address"
        }
      ],
      "name": "setTimelockAddress",
      "outputs": [],
      "stateMutability": "nonpayable",
      "type": "function"
    },
    {
      "inputs": [
        {
          "internalType": "address",
          "name": "_token",
          "type": "address"
        }
      ],
      "name": "setTokenAddress",
      "outputs": [],
      "stateMutability": "nonpayable",
      "type": "function"
    },
    {
      "inputs": [
        {
          "internalType": "uint256",
          "name": "_proposal",
          "type": "uint256"
        }
      ],
      "name": "timelockExecute",
      "outputs": [],
      "stateMutability": "nonpayable",
      "type": "function"
    },
    {
      "inputs": [
        {
          "internalType": "address",
          "name": "_participant",
          "type": "address"
        },
        {
          "internalType": "uint256",
          "name": "_proposal",
          "type": "uint256"
        },
        {
          "internalType": "bool",
          "name": "_agree",
          "type": "bool"
        }
      ],
      "name": "voting",
      "outputs": [],
      "stateMutability": "nonpayable",
      "type": "function"
    }
  ],
  "bytecode": "0x60806040523480156200001157600080fd5b506040516200320538038062003205833981810160405281019062000037919062000129565b806000806101000a81548173ffffffffffffffffffffffffffffffffffffffff021916908373ffffffffffffffffffffffffffffffffffffffff16021790555030600360006101000a81548173ffffffffffffffffffffffffffffffffffffffff021916908373ffffffffffffffffffffffffffffffffffffffff160217905550506200015b565b600080fd5b600073ffffffffffffffffffffffffffffffffffffffff82169050919050565b6000620000f182620000c4565b9050919050565b6200010381620000e4565b81146200010f57600080fd5b50565b6000815190506200012381620000f8565b92915050565b600060208284031215620001425762000141620000bf565b5b6000620001528482850162000112565b91505092915050565b61309a806200016b6000396000f3fe608060405234801561001057600080fd5b50600436106101165760003560e01c8063646f1a0c116100a2578063c7f758a811610071578063c7f758a81461032f578063d5f4ef3714610366578063d6f0948c14610382578063e32d90b91461039e578063fca79ca2146103ba57610116565b8063646f1a0c1461029757806383c17c55146102b357806392f415ec146102cf578063b3e1cf70146102ff57610116565b806330f259ea116100e957806330f259ea146101a757806335c1d349146101d757806351810fb5146102075780635ea7c656146102375780636091e2921461026757610116565b806310fe9ae81461011b57806320a477b01461013957806326a4e8d214610155578063293d546614610171575b600080fd5b6101236103d6565b604051610130919061200f565b60405180910390f35b610153600480360381019061014e9190612074565b610400565b005b61016f600480360381019061016a91906120cd565b610627565b005b61018b60048036038101906101869190612074565b6106c3565b60405161019e97969594939291906121bd565b60405180910390f35b6101c160048036038101906101bc9190612368565b610834565b6040516101ce91906123b1565b60405180910390f35b6101f160048036038101906101ec9190612074565b6108ec565b6040516101fe919061200f565b60405180910390f35b610221600480360381019061021c91906123cc565b61092b565b60405161022e91906123b1565b60405180910390f35b610251600480360381019061024c9190612368565b610c21565b60405161025e91906123b1565b60405180910390f35b610281600480360381019061027c9190612074565b610cd9565b60405161028e919061241f565b60405180910390f35b6102b160048036038101906102ac9190612074565b610d81565b005b6102cd60048036038101906102c891906120cd565b61113f565b005b6102e960048036038101906102e49190612074565b6111db565b6040516102f691906123b1565b60405180910390f35b610319600480360381019061031491906120cd565b611248565b6040516103269190612441565b60405180910390f35b61034960048036038101906103449190612074565b6112fc565b60405161035d98979695949392919061245c565b60405180910390f35b610380600480360381019061037b91906124e1565b611476565b005b61039c600480360381019061039791906125d5565b61179c565b005b6103b860048036038101906103b3919061265d565b611a2f565b005b6103d460048036038101906103cf91906120cd565b611e8f565b005b6000600160009054906101000a900473ffffffffffffffffffffffffffffffffffffffff16905090565b60008054906101000a900473ffffffffffffffffffffffffffffffffffffffff1673ffffffffffffffffffffffffffffffffffffffff163373ffffffffffffffffffffffffffffffffffffffff161461048e576040517f08c379a00000000000000000000000000000000000000000000000000000000081526004016104859061270d565b60405180910390fd5b60336007600083815260200190815260200160002060050154106105bc5760016007600083815260200190815260200160002060040160016101000a81548160ff021916908315150217905550600460009054906101000a900473ffffffffffffffffffffffffffffffffffffffff1673ffffffffffffffffffffffffffffffffffffffff16632c4076b660076000848152602001908152602001600020600301426040518363ffffffff1660e01b815260040161054d929190612823565b600060405180830381600087803b15801561056757600080fd5b505af115801561057b573d6000803e3d6000fd5b505050507fe8c2651797e6d7c2a1514bdecc5c3cb9b2d783d3f858277b06b64568460c8a0e60016040516105af919061289f565b60405180910390a1610624565b60016007600083815260200190815260200160002060040160006101000a81548160ff0219169083151502179055507fe8c2651797e6d7c2a1514bdecc5c3cb9b2d783d3f858277b06b64568460c8a0e600060405161061b919061293f565b60405180910390a15b50565b3373ffffffffffffffffffffffffffffffffffffffff1660008054906101000a900473ffffffffffffffffffffffffffffffffffffffff1673ffffffffffffffffffffffffffffffffffffffff161461067f57600080fd5b80600160006101000a81548173ffffffffffffffffffffffffffffffffffffffff021916908373ffffffffffffffffffffffffffffffffffffffff16021790555050565b60008060006060600080600080600760008a815260200190815260200160002090508060000160009054906101000a900473ffffffffffffffffffffffffffffffffffffffff1681600101548260020154836003018460040160009054906101000a900460ff168560040160019054906101000a900460ff168660060160003373ffffffffffffffffffffffffffffffffffffffff1673ffffffffffffffffffffffffffffffffffffffff16815260200190815260200160002060000160009054906101000a900460ff1683805461079a9061275c565b80601f01602080910402602001604051908101604052809291908181526020018280546107c69061275c565b80156108135780601f106107e857610100808354040283529160200191610813565b820191906000526020600020905b8154815290600101906020018083116107f657829003601f168201915b50505050509350975097509750975097509750975050919395979092949650565b6000600460009054906101000a900473ffffffffffffffffffffffffffffffffffffffff1673ffffffffffffffffffffffffffffffffffffffff1663faa9e569836040518263ffffffff1660e01b8152600401610891919061241f565b60806040518083038186803b1580156108a957600080fd5b505afa1580156108bd573d6000803e3d6000fd5b505050506040513d601f19601f820116820180604052508101906108e19190612a14565b600001519050919050565b600681815481106108fc57600080fd5b906000526020600020016000915054906101000a900473ffffffffffffffffffffffffffffffffffffffff1681565b60006109d46007600084815260200190815260200160002060030180546109519061275c565b80601f016020809104026020016040519081016040528092919081815260200182805461097d9061275c565b80156109ca5780601f1061099f576101008083540402835291602001916109ca565b820191906000526020600020905b8154815290600101906020018083116109ad57829003601f168201915b5050505050610834565b6109dd57600080fd5b610a84600760008481526020019081526020016000206003018054610a019061275c565b80601f0160208091040260200160405190810160405280929190818152602001828054610a2d9061275c565b8015610a7a5780601f10610a4f57610100808354040283529160200191610a7a565b820191906000526020600020905b815481529060010190602001808311610a5d57829003601f168201915b5050505050610c21565b15610ac4576040517f08c379a0000000000000000000000000000000000000000000000000000000008152600401610abb90612a8d565b60405180910390fd5b600560009054906101000a900473ffffffffffffffffffffffffffffffffffffffff1673ffffffffffffffffffffffffffffffffffffffff1663e343361585856040518363ffffffff1660e01b8152600401610b21929190612aad565b600060405180830381600087803b158015610b3b57600080fd5b505af1158015610b4f573d6000803e3d6000fd5b50505050600460009054906101000a900473ffffffffffffffffffffffffffffffffffffffff1673ffffffffffffffffffffffffffffffffffffffff1663589dad3e600760008581526020019081526020016000206003016040518263ffffffff1660e01b8152600401610bc39190612ad6565b602060405180830381600087803b158015610bdd57600080fd5b505af1158015610bf1573d6000803e3d6000fd5b505050506040513d601f19601f82011682018060405250810190610c159190612af8565b50600190509392505050565b6000600460009054906101000a900473ffffffffffffffffffffffffffffffffffffffff1673ffffffffffffffffffffffffffffffffffffffff1663faa9e569836040518263ffffffff1660e01b8152600401610c7e919061241f565b60806040518083038186803b158015610c9657600080fd5b505afa158015610caa573d6000803e3d6000fd5b505050506040513d601f19601f82011682018060405250810190610cce9190612a14565b606001519050919050565b6060600760008381526020019081526020016000206003018054610cfc9061275c565b80601f0160208091040260200160405190810160405280929190818152602001828054610d289061275c565b8015610d755780601f10610d4a57610100808354040283529160200191610d75565b820191906000526020600020905b815481529060010190602001808311610d5857829003601f168201915b50505050509050919050565b60008054906101000a900473ffffffffffffffffffffffffffffffffffffffff1673ffffffffffffffffffffffffffffffffffffffff163373ffffffffffffffffffffffffffffffffffffffff1614610e0f576040517f08c379a0000000000000000000000000000000000000000000000000000000008152600401610e0690612b71565b60405180910390fd5b600115156007600083815260200190815260200160002060040160009054906101000a900460ff1615151415610e7a576040517f08c379a0000000000000000000000000000000000000000000000000000000008152600401610e7190612bdd565b60405180910390fd5b600115156007600083815260200190815260200160002060040160019054906101000a900460ff16151514156111035760011515600460009054906101000a900473ffffffffffffffffffffffffffffffffffffffff1673ffffffffffffffffffffffffffffffffffffffff166392e876cd60076000858152602001908152602001600020600301426040518363ffffffff1660e01b8152600401610f20929190612823565b602060405180830381600087803b158015610f3a57600080fd5b505af1158015610f4e573d6000803e3d6000fd5b505050506040513d601f19601f82011682018060405250810190610f729190612af8565b151514156110c55760001515600460009054906101000a900473ffffffffffffffffffffffffffffffffffffffff1673ffffffffffffffffffffffffffffffffffffffff1663faa9e569600760008581526020019081526020016000206003016040518263ffffffff1660e01b8152600401610fee9190612ad6565b60806040518083038186803b15801561100657600080fd5b505afa15801561101a573d6000803e3d6000fd5b505050506040513d601f19601f8201168201806040525081019061103e9190612a14565b6000015115151415611087577fe8c2651797e6d7c2a1514bdecc5c3cb9b2d783d3f858277b06b64568460c8a0e600060405161107a9190612c6f565b60405180910390a16110c0565b7fe8c2651797e6d7c2a1514bdecc5c3cb9b2d783d3f858277b06b64568460c8a0e60016040516110b7919061289f565b60405180910390a15b6110fe565b7fe8c2651797e6d7c2a1514bdecc5c3cb9b2d783d3f858277b06b64568460c8a0e60006040516110f59190612d0f565b60405180910390a15b61113c565b7fe8c2651797e6d7c2a1514bdecc5c3cb9b2d783d3f858277b06b64568460c8a0e6000604051611133919061293f565b60405180910390a15b50565b3373ffffffffffffffffffffffffffffffffffffffff1660008054906101000a900473ffffffffffffffffffffffffffffffffffffffff1673ffffffffffffffffffffffffffffffffffffffff161461119757600080fd5b80600560006101000a81548173ffffffffffffffffffffffffffffffffffffffff021916908373ffffffffffffffffffffffffffffffffffffffff16021790555050565b60006007600083815260200190815260200160002060060160003373ffffffffffffffffffffffffffffffffffffffff1673ffffffffffffffffffffffffffffffffffffffff16815260200190815260200160002060000160009054906101000a900460ff169050919050565b6000600160009054906101000a900473ffffffffffffffffffffffffffffffffffffffff1673ffffffffffffffffffffffffffffffffffffffff166370a08231836040518263ffffffff1660e01b81526004016112a5919061200f565b60206040518083038186803b1580156112bd57600080fd5b505afa1580156112d1573d6000803e3d6000fd5b505050506040513d601f19601f820116820180604052508101906112f59190612d3d565b9050919050565b600080600060606000806000806000600760008b815260200190815260200160002090508060000160009054906101000a900473ffffffffffffffffffffffffffffffffffffffff1681600101548260020154836003018460040160009054906101000a900460ff168560040160019054906101000a900460ff1686600501548760060160003373ffffffffffffffffffffffffffffffffffffffff1673ffffffffffffffffffffffffffffffffffffffff16815260200190815260200160002060000160009054906101000a900460ff168480546113da9061275c565b80601f01602080910402602001604051908101604052809291908181526020018280546114069061275c565b80156114535780601f1061142857610100808354040283529160200191611453565b820191906000526020600020905b81548152906001019060200180831161143657829003601f168201915b505050505094509850985098509850985098509850985050919395975091939597565b61151d60076000838152602001908152602001600020600301805461149a9061275c565b80601f01602080910402602001604051908101604052809291908181526020018280546114c69061275c565b80156115135780601f106114e857610100808354040283529160200191611513565b820191906000526020600020905b8154815290600101906020018083116114f657829003601f168201915b5050505050610834565b61152657600080fd5b6115cd60076000838152602001908152602001600020600301805461154a9061275c565b80601f01602080910402602001604051908101604052809291908181526020018280546115769061275c565b80156115c35780601f10611598576101008083540402835291602001916115c3565b820191906000526020600020905b8154815290600101906020018083116115a657829003601f168201915b5050505050610c21565b1561160d576040517f08c379a000000000000000000000000000000000000000000000000000000000815260040161160490612a8d565b60405180910390fd5b600560009054906101000a900473ffffffffffffffffffffffffffffffffffffffff1673ffffffffffffffffffffffffffffffffffffffff16633f2699d084846040518363ffffffff1660e01b815260040161166a929190612d6a565b600060405180830381600087803b15801561168457600080fd5b505af1158015611698573d6000803e3d6000fd5b50505050600460009054906101000a900473ffffffffffffffffffffffffffffffffffffffff1673ffffffffffffffffffffffffffffffffffffffff1663589dad3e600760008481526020019081526020016000206003016040518263ffffffff1660e01b815260040161170c9190612ad6565b602060405180830381600087803b15801561172657600080fd5b505af115801561173a573d6000803e3d6000fd5b505050506040513d601f19601f8201168201806040525081019061175e9190612af8565b507fe8c2651797e6d7c2a1514bdecc5c3cb9b2d783d3f858277b06b64568460c8a0e600160405161178f919061289f565b60405180910390a1505050565b6000600160009054906101000a900473ffffffffffffffffffffffffffffffffffffffff1673ffffffffffffffffffffffffffffffffffffffff166370a08231846040518263ffffffff1660e01b81526004016117f9919061200f565b60206040518083038186803b15801561181157600080fd5b505afa158015611825573d6000803e3d6000fd5b505050506040513d601f19601f820116820180604052508101906118499190612d3d565b11611889576040517f08c379a000000000000000000000000000000000000000000000000000000000815260040161188090612e05565b60405180910390fd5b600043905060006143804361189e9190612e54565b905060006007600060016002546118b59190612e54565b81526020019081526020016000209050848160000160006101000a81548173ffffffffffffffffffffffffffffffffffffffff021916908373ffffffffffffffffffffffffffffffffffffffff16021790555082816001018190555081816002018190555083816003019080519060200190611932929190611f2b565b5060008160040160006101000a81548160ff02191690831515021790555060008160040160016101000a81548160ff0219169083151502179055506000816005018190555060016002600082825461198a9190612e54565b92505081905550600160009054906101000a900473ffffffffffffffffffffffffffffffffffffffff1673ffffffffffffffffffffffffffffffffffffffff16636161eb1886670de0b6b3a76400006040518363ffffffff1660e01b81526004016119f6929190612eef565b600060405180830381600087803b158015611a1057600080fd5b505af1158015611a24573d6000803e3d6000fd5b505050505050505050565b6000600160009054906101000a900473ffffffffffffffffffffffffffffffffffffffff1673ffffffffffffffffffffffffffffffffffffffff166370a08231856040518263ffffffff1660e01b8152600401611a8c919061200f565b60206040518083038186803b158015611aa457600080fd5b505afa158015611ab8573d6000803e3d6000fd5b505050506040513d601f19601f82011682018060405250810190611adc9190612d3d565b11611b1c576040517f08c379a0000000000000000000000000000000000000000000000000000000008152600401611b1390612e05565b60405180910390fd5b600015156007600084815260200190815260200160002060060160008573ffffffffffffffffffffffffffffffffffffffff1673ffffffffffffffffffffffffffffffffffffffff16815260200190815260200160002060000160009054906101000a900460ff16151514611bc6576040517f08c379a0000000000000000000000000000000000000000000000000000000008152600401611bbd90612f8a565b60405180910390fd5b60405180604001604052806001151581526020018215158152506007600084815260200190815260200160002060060160008573ffffffffffffffffffffffffffffffffffffffff1673ffffffffffffffffffffffffffffffffffffffff16815260200190815260200160002060008201518160000160006101000a81548160ff02191690831515021790555060208201518160000160016101000a81548160ff02191690831515021790555090505060086000838152602001908152602001600020839080600181540180825580915050600190039060005260206000200160009091909190916101000a81548173ffffffffffffffffffffffffffffffffffffffff021916908373ffffffffffffffffffffffffffffffffffffffff160217905550600160009054906101000a900473ffffffffffffffffffffffffffffffffffffffff1673ffffffffffffffffffffffffffffffffffffffff166318160ddd6040518163ffffffff1660e01b815260040160206040518083038186803b158015611d5257600080fd5b505afa158015611d66573d6000803e3d6000fd5b505050506040513d601f19601f82011682018060405250810190611d8a9190612d3d565b6064670de0b6b3a7640000600160009054906101000a900473ffffffffffffffffffffffffffffffffffffffff1673ffffffffffffffffffffffffffffffffffffffff166370a08231876040518263ffffffff1660e01b8152600401611df0919061200f565b60206040518083038186803b158015611e0857600080fd5b505afa158015611e1c573d6000803e3d6000fd5b505050506040513d601f19601f82011682018060405250810190611e409190612d3d565b611e4a9190612faa565b611e549190612faa565b611e5e9190613033565b600760008481526020019081526020016000206005016000828254611e839190612e54565b92505081905550505050565b3373ffffffffffffffffffffffffffffffffffffffff1660008054906101000a900473ffffffffffffffffffffffffffffffffffffffff1673ffffffffffffffffffffffffffffffffffffffff1614611ee757600080fd5b80600460006101000a81548173ffffffffffffffffffffffffffffffffffffffff021916908373ffffffffffffffffffffffffffffffffffffffff16021790555050565b828054611f379061275c565b90600052602060002090601f016020900481019282611f595760008555611fa0565b82601f10611f7257805160ff1916838001178555611fa0565b82800160010185558215611fa0579182015b82811115611f9f578251825591602001919060010190611f84565b5b509050611fad9190611fb1565b5090565b5b80821115611fca576000816000905550600101611fb2565b5090565b600073ffffffffffffffffffffffffffffffffffffffff82169050919050565b6000611ff982611fce565b9050919050565b61200981611fee565b82525050565b60006020820190506120246000830184612000565b92915050565b6000604051905090565b600080fd5b600080fd5b6000819050919050565b6120518161203e565b811461205c57600080fd5b50565b60008135905061206e81612048565b92915050565b60006020828403121561208a57612089612034565b5b60006120988482850161205f565b91505092915050565b6120aa81611fee565b81146120b557600080fd5b50565b6000813590506120c7816120a1565b92915050565b6000602082840312156120e3576120e2612034565b5b60006120f1848285016120b8565b91505092915050565b6121038161203e565b82525050565b600081519050919050565b600082825260208201905092915050565b60005b83811015612143578082015181840152602081019050612128565b83811115612152576000848401525b50505050565b6000601f19601f8301169050919050565b600061217482612109565b61217e8185612114565b935061218e818560208601612125565b61219781612158565b840191505092915050565b60008115159050919050565b6121b7816121a2565b82525050565b600060e0820190506121d2600083018a612000565b6121df60208301896120fa565b6121ec60408301886120fa565b81810360608301526121fe8187612169565b905061220d60808301866121ae565b61221a60a08301856121ae565b61222760c08301846121ae565b98975050505050505050565b600080fd5b600080fd5b7f4e487b7100000000000000000000000000000000000000000000000000000000600052604160045260246000fd5b61227582612158565b810181811067ffffffffffffffff821117156122945761229361223d565b5b80604052505050565b60006122a761202a565b90506122b3828261226c565b919050565b600067ffffffffffffffff8211156122d3576122d261223d565b5b6122dc82612158565b9050602081019050919050565b82818337600083830152505050565b600061230b612306846122b8565b61229d565b90508281526020810184848401111561232757612326612238565b5b6123328482856122e9565b509392505050565b600082601f83011261234f5761234e612233565b5b813561235f8482602086016122f8565b91505092915050565b60006020828403121561237e5761237d612034565b5b600082013567ffffffffffffffff81111561239c5761239b612039565b5b6123a88482850161233a565b91505092915050565b60006020820190506123c660008301846121ae565b92915050565b6000806000606084860312156123e5576123e4612034565b5b60006123f3868287016120b8565b9350506020612404868287016120b8565b92505060406124158682870161205f565b9150509250925092565b600060208201905081810360008301526124398184612169565b905092915050565b600060208201905061245660008301846120fa565b92915050565b600061010082019050612472600083018b612000565b61247f602083018a6120fa565b61248c60408301896120fa565b818103606083015261249e8188612169565b90506124ad60808301876121ae565b6124ba60a08301866121ae565b6124c760c08301856120fa565b6124d460e08301846121ae565b9998505050505050505050565b6000806000606084860312156124fa576124f9612034565b5b6000612508868287016120b8565b93505060206125198682870161205f565b925050604061252a8682870161205f565b9150509250925092565b600067ffffffffffffffff82111561254f5761254e61223d565b5b61255882612158565b9050602081019050919050565b600061257861257384612534565b61229d565b90508281526020810184848401111561259457612593612238565b5b61259f8482856122e9565b509392505050565b600082601f8301126125bc576125bb612233565b5b81356125cc848260208601612565565b91505092915050565b600080604083850312156125ec576125eb612034565b5b60006125fa858286016120b8565b925050602083013567ffffffffffffffff81111561261b5761261a612039565b5b612627858286016125a7565b9150509250929050565b61263a816121a2565b811461264557600080fd5b50565b60008135905061265781612631565b92915050565b60008060006060848603121561267657612675612034565b5b6000612684868287016120b8565b93505060206126958682870161205f565b92505060406126a686828701612648565b9150509250925092565b600082825260208201905092915050565b7f476f7665726e616e6365203a206f6e6c79206f776e6572000000000000000000600082015250565b60006126f76017836126b0565b9150612702826126c1565b602082019050919050565b60006020820190508181036000830152612726816126ea565b9050919050565b7f4e487b7100000000000000000000000000000000000000000000000000000000600052602260045260246000fd5b6000600282049050600182168061277457607f821691505b602082108114156127885761278761272d565b5b50919050565b60008190508160005260206000209050919050565b600081546127b08161275c565b6127ba8186612114565b945060018216600081146127d557600181146127e75761281a565b60ff198316865260208601935061281a565b6127f08561278e565b60005b83811015612812578154818901526001820191506020810190506127f3565b808801955050505b50505092915050565b6000604082019050818103600083015261283d81856127a3565b905061284c60208301846120fa565b9392505050565b7f7375636365737300000000000000000000000000000000000000000000000000600082015250565b60006128896007836126b0565b915061289482612853565b602082019050919050565b60006040820190506128b460008301846121ae565b81810360208301526128c58161287c565b905092915050565b7f476f7665726e616e6365203a2049742773206120766f7465207468617420646960008201527f646e277420706173732e00000000000000000000000000000000000000000000602082015250565b6000612929602a836126b0565b9150612934826128cd565b604082019050919050565b600060408201905061295460008301846121ae565b81810360208301526129658161291c565b905092915050565b600080fd5b60008151905061298181612631565b92915050565b60008151905061299681612048565b92915050565b6000608082840312156129b2576129b161296d565b5b6129bc608061229d565b905060006129cc84828501612972565b60008301525060206129e084828501612972565b60208301525060406129f484828501612987565b6040830152506060612a0884828501612972565b60608301525092915050565b600060808284031215612a2a57612a29612034565b5b6000612a388482850161299c565b91505092915050565b7f497320436c6f7365640000000000000000000000000000000000000000000000600082015250565b6000612a776009836126b0565b9150612a8282612a41565b602082019050919050565b60006020820190508181036000830152612aa681612a6a565b9050919050565b6000604082019050612ac26000830185612000565b612acf6020830184612000565b9392505050565b60006020820190508181036000830152612af081846127a3565b905092915050565b600060208284031215612b0e57612b0d612034565b5b6000612b1c84828501612972565b91505092915050565b7f476f7665726e616e63653a206f6e6c79206f776e657200000000000000000000600082015250565b6000612b5b6016836126b0565b9150612b6682612b25565b602082019050919050565b60006020820190508181036000830152612b8a81612b4e565b9050919050565b7f476f7665726e616e63653a2043616e636c65642050726f706f73616c00000000600082015250565b6000612bc7601c836126b0565b9150612bd282612b91565b602082019050919050565b60006020820190508181036000830152612bf681612bba565b9050919050565b7f476f7665726e616e6365203a2054696d656c6f636b207374617475732066616c60008201527f73652e0000000000000000000000000000000000000000000000000000000000602082015250565b6000612c596023836126b0565b9150612c6482612bfd565b604082019050919050565b6000604082019050612c8460008301846121ae565b8181036020830152612c9581612c4c565b905092915050565b7f476f7665726e616e6365203a2054696d656c6f636b2069732072756e6e696e6760008201527f2e00000000000000000000000000000000000000000000000000000000000000602082015250565b6000612cf96021836126b0565b9150612d0482612c9d565b604082019050919050565b6000604082019050612d2460008301846121ae565b8181036020830152612d3581612cec565b905092915050565b600060208284031215612d5357612d52612034565b5b6000612d6184828501612987565b91505092915050565b6000604082019050612d7f6000830185612000565b612d8c60208301846120fa565b9392505050565b7f476f7665726e616e6365203a20446f206e6f742068617665206120764153442060008201527f746f6b656e2e0000000000000000000000000000000000000000000000000000602082015250565b6000612def6026836126b0565b9150612dfa82612d93565b604082019050919050565b60006020820190508181036000830152612e1e81612de2565b9050919050565b7f4e487b7100000000000000000000000000000000000000000000000000000000600052601160045260246000fd5b6000612e5f8261203e565b9150612e6a8361203e565b9250827fffffffffffffffffffffffffffffffffffffffffffffffffffffffffffffffff03821115612e9f57612e9e612e25565b5b828201905092915050565b6000819050919050565b6000819050919050565b6000612ed9612ed4612ecf84612eaa565b612eb4565b61203e565b9050919050565b612ee981612ebe565b82525050565b6000604082019050612f046000830185612000565b612f116020830184612ee0565b9392505050565b7f476f7665726e616e6365203a20497420697320612070726f706f73616c20746860008201527f61742068617320616c7265616479206265656e20766f746564206f6e2e000000602082015250565b6000612f74603d836126b0565b9150612f7f82612f18565b604082019050919050565b60006020820190508181036000830152612fa381612f67565b9050919050565b6000612fb58261203e565b9150612fc08361203e565b9250817fffffffffffffffffffffffffffffffffffffffffffffffffffffffffffffffff0483118215151615612ff957612ff8612e25565b5b828202905092915050565b7f4e487b7100000000000000000000000000000000000000000000000000000000600052601260045260246000fd5b600061303e8261203e565b91506130498361203e565b92508261305957613058613004565b5b82820490509291505056fea2646970667358221220c9b6a5458523112a5c9963c65b76ea5a952b9d80a8122251649d02004dda058c64736f6c63430008090033",
  "linkReferences": {},
  "deployedLinkReferences": {}
}