{
  "_format": "hh-sol-artifact-1",
  "contractName": "Governance",
  "sourceName": "contracts/governance.sol",
  "abi": [
    {
      "inputs": [
        {
          "internalType": "address",
          "name": "_owner",
          "type": "address"
        }
      ],
      "stateMutability": "nonpayable",
      "type": "constructor"
    },
    {
      "inputs": [
        {
          "internalType": "address",
          "name": "token",
          "type": "address"
        },
        {
          "internalType": "uint256",
          "name": "_level",
          "type": "uint256"
        }
      ],
      "name": "changeLevel",
      "outputs": [],
      "stateMutability": "nonpayable",
      "type": "function"
    },
    {
      "inputs": [
        {
          "internalType": "uint256",
          "name": "_proposal",
          "type": "uint256"
        }
      ],
      "name": "getCallData",
      "outputs": [
        {
          "internalType": "bytes",
          "name": "",
          "type": "bytes"
        }
      ],
      "stateMutability": "view",
      "type": "function"
    },
    {
      "inputs": [
        {
          "internalType": "uint256",
          "name": "_idx",
          "type": "uint256"
        }
      ],
      "name": "getProposal",
      "outputs": [
        {
          "internalType": "address",
          "name": "",
          "type": "address"
        },
        {
          "internalType": "uint256",
          "name": "",
          "type": "uint256"
        },
        {
          "internalType": "uint256",
          "name": "",
          "type": "uint256"
        },
        {
          "internalType": "bytes",
          "name": "",
          "type": "bytes"
        },
        {
          "internalType": "bool",
          "name": "",
          "type": "bool"
        },
        {
          "internalType": "bool",
          "name": "",
          "type": "bool"
        },
        {
          "internalType": "uint256",
          "name": "",
          "type": "uint256"
        }
      ],
      "stateMutability": "view",
      "type": "function"
    },
    {
      "inputs": [
        {
          "internalType": "uint256",
          "name": "",
          "type": "uint256"
        }
      ],
      "name": "participants",
      "outputs": [
        {
          "internalType": "address",
          "name": "",
          "type": "address"
        }
      ],
      "stateMutability": "view",
      "type": "function"
    },
    {
      "inputs": [
        {
          "internalType": "uint256",
          "name": "_proposal",
          "type": "uint256"
        }
      ],
      "name": "proposalExecute",
      "outputs": [
        {
          "internalType": "bool",
          "name": "",
          "type": "bool"
        }
      ],
      "stateMutability": "nonpayable",
      "type": "function"
    },
    {
      "inputs": [
        {
          "internalType": "address",
          "name": "_proposer",
          "type": "address"
        },
        {
          "internalType": "bytes",
          "name": "_callData",
          "type": "bytes"
        }
      ],
      "name": "propose",
      "outputs": [],
      "stateMutability": "nonpayable",
      "type": "function"
    },
    {
      "inputs": [
        {
          "internalType": "address",
          "name": "_timelock",
          "type": "address"
        }
      ],
      "name": "setTimelockAddress",
      "outputs": [],
      "stateMutability": "nonpayable",
      "type": "function"
    },
    {
      "inputs": [
        {
          "internalType": "address",
          "name": "_token",
          "type": "address"
        }
      ],
      "name": "setTokenAddress",
      "outputs": [],
      "stateMutability": "nonpayable",
      "type": "function"
    },
    {
      "inputs": [
        {
          "internalType": "uint256",
          "name": "_proposal",
          "type": "uint256"
        }
      ],
      "name": "timelockExecute",
      "outputs": [
        {
          "internalType": "bool",
          "name": "",
          "type": "bool"
        }
      ],
      "stateMutability": "nonpayable",
      "type": "function"
    },
    {
      "inputs": [
        {
          "internalType": "address",
          "name": "_participant",
          "type": "address"
        },
        {
          "internalType": "uint256",
          "name": "_proposal",
          "type": "uint256"
        },
        {
          "internalType": "bool",
          "name": "_agree",
          "type": "bool"
        }
      ],
      "name": "voting",
      "outputs": [],
      "stateMutability": "nonpayable",
      "type": "function"
    }
  ],
  "bytecode": "0x60806040523480156200001157600080fd5b506040516200227b3803806200227b833981810160405281019062000037919062000129565b806000806101000a81548173ffffffffffffffffffffffffffffffffffffffff021916908373ffffffffffffffffffffffffffffffffffffffff16021790555030600360006101000a81548173ffffffffffffffffffffffffffffffffffffffff021916908373ffffffffffffffffffffffffffffffffffffffff160217905550506200015b565b600080fd5b600073ffffffffffffffffffffffffffffffffffffffff82169050919050565b6000620000f182620000c4565b9050919050565b6200010381620000e4565b81146200010f57600080fd5b50565b6000815190506200012381620000f8565b92915050565b600060208284031215620001425762000141620000bf565b5b6000620001528482850162000112565b91505092915050565b612110806200016b6000396000f3fe608060405234801561001057600080fd5b506004361061009e5760003560e01c80639d481848116100665780639d4818481461017f578063add5a0891461019b578063c7f758a8146101b7578063e32d90b9146101ed578063fca79ca2146102095761009e565b806320a477b0146100a357806326a4e8d2146100d357806335c1d349146100ef578063646f1a0c1461011f578063904f289c1461014f575b600080fd5b6100bd60048036038101906100b89190611433565b610225565b6040516100ca919061147b565b60405180910390f35b6100ed60048036038101906100e891906114f4565b610524565b005b61010960048036038101906101049190611433565b6105c0565b6040516101169190611530565b60405180910390f35b61013960048036038101906101349190611433565b6105ff565b604051610146919061147b565b60405180910390f35b61016960048036038101906101649190611433565b6108cc565b60405161017691906115e4565b60405180910390f35b6101996004803603810190610194919061173b565b610974565b005b6101b560048036038101906101b09190611797565b610c9f565b005b6101d160048036038101906101cc9190611433565b610d32565b6040516101e497969594939291906117e6565b60405180910390f35b61020760048036038101906102029190611888565b610e56565b005b610223600480360381019061021e91906114f4565b6112aa565b005b60008060009054906101000a900473ffffffffffffffffffffffffffffffffffffffff1673ffffffffffffffffffffffffffffffffffffffff163373ffffffffffffffffffffffffffffffffffffffff16146102b6576040517f08c379a00000000000000000000000000000000000000000000000000000000081526004016102ad90611938565b60405180910390fd5b670713e24c43730000600760008481526020019081526020016000206005015411156104eb5760016007600084815260200190815260200160002060040160016101000a81548160ff0219169083151502179055506000600260076000858152602001908152602001600020600301805461033090611987565b905061033c91906119e8565b1461043e576000600760008481526020019081526020016000206003016040516020016103699190611ab8565b6040516020818303038152906040529050806007600085815260200190815260200160002060030190805190602001906103a4929190611346565b50600460009054906101000a900473ffffffffffffffffffffffffffffffffffffffff1673ffffffffffffffffffffffffffffffffffffffff16632c4076b682426040518363ffffffff1660e01b8152600401610402929190611acf565b600060405180830381600087803b15801561041c57600080fd5b505af1158015610430573d6000803e3d6000fd5b50505050600191505061051f565b600460009054906101000a900473ffffffffffffffffffffffffffffffffffffffff1673ffffffffffffffffffffffffffffffffffffffff16632c4076b660076000858152602001908152602001600020600301426040518363ffffffff1660e01b81526004016104b0929190611b7f565b600060405180830381600087803b1580156104ca57600080fd5b505af11580156104de573d6000803e3d6000fd5b505050506001905061051f565b60016007600084815260200190815260200160002060040160006101000a81548160ff021916908315150217905550600090505b919050565b3373ffffffffffffffffffffffffffffffffffffffff1660008054906101000a900473ffffffffffffffffffffffffffffffffffffffff1673ffffffffffffffffffffffffffffffffffffffff161461057c57600080fd5b80600160006101000a81548173ffffffffffffffffffffffffffffffffffffffff021916908373ffffffffffffffffffffffffffffffffffffffff16021790555050565b600681815481106105d057600080fd5b906000526020600020016000915054906101000a900473ffffffffffffffffffffffffffffffffffffffff1681565b60008060009054906101000a900473ffffffffffffffffffffffffffffffffffffffff1673ffffffffffffffffffffffffffffffffffffffff163373ffffffffffffffffffffffffffffffffffffffff1614610690576040517f08c379a000000000000000000000000000000000000000000000000000000000815260040161068790611938565b60405180910390fd5b6007600083815260200190815260200160002060040160019054906101000a900460ff166106f3576040517f08c379a00000000000000000000000000000000000000000000000000000000081526004016106ea90611c21565b60405180910390fd5b600460009054906101000a900473ffffffffffffffffffffffffffffffffffffffff1673ffffffffffffffffffffffffffffffffffffffff166392e876cd60076000858152602001908152602001600020600301426040518363ffffffff1660e01b8152600401610765929190611b7f565b602060405180830381600087803b15801561077f57600080fd5b505af1158015610793573d6000803e3d6000fd5b505050506040513d601f19601f820116820180604052508101906107b79190611c56565b6107f6576040517f08c379a00000000000000000000000000000000000000000000000000000000081526004016107ed90611cf5565b60405180910390fd5b600460009054906101000a900473ffffffffffffffffffffffffffffffffffffffff1673ffffffffffffffffffffffffffffffffffffffff1663faa9e569600760008581526020019081526020016000206003016040518263ffffffff1660e01b81526004016108669190611d15565b60606040518083038186803b15801561087e57600080fd5b505afa158015610892573d6000803e3d6000fd5b505050506040513d601f19601f820116820180604052508101906108b69190611db5565b600001516108c357600080fd5b60019050919050565b60606007600083815260200190815260200160002060030180546108ef90611987565b80601f016020809104026020016040519081016040528092919081815260200182805461091b90611987565b80156109685780601f1061093d57610100808354040283529160200191610968565b820191906000526020600020905b81548152906001019060200180831161094b57829003601f168201915b50505050509050919050565b6000600160009054906101000a900473ffffffffffffffffffffffffffffffffffffffff1673ffffffffffffffffffffffffffffffffffffffff166370a08231846040518263ffffffff1660e01b81526004016109d19190611530565b60206040518083038186803b1580156109e957600080fd5b505afa1580156109fd573d6000803e3d6000fd5b505050506040513d601f19601f82011682018060405250810190610a219190611de2565b11610a61576040517f08c379a0000000000000000000000000000000000000000000000000000000008152600401610a5890611e81565b60405180910390fd5b6000439050600061438043610a769190611ed0565b90506000600760006001600254610a8d9190611ed0565b81526020019081526020016000209050848160000160006101000a81548173ffffffffffffffffffffffffffffffffffffffff021916908373ffffffffffffffffffffffffffffffffffffffff16021790555082816001018190555081816002018190555083816003019080519060200190610b0a929190611346565b5060008160040160006101000a81548160ff02191690831515021790555060008160040160016101000a81548160ff021916908315150217905550600081600501819055506040518060400160405280600115158152602001600115158152508160060160008773ffffffffffffffffffffffffffffffffffffffff1673ffffffffffffffffffffffffffffffffffffffff16815260200190815260200160002060008201518160000160006101000a81548160ff02191690831515021790555060208201518160000160016101000a81548160ff021916908315150217905550905050600160026000828254610c019190611ed0565b92505081905550600160009054906101000a900473ffffffffffffffffffffffffffffffffffffffff1673ffffffffffffffffffffffffffffffffffffffff16636161eb188660016040518363ffffffff1660e01b8152600401610c66929190611f6b565b600060405180830381600087803b158015610c8057600080fd5b505af1158015610c94573d6000803e3d6000fd5b505050505050505050565b600560009054906101000a900473ffffffffffffffffffffffffffffffffffffffff1673ffffffffffffffffffffffffffffffffffffffff16633f2699d083836040518363ffffffff1660e01b8152600401610cfc929190611f94565b600060405180830381600087803b158015610d1657600080fd5b505af1158015610d2a573d6000803e3d6000fd5b505050505050565b60008060006060600080600080600760008a815260200190815260200160002090508060000160009054906101000a900473ffffffffffffffffffffffffffffffffffffffff1681600101548260020154836003018460040160009054906101000a900460ff168560040160019054906101000a900460ff168660050154838054610dbc90611987565b80601f0160208091040260200160405190810160405280929190818152602001828054610de890611987565b8015610e355780601f10610e0a57610100808354040283529160200191610e35565b820191906000526020600020905b815481529060010190602001808311610e1857829003601f168201915b50505050509350975097509750975097509750975050919395979092949650565b6000600160009054906101000a900473ffffffffffffffffffffffffffffffffffffffff1673ffffffffffffffffffffffffffffffffffffffff166370a08231856040518263ffffffff1660e01b8152600401610eb39190611530565b60206040518083038186803b158015610ecb57600080fd5b505afa158015610edf573d6000803e3d6000fd5b505050506040513d601f19601f82011682018060405250810190610f039190611de2565b11610f43576040517f08c379a0000000000000000000000000000000000000000000000000000000008152600401610f3a90611e81565b60405180910390fd5b600015156007600084815260200190815260200160002060060160008573ffffffffffffffffffffffffffffffffffffffff1673ffffffffffffffffffffffffffffffffffffffff16815260200190815260200160002060000160009054906101000a900460ff16151514610fed576040517f08c379a0000000000000000000000000000000000000000000000000000000008152600401610fe49061202f565b60405180910390fd5b60405180604001604052806001151581526020018215158152506007600084815260200190815260200160002060060160008573ffffffffffffffffffffffffffffffffffffffff1673ffffffffffffffffffffffffffffffffffffffff16815260200190815260200160002060008201518160000160006101000a81548160ff02191690831515021790555060208201518160000160016101000a81548160ff02191690831515021790555090505060086000838152602001908152602001600020839080600181540180825580915050600190039060005260206000200160009091909190916101000a81548173ffffffffffffffffffffffffffffffffffffffff021916908373ffffffffffffffffffffffffffffffffffffffff160217905550600160009054906101000a900473ffffffffffffffffffffffffffffffffffffffff1673ffffffffffffffffffffffffffffffffffffffff166318160ddd6040518163ffffffff1660e01b815260040160206040518083038186803b15801561117957600080fd5b505afa15801561118d573d6000803e3d6000fd5b505050506040513d601f19601f820116820180604052508101906111b19190611de2565b670de0b6b3a7640000600160009054906101000a900473ffffffffffffffffffffffffffffffffffffffff1673ffffffffffffffffffffffffffffffffffffffff166370a08231866040518263ffffffff1660e01b81526004016112159190611530565b60206040518083038186803b15801561122d57600080fd5b505afa158015611241573d6000803e3d6000fd5b505050506040513d601f19601f820116820180604052508101906112659190611de2565b61126f919061204f565b61127991906120a9565b60076000848152602001908152602001600020600501600082825461129e9190611ed0565b92505081905550505050565b3373ffffffffffffffffffffffffffffffffffffffff1660008054906101000a900473ffffffffffffffffffffffffffffffffffffffff1673ffffffffffffffffffffffffffffffffffffffff161461130257600080fd5b80600460006101000a81548173ffffffffffffffffffffffffffffffffffffffff021916908373ffffffffffffffffffffffffffffffffffffffff16021790555050565b82805461135290611987565b90600052602060002090601f01602090048101928261137457600085556113bb565b82601f1061138d57805160ff19168380011785556113bb565b828001600101855582156113bb579182015b828111156113ba57825182559160200191906001019061139f565b5b5090506113c891906113cc565b5090565b5b808211156113e55760008160009055506001016113cd565b5090565b6000604051905090565b600080fd5b600080fd5b6000819050919050565b611410816113fd565b811461141b57600080fd5b50565b60008135905061142d81611407565b92915050565b600060208284031215611449576114486113f3565b5b60006114578482850161141e565b91505092915050565b60008115159050919050565b61147581611460565b82525050565b6000602082019050611490600083018461146c565b92915050565b600073ffffffffffffffffffffffffffffffffffffffff82169050919050565b60006114c182611496565b9050919050565b6114d1816114b6565b81146114dc57600080fd5b50565b6000813590506114ee816114c8565b92915050565b60006020828403121561150a576115096113f3565b5b6000611518848285016114df565b91505092915050565b61152a816114b6565b82525050565b60006020820190506115456000830184611521565b92915050565b600081519050919050565b600082825260208201905092915050565b60005b8381101561158557808201518184015260208101905061156a565b83811115611594576000848401525b50505050565b6000601f19601f8301169050919050565b60006115b68261154b565b6115c08185611556565b93506115d0818560208601611567565b6115d98161159a565b840191505092915050565b600060208201905081810360008301526115fe81846115ab565b905092915050565b600080fd5b600080fd5b7f4e487b7100000000000000000000000000000000000000000000000000000000600052604160045260246000fd5b6116488261159a565b810181811067ffffffffffffffff8211171561166757611666611610565b5b80604052505050565b600061167a6113e9565b9050611686828261163f565b919050565b600067ffffffffffffffff8211156116a6576116a5611610565b5b6116af8261159a565b9050602081019050919050565b82818337600083830152505050565b60006116de6116d98461168b565b611670565b9050828152602081018484840111156116fa576116f961160b565b5b6117058482856116bc565b509392505050565b600082601f83011261172257611721611606565b5b81356117328482602086016116cb565b91505092915050565b60008060408385031215611752576117516113f3565b5b6000611760858286016114df565b925050602083013567ffffffffffffffff811115611781576117806113f8565b5b61178d8582860161170d565b9150509250929050565b600080604083850312156117ae576117ad6113f3565b5b60006117bc858286016114df565b92505060206117cd8582860161141e565b9150509250929050565b6117e0816113fd565b82525050565b600060e0820190506117fb600083018a611521565b61180860208301896117d7565b61181560408301886117d7565b818103606083015261182781876115ab565b9050611836608083018661146c565b61184360a083018561146c565b61185060c08301846117d7565b98975050505050505050565b61186581611460565b811461187057600080fd5b50565b6000813590506118828161185c565b92915050565b6000806000606084860312156118a1576118a06113f3565b5b60006118af868287016114df565b93505060206118c08682870161141e565b92505060406118d186828701611873565b9150509250925092565b600082825260208201905092915050565b7f476f7665726e616e6365203a206f6e6c79206f776e6572000000000000000000600082015250565b60006119226017836118db565b915061192d826118ec565b602082019050919050565b6000602082019050818103600083015261195181611915565b9050919050565b7f4e487b7100000000000000000000000000000000000000000000000000000000600052602260045260246000fd5b6000600282049050600182168061199f57607f821691505b602082108114156119b3576119b2611958565b5b50919050565b7f4e487b7100000000000000000000000000000000000000000000000000000000600052601260045260246000fd5b60006119f3826113fd565b91506119fe836113fd565b925082611a0e57611a0d6119b9565b5b828206905092915050565b600081905092915050565b60008190508160005260206000209050919050565b60008154611a4681611987565b611a508186611a19565b94506001821660008114611a6b5760018114611a7c57611aaf565b60ff19831686528186019350611aaf565b611a8585611a24565b60005b83811015611aa757815481890152600182019150602081019050611a88565b838801955050505b50505092915050565b6000611ac48284611a39565b915081905092915050565b60006040820190508181036000830152611ae981856115ab565b9050611af860208301846117d7565b9392505050565b60008154611b0c81611987565b611b168186611556565b94506001821660008114611b315760018114611b4357611b76565b60ff1983168652602086019350611b76565b611b4c85611a24565b60005b83811015611b6e57815481890152600182019150602081019050611b4f565b808801955050505b50505092915050565b60006040820190508181036000830152611b998185611aff565b9050611ba860208301846117d7565b9392505050565b7f476f7665726e616e6365203a2049742773206120766f7465207468617420646960008201527f646e277420706173732e00000000000000000000000000000000000000000000602082015250565b6000611c0b602a836118db565b9150611c1682611baf565b604082019050919050565b60006020820190508181036000830152611c3a81611bfe565b9050919050565b600081519050611c508161185c565b92915050565b600060208284031215611c6c57611c6b6113f3565b5b6000611c7a84828501611c41565b91505092915050565b7f476f7665726e616e6365203a2054696d656c6f636b2069732072756e6e696e6760008201527f2e00000000000000000000000000000000000000000000000000000000000000602082015250565b6000611cdf6021836118db565b9150611cea82611c83565b604082019050919050565b60006020820190508181036000830152611d0e81611cd2565b9050919050565b60006020820190508181036000830152611d2f8184611aff565b905092915050565b600080fd5b600081519050611d4b81611407565b92915050565b600060608284031215611d6757611d66611d37565b5b611d716060611670565b90506000611d8184828501611c41565b6000830152506020611d9584828501611c41565b6020830152506040611da984828501611d3c565b60408301525092915050565b600060608284031215611dcb57611dca6113f3565b5b6000611dd984828501611d51565b91505092915050565b600060208284031215611df857611df76113f3565b5b6000611e0684828501611d3c565b91505092915050565b7f476f7665726e616e6365203a20446f206e6f742068617665206120764153442060008201527f746f6b656e2e0000000000000000000000000000000000000000000000000000602082015250565b6000611e6b6026836118db565b9150611e7682611e0f565b604082019050919050565b60006020820190508181036000830152611e9a81611e5e565b9050919050565b7f4e487b7100000000000000000000000000000000000000000000000000000000600052601160045260246000fd5b6000611edb826113fd565b9150611ee6836113fd565b9250827fffffffffffffffffffffffffffffffffffffffffffffffffffffffffffffffff03821115611f1b57611f1a611ea1565b5b828201905092915050565b6000819050919050565b6000819050919050565b6000611f55611f50611f4b84611f26565b611f30565b6113fd565b9050919050565b611f6581611f3a565b82525050565b6000604082019050611f806000830185611521565b611f8d6020830184611f5c565b9392505050565b6000604082019050611fa96000830185611521565b611fb660208301846117d7565b9392505050565b7f476f7665726e616e6365203a20497420697320612070726f706f73616c20746860008201527f61742068617320616c7265616479206265656e20766f746564206f6e2e000000602082015250565b6000612019603d836118db565b915061202482611fbd565b604082019050919050565b600060208201905081810360008301526120488161200c565b9050919050565b600061205a826113fd565b9150612065836113fd565b9250817fffffffffffffffffffffffffffffffffffffffffffffffffffffffffffffffff048311821515161561209e5761209d611ea1565b5b828202905092915050565b60006120b4826113fd565b91506120bf836113fd565b9250826120cf576120ce6119b9565b5b82820490509291505056fea2646970667358221220bc6cf1434359daed103b15e65c4c9929977db476fb8b4dcba52caf8389b81a5764736f6c63430008090033",
  "linkReferences": {},
  "deployedLinkReferences": {}
}