{
  "_format": "hh-sol-artifact-1",
  "contractName": "Governance",
  "sourceName": "contracts/governance.sol",
  "abi": [
    {
      "inputs": [
        {
          "internalType": "address",
          "name": "_owner",
          "type": "address"
        }
      ],
      "stateMutability": "nonpayable",
      "type": "constructor"
    },
    {
      "anonymous": false,
      "inputs": [
        {
          "indexed": false,
          "internalType": "bool",
          "name": "success",
          "type": "bool"
        },
        {
          "indexed": false,
          "internalType": "string",
          "name": "message",
          "type": "string"
        }
      ],
      "name": "ExecuteResult",
      "type": "event"
    },
    {
      "inputs": [
        {
          "internalType": "address",
          "name": "_token",
          "type": "address"
        },
        {
          "internalType": "uint256",
          "name": "_level",
          "type": "uint256"
        },
        {
          "internalType": "uint256",
          "name": "_proposal",
          "type": "uint256"
        }
      ],
      "name": "changeLevel",
      "outputs": [],
      "stateMutability": "nonpayable",
      "type": "function"
    },
    {
      "inputs": [
        {
          "internalType": "address",
          "name": "proposal",
          "type": "address"
        }
      ],
      "name": "checkedToken",
      "outputs": [
        {
          "internalType": "uint256",
          "name": "",
          "type": "uint256"
        }
      ],
      "stateMutability": "view",
      "type": "function"
    },
    {
      "inputs": [
        {
          "internalType": "address",
          "name": "_differentToken",
          "type": "address"
        },
        {
          "internalType": "address",
          "name": "_AsdToken",
          "type": "address"
        },
        {
          "internalType": "uint256",
          "name": "_proposal",
          "type": "uint256"
        }
      ],
      "name": "createPool",
      "outputs": [
        {
          "internalType": "bool",
          "name": "",
          "type": "bool"
        }
      ],
      "stateMutability": "nonpayable",
      "type": "function"
    },
    {
      "inputs": [
        {
          "internalType": "uint256",
          "name": "_proposal",
          "type": "uint256"
        }
      ],
      "name": "getCallFunction",
      "outputs": [
        {
          "internalType": "bytes",
          "name": "",
          "type": "bytes"
        }
      ],
      "stateMutability": "view",
      "type": "function"
    },
    {
      "inputs": [
        {
          "internalType": "uint256",
          "name": "_proposal",
          "type": "uint256"
        }
      ],
      "name": "getHasVote",
      "outputs": [
        {
          "internalType": "bool",
          "name": "",
          "type": "bool"
        }
      ],
      "stateMutability": "view",
      "type": "function"
    },
    {
      "inputs": [
        {
          "internalType": "uint256",
          "name": "_idx",
          "type": "uint256"
        }
      ],
      "name": "getProposal",
      "outputs": [
        {
          "internalType": "address",
          "name": "",
          "type": "address"
        },
        {
          "internalType": "uint256",
          "name": "",
          "type": "uint256"
        },
        {
          "internalType": "uint256",
          "name": "",
          "type": "uint256"
        },
        {
          "internalType": "bytes",
          "name": "",
          "type": "bytes"
        },
        {
          "internalType": "bool",
          "name": "",
          "type": "bool"
        },
        {
          "internalType": "bool",
          "name": "",
          "type": "bool"
        },
        {
          "internalType": "uint256",
          "name": "",
          "type": "uint256"
        }
      ],
      "stateMutability": "view",
      "type": "function"
    },
    {
      "inputs": [],
      "name": "getTokenAddress",
      "outputs": [
        {
          "internalType": "address",
          "name": "",
          "type": "address"
        }
      ],
      "stateMutability": "view",
      "type": "function"
    },
    {
      "inputs": [
        {
          "internalType": "bytes",
          "name": "funcName",
          "type": "bytes"
        }
      ],
      "name": "isClose",
      "outputs": [
        {
          "internalType": "bool",
          "name": "",
          "type": "bool"
        }
      ],
      "stateMutability": "view",
      "type": "function"
    },
    {
      "inputs": [
        {
          "internalType": "bytes",
          "name": "funcName",
          "type": "bytes"
        }
      ],
      "name": "isStatus",
      "outputs": [
        {
          "internalType": "bool",
          "name": "",
          "type": "bool"
        }
      ],
      "stateMutability": "view",
      "type": "function"
    },
    {
      "inputs": [
        {
          "internalType": "uint256",
          "name": "",
          "type": "uint256"
        }
      ],
      "name": "participants",
      "outputs": [
        {
          "internalType": "address",
          "name": "",
          "type": "address"
        }
      ],
      "stateMutability": "view",
      "type": "function"
    },
    {
      "inputs": [
        {
          "internalType": "uint256",
          "name": "_proposal",
          "type": "uint256"
        }
      ],
      "name": "proposalExecute",
      "outputs": [],
      "stateMutability": "nonpayable",
      "type": "function"
    },
    {
      "inputs": [
        {
          "internalType": "address",
          "name": "_proposer",
          "type": "address"
        },
        {
          "internalType": "string",
          "name": "_callFunction",
          "type": "string"
        }
      ],
      "name": "propose",
      "outputs": [],
      "stateMutability": "nonpayable",
      "type": "function"
    },
    {
      "inputs": [
        {
          "internalType": "address",
          "name": "_factory",
          "type": "address"
        }
      ],
      "name": "setFactoryAddress",
      "outputs": [],
      "stateMutability": "nonpayable",
      "type": "function"
    },
    {
      "inputs": [
        {
          "internalType": "address",
          "name": "_timelock",
          "type": "address"
        }
      ],
      "name": "setTimelockAddress",
      "outputs": [],
      "stateMutability": "nonpayable",
      "type": "function"
    },
    {
      "inputs": [
        {
          "internalType": "address",
          "name": "_token",
          "type": "address"
        }
      ],
      "name": "setTokenAddress",
      "outputs": [],
      "stateMutability": "nonpayable",
      "type": "function"
    },
    {
      "inputs": [
        {
          "internalType": "uint256",
          "name": "_proposal",
          "type": "uint256"
        }
      ],
      "name": "timelockExecute",
      "outputs": [
        {
          "internalType": "bool",
          "name": "",
          "type": "bool"
        }
      ],
      "stateMutability": "nonpayable",
      "type": "function"
    },
    {
      "inputs": [
        {
          "internalType": "address",
          "name": "_participant",
          "type": "address"
        },
        {
          "internalType": "uint256",
          "name": "_proposal",
          "type": "uint256"
        },
        {
          "internalType": "bool",
          "name": "_agree",
          "type": "bool"
        }
      ],
      "name": "voting",
      "outputs": [],
      "stateMutability": "nonpayable",
      "type": "function"
    }
  ],
  "bytecode": "0x60806040523480156200001157600080fd5b5060405162002e4e38038062002e4e833981810160405281019062000037919062000129565b806000806101000a81548173ffffffffffffffffffffffffffffffffffffffff021916908373ffffffffffffffffffffffffffffffffffffffff16021790555030600360006101000a81548173ffffffffffffffffffffffffffffffffffffffff021916908373ffffffffffffffffffffffffffffffffffffffff160217905550506200015b565b600080fd5b600073ffffffffffffffffffffffffffffffffffffffff82169050919050565b6000620000f182620000c4565b9050919050565b6200010381620000e4565b81146200010f57600080fd5b50565b6000815190506200012381620000f8565b92915050565b600060208284031215620001425762000141620000bf565b5b6000620001528482850162000112565b91505092915050565b612ce3806200016b6000396000f3fe608060405234801561001057600080fd5b506004361061010b5760003560e01c8063646f1a0c116100a2578063c7f758a811610071578063c7f758a814610302578063d5f4ef3714610338578063d6f0948c14610354578063e32d90b914610370578063fca79ca21461038c5761010b565b8063646f1a0c1461026a57806383c17c551461028657806392f415ec146102a2578063b3e1cf70146102d25761010b565b806335c1d349116100de57806335c1d349146101aa57806351810fb5146101da5780635ea7c6561461020a5780636091e2921461023a5761010b565b806310fe9ae81461011057806320a477b01461012e57806326a4e8d21461015e57806330f259ea1461017a575b600080fd5b6101186103a8565b6040516101259190611db5565b60405180910390f35b61014860048036038101906101439190611e1a565b6103d2565b6040516101559190611e62565b60405180910390f35b61017860048036038101906101739190611ea9565b610606565b005b610194600480360381019061018f919061201c565b6106a2565b6040516101a19190611e62565b60405180910390f35b6101c460048036038101906101bf9190611e1a565b61075a565b6040516101d19190611db5565b60405180910390f35b6101f460048036038101906101ef9190612065565b610799565b6040516102019190611e62565b60405180910390f35b610224600480360381019061021f919061201c565b610a8f565b6040516102319190611e62565b60405180910390f35b610254600480360381019061024f9190611e1a565b610b47565b6040516102619190612140565b60405180910390f35b610284600480360381019061027f9190611e1a565b610bef565b005b6102a0600480360381019061029b9190611ea9565b610f42565b005b6102bc60048036038101906102b79190611e1a565b610fde565b6040516102c99190611e62565b60405180910390f35b6102ec60048036038101906102e79190611ea9565b61104b565b6040516102f99190612171565b60405180910390f35b61031c60048036038101906103179190611e1a565b6110ff565b60405161032f979695949392919061218c565b60405180910390f35b610352600480360381019061034d9190612202565b611223565b005b61036e600480360381019061036991906122f6565b611549565b005b61038a6004803603810190610385919061237e565b6117d5565b005b6103a660048036038101906103a19190611ea9565b611c35565b005b6000600160009054906101000a900473ffffffffffffffffffffffffffffffffffffffff16905090565b60008060009054906101000a900473ffffffffffffffffffffffffffffffffffffffff1673ffffffffffffffffffffffffffffffffffffffff163373ffffffffffffffffffffffffffffffffffffffff1614610463576040517f08c379a000000000000000000000000000000000000000000000000000000000815260040161045a9061242e565b60405180910390fd5b6802c3c465ca58ec00006007600084815260200190815260200160002060050154106105995760016007600084815260200190815260200160002060040160016101000a81548160ff021916908315150217905550600460009054906101000a900473ffffffffffffffffffffffffffffffffffffffff1673ffffffffffffffffffffffffffffffffffffffff16632c4076b660076000858152602001908152602001600020600301426040518363ffffffff1660e01b815260040161052a929190612544565b600060405180830381600087803b15801561054457600080fd5b505af1158015610558573d6000803e3d6000fd5b505050507fe8c2651797e6d7c2a1514bdecc5c3cb9b2d783d3f858277b06b64568460c8a0e600160405161058c91906125c0565b60405180910390a1610601565b60016007600084815260200190815260200160002060040160006101000a81548160ff0219169083151502179055507fe8c2651797e6d7c2a1514bdecc5c3cb9b2d783d3f858277b06b64568460c8a0e60006040516105f89190612660565b60405180910390a15b919050565b3373ffffffffffffffffffffffffffffffffffffffff1660008054906101000a900473ffffffffffffffffffffffffffffffffffffffff1673ffffffffffffffffffffffffffffffffffffffff161461065e57600080fd5b80600160006101000a81548173ffffffffffffffffffffffffffffffffffffffff021916908373ffffffffffffffffffffffffffffffffffffffff16021790555050565b6000600460009054906101000a900473ffffffffffffffffffffffffffffffffffffffff1673ffffffffffffffffffffffffffffffffffffffff1663faa9e569836040518263ffffffff1660e01b81526004016106ff9190612140565b60806040518083038186803b15801561071757600080fd5b505afa15801561072b573d6000803e3d6000fd5b505050506040513d601f19601f8201168201806040525081019061074f9190612735565b600001519050919050565b6006818154811061076a57600080fd5b906000526020600020016000915054906101000a900473ffffffffffffffffffffffffffffffffffffffff1681565b60006108426007600084815260200190815260200160002060030180546107bf9061247d565b80601f01602080910402602001604051908101604052809291908181526020018280546107eb9061247d565b80156108385780601f1061080d57610100808354040283529160200191610838565b820191906000526020600020905b81548152906001019060200180831161081b57829003601f168201915b50505050506106a2565b61084b57600080fd5b6108f260076000848152602001908152602001600020600301805461086f9061247d565b80601f016020809104026020016040519081016040528092919081815260200182805461089b9061247d565b80156108e85780601f106108bd576101008083540402835291602001916108e8565b820191906000526020600020905b8154815290600101906020018083116108cb57829003601f168201915b5050505050610a8f565b15610932576040517f08c379a0000000000000000000000000000000000000000000000000000000008152600401610929906127ae565b60405180910390fd5b600560009054906101000a900473ffffffffffffffffffffffffffffffffffffffff1673ffffffffffffffffffffffffffffffffffffffff1663e343361585856040518363ffffffff1660e01b815260040161098f9291906127ce565b600060405180830381600087803b1580156109a957600080fd5b505af11580156109bd573d6000803e3d6000fd5b50505050600460009054906101000a900473ffffffffffffffffffffffffffffffffffffffff1673ffffffffffffffffffffffffffffffffffffffff1663589dad3e600760008581526020019081526020016000206003016040518263ffffffff1660e01b8152600401610a3191906127f7565b602060405180830381600087803b158015610a4b57600080fd5b505af1158015610a5f573d6000803e3d6000fd5b505050506040513d601f19601f82011682018060405250810190610a839190612819565b50600190509392505050565b6000600460009054906101000a900473ffffffffffffffffffffffffffffffffffffffff1673ffffffffffffffffffffffffffffffffffffffff1663faa9e569836040518263ffffffff1660e01b8152600401610aec9190612140565b60806040518083038186803b158015610b0457600080fd5b505afa158015610b18573d6000803e3d6000fd5b505050506040513d601f19601f82011682018060405250810190610b3c9190612735565b606001519050919050565b6060600760008381526020019081526020016000206003018054610b6a9061247d565b80601f0160208091040260200160405190810160405280929190818152602001828054610b969061247d565b8015610be35780601f10610bb857610100808354040283529160200191610be3565b820191906000526020600020905b815481529060010190602001808311610bc657829003601f168201915b50505050509050919050565b60008054906101000a900473ffffffffffffffffffffffffffffffffffffffff1673ffffffffffffffffffffffffffffffffffffffff163373ffffffffffffffffffffffffffffffffffffffff1614610c7d576040517f08c379a0000000000000000000000000000000000000000000000000000000008152600401610c749061242e565b60405180910390fd5b600115156007600083815260200190815260200160002060040160019054906101000a900460ff1615151415610f065760011515600460009054906101000a900473ffffffffffffffffffffffffffffffffffffffff1673ffffffffffffffffffffffffffffffffffffffff166392e876cd60076000858152602001908152602001600020600301426040518363ffffffff1660e01b8152600401610d23929190612544565b602060405180830381600087803b158015610d3d57600080fd5b505af1158015610d51573d6000803e3d6000fd5b505050506040513d601f19601f82011682018060405250810190610d759190612819565b15151415610ec85760001515600460009054906101000a900473ffffffffffffffffffffffffffffffffffffffff1673ffffffffffffffffffffffffffffffffffffffff1663faa9e569600760008581526020019081526020016000206003016040518263ffffffff1660e01b8152600401610df191906127f7565b60806040518083038186803b158015610e0957600080fd5b505afa158015610e1d573d6000803e3d6000fd5b505050506040513d601f19601f82011682018060405250810190610e419190612735565b6000015115151415610e8a577fe8c2651797e6d7c2a1514bdecc5c3cb9b2d783d3f858277b06b64568460c8a0e6000604051610e7d91906128b8565b60405180910390a1610ec3565b7fe8c2651797e6d7c2a1514bdecc5c3cb9b2d783d3f858277b06b64568460c8a0e6001604051610eba91906125c0565b60405180910390a15b610f01565b7fe8c2651797e6d7c2a1514bdecc5c3cb9b2d783d3f858277b06b64568460c8a0e6000604051610ef89190612958565b60405180910390a15b610f3f565b7fe8c2651797e6d7c2a1514bdecc5c3cb9b2d783d3f858277b06b64568460c8a0e6000604051610f369190612660565b60405180910390a15b50565b3373ffffffffffffffffffffffffffffffffffffffff1660008054906101000a900473ffffffffffffffffffffffffffffffffffffffff1673ffffffffffffffffffffffffffffffffffffffff1614610f9a57600080fd5b80600560006101000a81548173ffffffffffffffffffffffffffffffffffffffff021916908373ffffffffffffffffffffffffffffffffffffffff16021790555050565b60006007600083815260200190815260200160002060060160003373ffffffffffffffffffffffffffffffffffffffff1673ffffffffffffffffffffffffffffffffffffffff16815260200190815260200160002060000160009054906101000a900460ff169050919050565b6000600160009054906101000a900473ffffffffffffffffffffffffffffffffffffffff1673ffffffffffffffffffffffffffffffffffffffff166370a08231836040518263ffffffff1660e01b81526004016110a89190611db5565b60206040518083038186803b1580156110c057600080fd5b505afa1580156110d4573d6000803e3d6000fd5b505050506040513d601f19601f820116820180604052508101906110f89190612986565b9050919050565b60008060006060600080600080600760008a815260200190815260200160002090508060000160009054906101000a900473ffffffffffffffffffffffffffffffffffffffff1681600101548260020154836003018460040160009054906101000a900460ff168560040160019054906101000a900460ff1686600501548380546111899061247d565b80601f01602080910402602001604051908101604052809291908181526020018280546111b59061247d565b80156112025780601f106111d757610100808354040283529160200191611202565b820191906000526020600020905b8154815290600101906020018083116111e557829003601f168201915b50505050509350975097509750975097509750975050919395979092949650565b6112ca6007600083815260200190815260200160002060030180546112479061247d565b80601f01602080910402602001604051908101604052809291908181526020018280546112739061247d565b80156112c05780601f10611295576101008083540402835291602001916112c0565b820191906000526020600020905b8154815290600101906020018083116112a357829003601f168201915b50505050506106a2565b6112d357600080fd5b61137a6007600083815260200190815260200160002060030180546112f79061247d565b80601f01602080910402602001604051908101604052809291908181526020018280546113239061247d565b80156113705780601f1061134557610100808354040283529160200191611370565b820191906000526020600020905b81548152906001019060200180831161135357829003601f168201915b5050505050610a8f565b156113ba576040517f08c379a00000000000000000000000000000000000000000000000000000000081526004016113b1906127ae565b60405180910390fd5b600560009054906101000a900473ffffffffffffffffffffffffffffffffffffffff1673ffffffffffffffffffffffffffffffffffffffff16633f2699d084846040518363ffffffff1660e01b81526004016114179291906129b3565b600060405180830381600087803b15801561143157600080fd5b505af1158015611445573d6000803e3d6000fd5b50505050600460009054906101000a900473ffffffffffffffffffffffffffffffffffffffff1673ffffffffffffffffffffffffffffffffffffffff1663589dad3e600760008481526020019081526020016000206003016040518263ffffffff1660e01b81526004016114b991906127f7565b602060405180830381600087803b1580156114d357600080fd5b505af11580156114e7573d6000803e3d6000fd5b505050506040513d601f19601f8201168201806040525081019061150b9190612819565b507fe8c2651797e6d7c2a1514bdecc5c3cb9b2d783d3f858277b06b64568460c8a0e600160405161153c91906125c0565b60405180910390a1505050565b6000600160009054906101000a900473ffffffffffffffffffffffffffffffffffffffff1673ffffffffffffffffffffffffffffffffffffffff166370a08231846040518263ffffffff1660e01b81526004016115a69190611db5565b60206040518083038186803b1580156115be57600080fd5b505afa1580156115d2573d6000803e3d6000fd5b505050506040513d601f19601f820116820180604052508101906115f69190612986565b11611636576040517f08c379a000000000000000000000000000000000000000000000000000000000815260040161162d90612a4e565b60405180910390fd5b600043905060006143804361164b9190612a9d565b905060006007600060016002546116629190612a9d565b81526020019081526020016000209050848160000160006101000a81548173ffffffffffffffffffffffffffffffffffffffff021916908373ffffffffffffffffffffffffffffffffffffffff160217905550828160010181905550818160020181905550838160030190805190602001906116df929190611cd1565b5060008160040160006101000a81548160ff02191690831515021790555060008160040160016101000a81548160ff021916908315150217905550600081600501819055506001600260008282546117379190612a9d565b92505081905550600160009054906101000a900473ffffffffffffffffffffffffffffffffffffffff1673ffffffffffffffffffffffffffffffffffffffff16636161eb188660016040518363ffffffff1660e01b815260040161179c929190612b38565b600060405180830381600087803b1580156117b657600080fd5b505af11580156117ca573d6000803e3d6000fd5b505050505050505050565b6000600160009054906101000a900473ffffffffffffffffffffffffffffffffffffffff1673ffffffffffffffffffffffffffffffffffffffff166370a08231856040518263ffffffff1660e01b81526004016118329190611db5565b60206040518083038186803b15801561184a57600080fd5b505afa15801561185e573d6000803e3d6000fd5b505050506040513d601f19601f820116820180604052508101906118829190612986565b116118c2576040517f08c379a00000000000000000000000000000000000000000000000000000000081526004016118b990612a4e565b60405180910390fd5b600015156007600084815260200190815260200160002060060160008573ffffffffffffffffffffffffffffffffffffffff1673ffffffffffffffffffffffffffffffffffffffff16815260200190815260200160002060000160009054906101000a900460ff1615151461196c576040517f08c379a000000000000000000000000000000000000000000000000000000000815260040161196390612bd3565b60405180910390fd5b60405180604001604052806001151581526020018215158152506007600084815260200190815260200160002060060160008573ffffffffffffffffffffffffffffffffffffffff1673ffffffffffffffffffffffffffffffffffffffff16815260200190815260200160002060008201518160000160006101000a81548160ff02191690831515021790555060208201518160000160016101000a81548160ff02191690831515021790555090505060086000838152602001908152602001600020839080600181540180825580915050600190039060005260206000200160009091909190916101000a81548173ffffffffffffffffffffffffffffffffffffffff021916908373ffffffffffffffffffffffffffffffffffffffff160217905550600160009054906101000a900473ffffffffffffffffffffffffffffffffffffffff1673ffffffffffffffffffffffffffffffffffffffff166318160ddd6040518163ffffffff1660e01b815260040160206040518083038186803b158015611af857600080fd5b505afa158015611b0c573d6000803e3d6000fd5b505050506040513d601f19601f82011682018060405250810190611b309190612986565b6064670de0b6b3a7640000600160009054906101000a900473ffffffffffffffffffffffffffffffffffffffff1673ffffffffffffffffffffffffffffffffffffffff166370a08231876040518263ffffffff1660e01b8152600401611b969190611db5565b60206040518083038186803b158015611bae57600080fd5b505afa158015611bc2573d6000803e3d6000fd5b505050506040513d601f19601f82011682018060405250810190611be69190612986565b611bf09190612bf3565b611bfa9190612bf3565b611c049190612c7c565b600760008481526020019081526020016000206005016000828254611c299190612a9d565b92505081905550505050565b3373ffffffffffffffffffffffffffffffffffffffff1660008054906101000a900473ffffffffffffffffffffffffffffffffffffffff1673ffffffffffffffffffffffffffffffffffffffff1614611c8d57600080fd5b80600460006101000a81548173ffffffffffffffffffffffffffffffffffffffff021916908373ffffffffffffffffffffffffffffffffffffffff16021790555050565b828054611cdd9061247d565b90600052602060002090601f016020900481019282611cff5760008555611d46565b82601f10611d1857805160ff1916838001178555611d46565b82800160010185558215611d46579182015b82811115611d45578251825591602001919060010190611d2a565b5b509050611d539190611d57565b5090565b5b80821115611d70576000816000905550600101611d58565b5090565b600073ffffffffffffffffffffffffffffffffffffffff82169050919050565b6000611d9f82611d74565b9050919050565b611daf81611d94565b82525050565b6000602082019050611dca6000830184611da6565b92915050565b6000604051905090565b600080fd5b600080fd5b6000819050919050565b611df781611de4565b8114611e0257600080fd5b50565b600081359050611e1481611dee565b92915050565b600060208284031215611e3057611e2f611dda565b5b6000611e3e84828501611e05565b91505092915050565b60008115159050919050565b611e5c81611e47565b82525050565b6000602082019050611e776000830184611e53565b92915050565b611e8681611d94565b8114611e9157600080fd5b50565b600081359050611ea381611e7d565b92915050565b600060208284031215611ebf57611ebe611dda565b5b6000611ecd84828501611e94565b91505092915050565b600080fd5b600080fd5b6000601f19601f8301169050919050565b7f4e487b7100000000000000000000000000000000000000000000000000000000600052604160045260246000fd5b611f2982611ee0565b810181811067ffffffffffffffff82111715611f4857611f47611ef1565b5b80604052505050565b6000611f5b611dd0565b9050611f678282611f20565b919050565b600067ffffffffffffffff821115611f8757611f86611ef1565b5b611f9082611ee0565b9050602081019050919050565b82818337600083830152505050565b6000611fbf611fba84611f6c565b611f51565b905082815260208101848484011115611fdb57611fda611edb565b5b611fe6848285611f9d565b509392505050565b600082601f83011261200357612002611ed6565b5b8135612013848260208601611fac565b91505092915050565b60006020828403121561203257612031611dda565b5b600082013567ffffffffffffffff8111156120505761204f611ddf565b5b61205c84828501611fee565b91505092915050565b60008060006060848603121561207e5761207d611dda565b5b600061208c86828701611e94565b935050602061209d86828701611e94565b92505060406120ae86828701611e05565b9150509250925092565b600081519050919050565b600082825260208201905092915050565b60005b838110156120f25780820151818401526020810190506120d7565b83811115612101576000848401525b50505050565b6000612112826120b8565b61211c81856120c3565b935061212c8185602086016120d4565b61213581611ee0565b840191505092915050565b6000602082019050818103600083015261215a8184612107565b905092915050565b61216b81611de4565b82525050565b60006020820190506121866000830184612162565b92915050565b600060e0820190506121a1600083018a611da6565b6121ae6020830189612162565b6121bb6040830188612162565b81810360608301526121cd8187612107565b90506121dc6080830186611e53565b6121e960a0830185611e53565b6121f660c0830184612162565b98975050505050505050565b60008060006060848603121561221b5761221a611dda565b5b600061222986828701611e94565b935050602061223a86828701611e05565b925050604061224b86828701611e05565b9150509250925092565b600067ffffffffffffffff8211156122705761226f611ef1565b5b61227982611ee0565b9050602081019050919050565b600061229961229484612255565b611f51565b9050828152602081018484840111156122b5576122b4611edb565b5b6122c0848285611f9d565b509392505050565b600082601f8301126122dd576122dc611ed6565b5b81356122ed848260208601612286565b91505092915050565b6000806040838503121561230d5761230c611dda565b5b600061231b85828601611e94565b925050602083013567ffffffffffffffff81111561233c5761233b611ddf565b5b612348858286016122c8565b9150509250929050565b61235b81611e47565b811461236657600080fd5b50565b60008135905061237881612352565b92915050565b60008060006060848603121561239757612396611dda565b5b60006123a586828701611e94565b93505060206123b686828701611e05565b92505060406123c786828701612369565b9150509250925092565b600082825260208201905092915050565b7f476f7665726e616e6365203a206f6e6c79206f776e6572000000000000000000600082015250565b60006124186017836123d1565b9150612423826123e2565b602082019050919050565b600060208201905081810360008301526124478161240b565b9050919050565b7f4e487b7100000000000000000000000000000000000000000000000000000000600052602260045260246000fd5b6000600282049050600182168061249557607f821691505b602082108114156124a9576124a861244e565b5b50919050565b60008190508160005260206000209050919050565b600081546124d18161247d565b6124db81866120c3565b945060018216600081146124f657600181146125085761253b565b60ff198316865260208601935061253b565b612511856124af565b60005b8381101561253357815481890152600182019150602081019050612514565b808801955050505b50505092915050565b6000604082019050818103600083015261255e81856124c4565b905061256d6020830184612162565b9392505050565b7f7375636365737300000000000000000000000000000000000000000000000000600082015250565b60006125aa6007836123d1565b91506125b582612574565b602082019050919050565b60006040820190506125d56000830184611e53565b81810360208301526125e68161259d565b905092915050565b7f476f7665726e616e6365203a2049742773206120766f7465207468617420646960008201527f646e277420706173732e00000000000000000000000000000000000000000000602082015250565b600061264a602a836123d1565b9150612655826125ee565b604082019050919050565b60006040820190506126756000830184611e53565b81810360208301526126868161263d565b905092915050565b600080fd5b6000815190506126a281612352565b92915050565b6000815190506126b781611dee565b92915050565b6000608082840312156126d3576126d261268e565b5b6126dd6080611f51565b905060006126ed84828501612693565b600083015250602061270184828501612693565b6020830152506040612715848285016126a8565b604083015250606061272984828501612693565b60608301525092915050565b60006080828403121561274b5761274a611dda565b5b6000612759848285016126bd565b91505092915050565b7f497320436c6f7365640000000000000000000000000000000000000000000000600082015250565b60006127986009836123d1565b91506127a382612762565b602082019050919050565b600060208201905081810360008301526127c78161278b565b9050919050565b60006040820190506127e36000830185611da6565b6127f06020830184611da6565b9392505050565b6000602082019050818103600083015261281181846124c4565b905092915050565b60006020828403121561282f5761282e611dda565b5b600061283d84828501612693565b91505092915050565b7f476f7665726e616e6365203a2054696d656c6f636b207374617475732066616c60008201527f73652e0000000000000000000000000000000000000000000000000000000000602082015250565b60006128a26023836123d1565b91506128ad82612846565b604082019050919050565b60006040820190506128cd6000830184611e53565b81810360208301526128de81612895565b905092915050565b7f476f7665726e616e6365203a2054696d656c6f636b2069732072756e6e696e6760008201527f2e00000000000000000000000000000000000000000000000000000000000000602082015250565b60006129426021836123d1565b915061294d826128e6565b604082019050919050565b600060408201905061296d6000830184611e53565b818103602083015261297e81612935565b905092915050565b60006020828403121561299c5761299b611dda565b5b60006129aa848285016126a8565b91505092915050565b60006040820190506129c86000830185611da6565b6129d56020830184612162565b9392505050565b7f476f7665726e616e6365203a20446f206e6f742068617665206120764153442060008201527f746f6b656e2e0000000000000000000000000000000000000000000000000000602082015250565b6000612a386026836123d1565b9150612a43826129dc565b604082019050919050565b60006020820190508181036000830152612a6781612a2b565b9050919050565b7f4e487b7100000000000000000000000000000000000000000000000000000000600052601160045260246000fd5b6000612aa882611de4565b9150612ab383611de4565b9250827fffffffffffffffffffffffffffffffffffffffffffffffffffffffffffffffff03821115612ae857612ae7612a6e565b5b828201905092915050565b6000819050919050565b6000819050919050565b6000612b22612b1d612b1884612af3565b612afd565b611de4565b9050919050565b612b3281612b07565b82525050565b6000604082019050612b4d6000830185611da6565b612b5a6020830184612b29565b9392505050565b7f476f7665726e616e6365203a20497420697320612070726f706f73616c20746860008201527f61742068617320616c7265616479206265656e20766f746564206f6e2e000000602082015250565b6000612bbd603d836123d1565b9150612bc882612b61565b604082019050919050565b60006020820190508181036000830152612bec81612bb0565b9050919050565b6000612bfe82611de4565b9150612c0983611de4565b9250817fffffffffffffffffffffffffffffffffffffffffffffffffffffffffffffffff0483118215151615612c4257612c41612a6e565b5b828202905092915050565b7f4e487b7100000000000000000000000000000000000000000000000000000000600052601260045260246000fd5b6000612c8782611de4565b9150612c9283611de4565b925082612ca257612ca1612c4d565b5b82820490509291505056fea26469706673582212202512acfb1ae7b1cd2d07127d8cba37a679ab960c16b31701a15ff856313abcdb64736f6c63430008090033",
  "linkReferences": {},
  "deployedLinkReferences": {}
}