{
  "_format": "hh-sol-artifact-1",
  "contractName": "Deploy",
  "sourceName": "contracts/Deploy.sol",
  "abi": [
    {
      "inputs": [
        {
          "internalType": "uint256",
          "name": "_feePercent",
          "type": "uint256"
        }
      ],
      "stateMutability": "nonpayable",
      "type": "constructor"
    },
    {
      "inputs": [],
      "name": "featureAddress",
      "outputs": [
        {
          "internalType": "address",
          "name": "pair",
          "type": "address"
        },
        {
          "internalType": "address",
          "name": "liquid",
          "type": "address"
        },
        {
          "internalType": "address",
          "name": "swap",
          "type": "address"
        }
      ],
      "stateMutability": "view",
      "type": "function"
    }
  ],
  "bytecode": "0x608060405234801561001057600080fd5b506040516200ac703803806200ac708339818101604052810190610034919061030b565b604051610040906102a6565b604051809103906000f08015801561005c573d6000803e3d6000fd5b506000806101000a81548173ffffffffffffffffffffffffffffffffffffffff021916908373ffffffffffffffffffffffffffffffffffffffff16021790555060008054906101000a900473ffffffffffffffffffffffffffffffffffffffff16600360006101000a81548173ffffffffffffffffffffffffffffffffffffffff021916908373ffffffffffffffffffffffffffffffffffffffff160217905550604051610109906102b4565b604051809103906000f080158015610125573d6000803e3d6000fd5b50600160006101000a81548173ffffffffffffffffffffffffffffffffffffffff021916908373ffffffffffffffffffffffffffffffffffffffff160217905550600160009054906101000a900473ffffffffffffffffffffffffffffffffffffffff16600460006101000a81548173ffffffffffffffffffffffffffffffffffffffff021916908373ffffffffffffffffffffffffffffffffffffffff160217905550806040516101d6906102c2565b6101e09190610347565b604051809103906000f0801580156101fc573d6000803e3d6000fd5b50600260006101000a81548173ffffffffffffffffffffffffffffffffffffffff021916908373ffffffffffffffffffffffffffffffffffffffff160217905550600260009054906101000a900473ffffffffffffffffffffffffffffffffffffffff16600560006101000a81548173ffffffffffffffffffffffffffffffffffffffff021916908373ffffffffffffffffffffffffffffffffffffffff16021790555050610362565b61418280620004e983390190565b614e28806200466b83390190565b6117dd806200949383390190565b600080fd5b6000819050919050565b6102e8816102d5565b81146102f357600080fd5b50565b600081519050610305816102df565b92915050565b600060208284031215610321576103206102d0565b5b600061032f848285016102f6565b91505092915050565b610341816102d5565b82525050565b600060208201905061035c6000830184610338565b92915050565b61017780620003726000396000f3fe608060405234801561001057600080fd5b506004361061002b5760003560e01c8063ee136a5614610030575b600080fd5b610038610050565b6040516100479392919061010a565b60405180910390f35b6000806000600360009054906101000a900473ffffffffffffffffffffffffffffffffffffffff16600460009054906101000a900473ffffffffffffffffffffffffffffffffffffffff16600560009054906101000a900473ffffffffffffffffffffffffffffffffffffffff16925092509250909192565b600073ffffffffffffffffffffffffffffffffffffffff82169050919050565b60006100f4826100c9565b9050919050565b610104816100e9565b82525050565b600060608201905061011f60008301866100fb565b61012c60208301856100fb565b61013960408301846100fb565b94935050505056fea2646970667358221220c9e3f257532fb1366552340fe82084598a49f764f11ab113e5c1de4eed25de2f64736f6c63430008090033608060405260016006556001600755600160085560016009556001600a556001600b5534801561002e57600080fd5b506141448061003e6000396000f3fe60806040523480156200001157600080fd5b5060043610620000e25760003560e01c80635ced16d21162000099578063c41a2e1f116200006f578063c41a2e1f1462000245578063d1e9a5fd1462000265578063eafaef511462000289578063ebcde5f314620002a957620000e2565b80635ced16d214620001c65780639a0b711814620001e8578063ab73bb17146200020f57620000e2565b80630b026fd414620000e757806310f227281462000107578063169f97ae146200013e5780633d1b719f146200016057806347c8efa714620001825780634ce272ee14620001a4575b600080fd5b620001056004803603810190620000ff919062001394565b620002cb565b005b6200012560048036038101906200011f91906200142b565b62000cbe565b6040516200013592919062001483565b60405180910390f35b6200014862000d2f565b604051620001579190620014b0565b60405180910390f35b6200016a62000d55565b604051620001799190620014b0565b60405180910390f35b6200018c62000d7b565b6040516200019b919062001571565b60405180910390f35b620001ae62000e11565b604051620001bd9190620015a6565b60405180910390f35b620001d062000e17565b604051620001df9190620014b0565b60405180910390f35b620001f262000e3d565b6040516200020696959493929190620015c3565b60405180910390f35b6200022d600480360381019062000227919062001630565b62000e6c565b6040516200023c9190620015a6565b60405180910390f35b6200026360048036038101906200025d91906200142b565b62000e91565b005b6200026f6200101a565b604051620002809392919062001662565b60405180910390f35b620002a76004803603810190620002a191906200142b565b62001093565b005b620002b36200121c565b604051620002c29190620014b0565b60405180910390f35b6000805b600f80549050811015620004f6576000600e60008573ffffffffffffffffffffffffffffffffffffffff1673ffffffffffffffffffffffffffffffffffffffff16815260200190815260200160002060008381526020019081526020016000206040518060400160405290816000820160009054906101000a900473ffffffffffffffffffffffffffffffffffffffff1673ffffffffffffffffffffffffffffffffffffffff1673ffffffffffffffffffffffffffffffffffffffff1681526020016001820160009054906101000a900473ffffffffffffffffffffffffffffffffffffffff1673ffffffffffffffffffffffffffffffffffffffff1673ffffffffffffffffffffffffffffffffffffffff168152505090508573ffffffffffffffffffffffffffffffffffffffff16816000015173ffffffffffffffffffffffffffffffffffffffff161480156200045757508473ffffffffffffffffffffffffffffffffffffffff16816020015173ffffffffffffffffffffffffffffffffffffffff16145b80620004ce57508473ffffffffffffffffffffffffffffffffffffffff16816000015173ffffffffffffffffffffffffffffffffffffffff16148015620004cd57508573ffffffffffffffffffffffffffffffffffffffff16816020015173ffffffffffffffffffffffffffffffffffffffff16145b5b15620004df576001925050620004f6565b508080620004ed90620016ce565b915050620002cf565b5080156200053b576040517f08c379a000000000000000000000000000000000000000000000000000000000815260040162000532906200176c565b60405180910390fd5b8062000cb857600060405180604001604052808673ffffffffffffffffffffffffffffffffffffffff1681526020018573ffffffffffffffffffffffffffffffffffffffff1681525090508473ffffffffffffffffffffffffffffffffffffffff166306fdde036040518163ffffffff1660e01b815260040160006040518083038186803b158015620005cd57600080fd5b505afa158015620005e2573d6000803e3d6000fd5b505050506040513d6000823e3d601f19601f820116820180604052508101906200060d9190620018d0565b600d9080519060200190620006249291906200125d565b5080600e60008573ffffffffffffffffffffffffffffffffffffffff1673ffffffffffffffffffffffffffffffffffffffff1681526020019081526020016000206000601054815260200190815260200160002060008201518160000160006101000a81548173ffffffffffffffffffffffffffffffffffffffff021916908373ffffffffffffffffffffffffffffffffffffffff16021790555060208201518160010160006101000a81548173ffffffffffffffffffffffffffffffffffffffff021916908373ffffffffffffffffffffffffffffffffffffffff160217905550905050600f601054908060018154018082558091505060019003906000526020600020016000909190919091505560016010600082825462000749919062001921565b9250508190555062000823600d80546200076390620019ad565b80601f01602080910402602001604051908101604052809291908181526020018280546200079190620019ad565b8015620007e25780601f10620007b657610100808354040283529160200191620007e2565b820191906000526020600020905b815481529060010190602001808311620007c457829003601f168201915b50505050506040518060400160405280600381526020017f415242000000000000000000000000000000000000000000000000000000000081525062001242565b1562000906576040516200083790620012ee565b620008429062001a83565b604051809103906000f0801580156200085f573d6000803e3d6000fd5b506000806101000a81548173ffffffffffffffffffffffffffffffffffffffff021916908373ffffffffffffffffffffffffffffffffffffffff16021790555060008054906101000a900473ffffffffffffffffffffffffffffffffffffffff16600360006101000a81548173ffffffffffffffffffffffffffffffffffffffff021916908373ffffffffffffffffffffffffffffffffffffffff16021790555062000cb6565b620009d9600d80546200091990620019ad565b80601f01602080910402602001604051908101604052809291908181526020018280546200094790620019ad565b8015620009985780601f106200096c5761010080835404028352916020019162000998565b820191906000526020600020905b8154815290600101906020018083116200097a57829003601f168201915b50505050506040518060400160405280600481526020017f555344540000000000000000000000000000000000000000000000000000000081525062001242565b1562000abf57604051620009ed90620012ee565b620009f89062001b0a565b604051809103906000f08015801562000a15573d6000803e3d6000fd5b50600160006101000a81548173ffffffffffffffffffffffffffffffffffffffff021916908373ffffffffffffffffffffffffffffffffffffffff160217905550600160009054906101000a900473ffffffffffffffffffffffffffffffffffffffff16600460006101000a81548173ffffffffffffffffffffffffffffffffffffffff021916908373ffffffffffffffffffffffffffffffffffffffff16021790555062000cb5565b62000b92600d805462000ad290620019ad565b80601f016020809104026020016040519081016040528092919081815260200182805462000b0090620019ad565b801562000b515780601f1062000b255761010080835404028352916020019162000b51565b820191906000526020600020905b81548152906001019060200180831162000b3357829003601f168201915b50505050506040518060400160405280600381526020017f455448000000000000000000000000000000000000000000000000000000000081525062001242565b1562000cb45760405162000ba690620012ee565b62000bb19062001b91565b604051809103906000f08015801562000bce573d6000803e3d6000fd5b50600260006101000a81548173ffffffffffffffffffffffffffffffffffffffff021916908373ffffffffffffffffffffffffffffffffffffffff160217905550600260009054906101000a900473ffffffffffffffffffffffffffffffffffffffff16600560006101000a81548173ffffffffffffffffffffffffffffffffffffffff021916908373ffffffffffffffffffffffffffffffffffffffff16021790555084600c60006101000a81548173ffffffffffffffffffffffffffffffffffffffff021916908373ffffffffffffffffffffffffffffffffffffffff1602179055505b5b5b505b50505050565b600e602052816000526040600020602052806000526040600020600091509150508060000160009054906101000a900473ffffffffffffffffffffffffffffffffffffffff16908060010160009054906101000a900473ffffffffffffffffffffffffffffffffffffffff16905082565b600560009054906101000a900473ffffffffffffffffffffffffffffffffffffffff1681565b600c60009054906101000a900473ffffffffffffffffffffffffffffffffffffffff1681565b600d805462000d8a90620019ad565b80601f016020809104026020016040519081016040528092919081815260200182805462000db890620019ad565b801562000e095780601f1062000ddd5761010080835404028352916020019162000e09565b820191906000526020600020905b81548152906001019060200180831162000deb57829003601f168201915b505050505081565b60105481565b600460009054906101000a900473ffffffffffffffffffffffffffffffffffffffff1681565b600080600080600080600654600954600754600a54600854600b54955095509550955095509550909192939495565b600f818154811062000e7d57600080fd5b906000526020600020016000915090505481565b60008273ffffffffffffffffffffffffffffffffffffffff166306fdde036040518163ffffffff1660e01b815260040160006040518083038186803b15801562000eda57600080fd5b505afa15801562000eef573d6000803e3d6000fd5b505050506040513d6000823e3d601f19601f8201168201806040525081019062000f1a9190620018d0565b905062000f5d816040518060400160405280600581526020017f4152424c5000000000000000000000000000000000000000000000000000000081525062001242565b1562000f70578160068190555062001015565b62000fb1816040518060400160405280600681526020017f555344544c50000000000000000000000000000000000000000000000000000081525062001242565b1562000fc4578160078190555062001014565b62001005816040518060400160405280600581526020017f4554484c5000000000000000000000000000000000000000000000000000000081525062001242565b156200101357816008819055505b5b5b505050565b6000806000600360009054906101000a900473ffffffffffffffffffffffffffffffffffffffff16600460009054906101000a900473ffffffffffffffffffffffffffffffffffffffff16600560009054906101000a900473ffffffffffffffffffffffffffffffffffffffff16925092509250909192565b60008273ffffffffffffffffffffffffffffffffffffffff166306fdde036040518163ffffffff1660e01b815260040160006040518083038186803b158015620010dc57600080fd5b505afa158015620010f1573d6000803e3d6000fd5b505050506040513d6000823e3d601f19601f820116820180604052508101906200111c9190620018d0565b90506200115f816040518060400160405280600581526020017f4152424c5000000000000000000000000000000000000000000000000000000081525062001242565b1562001172578160098190555062001217565b620011b3816040518060400160405280600681526020017f555344544c50000000000000000000000000000000000000000000000000000081525062001242565b15620011c65781600a8190555062001216565b62001207816040518060400160405280600581526020017f4554484c5000000000000000000000000000000000000000000000000000000081525062001242565b15620012155781600b819055505b5b5b505050565b600360009054906101000a900473ffffffffffffffffffffffffffffffffffffffff1681565b60008180519060200120838051906020012014905092915050565b8280546200126b90620019ad565b90600052602060002090601f0160209004810192826200128f5760008555620012db565b82601f10620012aa57805160ff1916838001178555620012db565b82800160010185558215620012db579182015b82811115620012da578251825591602001919060010190620012bd565b5b509050620012ea9190620012fc565b5090565b6125468062001bc983390190565b5b8082111562001317576000816000905550600101620012fd565b5090565b6000604051905090565b600080fd5b600080fd5b600073ffffffffffffffffffffffffffffffffffffffff82169050919050565b60006200135c826200132f565b9050919050565b6200136e816200134f565b81146200137a57600080fd5b50565b6000813590506200138e8162001363565b92915050565b600080600060608486031215620013b057620013af62001325565b5b6000620013c0868287016200137d565b9350506020620013d3868287016200137d565b9250506040620013e6868287016200137d565b9150509250925092565b6000819050919050565b6200140581620013f0565b81146200141157600080fd5b50565b6000813590506200142581620013fa565b92915050565b6000806040838503121562001445576200144462001325565b5b600062001455858286016200137d565b9250506020620014688582860162001414565b9150509250929050565b6200147d816200134f565b82525050565b60006040820190506200149a600083018562001472565b620014a9602083018462001472565b9392505050565b6000602082019050620014c7600083018462001472565b92915050565b600081519050919050565b600082825260208201905092915050565b60005b8381101562001509578082015181840152602081019050620014ec565b8381111562001519576000848401525b50505050565b6000601f19601f8301169050919050565b60006200153d82620014cd565b620015498185620014d8565b93506200155b818560208601620014e9565b62001566816200151f565b840191505092915050565b600060208201905081810360008301526200158d818462001530565b905092915050565b620015a081620013f0565b82525050565b6000602082019050620015bd600083018462001595565b92915050565b600060c082019050620015da600083018962001595565b620015e9602083018862001595565b620015f8604083018762001595565b62001607606083018662001595565b62001616608083018562001595565b6200162560a083018462001595565b979650505050505050565b60006020828403121562001649576200164862001325565b5b6000620016598482850162001414565b91505092915050565b600060608201905062001679600083018662001472565b62001688602083018562001472565b62001697604083018462001472565b949350505050565b7f4e487b7100000000000000000000000000000000000000000000000000000000600052601160045260246000fd5b6000620016db82620013f0565b91507fffffffffffffffffffffffffffffffffffffffffffffffffffffffffffffffff8214156200171157620017106200169f565b5b600182019050919050565b7f54686520706f6f6c20616c7265616479206578697374732e0000000000000000600082015250565b600062001754601883620014d8565b915062001761826200171c565b602082019050919050565b60006020820190508181036000830152620017878162001745565b9050919050565b600080fd5b600080fd5b7f4e487b7100000000000000000000000000000000000000000000000000000000600052604160045260246000fd5b620017d2826200151f565b810181811067ffffffffffffffff82111715620017f457620017f362001798565b5b80604052505050565b6000620018096200131b565b9050620018178282620017c7565b919050565b600067ffffffffffffffff8211156200183a576200183962001798565b5b62001845826200151f565b9050602081019050919050565b60006200186962001863846200181c565b620017fd565b90508281526020810184848401111562001888576200188762001793565b5b62001895848285620014e9565b509392505050565b600082601f830112620018b557620018b46200178e565b5b8151620018c784826020860162001852565b91505092915050565b600060208284031215620018e957620018e862001325565b5b600082015167ffffffffffffffff8111156200190a57620019096200132a565b5b62001918848285016200189d565b91505092915050565b60006200192e82620013f0565b91506200193b83620013f0565b9250827fffffffffffffffffffffffffffffffffffffffffffffffffffffffffffffffff038211156200197357620019726200169f565b5b828201905092915050565b7f4e487b7100000000000000000000000000000000000000000000000000000000600052602260045260246000fd5b60006002820490506001821680620019c657607f821691505b60208210811415620019dd57620019dc6200197e565b5b50919050565b7f4152424c50000000000000000000000000000000000000000000000000000000600082015250565b600062001a1b600583620014d8565b915062001a2882620019e3565b602082019050919050565b7f4c50000000000000000000000000000000000000000000000000000000000000600082015250565b600062001a6b600283620014d8565b915062001a788262001a33565b602082019050919050565b6000604082019050818103600083015262001a9e8162001a0c565b9050818103602083015262001ab38162001a5c565b9050919050565b7f555344544c500000000000000000000000000000000000000000000000000000600082015250565b600062001af2600683620014d8565b915062001aff8262001aba565b602082019050919050565b6000604082019050818103600083015262001b258162001ae3565b9050818103602083015262001b3a8162001a5c565b9050919050565b7f4554484c50000000000000000000000000000000000000000000000000000000600082015250565b600062001b79600583620014d8565b915062001b868262001b41565b602082019050919050565b6000604082019050818103600083015262001bac8162001b6a565b9050818103602083015262001bc18162001a5c565b905091905056fe60806040523480156200001157600080fd5b506040516200254638038062002546833981810160405281019062000037919062000344565b8181816003908051906020019062000051929190620000f7565b5080600490805190602001906200006a929190620000f7565b50505030600560006101000a81548173ffffffffffffffffffffffffffffffffffffffff021916908373ffffffffffffffffffffffffffffffffffffffff16021790555030600660006101000a81548173ffffffffffffffffffffffffffffffffffffffff021916908373ffffffffffffffffffffffffffffffffffffffff16021790555050506200042e565b8280546200010590620003f8565b90600052602060002090601f01602090048101928262000129576000855562000175565b82601f106200014457805160ff191683800117855562000175565b8280016001018555821562000175579182015b828111156200017457825182559160200191906001019062000157565b5b50905062000184919062000188565b5090565b5b80821115620001a357600081600090555060010162000189565b5090565b6000604051905090565b600080fd5b600080fd5b600080fd5b600080fd5b6000601f19601f8301169050919050565b7f4e487b7100000000000000000000000000000000000000000000000000000000600052604160045260246000fd5b6200021082620001c5565b810181811067ffffffffffffffff82111715620002325762000231620001d6565b5b80604052505050565b600062000247620001a7565b905062000255828262000205565b919050565b600067ffffffffffffffff821115620002785762000277620001d6565b5b6200028382620001c5565b9050602081019050919050565b60005b83811015620002b057808201518184015260208101905062000293565b83811115620002c0576000848401525b50505050565b6000620002dd620002d7846200025a565b6200023b565b905082815260208101848484011115620002fc57620002fb620001c0565b5b6200030984828562000290565b509392505050565b600082601f830112620003295762000328620001bb565b5b81516200033b848260208601620002c6565b91505092915050565b600080604083850312156200035e576200035d620001b1565b5b600083015167ffffffffffffffff8111156200037f576200037e620001b6565b5b6200038d8582860162000311565b925050602083015167ffffffffffffffff811115620003b157620003b0620001b6565b5b620003bf8582860162000311565b9150509250929050565b7f4e487b7100000000000000000000000000000000000000000000000000000000600052602260045260246000fd5b600060028204905060018216806200041157607f821691505b60208210811415620004285762000427620003c9565b5b50919050565b612108806200043e6000396000f3fe608060405234801561001057600080fd5b50600436106101165760003560e01c806395d89b41116100a2578063a0712d6811610071578063a0712d68146102fa578063a457c2d714610316578063a9059cbb14610346578063dd62ed3e14610376578063e2344963146103a657610116565b806395d89b4114610270578063993a86bd1461028e5780639c53f267146102ac5780639d76ea58146102dc57610116565b8063313ce567116100e9578063313ce567146101b757806339509351146101d55780636161eb181461020557806370a08231146102215780638a48ac031461025157610116565b806306fdde031461011b578063095ea7b31461013957806318160ddd1461016957806323b872dd14610187575b600080fd5b6101236103c2565b604051610130919061145d565b60405180910390f35b610153600480360381019061014e9190611518565b610454565b6040516101609190611573565b60405180910390f35b610171610492565b60405161017e919061159d565b60405180910390f35b6101a1600480360381019061019c91906115b8565b61049c565b6040516101ae9190611573565b60405180910390f35b6101bf6104bf565b6040516101cc9190611627565b60405180910390f35b6101ef60048036038101906101ea9190611518565b6104c8565b6040516101fc9190611573565b60405180910390f35b61021f600480360381019061021a9190611518565b61051a565b005b61023b60048036038101906102369190611642565b6106ea565b604051610248919061159d565b60405180910390f35b610259610733565b60405161026792919061172d565b60405180910390f35b6102786107cc565b604051610285919061145d565b60405180910390f35b61029661085e565b6040516102a3919061176c565b60405180910390f35b6102c660048036038101906102c19190611642565b610884565b6040516102d3919061159d565b60405180910390f35b6102e461089c565b6040516102f1919061176c565b60405180910390f35b610314600480360381019061030f9190611787565b6108c2565b005b610330600480360381019061032b9190611518565b6109ab565b60405161033d9190611573565b60405180910390f35b610360600480360381019061035b9190611518565b610a3d565b60405161036d9190611573565b60405180910390f35b610390600480360381019061038b91906117b4565b610a59565b60405161039d919061159d565b60405180910390f35b6103c060048036038101906103bb91906117f4565b610ae0565b005b6060600380546103d190611863565b80601f01602080910402602001604051908101604052809291908181526020018280546103fd90611863565b801561044a5780601f1061041f5761010080835404028352916020019161044a565b820191906000526020600020905b81548152906001019060200180831161042d57829003601f168201915b5050505050905090565b600080600660009054906101000a900473ffffffffffffffffffffffffffffffffffffffff169050610487818585610bcd565b600191505092915050565b6000600c54905090565b60006104a9848484610d98565b6104b4848484611013565b600190509392505050565b60006012905090565b600080600660009054906101000a900473ffffffffffffffffffffffffffffffffffffffff16905061050f8185856105008589610a59565b61050a91906118c4565b610bcd565b600191505092915050565b600073ffffffffffffffffffffffffffffffffffffffff168273ffffffffffffffffffffffffffffffffffffffff16141561058a576040517f08c379a00000000000000000000000000000000000000000000000000000000081526004016105819061198c565b60405180910390fd5b61059682600083611143565b6000600760008473ffffffffffffffffffffffffffffffffffffffff1673ffffffffffffffffffffffffffffffffffffffff1681526020019081526020016000205490508181101561061d576040517f08c379a000000000000000000000000000000000000000000000000000000000815260040161061490611a1e565b60405180910390fd5b818103600760008573ffffffffffffffffffffffffffffffffffffffff1673ffffffffffffffffffffffffffffffffffffffff1681526020019081526020016000208190555081600c60008282540392505081905550600073ffffffffffffffffffffffffffffffffffffffff168373ffffffffffffffffffffffffffffffffffffffff167fddf252ad1be2c89b69c2b068fc378daa952ba7f163c4a11628f55a4df523b3ef846040516106d1919061159d565b60405180910390a36106e583600084611267565b505050565b6000600760008373ffffffffffffffffffffffffffffffffffffffff1673ffffffffffffffffffffffffffffffffffffffff168152602001908152602001600020549050919050565b60606000600a600b54818054806020026020016040519081016040528092919081815260200182805480156107bd57602002820191906000526020600020905b8160009054906101000a900473ffffffffffffffffffffffffffffffffffffffff1673ffffffffffffffffffffffffffffffffffffffff1681526020019060010190808311610773575b50505050509150915091509091565b6060600480546107db90611863565b80601f016020809104026020016040519081016040528092919081815260200182805461080790611863565b80156108545780601f1061082957610100808354040283529160200191610854565b820191906000526020600020905b81548152906001019060200180831161083757829003601f168201915b5050505050905090565b600660009054906101000a900473ffffffffffffffffffffffffffffffffffffffff1681565b60096020528060005260406000206000915090505481565b600560009054906101000a900473ffffffffffffffffffffffffffffffffffffffff1681565b610901600660009054906101000a900473ffffffffffffffffffffffffffffffffffffffff16670de0b6b3a7640000836108fc9190611a3e565b61126c565b610940600660009054906101000a900473ffffffffffffffffffffffffffffffffffffffff16670de0b6b3a76400008361093b9190611a3e565b610454565b50600160096000600660009054906101000a900473ffffffffffffffffffffffffffffffffffffffff1673ffffffffffffffffffffffffffffffffffffffff1673ffffffffffffffffffffffffffffffffffffffff1681526020019081526020016000208190555050565b600080600660009054906101000a900473ffffffffffffffffffffffffffffffffffffffff16905060006109df8286610a59565b905083811015610a24576040517f08c379a0000000000000000000000000000000000000000000000000000000008152600401610a1b90611b0a565b60405180910390fd5b610a318286868403610bcd565b60019250505092915050565b600080309050610a4e818585610d98565b600191505092915050565b6000600860008473ffffffffffffffffffffffffffffffffffffffff1673ffffffffffffffffffffffffffffffffffffffff16815260200190815260200160002060008373ffffffffffffffffffffffffffffffffffffffff1673ffffffffffffffffffffffffffffffffffffffff16815260200190815260200160002054905092915050565b610b23600660009054906101000a900473ffffffffffffffffffffffffffffffffffffffff1682600a610b139190611c5d565b84610b1e9190611a3e565b61126c565b610b66600660009054906101000a900473ffffffffffffffffffffffffffffffffffffffff1682600a610b569190611c5d565b84610b619190611a3e565b610454565b5060096000600660009054906101000a900473ffffffffffffffffffffffffffffffffffffffff1673ffffffffffffffffffffffffffffffffffffffff1673ffffffffffffffffffffffffffffffffffffffff168152602001908152602001600020505050565b600073ffffffffffffffffffffffffffffffffffffffff168373ffffffffffffffffffffffffffffffffffffffff161415610c3d576040517f08c379a0000000000000000000000000000000000000000000000000000000008152600401610c3490611d1a565b60405180910390fd5b600073ffffffffffffffffffffffffffffffffffffffff168273ffffffffffffffffffffffffffffffffffffffff161415610cad576040517f08c379a0000000000000000000000000000000000000000000000000000000008152600401610ca490611dac565b60405180910390fd5b80600860008573ffffffffffffffffffffffffffffffffffffffff1673ffffffffffffffffffffffffffffffffffffffff16815260200190815260200160002060008473ffffffffffffffffffffffffffffffffffffffff1673ffffffffffffffffffffffffffffffffffffffff168152602001908152602001600020819055508173ffffffffffffffffffffffffffffffffffffffff168373ffffffffffffffffffffffffffffffffffffffff167f8c5be1e5ebec7d5bd14f71427d1e84f3dd0314c0f7b2291e5b200ac8c7c3b92583604051610d8b919061159d565b60405180910390a3505050565b600073ffffffffffffffffffffffffffffffffffffffff168373ffffffffffffffffffffffffffffffffffffffff161415610e08576040517f08c379a0000000000000000000000000000000000000000000000000000000008152600401610dff90611e3e565b60405180910390fd5b600073ffffffffffffffffffffffffffffffffffffffff168273ffffffffffffffffffffffffffffffffffffffff161415610e78576040517f08c379a0000000000000000000000000000000000000000000000000000000008152600401610e6f90611ed0565b60405180910390fd5b610e83838383611143565b6000600760008573ffffffffffffffffffffffffffffffffffffffff1673ffffffffffffffffffffffffffffffffffffffff16815260200190815260200160002054905081811015610f0a576040517f08c379a0000000000000000000000000000000000000000000000000000000008152600401610f0190611f62565b60405180910390fd5b818103600760008673ffffffffffffffffffffffffffffffffffffffff1673ffffffffffffffffffffffffffffffffffffffff1681526020019081526020016000208190555081600760008573ffffffffffffffffffffffffffffffffffffffff1673ffffffffffffffffffffffffffffffffffffffff168152602001908152602001600020600082825401925050819055508273ffffffffffffffffffffffffffffffffffffffff168473ffffffffffffffffffffffffffffffffffffffff167fddf252ad1be2c89b69c2b068fc378daa952ba7f163c4a11628f55a4df523b3ef84604051610ffa919061159d565b60405180910390a361100d848484611267565b50505050565b6000611041600660009054906101000a900473ffffffffffffffffffffffffffffffffffffffff1685610a59565b90506000611071600660009054906101000a900473ffffffffffffffffffffffffffffffffffffffff1685610a59565b90507fffffffffffffffffffffffffffffffffffffffffffffffffffffffffffffffff821461113c57828210156110dd576040517f08c379a00000000000000000000000000000000000000000000000000000000081526004016110d490611fce565b60405180910390fd5b61110c600660009054906101000a900473ffffffffffffffffffffffffffffffffffffffff1686858503610bcd565b61113b600660009054906101000a900473ffffffffffffffffffffffffffffffffffffffff1685858401610bcd565b5b5050505050565b6000805b600b548110156111df578373ffffffffffffffffffffffffffffffffffffffff16600a828154811061117c5761117b611fee565b5b9060005260206000200160009054906101000a900473ffffffffffffffffffffffffffffffffffffffff1673ffffffffffffffffffffffffffffffffffffffff1614156111cc57600191506111df565b80806111d79061201d565b915050611147565b508061126157600a839080600181540180825580915050600190039060005260206000200160009091909190916101000a81548173ffffffffffffffffffffffffffffffffffffffff021916908373ffffffffffffffffffffffffffffffffffffffff160217905550600b600081548092919061125b9061201d565b91905055505b50505050565b505050565b600073ffffffffffffffffffffffffffffffffffffffff168273ffffffffffffffffffffffffffffffffffffffff1614156112dc576040517f08c379a00000000000000000000000000000000000000000000000000000000081526004016112d3906120b2565b60405180910390fd5b6112e860008383611143565b80600c60008282546112fa91906118c4565b9250508190555080600760008473ffffffffffffffffffffffffffffffffffffffff1673ffffffffffffffffffffffffffffffffffffffff168152602001908152602001600020600082825401925050819055508173ffffffffffffffffffffffffffffffffffffffff16600073ffffffffffffffffffffffffffffffffffffffff167fddf252ad1be2c89b69c2b068fc378daa952ba7f163c4a11628f55a4df523b3ef836040516113ac919061159d565b60405180910390a36113c060008383611267565b5050565b600081519050919050565b600082825260208201905092915050565b60005b838110156113fe5780820151818401526020810190506113e3565b8381111561140d576000848401525b50505050565b6000601f19601f8301169050919050565b600061142f826113c4565b61143981856113cf565b93506114498185602086016113e0565b61145281611413565b840191505092915050565b600060208201905081810360008301526114778184611424565b905092915050565b600080fd5b600073ffffffffffffffffffffffffffffffffffffffff82169050919050565b60006114af82611484565b9050919050565b6114bf816114a4565b81146114ca57600080fd5b50565b6000813590506114dc816114b6565b92915050565b6000819050919050565b6114f5816114e2565b811461150057600080fd5b50565b600081359050611512816114ec565b92915050565b6000806040838503121561152f5761152e61147f565b5b600061153d858286016114cd565b925050602061154e85828601611503565b9150509250929050565b60008115159050919050565b61156d81611558565b82525050565b60006020820190506115886000830184611564565b92915050565b611597816114e2565b82525050565b60006020820190506115b2600083018461158e565b92915050565b6000806000606084860312156115d1576115d061147f565b5b60006115df868287016114cd565b93505060206115f0868287016114cd565b925050604061160186828701611503565b9150509250925092565b600060ff82169050919050565b6116218161160b565b82525050565b600060208201905061163c6000830184611618565b92915050565b6000602082840312156116585761165761147f565b5b6000611666848285016114cd565b91505092915050565b600081519050919050565b600082825260208201905092915050565b6000819050602082019050919050565b6116a4816114a4565b82525050565b60006116b6838361169b565b60208301905092915050565b6000602082019050919050565b60006116da8261166f565b6116e4818561167a565b93506116ef8361168b565b8060005b8381101561172057815161170788826116aa565b9750611712836116c2565b9250506001810190506116f3565b5085935050505092915050565b6000604082019050818103600083015261174781856116cf565b9050611756602083018461158e565b9392505050565b611766816114a4565b82525050565b6000602082019050611781600083018461175d565b92915050565b60006020828403121561179d5761179c61147f565b5b60006117ab84828501611503565b91505092915050565b600080604083850312156117cb576117ca61147f565b5b60006117d9858286016114cd565b92505060206117ea858286016114cd565b9150509250929050565b6000806040838503121561180b5761180a61147f565b5b600061181985828601611503565b925050602061182a85828601611503565b9150509250929050565b7f4e487b7100000000000000000000000000000000000000000000000000000000600052602260045260246000fd5b6000600282049050600182168061187b57607f821691505b6020821081141561188f5761188e611834565b5b50919050565b7f4e487b7100000000000000000000000000000000000000000000000000000000600052601160045260246000fd5b60006118cf826114e2565b91506118da836114e2565b9250827fffffffffffffffffffffffffffffffffffffffffffffffffffffffffffffffff0382111561190f5761190e611895565b5b828201905092915050565b7f45524332303a206275726e2066726f6d20746865207a65726f2061646472657360008201527f7300000000000000000000000000000000000000000000000000000000000000602082015250565b60006119766021836113cf565b91506119818261191a565b604082019050919050565b600060208201905081810360008301526119a581611969565b9050919050565b7f45524332303a206275726e20616d6f756e7420657863656564732062616c616e60008201527f6365000000000000000000000000000000000000000000000000000000000000602082015250565b6000611a086022836113cf565b9150611a13826119ac565b604082019050919050565b60006020820190508181036000830152611a37816119fb565b9050919050565b6000611a49826114e2565b9150611a54836114e2565b9250817fffffffffffffffffffffffffffffffffffffffffffffffffffffffffffffffff0483118215151615611a8d57611a8c611895565b5b828202905092915050565b7f45524332303a2064656372656173656420616c6c6f77616e63652062656c6f7760008201527f207a65726f000000000000000000000000000000000000000000000000000000602082015250565b6000611af46025836113cf565b9150611aff82611a98565b604082019050919050565b60006020820190508181036000830152611b2381611ae7565b9050919050565b60008160011c9050919050565b6000808291508390505b6001851115611b8157808604811115611b5d57611b5c611895565b5b6001851615611b6c5780820291505b8081029050611b7a85611b2a565b9450611b41565b94509492505050565b600082611b9a5760019050611c56565b81611ba85760009050611c56565b8160018114611bbe5760028114611bc857611bf7565b6001915050611c56565b60ff841115611bda57611bd9611895565b5b8360020a915084821115611bf157611bf0611895565b5b50611c56565b5060208310610133831016604e8410600b8410161715611c2c5782820a905083811115611c2757611c26611895565b5b611c56565b611c398484846001611b37565b92509050818404811115611c5057611c4f611895565b5b81810290505b9392505050565b6000611c68826114e2565b9150611c73836114e2565b9250611ca07fffffffffffffffffffffffffffffffffffffffffffffffffffffffffffffffff8484611b8a565b905092915050565b7f45524332303a20617070726f76652066726f6d20746865207a65726f2061646460008201527f7265737300000000000000000000000000000000000000000000000000000000602082015250565b6000611d046024836113cf565b9150611d0f82611ca8565b604082019050919050565b60006020820190508181036000830152611d3381611cf7565b9050919050565b7f45524332303a20617070726f766520746f20746865207a65726f20616464726560008201527f7373000000000000000000000000000000000000000000000000000000000000602082015250565b6000611d966022836113cf565b9150611da182611d3a565b604082019050919050565b60006020820190508181036000830152611dc581611d89565b9050919050565b7f45524332303a207472616e736665722066726f6d20746865207a65726f20616460008201527f6472657373000000000000000000000000000000000000000000000000000000602082015250565b6000611e286025836113cf565b9150611e3382611dcc565b604082019050919050565b60006020820190508181036000830152611e5781611e1b565b9050919050565b7f45524332303a207472616e7366657220746f20746865207a65726f206164647260008201527f6573730000000000000000000000000000000000000000000000000000000000602082015250565b6000611eba6023836113cf565b9150611ec582611e5e565b604082019050919050565b60006020820190508181036000830152611ee981611ead565b9050919050565b7f45524332303a207472616e7366657220616d6f756e742065786365656473206260008201527f616c616e63650000000000000000000000000000000000000000000000000000602082015250565b6000611f4c6026836113cf565b9150611f5782611ef0565b604082019050919050565b60006020820190508181036000830152611f7b81611f3f565b9050919050565b7f45524332303a20696e73756666696369656e7420616c6c6f77616e6365000000600082015250565b6000611fb8601d836113cf565b9150611fc382611f82565b602082019050919050565b60006020820190508181036000830152611fe781611fab565b9050919050565b7f4e487b7100000000000000000000000000000000000000000000000000000000600052603260045260246000fd5b6000612028826114e2565b91507fffffffffffffffffffffffffffffffffffffffffffffffffffffffffffffffff82141561205b5761205a611895565b5b600182019050919050565b7f45524332303a206d696e7420746f20746865207a65726f206164647265737300600082015250565b600061209c601f836113cf565b91506120a782612066565b602082019050919050565b600060208201905081810360008301526120cb8161208f565b905091905056fea26469706673582212208222783b61bbdf80670f42f06f24ac4bcf8e428df2c73867cb258a6080617a2864736f6c63430008090033a2646970667358221220810a87496523b939d46f739c793f64385ebc640ac4227ca6fa1ec1ef1bf5f50e64736f6c63430008090033608060405267016345785d8a0000600f5534801561001c57600080fd5b50614dfc8061002c6000396000f3fe608060405234801561001057600080fd5b50600436106100cf5760003560e01c8063607c94f01161008c5780638e56dfd9116100665780638e56dfd91461020a578063d21a3e061461023a578063d2dcb80b14610256578063e319be0a14610272576100cf565b8063607c94f0146101ab5780637b1d829c146101ce5780638ad3d516146101ec576100cf565b80630394fbc2146100d457806308bac402146101045780630f5d5117146101205780631a39d8ef1461013e57806336f6c6331461015c57806357ce51531461017b575b600080fd5b6100ee60048036038101906100e9919061430c565b6102a2565b6040516100fb9190614382565b60405180910390f35b61011e6004803603810190610119919061439d565b610aff565b005b610128611b10565b6040516101359190614382565b60405180910390f35b610146611b16565b6040516101539190614382565b60405180910390f35b610164611b1c565b604051610172929190614418565b60405180910390f35b61019560048036038101906101909190614441565b611b2d565b6040516101a29190614382565b60405180910390f35b6101b3611b5f565b6040516101c5969594939291906144a3565b60405180910390f35b6101d6611bec565b6040516101e39190614382565b60405180910390f35b6101f4611bf2565b6040516102019190614382565b60405180910390f35b610224600480360381019061021f9190614504565b611bf8565b6040516102319190614382565b60405180910390f35b610254600480360381019061024f9190614544565b611c1d565b005b610270600480360381019061026b9190614597565b612361565b005b61028c60048036038101906102879190614639565b613c04565b6040516102999190614382565b60405180910390f35b6000808573ffffffffffffffffffffffffffffffffffffffff166370a08231306040518263ffffffff1660e01b81526004016102de9190614666565b60206040518083038186803b1580156102f657600080fd5b505afa15801561030a573d6000803e3d6000fd5b505050506040513d601f19601f8201168201806040525081019061032e9190614696565b1180156103c3575060008373ffffffffffffffffffffffffffffffffffffffff166370a08231306040518263ffffffff1660e01b81526004016103719190614666565b60206040518083038186803b15801561038957600080fd5b505afa15801561039d573d6000803e3d6000fd5b505050506040513d601f19601f820116820180604052508101906103c19190614696565b115b1561064d57600061045b8673ffffffffffffffffffffffffffffffffffffffff166370a08231306040518263ffffffff1660e01b81526004016104069190614666565b60206040518083038186803b15801561041e57600080fd5b505afa158015610432573d6000803e3d6000fd5b505050506040513d601f19601f820116820180604052508101906104569190614696565b613c04565b905060006104f08573ffffffffffffffffffffffffffffffffffffffff166370a08231306040518263ffffffff1660e01b815260040161049b9190614666565b60206040518083038186803b1580156104b357600080fd5b505afa1580156104c7573d6000803e3d6000fd5b505050506040513d601f19601f820116820180604052508101906104eb9190614696565b613c04565b905061064481600a6105029190614825565b8673ffffffffffffffffffffffffffffffffffffffff166370a08231306040518263ffffffff1660e01b815260040161053b9190614666565b60206040518083038186803b15801561055357600080fd5b505afa158015610567573d6000803e3d6000fd5b505050506040513d601f19601f8201168201806040525081019061058b9190614696565b610595919061489f565b83600a6105a29190614825565b8973ffffffffffffffffffffffffffffffffffffffff166370a08231306040518263ffffffff1660e01b81526004016105db9190614666565b60206040518083038186803b1580156105f357600080fd5b505afa158015610607573d6000803e3d6000fd5b505050506040513d601f19601f8201168201806040525081019061062b9190614696565b610635919061489f565b61063f91906148d0565b613c5b565b60068190555050505b6106e9848673ffffffffffffffffffffffffffffffffffffffff166370a08231306040518263ffffffff1660e01b815260040161068a9190614666565b60206040518083038186803b1580156106a257600080fd5b505afa1580156106b6573d6000803e3d6000fd5b505050506040513d601f19601f820116820180604052508101906106da9190614696565b6106e4919061492a565b613c04565b600b8190555061078b828473ffffffffffffffffffffffffffffffffffffffff166370a08231306040518263ffffffff1660e01b815260040161072c9190614666565b60206040518083038186803b15801561074457600080fd5b505afa158015610758573d6000803e3d6000fd5b505050506040513d601f19601f8201168201806040525081019061077c9190614696565b610786919061492a565b613c04565b600c81905550600c54600b54101561093257600b54600c546107ad9190614980565b600a6107b99190614825565b600c54600a6107c89190614825565b838573ffffffffffffffffffffffffffffffffffffffff166370a08231306040518263ffffffff1660e01b81526004016108029190614666565b60206040518083038186803b15801561081a57600080fd5b505afa15801561082e573d6000803e3d6000fd5b505050506040513d601f19601f820116820180604052508101906108529190614696565b61085c919061492a565b610866919061489f565b61087091906148d0565b600b54600a61087f9190614825565b858773ffffffffffffffffffffffffffffffffffffffff166370a08231306040518263ffffffff1660e01b81526004016108b99190614666565b60206040518083038186803b1580156108d157600080fd5b505afa1580156108e5573d6000803e3d6000fd5b505050506040513d601f19601f820116820180604052508101906109099190614696565b610913919061492a565b61091d919061489f565b61092791906148d0565b600d81905550610ad0565b600c54600b541115610acf57600c54600a61094d9190614825565b828473ffffffffffffffffffffffffffffffffffffffff166370a08231306040518263ffffffff1660e01b81526004016109879190614666565b60206040518083038186803b15801561099f57600080fd5b505afa1580156109b3573d6000803e3d6000fd5b505050506040513d601f19601f820116820180604052508101906109d79190614696565b6109e1919061492a565b6109eb919061489f565b600c54600b546109fb9190614980565b600a610a079190614825565b600b54600a610a169190614825565b868873ffffffffffffffffffffffffffffffffffffffff166370a08231306040518263ffffffff1660e01b8152600401610a509190614666565b60206040518083038186803b158015610a6857600080fd5b505afa158015610a7c573d6000803e3d6000fd5b505050506040513d601f19601f82011682018060405250810190610aa09190614696565b610aaa919061492a565b610ab4919061489f565b610abe91906148d0565b610ac891906148d0565b600d819055505b5b6000600654610ae0600d54613c5b565b610aea9190614980565b905080600a8190555080915050949350505050565b838573ffffffffffffffffffffffffffffffffffffffff166318160ddd6040518163ffffffff1660e01b815260040160206040518083038186803b158015610b4657600080fd5b505afa158015610b5a573d6000803e3d6000fd5b505050506040513d601f19601f82011682018060405250810190610b7e9190614696565b1015610bbf576040517f08c379a0000000000000000000000000000000000000000000000000000000008152600401610bb690614a11565b60405180910390fd5b8473ffffffffffffffffffffffffffffffffffffffff1663095ea7b383866040518363ffffffff1660e01b8152600401610bfa929190614a31565b602060405180830381600087803b158015610c1457600080fd5b505af1158015610c28573d6000803e3d6000fd5b505050506040513d601f19601f82011682018060405250810190610c4c9190614a92565b506000606485610c5c91906148d0565b9050600060075482610c6e919061489f565b90506040518060400160405280600581526020017f4152424c50000000000000000000000000000000000000000000000000000000815250805190602001208773ffffffffffffffffffffffffffffffffffffffff166306fdde036040518163ffffffff1660e01b815260040160006040518083038186803b158015610cf357600080fd5b505afa158015610d07573d6000803e3d6000fd5b505050506040513d6000823e3d601f19601f82011682018060405250810190610d309190614c29565b8051906020012014156110d857606481601160008a73ffffffffffffffffffffffffffffffffffffffff1673ffffffffffffffffffffffffffffffffffffffff16815260200190815260200160002060008060009054906101000a900473ffffffffffffffffffffffffffffffffffffffff1673ffffffffffffffffffffffffffffffffffffffff1673ffffffffffffffffffffffffffffffffffffffff16815260200190815260200160002054610de891906148d0565b610df2919061489f565b600881905550606481601160008a73ffffffffffffffffffffffffffffffffffffffff1673ffffffffffffffffffffffffffffffffffffffff16815260200190815260200160002060008673ffffffffffffffffffffffffffffffffffffffff1673ffffffffffffffffffffffffffffffffffffffff16815260200190815260200160002054610e8291906148d0565b610e8c919061489f565b6009819055508673ffffffffffffffffffffffffffffffffffffffff166323b872dd8689896040518463ffffffff1660e01b8152600401610ecf93929190614c72565b602060405180830381600087803b158015610ee957600080fd5b505af1158015610efd573d6000803e3d6000fd5b505050506040513d601f19601f82011682018060405250810190610f219190614a92565b508673ffffffffffffffffffffffffffffffffffffffff16636161eb1888886040518363ffffffff1660e01b8152600401610f5d929190614a31565b600060405180830381600087803b158015610f7757600080fd5b505af1158015610f8b573d6000803e3d6000fd5b5050505060008054906101000a900473ffffffffffffffffffffffffffffffffffffffff1673ffffffffffffffffffffffffffffffffffffffff166323b872dd85876008546040518463ffffffff1660e01b8152600401610fee93929190614c72565b602060405180830381600087803b15801561100857600080fd5b505af115801561101c573d6000803e3d6000fd5b505050506040513d601f19601f820116820180604052508101906110409190614a92565b508273ffffffffffffffffffffffffffffffffffffffff166323b872dd85876009546040518463ffffffff1660e01b815260040161108093929190614c72565b602060405180830381600087803b15801561109a57600080fd5b505af11580156110ae573d6000803e3d6000fd5b505050506040513d601f19601f820116820180604052508101906110d29190614a92565b50611b07565b6040518060400160405280600681526020017f555344544c500000000000000000000000000000000000000000000000000000815250805190602001208773ffffffffffffffffffffffffffffffffffffffff166306fdde036040518163ffffffff1660e01b815260040160006040518083038186803b15801561115b57600080fd5b505afa15801561116f573d6000803e3d6000fd5b505050506040513d6000823e3d601f19601f820116820180604052508101906111989190614c29565b8051906020012014156115d157606481601160008a73ffffffffffffffffffffffffffffffffffffffff1673ffffffffffffffffffffffffffffffffffffffff1681526020019081526020016000206000600160009054906101000a900473ffffffffffffffffffffffffffffffffffffffff1673ffffffffffffffffffffffffffffffffffffffff1673ffffffffffffffffffffffffffffffffffffffff1681526020019081526020016000205461125191906148d0565b61125b919061489f565b600881905550606481601160008a73ffffffffffffffffffffffffffffffffffffffff1673ffffffffffffffffffffffffffffffffffffffff16815260200190815260200160002060008673ffffffffffffffffffffffffffffffffffffffff1673ffffffffffffffffffffffffffffffffffffffff168152602001908152602001600020546112eb91906148d0565b6112f5919061489f565b6009819055508673ffffffffffffffffffffffffffffffffffffffff166323b872dd8689896040518463ffffffff1660e01b815260040161133893929190614c72565b602060405180830381600087803b15801561135257600080fd5b505af1158015611366573d6000803e3d6000fd5b505050506040513d601f19601f8201168201806040525081019061138a9190614a92565b508673ffffffffffffffffffffffffffffffffffffffff1663095ea7b385886040518363ffffffff1660e01b81526004016113c6929190614a31565b602060405180830381600087803b1580156113e057600080fd5b505af11580156113f4573d6000803e3d6000fd5b505050506040513d601f19601f820116820180604052508101906114189190614a92565b508673ffffffffffffffffffffffffffffffffffffffff16636161eb1888886040518363ffffffff1660e01b8152600401611454929190614a31565b600060405180830381600087803b15801561146e57600080fd5b505af1158015611482573d6000803e3d6000fd5b50505050600160009054906101000a900473ffffffffffffffffffffffffffffffffffffffff1673ffffffffffffffffffffffffffffffffffffffff166323b872dd85876008546040518463ffffffff1660e01b81526004016114e793929190614c72565b602060405180830381600087803b15801561150157600080fd5b505af1158015611515573d6000803e3d6000fd5b505050506040513d601f19601f820116820180604052508101906115399190614a92565b508273ffffffffffffffffffffffffffffffffffffffff166323b872dd85876009546040518463ffffffff1660e01b815260040161157993929190614c72565b602060405180830381600087803b15801561159357600080fd5b505af11580156115a7573d6000803e3d6000fd5b505050506040513d601f19601f820116820180604052508101906115cb9190614a92565b50611b06565b6040518060400160405280600581526020017f4554484c50000000000000000000000000000000000000000000000000000000815250805190602001208773ffffffffffffffffffffffffffffffffffffffff166306fdde036040518163ffffffff1660e01b815260040160006040518083038186803b15801561165457600080fd5b505afa158015611668573d6000803e3d6000fd5b505050506040513d6000823e3d601f19601f820116820180604052508101906116919190614c29565b805190602001201415611aca57606481601160008a73ffffffffffffffffffffffffffffffffffffffff1673ffffffffffffffffffffffffffffffffffffffff1681526020019081526020016000206000600260009054906101000a900473ffffffffffffffffffffffffffffffffffffffff1673ffffffffffffffffffffffffffffffffffffffff1673ffffffffffffffffffffffffffffffffffffffff1681526020019081526020016000205461174a91906148d0565b611754919061489f565b600881905550606481601160008a73ffffffffffffffffffffffffffffffffffffffff1673ffffffffffffffffffffffffffffffffffffffff16815260200190815260200160002060008673ffffffffffffffffffffffffffffffffffffffff1673ffffffffffffffffffffffffffffffffffffffff168152602001908152602001600020546117e491906148d0565b6117ee919061489f565b6009819055508673ffffffffffffffffffffffffffffffffffffffff166323b872dd8689896040518463ffffffff1660e01b815260040161183193929190614c72565b602060405180830381600087803b15801561184b57600080fd5b505af115801561185f573d6000803e3d6000fd5b505050506040513d601f19601f820116820180604052508101906118839190614a92565b508673ffffffffffffffffffffffffffffffffffffffff1663095ea7b385886040518363ffffffff1660e01b81526004016118bf929190614a31565b602060405180830381600087803b1580156118d957600080fd5b505af11580156118ed573d6000803e3d6000fd5b505050506040513d601f19601f820116820180604052508101906119119190614a92565b508673ffffffffffffffffffffffffffffffffffffffff16636161eb1888886040518363ffffffff1660e01b815260040161194d929190614a31565b600060405180830381600087803b15801561196757600080fd5b505af115801561197b573d6000803e3d6000fd5b50505050600260009054906101000a900473ffffffffffffffffffffffffffffffffffffffff1673ffffffffffffffffffffffffffffffffffffffff166323b872dd85876008546040518463ffffffff1660e01b81526004016119e093929190614c72565b602060405180830381600087803b1580156119fa57600080fd5b505af1158015611a0e573d6000803e3d6000fd5b505050506040513d601f19601f82011682018060405250810190611a329190614a92565b508273ffffffffffffffffffffffffffffffffffffffff166323b872dd85876009546040518463ffffffff1660e01b8152600401611a7293929190614c72565b602060405180830381600087803b158015611a8c57600080fd5b505af1158015611aa0573d6000803e3d6000fd5b505050506040513d601f19601f82011682018060405250810190611ac49190614a92565b50611b05565b6040517f08c379a0000000000000000000000000000000000000000000000000000000008152600401611afc90614cf5565b60405180910390fd5b5b5b50505050505050565b600a5481565b600d5481565b600080600854600954915091509091565b601060205282600052604060002060205281600052604060002060205280600052604060002060009250925050505481565b60008060008060008060085460095460075460008054906101000a900473ffffffffffffffffffffffffffffffffffffffff16600160009054906101000a900473ffffffffffffffffffffffffffffffffffffffff16600260009054906101000a900473ffffffffffffffffffffffffffffffffffffffff16955095509550955095509550909192939495565b600b5481565b600c5481565b6011602052816000526040600020602052806000526040600020600091509150505481565b818373ffffffffffffffffffffffffffffffffffffffff166318160ddd6040518163ffffffff1660e01b815260040160206040518083038186803b158015611c6457600080fd5b505afa158015611c78573d6000803e3d6000fd5b505050506040513d601f19601f82011682018060405250810190611c9c9190614696565b1015611cdd576040517f08c379a0000000000000000000000000000000000000000000000000000000008152600401611cd490614a11565b60405180910390fd5b600082600754611ced919061489f565b90506040518060400160405280600581526020017f4152424c50000000000000000000000000000000000000000000000000000000815250805190602001208473ffffffffffffffffffffffffffffffffffffffff166306fdde036040518163ffffffff1660e01b815260040160006040518083038186803b158015611d7257600080fd5b505afa158015611d86573d6000803e3d6000fd5b505050506040513d6000823e3d601f19601f82011682018060405250810190611daf9190614c29565b805190602001201415611efe5780601160008673ffffffffffffffffffffffffffffffffffffffff1673ffffffffffffffffffffffffffffffffffffffff16815260200190815260200160002060008060009054906101000a900473ffffffffffffffffffffffffffffffffffffffff1673ffffffffffffffffffffffffffffffffffffffff1673ffffffffffffffffffffffffffffffffffffffff16815260200190815260200160002054611e65919061489f565b60088190555080601160008673ffffffffffffffffffffffffffffffffffffffff1673ffffffffffffffffffffffffffffffffffffffff16815260200190815260200160002060008473ffffffffffffffffffffffffffffffffffffffff1673ffffffffffffffffffffffffffffffffffffffff16815260200190815260200160002054611ef3919061489f565b60098190555061235b565b6040518060400160405280600681526020017f555344544c500000000000000000000000000000000000000000000000000000815250805190602001208473ffffffffffffffffffffffffffffffffffffffff166306fdde036040518163ffffffff1660e01b815260040160006040518083038186803b158015611f8157600080fd5b505afa158015611f95573d6000803e3d6000fd5b505050506040513d6000823e3d601f19601f82011682018060405250810190611fbe9190614c29565b80519060200120141561210e5780601160008673ffffffffffffffffffffffffffffffffffffffff1673ffffffffffffffffffffffffffffffffffffffff1681526020019081526020016000206000600160009054906101000a900473ffffffffffffffffffffffffffffffffffffffff1673ffffffffffffffffffffffffffffffffffffffff1673ffffffffffffffffffffffffffffffffffffffff16815260200190815260200160002054612075919061489f565b60088190555080601160008673ffffffffffffffffffffffffffffffffffffffff1673ffffffffffffffffffffffffffffffffffffffff16815260200190815260200160002060008473ffffffffffffffffffffffffffffffffffffffff1673ffffffffffffffffffffffffffffffffffffffff16815260200190815260200160002054612103919061489f565b60098190555061235a565b6040518060400160405280600581526020017f4554484c50000000000000000000000000000000000000000000000000000000815250805190602001208473ffffffffffffffffffffffffffffffffffffffff166306fdde036040518163ffffffff1660e01b815260040160006040518083038186803b15801561219157600080fd5b505afa1580156121a5573d6000803e3d6000fd5b505050506040513d6000823e3d601f19601f820116820180604052508101906121ce9190614c29565b80519060200120141561231e5780601160008673ffffffffffffffffffffffffffffffffffffffff1673ffffffffffffffffffffffffffffffffffffffff1681526020019081526020016000206000600260009054906101000a900473ffffffffffffffffffffffffffffffffffffffff1673ffffffffffffffffffffffffffffffffffffffff1673ffffffffffffffffffffffffffffffffffffffff16815260200190815260200160002054612285919061489f565b60088190555080601160008673ffffffffffffffffffffffffffffffffffffffff1673ffffffffffffffffffffffffffffffffffffffff16815260200190815260200160002060008473ffffffffffffffffffffffffffffffffffffffff1673ffffffffffffffffffffffffffffffffffffffff16815260200190815260200160002054612313919061489f565b600981905550612359565b6040517f08c379a000000000000000000000000000000000000000000000000000000000815260040161235090614cf5565b60405180910390fd5b5b5b50505050565b6000808891508690508273ffffffffffffffffffffffffffffffffffffffff1663d1e9a5fd6040518163ffffffff1660e01b815260040160606040518083038186803b1580156123b057600080fd5b505afa1580156123c4573d6000803e3d6000fd5b505050506040513d601f19601f820116820180604052508101906123e89190614d2a565b6003600060046000600560008691906101000a81548173ffffffffffffffffffffffffffffffffffffffff021916908373ffffffffffffffffffffffffffffffffffffffff1602179055508591906101000a81548173ffffffffffffffffffffffffffffffffffffffff021916908373ffffffffffffffffffffffffffffffffffffffff1602179055508491906101000a81548173ffffffffffffffffffffffffffffffffffffffff021916908373ffffffffffffffffffffffffffffffffffffffff1602179055505050508173ffffffffffffffffffffffffffffffffffffffff1663095ea7b3858a6040518363ffffffff1660e01b81526004016124ef929190614a31565b602060405180830381600087803b15801561250957600080fd5b505af115801561251d573d6000803e3d6000fd5b505050506040513d601f19601f820116820180604052508101906125419190614a92565b508073ffffffffffffffffffffffffffffffffffffffff1663095ea7b385886040518363ffffffff1660e01b815260040161257d929190614a31565b602060405180830381600087803b15801561259757600080fd5b505af11580156125ab573d6000803e3d6000fd5b505050506040513d601f19601f820116820180604052508101906125cf9190614a92565b508173ffffffffffffffffffffffffffffffffffffffff166323b872dd86868b6040518463ffffffff1660e01b815260040161260d93929190614c72565b602060405180830381600087803b15801561262757600080fd5b505af115801561263b573d6000803e3d6000fd5b505050506040513d601f19601f8201168201806040525081019061265f9190614a92565b508073ffffffffffffffffffffffffffffffffffffffff166323b872dd8686896040518463ffffffff1660e01b815260040161269d93929190614c72565b602060405180830381600087803b1580156126b757600080fd5b505af11580156126cb573d6000803e3d6000fd5b505050506040513d601f19601f820116820180604052508101906126ef9190614a92565b506040518060400160405280600381526020017f4152420000000000000000000000000000000000000000000000000000000000815250805190602001208273ffffffffffffffffffffffffffffffffffffffff166306fdde036040518163ffffffff1660e01b815260040160006040518083038186803b15801561277357600080fd5b505afa158015612787573d6000803e3d6000fd5b505050506040513d6000823e3d601f19601f820116820180604052508101906127b09190614c29565b805190602001201415612d7057886000806101000a81548173ffffffffffffffffffffffffffffffffffffffff021916908373ffffffffffffffffffffffffffffffffffffffff16021790555087601060008773ffffffffffffffffffffffffffffffffffffffff1673ffffffffffffffffffffffffffffffffffffffff1681526020019081526020016000206000600360009054906101000a900473ffffffffffffffffffffffffffffffffffffffff1673ffffffffffffffffffffffffffffffffffffffff1673ffffffffffffffffffffffffffffffffffffffff16815260200190815260200160002060008b73ffffffffffffffffffffffffffffffffffffffff1673ffffffffffffffffffffffffffffffffffffffff16815260200190815260200160002060008282546128e8919061492a565b9250508190555085601060008773ffffffffffffffffffffffffffffffffffffffff1673ffffffffffffffffffffffffffffffffffffffff1681526020019081526020016000206000600360009054906101000a900473ffffffffffffffffffffffffffffffffffffffff1673ffffffffffffffffffffffffffffffffffffffff1673ffffffffffffffffffffffffffffffffffffffff16815260200190815260200160002060008973ffffffffffffffffffffffffffffffffffffffff1673ffffffffffffffffffffffffffffffffffffffff16815260200190815260200160002060008282546129da919061492a565b925050819055506000612ba58a601060008973ffffffffffffffffffffffffffffffffffffffff1673ffffffffffffffffffffffffffffffffffffffff1681526020019081526020016000206000600360009054906101000a900473ffffffffffffffffffffffffffffffffffffffff1673ffffffffffffffffffffffffffffffffffffffff1673ffffffffffffffffffffffffffffffffffffffff16815260200190815260200160002060008d73ffffffffffffffffffffffffffffffffffffffff1673ffffffffffffffffffffffffffffffffffffffff168152602001908152602001600020548a601060008b73ffffffffffffffffffffffffffffffffffffffff1673ffffffffffffffffffffffffffffffffffffffff1681526020019081526020016000206000600360009054906101000a900473ffffffffffffffffffffffffffffffffffffffff1673ffffffffffffffffffffffffffffffffffffffff1673ffffffffffffffffffffffffffffffffffffffff16815260200190815260200160002060008d73ffffffffffffffffffffffffffffffffffffffff1673ffffffffffffffffffffffffffffffffffffffff168152602001908152602001600020546102a2565b90508860116000600360009054906101000a900473ffffffffffffffffffffffffffffffffffffffff1673ffffffffffffffffffffffffffffffffffffffff1673ffffffffffffffffffffffffffffffffffffffff16815260200190815260200160002060008c73ffffffffffffffffffffffffffffffffffffffff1673ffffffffffffffffffffffffffffffffffffffff1681526020019081526020016000206000828254612c55919061492a565b925050819055508660116000600360009054906101000a900473ffffffffffffffffffffffffffffffffffffffff1673ffffffffffffffffffffffffffffffffffffffff1673ffffffffffffffffffffffffffffffffffffffff16815260200190815260200160002060008a73ffffffffffffffffffffffffffffffffffffffff1673ffffffffffffffffffffffffffffffffffffffff1681526020019081526020016000206000828254612d0a919061492a565b92505081905550612d3e8682600360009054906101000a900473ffffffffffffffffffffffffffffffffffffffff16613ce2565b670de0b6b3a764000081612d5291906148d0565b60076000828254612d63919061492a565b9250508190555050613bf9565b6040518060400160405280600481526020017f5553445400000000000000000000000000000000000000000000000000000000815250805190602001208273ffffffffffffffffffffffffffffffffffffffff166306fdde036040518163ffffffff1660e01b815260040160006040518083038186803b158015612df357600080fd5b505afa158015612e07573d6000803e3d6000fd5b505050506040513d6000823e3d601f19601f82011682018060405250810190612e309190614c29565b8051906020012014156133f15788600160006101000a81548173ffffffffffffffffffffffffffffffffffffffff021916908373ffffffffffffffffffffffffffffffffffffffff16021790555087601060008773ffffffffffffffffffffffffffffffffffffffff1673ffffffffffffffffffffffffffffffffffffffff1681526020019081526020016000206000600460009054906101000a900473ffffffffffffffffffffffffffffffffffffffff1673ffffffffffffffffffffffffffffffffffffffff1673ffffffffffffffffffffffffffffffffffffffff16815260200190815260200160002060008b73ffffffffffffffffffffffffffffffffffffffff1673ffffffffffffffffffffffffffffffffffffffff1681526020019081526020016000206000828254612f69919061492a565b9250508190555085601060008773ffffffffffffffffffffffffffffffffffffffff1673ffffffffffffffffffffffffffffffffffffffff1681526020019081526020016000206000600460009054906101000a900473ffffffffffffffffffffffffffffffffffffffff1673ffffffffffffffffffffffffffffffffffffffff1673ffffffffffffffffffffffffffffffffffffffff16815260200190815260200160002060008973ffffffffffffffffffffffffffffffffffffffff1673ffffffffffffffffffffffffffffffffffffffff168152602001908152602001600020600082825461305b919061492a565b9250508190555060006132268a601060008973ffffffffffffffffffffffffffffffffffffffff1673ffffffffffffffffffffffffffffffffffffffff1681526020019081526020016000206000600460009054906101000a900473ffffffffffffffffffffffffffffffffffffffff1673ffffffffffffffffffffffffffffffffffffffff1673ffffffffffffffffffffffffffffffffffffffff16815260200190815260200160002060008d73ffffffffffffffffffffffffffffffffffffffff1673ffffffffffffffffffffffffffffffffffffffff168152602001908152602001600020548a601060008b73ffffffffffffffffffffffffffffffffffffffff1673ffffffffffffffffffffffffffffffffffffffff1681526020019081526020016000206000600460009054906101000a900473ffffffffffffffffffffffffffffffffffffffff1673ffffffffffffffffffffffffffffffffffffffff1673ffffffffffffffffffffffffffffffffffffffff16815260200190815260200160002060008d73ffffffffffffffffffffffffffffffffffffffff1673ffffffffffffffffffffffffffffffffffffffff168152602001908152602001600020546102a2565b90508860116000600460009054906101000a900473ffffffffffffffffffffffffffffffffffffffff1673ffffffffffffffffffffffffffffffffffffffff1673ffffffffffffffffffffffffffffffffffffffff16815260200190815260200160002060008c73ffffffffffffffffffffffffffffffffffffffff1673ffffffffffffffffffffffffffffffffffffffff16815260200190815260200160002060008282546132d6919061492a565b925050819055508660116000600460009054906101000a900473ffffffffffffffffffffffffffffffffffffffff1673ffffffffffffffffffffffffffffffffffffffff1673ffffffffffffffffffffffffffffffffffffffff16815260200190815260200160002060008a73ffffffffffffffffffffffffffffffffffffffff1673ffffffffffffffffffffffffffffffffffffffff168152602001908152602001600020600082825461338b919061492a565b925050819055506133bf8682600460009054906101000a900473ffffffffffffffffffffffffffffffffffffffff16613eb8565b670de0b6b3a7640000816133d391906148d0565b600760008282546133e4919061492a565b9250508190555050613bf8565b6040518060400160405280600381526020017f4554480000000000000000000000000000000000000000000000000000000000815250805190602001208273ffffffffffffffffffffffffffffffffffffffff166306fdde036040518163ffffffff1660e01b815260040160006040518083038186803b15801561347457600080fd5b505afa158015613488573d6000803e3d6000fd5b505050506040513d6000823e3d601f19601f820116820180604052508101906134b19190614c29565b805190602001201415613bbc5788600260006101000a81548173ffffffffffffffffffffffffffffffffffffffff021916908373ffffffffffffffffffffffffffffffffffffffff16021790555087601060008773ffffffffffffffffffffffffffffffffffffffff1673ffffffffffffffffffffffffffffffffffffffff1681526020019081526020016000206000600560009054906101000a900473ffffffffffffffffffffffffffffffffffffffff1673ffffffffffffffffffffffffffffffffffffffff1673ffffffffffffffffffffffffffffffffffffffff16815260200190815260200160002060008b73ffffffffffffffffffffffffffffffffffffffff1673ffffffffffffffffffffffffffffffffffffffff16815260200190815260200160002060008282546135ea919061492a565b9250508190555085601060008773ffffffffffffffffffffffffffffffffffffffff1673ffffffffffffffffffffffffffffffffffffffff1681526020019081526020016000206000600560009054906101000a900473ffffffffffffffffffffffffffffffffffffffff1673ffffffffffffffffffffffffffffffffffffffff1673ffffffffffffffffffffffffffffffffffffffff16815260200190815260200160002060008973ffffffffffffffffffffffffffffffffffffffff1673ffffffffffffffffffffffffffffffffffffffff16815260200190815260200160002060008282546136dc919061492a565b9250508190555060006138a78a601060008973ffffffffffffffffffffffffffffffffffffffff1673ffffffffffffffffffffffffffffffffffffffff1681526020019081526020016000206000600560009054906101000a900473ffffffffffffffffffffffffffffffffffffffff1673ffffffffffffffffffffffffffffffffffffffff1673ffffffffffffffffffffffffffffffffffffffff16815260200190815260200160002060008d73ffffffffffffffffffffffffffffffffffffffff1673ffffffffffffffffffffffffffffffffffffffff168152602001908152602001600020548a601060008b73ffffffffffffffffffffffffffffffffffffffff1673ffffffffffffffffffffffffffffffffffffffff1681526020019081526020016000206000600560009054906101000a900473ffffffffffffffffffffffffffffffffffffffff1673ffffffffffffffffffffffffffffffffffffffff1673ffffffffffffffffffffffffffffffffffffffff16815260200190815260200160002060008d73ffffffffffffffffffffffffffffffffffffffff1673ffffffffffffffffffffffffffffffffffffffff168152602001908152602001600020546102a2565b90508860116000600560009054906101000a900473ffffffffffffffffffffffffffffffffffffffff1673ffffffffffffffffffffffffffffffffffffffff1673ffffffffffffffffffffffffffffffffffffffff16815260200190815260200160002060008c73ffffffffffffffffffffffffffffffffffffffff1673ffffffffffffffffffffffffffffffffffffffff1681526020019081526020016000206000828254613957919061492a565b925050819055508660116000600560009054906101000a900473ffffffffffffffffffffffffffffffffffffffff1673ffffffffffffffffffffffffffffffffffffffff1673ffffffffffffffffffffffffffffffffffffffff16815260200190815260200160002060008a73ffffffffffffffffffffffffffffffffffffffff1673ffffffffffffffffffffffffffffffffffffffff1681526020019081526020016000206000828254613a0c919061492a565b9250508190555060116000600560009054906101000a900473ffffffffffffffffffffffffffffffffffffffff1673ffffffffffffffffffffffffffffffffffffffff1673ffffffffffffffffffffffffffffffffffffffff16815260200190815260200160002060008b73ffffffffffffffffffffffffffffffffffffffff1673ffffffffffffffffffffffffffffffffffffffff16815260200190815260200160002054600e8190555060116000600560009054906101000a900473ffffffffffffffffffffffffffffffffffffffff1673ffffffffffffffffffffffffffffffffffffffff1673ffffffffffffffffffffffffffffffffffffffff16815260200190815260200160002060008973ffffffffffffffffffffffffffffffffffffffff1673ffffffffffffffffffffffffffffffffffffffff16815260200190815260200160002054600981905550613b8a8682600560009054906101000a900473ffffffffffffffffffffffffffffffffffffffff1661408e565b670de0b6b3a764000081613b9e91906148d0565b60076000828254613baf919061492a565b9250508190555050613bf7565b6040517f08c379a0000000000000000000000000000000000000000000000000000000008152600401613bee90614cf5565b60405180910390fd5b5b5b505050505050505050565b600080821415613c175760019050613c56565b60005b6000831115613c45578080613c2e90614d7d565b915050600a83613c3e919061489f565b9250613c1a565b600181613c529190614980565b9150505b919050565b600080821415613c6e5760009050613cdd565b60038211613c7f5760019050613cdd565b60006002600184613c90919061492a565b613c9a919061489f565b905060008390505b80821015613cd7578190506002828386613cbc919061489f565b613cc6919061492a565b613cd0919061489f565b9150613ca2565b80925050505b919050565b8073ffffffffffffffffffffffffffffffffffffffff1663a0712d68836040518263ffffffff1660e01b8152600401613d1b9190614382565b600060405180830381600087803b158015613d3557600080fd5b505af1158015613d49573d6000803e3d6000fd5b505050508073ffffffffffffffffffffffffffffffffffffffff1663095ea7b384670de0b6b3a764000085613d7e91906148d0565b6040518363ffffffff1660e01b8152600401613d9b929190614a31565b602060405180830381600087803b158015613db557600080fd5b505af1158015613dc9573d6000803e3d6000fd5b505050506040513d601f19601f82011682018060405250810190613ded9190614a92565b508073ffffffffffffffffffffffffffffffffffffffff166323b872dd600360009054906101000a900473ffffffffffffffffffffffffffffffffffffffff1685670de0b6b3a764000086613e4291906148d0565b6040518463ffffffff1660e01b8152600401613e6093929190614c72565b602060405180830381600087803b158015613e7a57600080fd5b505af1158015613e8e573d6000803e3d6000fd5b505050506040513d601f19601f82011682018060405250810190613eb29190614a92565b50505050565b8073ffffffffffffffffffffffffffffffffffffffff1663a0712d68836040518263ffffffff1660e01b8152600401613ef19190614382565b600060405180830381600087803b158015613f0b57600080fd5b505af1158015613f1f573d6000803e3d6000fd5b505050508073ffffffffffffffffffffffffffffffffffffffff1663095ea7b384670de0b6b3a764000085613f5491906148d0565b6040518363ffffffff1660e01b8152600401613f71929190614a31565b602060405180830381600087803b158015613f8b57600080fd5b505af1158015613f9f573d6000803e3d6000fd5b505050506040513d601f19601f82011682018060405250810190613fc39190614a92565b508073ffffffffffffffffffffffffffffffffffffffff166323b872dd600460009054906101000a900473ffffffffffffffffffffffffffffffffffffffff1685670de0b6b3a76400008661401891906148d0565b6040518463ffffffff1660e01b815260040161403693929190614c72565b602060405180830381600087803b15801561405057600080fd5b505af1158015614064573d6000803e3d6000fd5b505050506040513d601f19601f820116820180604052508101906140889190614a92565b50505050565b8073ffffffffffffffffffffffffffffffffffffffff1663a0712d68836040518263ffffffff1660e01b81526004016140c79190614382565b600060405180830381600087803b1580156140e157600080fd5b505af11580156140f5573d6000803e3d6000fd5b505050508073ffffffffffffffffffffffffffffffffffffffff1663095ea7b384670de0b6b3a76400008561412a91906148d0565b6040518363ffffffff1660e01b8152600401614147929190614a31565b602060405180830381600087803b15801561416157600080fd5b505af1158015614175573d6000803e3d6000fd5b505050506040513d601f19601f820116820180604052508101906141999190614a92565b508073ffffffffffffffffffffffffffffffffffffffff166323b872dd600560009054906101000a900473ffffffffffffffffffffffffffffffffffffffff1685670de0b6b3a7640000866141ee91906148d0565b6040518463ffffffff1660e01b815260040161420c93929190614c72565b602060405180830381600087803b15801561422657600080fd5b505af115801561423a573d6000803e3d6000fd5b505050506040513d601f19601f8201168201806040525081019061425e9190614a92565b50505050565b6000604051905090565b600080fd5b600080fd5b600073ffffffffffffffffffffffffffffffffffffffff82169050919050565b60006142a382614278565b9050919050565b6142b381614298565b81146142be57600080fd5b50565b6000813590506142d0816142aa565b92915050565b6000819050919050565b6142e9816142d6565b81146142f457600080fd5b50565b600081359050614306816142e0565b92915050565b600080600080608085870312156143265761432561426e565b5b6000614334878288016142c1565b9450506020614345878288016142f7565b9350506040614356878288016142c1565b9250506060614367878288016142f7565b91505092959194509250565b61437c816142d6565b82525050565b60006020820190506143976000830184614373565b92915050565b600080600080600060a086880312156143b9576143b861426e565b5b60006143c7888289016142c1565b95505060206143d8888289016142f7565b94505060406143e9888289016142c1565b93505060606143fa888289016142c1565b925050608061440b888289016142c1565b9150509295509295909350565b600060408201905061442d6000830185614373565b61443a6020830184614373565b9392505050565b60008060006060848603121561445a5761445961426e565b5b6000614468868287016142c1565b9350506020614479868287016142c1565b925050604061448a868287016142c1565b9150509250925092565b61449d81614298565b82525050565b600060c0820190506144b86000830189614373565b6144c56020830188614373565b6144d26040830187614373565b6144df6060830186614494565b6144ec6080830185614494565b6144f960a0830184614494565b979650505050505050565b6000806040838503121561451b5761451a61426e565b5b6000614529858286016142c1565b925050602061453a858286016142c1565b9150509250929050565b60008060006060848603121561455d5761455c61426e565b5b600061456b868287016142c1565b935050602061457c868287016142f7565b925050604061458d868287016142c1565b9150509250925092565b600080600080600080600060e0888a0312156145b6576145b561426e565b5b60006145c48a828b016142c1565b97505060206145d58a828b016142f7565b96505060406145e68a828b016142c1565b95505060606145f78a828b016142f7565b94505060806146088a828b016142c1565b93505060a06146198a828b016142c1565b92505060c061462a8a828b016142c1565b91505092959891949750929550565b60006020828403121561464f5761464e61426e565b5b600061465d848285016142f7565b91505092915050565b600060208201905061467b6000830184614494565b92915050565b600081519050614690816142e0565b92915050565b6000602082840312156146ac576146ab61426e565b5b60006146ba84828501614681565b91505092915050565b7f4e487b7100000000000000000000000000000000000000000000000000000000600052601160045260246000fd5b60008160011c9050919050565b6000808291508390505b600185111561474957808604811115614725576147246146c3565b5b60018516156147345780820291505b8081029050614742856146f2565b9450614709565b94509492505050565b600082614762576001905061481e565b81614770576000905061481e565b81600181146147865760028114614790576147bf565b600191505061481e565b60ff8411156147a2576147a16146c3565b5b8360020a9150848211156147b9576147b86146c3565b5b5061481e565b5060208310610133831016604e8410600b84101617156147f45782820a9050838111156147ef576147ee6146c3565b5b61481e565b61480184848460016146ff565b92509050818404811115614818576148176146c3565b5b81810290505b9392505050565b6000614830826142d6565b915061483b836142d6565b92506148687fffffffffffffffffffffffffffffffffffffffffffffffffffffffffffffffff8484614752565b905092915050565b7f4e487b7100000000000000000000000000000000000000000000000000000000600052601260045260246000fd5b60006148aa826142d6565b91506148b5836142d6565b9250826148c5576148c4614870565b5b828204905092915050565b60006148db826142d6565b91506148e6836142d6565b9250817fffffffffffffffffffffffffffffffffffffffffffffffffffffffffffffffff048311821515161561491f5761491e6146c3565b5b828202905092915050565b6000614935826142d6565b9150614940836142d6565b9250827fffffffffffffffffffffffffffffffffffffffffffffffffffffffffffffffff03821115614975576149746146c3565b5b828201905092915050565b600061498b826142d6565b9150614996836142d6565b9250828210156149a9576149a86146c3565b5b828203905092915050565b600082825260208201905092915050565b7f696e73756666696369656e74206c7020616d6f756e7400000000000000000000600082015250565b60006149fb6016836149b4565b9150614a06826149c5565b602082019050919050565b60006020820190508181036000830152614a2a816149ee565b9050919050565b6000604082019050614a466000830185614494565b614a536020830184614373565b9392505050565b60008115159050919050565b614a6f81614a5a565b8114614a7a57600080fd5b50565b600081519050614a8c81614a66565b92915050565b600060208284031215614aa857614aa761426e565b5b6000614ab684828501614a7d565b91505092915050565b600080fd5b600080fd5b6000601f19601f8301169050919050565b7f4e487b7100000000000000000000000000000000000000000000000000000000600052604160045260246000fd5b614b1282614ac9565b810181811067ffffffffffffffff82111715614b3157614b30614ada565b5b80604052505050565b6000614b44614264565b9050614b508282614b09565b919050565b600067ffffffffffffffff821115614b7057614b6f614ada565b5b614b7982614ac9565b9050602081019050919050565b60005b83811015614ba4578082015181840152602081019050614b89565b83811115614bb3576000848401525b50505050565b6000614bcc614bc784614b55565b614b3a565b905082815260208101848484011115614be857614be7614ac4565b5b614bf3848285614b86565b509392505050565b600082601f830112614c1057614c0f614abf565b5b8151614c20848260208601614bb9565b91505092915050565b600060208284031215614c3f57614c3e61426e565b5b600082015167ffffffffffffffff811115614c5d57614c5c614273565b5b614c6984828501614bfb565b91505092915050565b6000606082019050614c876000830186614494565b614c946020830185614494565b614ca16040830184614373565b949350505050565b7f556e737570706f7274656420746f6b656e000000000000000000000000000000600082015250565b6000614cdf6011836149b4565b9150614cea82614ca9565b602082019050919050565b60006020820190508181036000830152614d0e81614cd2565b9050919050565b600081519050614d24816142aa565b92915050565b600080600060608486031215614d4357614d4261426e565b5b6000614d5186828701614d15565b9350506020614d6286828701614d15565b9250506040614d7386828701614d15565b9150509250925092565b6000614d88826142d6565b91507fffffffffffffffffffffffffffffffffffffffffffffffffffffffffffffffff821415614dbb57614dba6146c3565b5b60018201905091905056fea2646970667358221220194d1649ab391ee676eb45889e707935582ef62217cb934138fb219e550641ca64736f6c6343000809003360806040527362cae0fa2da220f43a51f86db2edb36dca9a5a08600b60006101000a81548173ffffffffffffffffffffffffffffffffffffffff021916908373ffffffffffffffffffffffffffffffffffffffff160217905550730a023a3423d9b27a0be48c768ccf2dd7877fef5e600c60006101000a81548173ffffffffffffffffffffffffffffffffffffffff021916908373ffffffffffffffffffffffffffffffffffffffff160217905550732ee9bfb2d319b31a573ea15774b755715988e99d600d60006101000a81548173ffffffffffffffffffffffffffffffffffffffff021916908373ffffffffffffffffffffffffffffffffffffffff1602179055503480156200011057600080fd5b50604051620017dd380380620017dd833981810160405281019062000136919062000261565b306000806101000a81548173ffffffffffffffffffffffffffffffffffffffff021916908373ffffffffffffffffffffffffffffffffffffffff16021790555080600181905550642bd64d1690600e6040516200019390620002ee565b9081526020016040518091039020819055506306b7cfd2600e604051620001ba9062000355565b9081526020016040518091039020819055506305f5f524600e604051620001e190620003bc565b9081526020016040518091039020819055506305f5f524600e604051620002089062000423565b908152602001604051809103902081905550506200043a565b600080fd5b6000819050919050565b6200023b8162000226565b81146200024757600080fd5b50565b6000815190506200025b8162000230565b92915050565b6000602082840312156200027a576200027962000221565b5b60006200028a848285016200024a565b91505092915050565b600081905092915050565b7f4554480000000000000000000000000000000000000000000000000000000000600082015250565b6000620002d660038362000293565b9150620002e3826200029e565b600382019050919050565b6000620002fb82620002c7565b9150819050919050565b7f4152420000000000000000000000000000000000000000000000000000000000600082015250565b60006200033d60038362000293565b91506200034a8262000305565b600382019050919050565b600062000362826200032e565b9150819050919050565b7f5553445400000000000000000000000000000000000000000000000000000000600082015250565b6000620003a460048362000293565b9150620003b1826200036c565b600482019050919050565b6000620003c98262000395565b9150819050919050565b7f4153440000000000000000000000000000000000000000000000000000000000600082015250565b60006200040b60038362000293565b91506200041882620003d3565b600382019050919050565b60006200043082620003fc565b9150819050919050565b611393806200044a6000396000f3fe60806040526004361061011e5760003560e01c806361f62302116100a0578063a1973af111610064578063a1973af1146103cd578063a469d8ae1461040a578063baf0bfd314610435578063f015ad3314610460578063fd8765761461047c5761011e565b806361f62302146102f657806388eed374146103215780638af5de721461034c5780638e10aa0814610377578063a001ecdd146103a25761011e565b806351b429a0116100e757806351b429a0146101fa57806353c9fc2c146102235780635572eab914610250578063580fcf811461027b578063587bbca2146102b95761011e565b8062b210f6146101235780632630c12f1461014e5780632cc812bc1461017957806340a70239146101a457806346904840146101cf575b600080fd5b34801561012f57600080fd5b506101386104a7565b6040516101459190610b34565b60405180910390f35b34801561015a57600080fd5b506101636104ad565b6040516101709190610bce565b60405180910390f35b34801561018557600080fd5b5061018e6104d3565b60405161019b9190610b34565b60405180910390f35b3480156101b057600080fd5b506101b96104d9565b6040516101c69190610b34565b60405180910390f35b3480156101db57600080fd5b506101e46104df565b6040516101f19190610c0a565b60405180910390f35b34801561020657600080fd5b50610221600480360381019061021c9190610c91565b610503565b005b34801561022f57600080fd5b50610238610697565b60405161024793929190610d0c565b60405180910390f35b34801561025c57600080fd5b506102656106b0565b6040516102729190610b34565b60405180910390f35b34801561028757600080fd5b506102a2600480360381019061029d9190610d43565b6106b6565b6040516102b0929190610d70565b60405180910390f35b3480156102c557600080fd5b506102e060048036038101906102db9190610edf565b610707565b6040516102ed9190610b34565b60405180910390f35b34801561030257600080fd5b5061030b610735565b6040516103189190610c0a565b60405180910390f35b34801561032d57600080fd5b5061033661075b565b6040516103439190610b34565b60405180910390f35b34801561035857600080fd5b50610361610761565b60405161036e9190610b34565b60405180910390f35b34801561038357600080fd5b5061038c610767565b6040516103999190610c0a565b60405180910390f35b3480156103ae57600080fd5b506103b761078d565b6040516103c49190610b34565b60405180910390f35b3480156103d957600080fd5b506103f460048036038101906103ef9190610f28565b610793565b6040516104019190610b34565b60405180910390f35b34801561041657600080fd5b5061041f610813565b60405161042c9190610b34565b60405180910390f35b34801561044157600080fd5b5061044a610819565b6040516104579190610c0a565b60405180910390f35b61047a60048036038101906104759190610f7b565b61083f565b005b34801561048857600080fd5b50610491610b15565b60405161049e9190610b34565b60405180910390f35b60035481565b600a60009054906101000a900473ffffffffffffffffffffffffffffffffffffffff1681565b60025481565b60085481565b60008054906101000a900473ffffffffffffffffffffffffffffffffffffffff1681565b6000806000808873ffffffffffffffffffffffffffffffffffffffff166306fdde036040518163ffffffff1660e01b815260040160006040518083038186803b15801561054f57600080fd5b505afa158015610563573d6000803e3d6000fd5b505050506040513d6000823e3d601f19601f8201168201806040525081019061058c91906110d4565b905060008873ffffffffffffffffffffffffffffffffffffffff166306fdde036040518163ffffffff1660e01b815260040160006040518083038186803b1580156105d657600080fd5b505afa1580156105ea573d6000803e3d6000fd5b505050506040513d6000823e3d601f19601f8201168201806040525081019061061391906110d4565b90506000600e836040516106279190611164565b90815260200160405180910390205490506000600e8360405161064a9190611164565b9081526020016040518091039020549050610664886106b6565b8096508197505050610677858383610793565b96506106898c8c8c8c8c8c8c8c61083f565b505050505050505050505050565b6000806000600454600354600254925092509250909192565b60045481565b600080600066038d7ea4c680006001546106d091906111aa565b905080670de0b6b3a7640000856106e79190611233565b6106f191906111aa565b925082846106ff9190611264565b915050915091565b600e818051602081018201805184825260208301602085012081835280955050505050506000915090505481565b600c60009054906101000a900473ffffffffffffffffffffffffffffffffffffffff1681565b60055481565b60095481565b600d60009054906101000a900473ffffffffffffffffffffffffffffffffffffffff1681565b60015481565b600080600080848610156107d15785856107ad9190611233565b9150600190508187826107c091906111aa565b6107ca9190611233565b9250610806565b84861115610805576001915084866107e99190611233565b90508187826107f891906111aa565b6108029190611233565b92505b5b8293505050509392505050565b60065481565b600b60009054906101000a900473ffffffffffffffffffffffffffffffffffffffff1681565b8773ffffffffffffffffffffffffffffffffffffffff1663095ea7b386866040518363ffffffff1660e01b815260040161087a929190611298565b602060405180830381600087803b15801561089457600080fd5b505af11580156108a8573d6000803e3d6000fd5b505050506040513d601f19601f820116820180604052508101906108cc91906112f9565b508673ffffffffffffffffffffffffffffffffffffffff1663095ea7b386856040518363ffffffff1660e01b8152600401610908929190611298565b602060405180830381600087803b15801561092257600080fd5b505af1158015610936573d6000803e3d6000fd5b505050506040513d601f19601f8201168201806040525081019061095a91906112f9565b508773ffffffffffffffffffffffffffffffffffffffff166323b872dd8787846040518463ffffffff1660e01b815260040161099893929190611326565b602060405180830381600087803b1580156109b257600080fd5b505af11580156109c6573d6000803e3d6000fd5b505050506040513d601f19601f820116820180604052508101906109ea91906112f9565b508773ffffffffffffffffffffffffffffffffffffffff166323b872dd8787856040518463ffffffff1660e01b8152600401610a2893929190611326565b602060405180830381600087803b158015610a4257600080fd5b505af1158015610a56573d6000803e3d6000fd5b505050506040513d601f19601f82011682018060405250810190610a7a91906112f9565b508673ffffffffffffffffffffffffffffffffffffffff166323b872dd8688866040518463ffffffff1660e01b8152600401610ab893929190611326565b602060405180830381600087803b158015610ad257600080fd5b505af1158015610ae6573d6000803e3d6000fd5b505050506040513d601f19601f82011682018060405250810190610b0a91906112f9565b505050505050505050565b60075481565b6000819050919050565b610b2e81610b1b565b82525050565b6000602082019050610b496000830184610b25565b92915050565b600073ffffffffffffffffffffffffffffffffffffffff82169050919050565b6000819050919050565b6000610b94610b8f610b8a84610b4f565b610b6f565b610b4f565b9050919050565b6000610ba682610b79565b9050919050565b6000610bb882610b9b565b9050919050565b610bc881610bad565b82525050565b6000602082019050610be36000830184610bbf565b92915050565b6000610bf482610b4f565b9050919050565b610c0481610be9565b82525050565b6000602082019050610c1f6000830184610bfb565b92915050565b6000604051905090565b600080fd5b600080fd5b610c4281610be9565b8114610c4d57600080fd5b50565b600081359050610c5f81610c39565b92915050565b610c6e81610b1b565b8114610c7957600080fd5b50565b600081359050610c8b81610c65565b92915050565b600080600080600060a08688031215610cad57610cac610c2f565b5b6000610cbb88828901610c50565b9550506020610ccc88828901610c50565b9450506040610cdd88828901610c50565b9350506060610cee88828901610c50565b9250506080610cff88828901610c7c565b9150509295509295909350565b6000606082019050610d216000830186610b25565b610d2e6020830185610b25565b610d3b6040830184610b25565b949350505050565b600060208284031215610d5957610d58610c2f565b5b6000610d6784828501610c7c565b91505092915050565b6000604082019050610d856000830185610b25565b610d926020830184610b25565b9392505050565b600080fd5b600080fd5b6000601f19601f8301169050919050565b7f4e487b7100000000000000000000000000000000000000000000000000000000600052604160045260246000fd5b610dec82610da3565b810181811067ffffffffffffffff82111715610e0b57610e0a610db4565b5b80604052505050565b6000610e1e610c25565b9050610e2a8282610de3565b919050565b600067ffffffffffffffff821115610e4a57610e49610db4565b5b610e5382610da3565b9050602081019050919050565b82818337600083830152505050565b6000610e82610e7d84610e2f565b610e14565b905082815260208101848484011115610e9e57610e9d610d9e565b5b610ea9848285610e60565b509392505050565b600082601f830112610ec657610ec5610d99565b5b8135610ed6848260208601610e6f565b91505092915050565b600060208284031215610ef557610ef4610c2f565b5b600082013567ffffffffffffffff811115610f1357610f12610c34565b5b610f1f84828501610eb1565b91505092915050565b600080600060608486031215610f4157610f40610c2f565b5b6000610f4f86828701610c7c565b9350506020610f6086828701610c7c565b9250506040610f7186828701610c7c565b9150509250925092565b600080600080600080600080610100898b031215610f9c57610f9b610c2f565b5b6000610faa8b828c01610c50565b9850506020610fbb8b828c01610c50565b9750506040610fcc8b828c01610c50565b9650506060610fdd8b828c01610c50565b9550506080610fee8b828c01610c7c565b94505060a0610fff8b828c01610c7c565b93505060c06110108b828c01610c7c565b92505060e06110218b828c01610c7c565b9150509295985092959890939650565b60005b8381101561104f578082015181840152602081019050611034565b8381111561105e576000848401525b50505050565b600061107761107284610e2f565b610e14565b90508281526020810184848401111561109357611092610d9e565b5b61109e848285611031565b509392505050565b600082601f8301126110bb576110ba610d99565b5b81516110cb848260208601611064565b91505092915050565b6000602082840312156110ea576110e9610c2f565b5b600082015167ffffffffffffffff81111561110857611107610c34565b5b611114848285016110a6565b91505092915050565b600081519050919050565b600081905092915050565b600061113e8261111d565b6111488185611128565b9350611158818560208601611031565b80840191505092915050565b60006111708284611133565b915081905092915050565b7f4e487b7100000000000000000000000000000000000000000000000000000000600052601160045260246000fd5b60006111b582610b1b565b91506111c083610b1b565b9250817fffffffffffffffffffffffffffffffffffffffffffffffffffffffffffffffff04831182151516156111f9576111f861117b565b5b828202905092915050565b7f4e487b7100000000000000000000000000000000000000000000000000000000600052601260045260246000fd5b600061123e82610b1b565b915061124983610b1b565b92508261125957611258611204565b5b828204905092915050565b600061126f82610b1b565b915061127a83610b1b565b92508282101561128d5761128c61117b565b5b828203905092915050565b60006040820190506112ad6000830185610bfb565b6112ba6020830184610b25565b9392505050565b60008115159050919050565b6112d6816112c1565b81146112e157600080fd5b50565b6000815190506112f3816112cd565b92915050565b60006020828403121561130f5761130e610c2f565b5b600061131d848285016112e4565b91505092915050565b600060608201905061133b6000830186610bfb565b6113486020830185610bfb565b6113556040830184610b25565b94935050505056fea26469706673582212201a5bffce79677e3f49aeb6c2a36d8005fab38c41ab2f5b8ae32e9e11ff91cf0a64736f6c63430008090033",
  "linkReferences": {},
  "deployedLinkReferences": {}
}