{
  "_format": "hh-sol-artifact-1",
  "contractName": "TokenPriceOracle",
  "sourceName": "contracts/TokenPriceOracle.sol",
  "abi": [
    {
      "inputs": [
        {
          "internalType": "address",
          "name": "_ethFeed",
          "type": "address"
        },
        {
          "internalType": "address",
          "name": "_usdtFeed",
          "type": "address"
        },
        {
          "internalType": "address",
          "name": "_arbFeed",
          "type": "address"
        }
      ],
      "stateMutability": "nonpayable",
      "type": "constructor"
    },
    {
      "inputs": [],
      "name": "arbPrice",
      "outputs": [
        {
          "internalType": "contract TokenPrice",
          "name": "",
          "type": "address"
        }
      ],
      "stateMutability": "view",
      "type": "function"
    },
    {
      "inputs": [],
      "name": "ethPrice",
      "outputs": [
        {
          "internalType": "contract TokenPrice",
          "name": "",
          "type": "address"
        }
      ],
      "stateMutability": "view",
      "type": "function"
    },
    {
      "inputs": [],
      "name": "getArbPrice",
      "outputs": [
        {
          "internalType": "uint256",
          "name": "",
          "type": "uint256"
        }
      ],
      "stateMutability": "view",
      "type": "function"
    },
    {
      "inputs": [],
      "name": "getEthPrice",
      "outputs": [
        {
          "internalType": "uint256",
          "name": "",
          "type": "uint256"
        }
      ],
      "stateMutability": "view",
      "type": "function"
    },
    {
      "inputs": [],
      "name": "getUsdtPrice",
      "outputs": [
        {
          "internalType": "uint256",
          "name": "",
          "type": "uint256"
        }
      ],
      "stateMutability": "view",
      "type": "function"
    },
    {
      "inputs": [],
      "name": "usdtPrice",
      "outputs": [
        {
          "internalType": "contract TokenPrice",
          "name": "",
          "type": "address"
        }
      ],
      "stateMutability": "view",
      "type": "function"
    }
  ],
  "bytecode": "0x608060405234801561001057600080fd5b50604051610bd3380380610bd383398181016040528101906100329190610205565b8260405161003f90610195565b6100499190610267565b604051809103906000f080158015610065573d6000803e3d6000fd5b506000806101000a81548173ffffffffffffffffffffffffffffffffffffffff021916908373ffffffffffffffffffffffffffffffffffffffff160217905550816040516100b290610195565b6100bc9190610267565b604051809103906000f0801580156100d8573d6000803e3d6000fd5b50600160006101000a81548173ffffffffffffffffffffffffffffffffffffffff021916908373ffffffffffffffffffffffffffffffffffffffff1602179055508060405161012690610195565b6101309190610267565b604051809103906000f08015801561014c573d6000803e3d6000fd5b50600260006101000a81548173ffffffffffffffffffffffffffffffffffffffff021916908373ffffffffffffffffffffffffffffffffffffffff160217905550505050610282565b6104618061077283390190565b600080fd5b600073ffffffffffffffffffffffffffffffffffffffff82169050919050565b60006101d2826101a7565b9050919050565b6101e2816101c7565b81146101ed57600080fd5b50565b6000815190506101ff816101d9565b92915050565b60008060006060848603121561021e5761021d6101a2565b5b600061022c868287016101f0565b935050602061023d868287016101f0565b925050604061024e868287016101f0565b9150509250925092565b610261816101c7565b82525050565b600060208201905061027c6000830184610258565b92915050565b6104e1806102916000396000f3fe608060405234801561001057600080fd5b50600436106100625760003560e01c806367c9b017146100675780638c3b578114610085578063961bdfbf146100a3578063acb16596146100c1578063e136f65f146100df578063ff186b2e146100fd575b600080fd5b61006f61011b565b60405161007c9190610398565b60405180910390f35b61008d6101c1565b60405161009a9190610398565b60405180910390f35b6100ab610268565b6040516100b89190610398565b60405180910390f35b6100c961030f565b6040516100d69190610432565b60405180910390f35b6100e7610335565b6040516100f49190610432565b60405180910390f35b61010561035b565b6040516101129190610432565b60405180910390f35b60008060009054906101000a900473ffffffffffffffffffffffffffffffffffffffff1673ffffffffffffffffffffffffffffffffffffffff166398d5fdca6040518163ffffffff1660e01b815260040160206040518083038186803b15801561018457600080fd5b505afa158015610198573d6000803e3d6000fd5b505050506040513d601f19601f820116820180604052508101906101bc919061047e565b905090565b6000600260009054906101000a900473ffffffffffffffffffffffffffffffffffffffff1673ffffffffffffffffffffffffffffffffffffffff166398d5fdca6040518163ffffffff1660e01b815260040160206040518083038186803b15801561022b57600080fd5b505afa15801561023f573d6000803e3d6000fd5b505050506040513d601f19601f82011682018060405250810190610263919061047e565b905090565b6000600160009054906101000a900473ffffffffffffffffffffffffffffffffffffffff1673ffffffffffffffffffffffffffffffffffffffff166398d5fdca6040518163ffffffff1660e01b815260040160206040518083038186803b1580156102d257600080fd5b505afa1580156102e6573d6000803e3d6000fd5b505050506040513d601f19601f8201168201806040525081019061030a919061047e565b905090565b600260009054906101000a900473ffffffffffffffffffffffffffffffffffffffff1681565b600160009054906101000a900473ffffffffffffffffffffffffffffffffffffffff1681565b60008054906101000a900473ffffffffffffffffffffffffffffffffffffffff1681565b6000819050919050565b6103928161037f565b82525050565b60006020820190506103ad6000830184610389565b92915050565b600073ffffffffffffffffffffffffffffffffffffffff82169050919050565b6000819050919050565b60006103f86103f36103ee846103b3565b6103d3565b6103b3565b9050919050565b600061040a826103dd565b9050919050565b600061041c826103ff565b9050919050565b61042c81610411565b82525050565b60006020820190506104476000830184610423565b92915050565b600080fd5b61045b8161037f565b811461046657600080fd5b50565b60008151905061047881610452565b92915050565b6000602082840312156104945761049361044d565b5b60006104a284828501610469565b9150509291505056fea26469706673582212205ca0a15258dadbbccb903ddc87204ba1b70ad891cce4c9aa58061358a0224da664736f6c63430008090033608060405234801561001057600080fd5b50604051610461380380610461833981810160405281019061003291906100db565b806000806101000a81548173ffffffffffffffffffffffffffffffffffffffff021916908373ffffffffffffffffffffffffffffffffffffffff16021790555050610108565b600080fd5b600073ffffffffffffffffffffffffffffffffffffffff82169050919050565b60006100a88261007d565b9050919050565b6100b88161009d565b81146100c357600080fd5b50565b6000815190506100d5816100af565b92915050565b6000602082840312156100f1576100f0610078565b5b60006100ff848285016100c6565b91505092915050565b61034a806101176000396000f3fe608060405234801561001057600080fd5b506004361061002b5760003560e01c806398d5fdca14610030575b600080fd5b61003861004e565b6040516100459190610158565b60405180910390f35b60008060008054906101000a900473ffffffffffffffffffffffffffffffffffffffff1673ffffffffffffffffffffffffffffffffffffffff1663feaf968c6040518163ffffffff1660e01b815260040160a06040518083038186803b1580156100b757600080fd5b505afa1580156100cb573d6000803e3d6000fd5b505050506040513d601f19601f820116820180604052508101906100ef919061021c565b50505091505060008113610138576040517f08c379a000000000000000000000000000000000000000000000000000000000815260040161012f906102f4565b60405180910390fd5b8091505090565b6000819050919050565b6101528161013f565b82525050565b600060208201905061016d6000830184610149565b92915050565b600080fd5b600069ffffffffffffffffffff82169050919050565b61019781610178565b81146101a257600080fd5b50565b6000815190506101b48161018e565b92915050565b6000819050919050565b6101cd816101ba565b81146101d857600080fd5b50565b6000815190506101ea816101c4565b92915050565b6101f98161013f565b811461020457600080fd5b50565b600081519050610216816101f0565b92915050565b600080600080600060a0868803121561023857610237610173565b5b6000610246888289016101a5565b9550506020610257888289016101db565b945050604061026888828901610207565b935050606061027988828901610207565b925050608061028a888289016101a5565b9150509295509295909350565b600082825260208201905092915050565b7f496e76616c696420707269636500000000000000000000000000000000000000600082015250565b60006102de600d83610297565b91506102e9826102a8565b602082019050919050565b6000602082019050818103600083015261030d816102d1565b905091905056fea26469706673582212204ed7c8279815964bfd9186c3c8d6d0b93c7e3875f15f0596ff7d6e7a46314d2964736f6c63430008090033",
  "linkReferences": {},
  "deployedLinkReferences": {}
}