{
  "_format": "hh-sol-artifact-1",
  "contractName": "Sdeposit",
  "sourceName": "contracts/Sdeposit.sol",
  "abi": [
    {
      "inputs": [],
      "stateMutability": "nonpayable",
      "type": "constructor"
    },
    {
      "inputs": [
        {
          "internalType": "address",
          "name": "_userAccount",
          "type": "address"
        }
      ],
      "name": "claimAmountcheck",
      "outputs": [],
      "stateMutability": "nonpayable",
      "type": "function"
    },
    {
      "inputs": [
        {
          "internalType": "address",
          "name": "",
          "type": "address"
        }
      ],
      "name": "depositInfo",
      "outputs": [
        {
          "internalType": "address",
          "name": "differToken",
          "type": "address"
        },
        {
          "internalType": "uint256",
          "name": "depositAmount",
          "type": "uint256"
        },
        {
          "internalType": "uint256",
          "name": "deposittime",
          "type": "uint256"
        }
      ],
      "stateMutability": "view",
      "type": "function"
    },
    {
      "inputs": [
        {
          "internalType": "address",
          "name": "_userAccount",
          "type": "address"
        },
        {
          "internalType": "address",
          "name": "_differToken",
          "type": "address"
        }
      ],
      "name": "getAccountBalance",
      "outputs": [
        {
          "internalType": "uint256",
          "name": "",
          "type": "uint256"
        }
      ],
      "stateMutability": "nonpayable",
      "type": "function"
    },
    {
      "inputs": [],
      "name": "returnValue",
      "outputs": [
        {
          "internalType": "uint256",
          "name": "",
          "type": "uint256"
        }
      ],
      "stateMutability": "view",
      "type": "function"
    },
    {
      "inputs": [
        {
          "internalType": "address",
          "name": "_userAccount",
          "type": "address"
        },
        {
          "internalType": "address",
          "name": "_factoryAddress",
          "type": "address"
        },
        {
          "internalType": "address",
          "name": "_asdToken",
          "type": "address"
        }
      ],
      "name": "sClaim",
      "outputs": [],
      "stateMutability": "nonpayable",
      "type": "function"
    },
    {
      "inputs": [
        {
          "internalType": "address",
          "name": "_userAccount",
          "type": "address"
        },
        {
          "internalType": "address",
          "name": "_factoryAddress",
          "type": "address"
        },
        {
          "internalType": "address",
          "name": "_differToken",
          "type": "address"
        },
        {
          "internalType": "uint256",
          "name": "_differAmount",
          "type": "uint256"
        }
      ],
      "name": "sDeposit",
      "outputs": [],
      "stateMutability": "nonpayable",
      "type": "function"
    },
    {
      "inputs": [
        {
          "internalType": "address",
          "name": "_userAccount",
          "type": "address"
        },
        {
          "internalType": "address",
          "name": "_factoryAddress",
          "type": "address"
        },
        {
          "internalType": "address",
          "name": "_differToken",
          "type": "address"
        },
        {
          "internalType": "uint256",
          "name": "_differAmount",
          "type": "uint256"
        }
      ],
      "name": "withDrawOneToken",
      "outputs": [],
      "stateMutability": "nonpayable",
      "type": "function"
    }
  ],
  "bytecode": "0x60806040526005600055607860015561012c60025562278d00600355600354600261002a919061008a565b600455600354600361003c919061008a565b60055534801561004b57600080fd5b506100e4565b6000819050919050565b7f4e487b7100000000000000000000000000000000000000000000000000000000600052601160045260246000fd5b600061009582610051565b91506100a083610051565b9250817fffffffffffffffffffffffffffffffffffffffffffffffffffffffffffffffff04831182151516156100d9576100d861005b565b5b828202905092915050565b610d79806100f36000396000f3fe608060405234801561001057600080fd5b506004361061007d5760003560e01c8063634459891161005b57806363445989146100ea578063853b64c61461011c578063990c8f7914610138578063b90cdbb5146101565761007d565b806302933b44146100825780633416a4ee1461009e578063587675e8146100ba575b600080fd5b61009c60048036038101906100979190610967565b610172565b005b6100b860048036038101906100b391906109f0565b610383565b005b6100d460048036038101906100cf9190610a57565b610583565b6040516100e19190610aa6565b60405180910390f35b61010460048036038101906100ff9190610ac1565b610670565b60405161011393929190610afd565b60405180910390f35b61013660048036038101906101319190610ac1565b6106ba565b005b6101406107c2565b60405161014d9190610aa6565b60405180910390f35b610170600480360381019061016b91906109f0565b6107cc565b005b6000600860008573ffffffffffffffffffffffffffffffffffffffff1673ffffffffffffffffffffffffffffffffffffffff1681526020019081526020016000206001015490506000600a826101c89190610b92565b90506000600860008773ffffffffffffffffffffffffffffffffffffffff1673ffffffffffffffffffffffffffffffffffffffff1681526020019081526020016000206002015490506000548161021f9190610bc3565b421015801561023a5750600154816102379190610bc3565b42105b156102d4578373ffffffffffffffffffffffffffffffffffffffff166323b872dd8688856040518463ffffffff1660e01b815260040161027c93929190610c19565b602060405180830381600087803b15801561029657600080fd5b505af11580156102aa573d6000803e3d6000fd5b505050506040513d601f19601f820116820180604052508101906102ce9190610c88565b5061037b565b600154421061037a578373ffffffffffffffffffffffffffffffffffffffff166323b872dd86888560026103089190610cb5565b6040518463ffffffff1660e01b815260040161032693929190610c19565b602060405180830381600087803b15801561034057600080fd5b505af1158015610354573d6000803e3d6000fd5b505050506040513d601f19601f820116820180604052508101906103789190610c88565b505b5b505050505050565b81600860008673ffffffffffffffffffffffffffffffffffffffff1673ffffffffffffffffffffffffffffffffffffffff16815260200190815260200160002060000160006101000a81548173ffffffffffffffffffffffffffffffffffffffff021916908373ffffffffffffffffffffffffffffffffffffffff16021790555080600860008673ffffffffffffffffffffffffffffffffffffffff1673ffffffffffffffffffffffffffffffffffffffff16815260200190815260200160002060010160008282546104569190610bc3565b9250508190555042600860008673ffffffffffffffffffffffffffffffffffffffff1673ffffffffffffffffffffffffffffffffffffffff16815260200190815260200160002060020181905550600860008573ffffffffffffffffffffffffffffffffffffffff1673ffffffffffffffffffffffffffffffffffffffff168152602001908152602001600020600101546006819055508173ffffffffffffffffffffffffffffffffffffffff166323b872dd8585846040518463ffffffff1660e01b815260040161052a93929190610c19565b602060405180830381600087803b15801561054457600080fd5b505af1158015610558573d6000803e3d6000fd5b505050506040513d601f19601f8201168201806040525081019061057c9190610c88565b5050505050565b60008173ffffffffffffffffffffffffffffffffffffffff16600860008573ffffffffffffffffffffffffffffffffffffffff1673ffffffffffffffffffffffffffffffffffffffff16815260200190815260200160002060000160009054906101000a900473ffffffffffffffffffffffffffffffffffffffff1673ffffffffffffffffffffffffffffffffffffffff16141561066557600860008473ffffffffffffffffffffffffffffffffffffffff1673ffffffffffffffffffffffffffffffffffffffff168152602001908152602001600020600101546006819055505b600654905092915050565b60086020528060005260406000206000915090508060000160009054906101000a900473ffffffffffffffffffffffffffffffffffffffff16908060010154908060020154905083565b6000600860008373ffffffffffffffffffffffffffffffffffffffff1673ffffffffffffffffffffffffffffffffffffffff1681526020019081526020016000206001015490506000600a826107109190610b92565b90506000600860008573ffffffffffffffffffffffffffffffffffffffff1673ffffffffffffffffffffffffffffffffffffffff168152602001908152602001600020600201549050600054816107679190610bc3565b421015801561078257506001548161077f9190610bc3565b42105b1561079357816007819055506107bc565b600154816107a19190610bc3565b42106107bb578160026107b49190610cb5565b6007819055505b5b50505050565b6000600754905090565b80600860008673ffffffffffffffffffffffffffffffffffffffff1673ffffffffffffffffffffffffffffffffffffffff168152602001908152602001600020600101600082825461081e9190610d0f565b92505081905550600860008573ffffffffffffffffffffffffffffffffffffffff1673ffffffffffffffffffffffffffffffffffffffff168152602001908152602001600020600101546006819055508173ffffffffffffffffffffffffffffffffffffffff166323b872dd8486846040518463ffffffff1660e01b81526004016108ab93929190610c19565b602060405180830381600087803b1580156108c557600080fd5b505af11580156108d9573d6000803e3d6000fd5b505050506040513d601f19601f820116820180604052508101906108fd9190610c88565b5050505050565b600080fd5b600073ffffffffffffffffffffffffffffffffffffffff82169050919050565b600061093482610909565b9050919050565b61094481610929565b811461094f57600080fd5b50565b6000813590506109618161093b565b92915050565b6000806000606084860312156109805761097f610904565b5b600061098e86828701610952565b935050602061099f86828701610952565b92505060406109b086828701610952565b9150509250925092565b6000819050919050565b6109cd816109ba565b81146109d857600080fd5b50565b6000813590506109ea816109c4565b92915050565b60008060008060808587031215610a0a57610a09610904565b5b6000610a1887828801610952565b9450506020610a2987828801610952565b9350506040610a3a87828801610952565b9250506060610a4b878288016109db565b91505092959194509250565b60008060408385031215610a6e57610a6d610904565b5b6000610a7c85828601610952565b9250506020610a8d85828601610952565b9150509250929050565b610aa0816109ba565b82525050565b6000602082019050610abb6000830184610a97565b92915050565b600060208284031215610ad757610ad6610904565b5b6000610ae584828501610952565b91505092915050565b610af781610929565b82525050565b6000606082019050610b126000830186610aee565b610b1f6020830185610a97565b610b2c6040830184610a97565b949350505050565b7f4e487b7100000000000000000000000000000000000000000000000000000000600052601260045260246000fd5b7f4e487b7100000000000000000000000000000000000000000000000000000000600052601160045260246000fd5b6000610b9d826109ba565b9150610ba8836109ba565b925082610bb857610bb7610b34565b5b828204905092915050565b6000610bce826109ba565b9150610bd9836109ba565b9250827fffffffffffffffffffffffffffffffffffffffffffffffffffffffffffffffff03821115610c0e57610c0d610b63565b5b828201905092915050565b6000606082019050610c2e6000830186610aee565b610c3b6020830185610aee565b610c486040830184610a97565b949350505050565b60008115159050919050565b610c6581610c50565b8114610c7057600080fd5b50565b600081519050610c8281610c5c565b92915050565b600060208284031215610c9e57610c9d610904565b5b6000610cac84828501610c73565b91505092915050565b6000610cc0826109ba565b9150610ccb836109ba565b9250817fffffffffffffffffffffffffffffffffffffffffffffffffffffffffffffffff0483118215151615610d0457610d03610b63565b5b828202905092915050565b6000610d1a826109ba565b9150610d25836109ba565b925082821015610d3857610d37610b63565b5b82820390509291505056fea264697066735822122075f59d4fd9edbe5e3456fcb2488ca64c024af41d85cff80002b70aec917f15c064736f6c63430008090033",
  "linkReferences": {},
  "deployedLinkReferences": {}
}