{
  "_format": "hh-sol-artifact-1",
  "contractName": "Liquid",
  "sourceName": "contracts/Liquid.sol",
  "abi": [
    {
      "inputs": [],
      "stateMutability": "nonpayable",
      "type": "constructor"
    },
    {
      "inputs": [
        {
          "internalType": "address",
          "name": "",
          "type": "address"
        },
        {
          "internalType": "address",
          "name": "",
          "type": "address"
        },
        {
          "internalType": "address",
          "name": "",
          "type": "address"
        }
      ],
      "name": "Accounts",
      "outputs": [
        {
          "internalType": "uint256",
          "name": "",
          "type": "uint256"
        }
      ],
      "stateMutability": "view",
      "type": "function"
    },
    {
      "inputs": [
        {
          "internalType": "address",
          "name": "",
          "type": "address"
        },
        {
          "internalType": "address",
          "name": "",
          "type": "address"
        }
      ],
      "name": "Lpcalc",
      "outputs": [
        {
          "internalType": "uint256",
          "name": "",
          "type": "uint256"
        }
      ],
      "stateMutability": "view",
      "type": "function"
    },
    {
      "inputs": [
        {
          "internalType": "address",
          "name": "_token1",
          "type": "address"
        },
        {
          "internalType": "uint256",
          "name": "amount1",
          "type": "uint256"
        },
        {
          "internalType": "address",
          "name": "_token2",
          "type": "address"
        },
        {
          "internalType": "uint256",
          "name": "amount2",
          "type": "uint256"
        }
      ],
      "name": "calclending",
      "outputs": [
        {
          "internalType": "uint256",
          "name": "",
          "type": "uint256"
        }
      ],
      "stateMutability": "nonpayable",
      "type": "function"
    },
    {
      "inputs": [
        {
          "internalType": "address",
          "name": "_lpaddress",
          "type": "address"
        },
        {
          "internalType": "uint256",
          "name": "_amount",
          "type": "uint256"
        },
        {
          "internalType": "address",
          "name": "_ASDAddress",
          "type": "address"
        }
      ],
      "name": "checkRefundAmount",
      "outputs": [],
      "stateMutability": "nonpayable",
      "type": "function"
    },
    {
      "inputs": [],
      "name": "checkTest",
      "outputs": [
        {
          "internalType": "uint256",
          "name": "token1",
          "type": "uint256"
        },
        {
          "internalType": "uint256",
          "name": "asd1",
          "type": "uint256"
        },
        {
          "internalType": "uint256",
          "name": "lp",
          "type": "uint256"
        },
        {
          "internalType": "address",
          "name": "arbtoken",
          "type": "address"
        },
        {
          "internalType": "address",
          "name": "usdttoken",
          "type": "address"
        },
        {
          "internalType": "address",
          "name": "ethtoken",
          "type": "address"
        }
      ],
      "stateMutability": "view",
      "type": "function"
    },
    {
      "inputs": [],
      "name": "count3",
      "outputs": [
        {
          "internalType": "uint256",
          "name": "",
          "type": "uint256"
        }
      ],
      "stateMutability": "view",
      "type": "function"
    },
    {
      "inputs": [],
      "name": "count4",
      "outputs": [
        {
          "internalType": "uint256",
          "name": "",
          "type": "uint256"
        }
      ],
      "stateMutability": "view",
      "type": "function"
    },
    {
      "inputs": [
        {
          "internalType": "address",
          "name": "_lpaddress",
          "type": "address"
        },
        {
          "internalType": "uint256",
          "name": "_amount",
          "type": "uint256"
        },
        {
          "internalType": "address",
          "name": "_userAccount",
          "type": "address"
        },
        {
          "internalType": "address",
          "name": "_factoryAddress",
          "type": "address"
        },
        {
          "internalType": "address",
          "name": "_ASDAddress",
          "type": "address"
        }
      ],
      "name": "doRemoveLiquid",
      "outputs": [],
      "stateMutability": "nonpayable",
      "type": "function"
    },
    {
      "inputs": [
        {
          "internalType": "uint256",
          "name": "number",
          "type": "uint256"
        }
      ],
      "name": "getDigitCount",
      "outputs": [
        {
          "internalType": "uint256",
          "name": "",
          "type": "uint256"
        }
      ],
      "stateMutability": "pure",
      "type": "function"
    },
    {
      "inputs": [],
      "name": "lpcalc",
      "outputs": [
        {
          "internalType": "uint256",
          "name": "",
          "type": "uint256"
        }
      ],
      "stateMutability": "view",
      "type": "function"
    },
    {
      "inputs": [
        {
          "internalType": "address",
          "name": "_token1",
          "type": "address"
        },
        {
          "internalType": "uint256",
          "name": "amount1",
          "type": "uint256"
        },
        {
          "internalType": "address",
          "name": "_token2",
          "type": "address"
        },
        {
          "internalType": "uint256",
          "name": "amount2",
          "type": "uint256"
        },
        {
          "internalType": "address",
          "name": "_userAccount",
          "type": "address"
        },
        {
          "internalType": "address",
          "name": "_factoryAddress",
          "type": "address"
        },
        {
          "internalType": "address",
          "name": "_pairAddress",
          "type": "address"
        }
      ],
      "name": "makeLiquid",
      "outputs": [],
      "stateMutability": "nonpayable",
      "type": "function"
    },
    {
      "inputs": [],
      "name": "provideAmount",
      "outputs": [
        {
          "internalType": "uint256",
          "name": "",
          "type": "uint256"
        },
        {
          "internalType": "uint256",
          "name": "",
          "type": "uint256"
        }
      ],
      "stateMutability": "view",
      "type": "function"
    },
    {
      "inputs": [],
      "name": "totalAmount",
      "outputs": [
        {
          "internalType": "uint256",
          "name": "",
          "type": "uint256"
        }
      ],
      "stateMutability": "view",
      "type": "function"
    }
  ],
  "bytecode": "0x608060405267016345785d8a0000600f5534801561001c57600080fd5b50614dfc8061002c6000396000f3fe608060405234801561001057600080fd5b50600436106100cf5760003560e01c8063607c94f01161008c5780638e56dfd9116100665780638e56dfd91461020a578063d21a3e061461023a578063d2dcb80b14610256578063e319be0a14610272576100cf565b8063607c94f0146101ab5780637b1d829c146101ce5780638ad3d516146101ec576100cf565b80630394fbc2146100d457806308bac402146101045780630f5d5117146101205780631a39d8ef1461013e57806336f6c6331461015c57806357ce51531461017b575b600080fd5b6100ee60048036038101906100e9919061430c565b6102a2565b6040516100fb9190614382565b60405180910390f35b61011e6004803603810190610119919061439d565b610aff565b005b610128611b10565b6040516101359190614382565b60405180910390f35b610146611b16565b6040516101539190614382565b60405180910390f35b610164611b1c565b604051610172929190614418565b60405180910390f35b61019560048036038101906101909190614441565b611b2d565b6040516101a29190614382565b60405180910390f35b6101b3611b5f565b6040516101c5969594939291906144a3565b60405180910390f35b6101d6611bec565b6040516101e39190614382565b60405180910390f35b6101f4611bf2565b6040516102019190614382565b60405180910390f35b610224600480360381019061021f9190614504565b611bf8565b6040516102319190614382565b60405180910390f35b610254600480360381019061024f9190614544565b611c1d565b005b610270600480360381019061026b9190614597565b612361565b005b61028c60048036038101906102879190614639565b613c04565b6040516102999190614382565b60405180910390f35b6000808573ffffffffffffffffffffffffffffffffffffffff166370a08231306040518263ffffffff1660e01b81526004016102de9190614666565b60206040518083038186803b1580156102f657600080fd5b505afa15801561030a573d6000803e3d6000fd5b505050506040513d601f19601f8201168201806040525081019061032e9190614696565b1180156103c3575060008373ffffffffffffffffffffffffffffffffffffffff166370a08231306040518263ffffffff1660e01b81526004016103719190614666565b60206040518083038186803b15801561038957600080fd5b505afa15801561039d573d6000803e3d6000fd5b505050506040513d601f19601f820116820180604052508101906103c19190614696565b115b1561064d57600061045b8673ffffffffffffffffffffffffffffffffffffffff166370a08231306040518263ffffffff1660e01b81526004016104069190614666565b60206040518083038186803b15801561041e57600080fd5b505afa158015610432573d6000803e3d6000fd5b505050506040513d601f19601f820116820180604052508101906104569190614696565b613c04565b905060006104f08573ffffffffffffffffffffffffffffffffffffffff166370a08231306040518263ffffffff1660e01b815260040161049b9190614666565b60206040518083038186803b1580156104b357600080fd5b505afa1580156104c7573d6000803e3d6000fd5b505050506040513d601f19601f820116820180604052508101906104eb9190614696565b613c04565b905061064481600a6105029190614825565b8673ffffffffffffffffffffffffffffffffffffffff166370a08231306040518263ffffffff1660e01b815260040161053b9190614666565b60206040518083038186803b15801561055357600080fd5b505afa158015610567573d6000803e3d6000fd5b505050506040513d601f19601f8201168201806040525081019061058b9190614696565b610595919061489f565b83600a6105a29190614825565b8973ffffffffffffffffffffffffffffffffffffffff166370a08231306040518263ffffffff1660e01b81526004016105db9190614666565b60206040518083038186803b1580156105f357600080fd5b505afa158015610607573d6000803e3d6000fd5b505050506040513d601f19601f8201168201806040525081019061062b9190614696565b610635919061489f565b61063f91906148d0565b613c5b565b60068190555050505b6106e9848673ffffffffffffffffffffffffffffffffffffffff166370a08231306040518263ffffffff1660e01b815260040161068a9190614666565b60206040518083038186803b1580156106a257600080fd5b505afa1580156106b6573d6000803e3d6000fd5b505050506040513d601f19601f820116820180604052508101906106da9190614696565b6106e4919061492a565b613c04565b600b8190555061078b828473ffffffffffffffffffffffffffffffffffffffff166370a08231306040518263ffffffff1660e01b815260040161072c9190614666565b60206040518083038186803b15801561074457600080fd5b505afa158015610758573d6000803e3d6000fd5b505050506040513d601f19601f8201168201806040525081019061077c9190614696565b610786919061492a565b613c04565b600c81905550600c54600b54101561093257600b54600c546107ad9190614980565b600a6107b99190614825565b600c54600a6107c89190614825565b838573ffffffffffffffffffffffffffffffffffffffff166370a08231306040518263ffffffff1660e01b81526004016108029190614666565b60206040518083038186803b15801561081a57600080fd5b505afa15801561082e573d6000803e3d6000fd5b505050506040513d601f19601f820116820180604052508101906108529190614696565b61085c919061492a565b610866919061489f565b61087091906148d0565b600b54600a61087f9190614825565b858773ffffffffffffffffffffffffffffffffffffffff166370a08231306040518263ffffffff1660e01b81526004016108b99190614666565b60206040518083038186803b1580156108d157600080fd5b505afa1580156108e5573d6000803e3d6000fd5b505050506040513d601f19601f820116820180604052508101906109099190614696565b610913919061492a565b61091d919061489f565b61092791906148d0565b600d81905550610ad0565b600c54600b541115610acf57600c54600a61094d9190614825565b828473ffffffffffffffffffffffffffffffffffffffff166370a08231306040518263ffffffff1660e01b81526004016109879190614666565b60206040518083038186803b15801561099f57600080fd5b505afa1580156109b3573d6000803e3d6000fd5b505050506040513d601f19601f820116820180604052508101906109d79190614696565b6109e1919061492a565b6109eb919061489f565b600c54600b546109fb9190614980565b600a610a079190614825565b600b54600a610a169190614825565b868873ffffffffffffffffffffffffffffffffffffffff166370a08231306040518263ffffffff1660e01b8152600401610a509190614666565b60206040518083038186803b158015610a6857600080fd5b505afa158015610a7c573d6000803e3d6000fd5b505050506040513d601f19601f82011682018060405250810190610aa09190614696565b610aaa919061492a565b610ab4919061489f565b610abe91906148d0565b610ac891906148d0565b600d819055505b5b6000600654610ae0600d54613c5b565b610aea9190614980565b905080600a8190555080915050949350505050565b838573ffffffffffffffffffffffffffffffffffffffff166318160ddd6040518163ffffffff1660e01b815260040160206040518083038186803b158015610b4657600080fd5b505afa158015610b5a573d6000803e3d6000fd5b505050506040513d601f19601f82011682018060405250810190610b7e9190614696565b1015610bbf576040517f08c379a0000000000000000000000000000000000000000000000000000000008152600401610bb690614a11565b60405180910390fd5b8473ffffffffffffffffffffffffffffffffffffffff1663095ea7b383866040518363ffffffff1660e01b8152600401610bfa929190614a31565b602060405180830381600087803b158015610c1457600080fd5b505af1158015610c28573d6000803e3d6000fd5b505050506040513d601f19601f82011682018060405250810190610c4c9190614a92565b506000606485610c5c91906148d0565b9050600060075482610c6e919061489f565b90506040518060400160405280600581526020017f4152424c50000000000000000000000000000000000000000000000000000000815250805190602001208773ffffffffffffffffffffffffffffffffffffffff166306fdde036040518163ffffffff1660e01b815260040160006040518083038186803b158015610cf357600080fd5b505afa158015610d07573d6000803e3d6000fd5b505050506040513d6000823e3d601f19601f82011682018060405250810190610d309190614c29565b8051906020012014156110d857606481601160008a73ffffffffffffffffffffffffffffffffffffffff1673ffffffffffffffffffffffffffffffffffffffff16815260200190815260200160002060008060009054906101000a900473ffffffffffffffffffffffffffffffffffffffff1673ffffffffffffffffffffffffffffffffffffffff1673ffffffffffffffffffffffffffffffffffffffff16815260200190815260200160002054610de891906148d0565b610df2919061489f565b600881905550606481601160008a73ffffffffffffffffffffffffffffffffffffffff1673ffffffffffffffffffffffffffffffffffffffff16815260200190815260200160002060008673ffffffffffffffffffffffffffffffffffffffff1673ffffffffffffffffffffffffffffffffffffffff16815260200190815260200160002054610e8291906148d0565b610e8c919061489f565b6009819055508673ffffffffffffffffffffffffffffffffffffffff166323b872dd8689896040518463ffffffff1660e01b8152600401610ecf93929190614c72565b602060405180830381600087803b158015610ee957600080fd5b505af1158015610efd573d6000803e3d6000fd5b505050506040513d601f19601f82011682018060405250810190610f219190614a92565b508673ffffffffffffffffffffffffffffffffffffffff16636161eb1888886040518363ffffffff1660e01b8152600401610f5d929190614a31565b600060405180830381600087803b158015610f7757600080fd5b505af1158015610f8b573d6000803e3d6000fd5b5050505060008054906101000a900473ffffffffffffffffffffffffffffffffffffffff1673ffffffffffffffffffffffffffffffffffffffff166323b872dd85876008546040518463ffffffff1660e01b8152600401610fee93929190614c72565b602060405180830381600087803b15801561100857600080fd5b505af115801561101c573d6000803e3d6000fd5b505050506040513d601f19601f820116820180604052508101906110409190614a92565b508273ffffffffffffffffffffffffffffffffffffffff166323b872dd85876009546040518463ffffffff1660e01b815260040161108093929190614c72565b602060405180830381600087803b15801561109a57600080fd5b505af11580156110ae573d6000803e3d6000fd5b505050506040513d601f19601f820116820180604052508101906110d29190614a92565b50611b07565b6040518060400160405280600681526020017f555344544c500000000000000000000000000000000000000000000000000000815250805190602001208773ffffffffffffffffffffffffffffffffffffffff166306fdde036040518163ffffffff1660e01b815260040160006040518083038186803b15801561115b57600080fd5b505afa15801561116f573d6000803e3d6000fd5b505050506040513d6000823e3d601f19601f820116820180604052508101906111989190614c29565b8051906020012014156115d157606481601160008a73ffffffffffffffffffffffffffffffffffffffff1673ffffffffffffffffffffffffffffffffffffffff1681526020019081526020016000206000600160009054906101000a900473ffffffffffffffffffffffffffffffffffffffff1673ffffffffffffffffffffffffffffffffffffffff1673ffffffffffffffffffffffffffffffffffffffff1681526020019081526020016000205461125191906148d0565b61125b919061489f565b600881905550606481601160008a73ffffffffffffffffffffffffffffffffffffffff1673ffffffffffffffffffffffffffffffffffffffff16815260200190815260200160002060008673ffffffffffffffffffffffffffffffffffffffff1673ffffffffffffffffffffffffffffffffffffffff168152602001908152602001600020546112eb91906148d0565b6112f5919061489f565b6009819055508673ffffffffffffffffffffffffffffffffffffffff166323b872dd8689896040518463ffffffff1660e01b815260040161133893929190614c72565b602060405180830381600087803b15801561135257600080fd5b505af1158015611366573d6000803e3d6000fd5b505050506040513d601f19601f8201168201806040525081019061138a9190614a92565b508673ffffffffffffffffffffffffffffffffffffffff1663095ea7b385886040518363ffffffff1660e01b81526004016113c6929190614a31565b602060405180830381600087803b1580156113e057600080fd5b505af11580156113f4573d6000803e3d6000fd5b505050506040513d601f19601f820116820180604052508101906114189190614a92565b508673ffffffffffffffffffffffffffffffffffffffff16636161eb1888886040518363ffffffff1660e01b8152600401611454929190614a31565b600060405180830381600087803b15801561146e57600080fd5b505af1158015611482573d6000803e3d6000fd5b50505050600160009054906101000a900473ffffffffffffffffffffffffffffffffffffffff1673ffffffffffffffffffffffffffffffffffffffff166323b872dd85876008546040518463ffffffff1660e01b81526004016114e793929190614c72565b602060405180830381600087803b15801561150157600080fd5b505af1158015611515573d6000803e3d6000fd5b505050506040513d601f19601f820116820180604052508101906115399190614a92565b508273ffffffffffffffffffffffffffffffffffffffff166323b872dd85876009546040518463ffffffff1660e01b815260040161157993929190614c72565b602060405180830381600087803b15801561159357600080fd5b505af11580156115a7573d6000803e3d6000fd5b505050506040513d601f19601f820116820180604052508101906115cb9190614a92565b50611b06565b6040518060400160405280600581526020017f4554484c50000000000000000000000000000000000000000000000000000000815250805190602001208773ffffffffffffffffffffffffffffffffffffffff166306fdde036040518163ffffffff1660e01b815260040160006040518083038186803b15801561165457600080fd5b505afa158015611668573d6000803e3d6000fd5b505050506040513d6000823e3d601f19601f820116820180604052508101906116919190614c29565b805190602001201415611aca57606481601160008a73ffffffffffffffffffffffffffffffffffffffff1673ffffffffffffffffffffffffffffffffffffffff1681526020019081526020016000206000600260009054906101000a900473ffffffffffffffffffffffffffffffffffffffff1673ffffffffffffffffffffffffffffffffffffffff1673ffffffffffffffffffffffffffffffffffffffff1681526020019081526020016000205461174a91906148d0565b611754919061489f565b600881905550606481601160008a73ffffffffffffffffffffffffffffffffffffffff1673ffffffffffffffffffffffffffffffffffffffff16815260200190815260200160002060008673ffffffffffffffffffffffffffffffffffffffff1673ffffffffffffffffffffffffffffffffffffffff168152602001908152602001600020546117e491906148d0565b6117ee919061489f565b6009819055508673ffffffffffffffffffffffffffffffffffffffff166323b872dd8689896040518463ffffffff1660e01b815260040161183193929190614c72565b602060405180830381600087803b15801561184b57600080fd5b505af115801561185f573d6000803e3d6000fd5b505050506040513d601f19601f820116820180604052508101906118839190614a92565b508673ffffffffffffffffffffffffffffffffffffffff1663095ea7b385886040518363ffffffff1660e01b81526004016118bf929190614a31565b602060405180830381600087803b1580156118d957600080fd5b505af11580156118ed573d6000803e3d6000fd5b505050506040513d601f19601f820116820180604052508101906119119190614a92565b508673ffffffffffffffffffffffffffffffffffffffff16636161eb1888886040518363ffffffff1660e01b815260040161194d929190614a31565b600060405180830381600087803b15801561196757600080fd5b505af115801561197b573d6000803e3d6000fd5b50505050600260009054906101000a900473ffffffffffffffffffffffffffffffffffffffff1673ffffffffffffffffffffffffffffffffffffffff166323b872dd85876008546040518463ffffffff1660e01b81526004016119e093929190614c72565b602060405180830381600087803b1580156119fa57600080fd5b505af1158015611a0e573d6000803e3d6000fd5b505050506040513d601f19601f82011682018060405250810190611a329190614a92565b508273ffffffffffffffffffffffffffffffffffffffff166323b872dd85876009546040518463ffffffff1660e01b8152600401611a7293929190614c72565b602060405180830381600087803b158015611a8c57600080fd5b505af1158015611aa0573d6000803e3d6000fd5b505050506040513d601f19601f82011682018060405250810190611ac49190614a92565b50611b05565b6040517f08c379a0000000000000000000000000000000000000000000000000000000008152600401611afc90614cf5565b60405180910390fd5b5b5b50505050505050565b600a5481565b600d5481565b600080600854600954915091509091565b601060205282600052604060002060205281600052604060002060205280600052604060002060009250925050505481565b60008060008060008060085460095460075460008054906101000a900473ffffffffffffffffffffffffffffffffffffffff16600160009054906101000a900473ffffffffffffffffffffffffffffffffffffffff16600260009054906101000a900473ffffffffffffffffffffffffffffffffffffffff16955095509550955095509550909192939495565b600b5481565b600c5481565b6011602052816000526040600020602052806000526040600020600091509150505481565b818373ffffffffffffffffffffffffffffffffffffffff166318160ddd6040518163ffffffff1660e01b815260040160206040518083038186803b158015611c6457600080fd5b505afa158015611c78573d6000803e3d6000fd5b505050506040513d601f19601f82011682018060405250810190611c9c9190614696565b1015611cdd576040517f08c379a0000000000000000000000000000000000000000000000000000000008152600401611cd490614a11565b60405180910390fd5b600082600754611ced919061489f565b90506040518060400160405280600581526020017f4152424c50000000000000000000000000000000000000000000000000000000815250805190602001208473ffffffffffffffffffffffffffffffffffffffff166306fdde036040518163ffffffff1660e01b815260040160006040518083038186803b158015611d7257600080fd5b505afa158015611d86573d6000803e3d6000fd5b505050506040513d6000823e3d601f19601f82011682018060405250810190611daf9190614c29565b805190602001201415611efe5780601160008673ffffffffffffffffffffffffffffffffffffffff1673ffffffffffffffffffffffffffffffffffffffff16815260200190815260200160002060008060009054906101000a900473ffffffffffffffffffffffffffffffffffffffff1673ffffffffffffffffffffffffffffffffffffffff1673ffffffffffffffffffffffffffffffffffffffff16815260200190815260200160002054611e65919061489f565b60088190555080601160008673ffffffffffffffffffffffffffffffffffffffff1673ffffffffffffffffffffffffffffffffffffffff16815260200190815260200160002060008473ffffffffffffffffffffffffffffffffffffffff1673ffffffffffffffffffffffffffffffffffffffff16815260200190815260200160002054611ef3919061489f565b60098190555061235b565b6040518060400160405280600681526020017f555344544c500000000000000000000000000000000000000000000000000000815250805190602001208473ffffffffffffffffffffffffffffffffffffffff166306fdde036040518163ffffffff1660e01b815260040160006040518083038186803b158015611f8157600080fd5b505afa158015611f95573d6000803e3d6000fd5b505050506040513d6000823e3d601f19601f82011682018060405250810190611fbe9190614c29565b80519060200120141561210e5780601160008673ffffffffffffffffffffffffffffffffffffffff1673ffffffffffffffffffffffffffffffffffffffff1681526020019081526020016000206000600160009054906101000a900473ffffffffffffffffffffffffffffffffffffffff1673ffffffffffffffffffffffffffffffffffffffff1673ffffffffffffffffffffffffffffffffffffffff16815260200190815260200160002054612075919061489f565b60088190555080601160008673ffffffffffffffffffffffffffffffffffffffff1673ffffffffffffffffffffffffffffffffffffffff16815260200190815260200160002060008473ffffffffffffffffffffffffffffffffffffffff1673ffffffffffffffffffffffffffffffffffffffff16815260200190815260200160002054612103919061489f565b60098190555061235a565b6040518060400160405280600581526020017f4554484c50000000000000000000000000000000000000000000000000000000815250805190602001208473ffffffffffffffffffffffffffffffffffffffff166306fdde036040518163ffffffff1660e01b815260040160006040518083038186803b15801561219157600080fd5b505afa1580156121a5573d6000803e3d6000fd5b505050506040513d6000823e3d601f19601f820116820180604052508101906121ce9190614c29565b80519060200120141561231e5780601160008673ffffffffffffffffffffffffffffffffffffffff1673ffffffffffffffffffffffffffffffffffffffff1681526020019081526020016000206000600260009054906101000a900473ffffffffffffffffffffffffffffffffffffffff1673ffffffffffffffffffffffffffffffffffffffff1673ffffffffffffffffffffffffffffffffffffffff16815260200190815260200160002054612285919061489f565b60088190555080601160008673ffffffffffffffffffffffffffffffffffffffff1673ffffffffffffffffffffffffffffffffffffffff16815260200190815260200160002060008473ffffffffffffffffffffffffffffffffffffffff1673ffffffffffffffffffffffffffffffffffffffff16815260200190815260200160002054612313919061489f565b600981905550612359565b6040517f08c379a000000000000000000000000000000000000000000000000000000000815260040161235090614cf5565b60405180910390fd5b5b5b50505050565b6000808891508690508273ffffffffffffffffffffffffffffffffffffffff1663d1e9a5fd6040518163ffffffff1660e01b815260040160606040518083038186803b1580156123b057600080fd5b505afa1580156123c4573d6000803e3d6000fd5b505050506040513d601f19601f820116820180604052508101906123e89190614d2a565b6003600060046000600560008691906101000a81548173ffffffffffffffffffffffffffffffffffffffff021916908373ffffffffffffffffffffffffffffffffffffffff1602179055508591906101000a81548173ffffffffffffffffffffffffffffffffffffffff021916908373ffffffffffffffffffffffffffffffffffffffff1602179055508491906101000a81548173ffffffffffffffffffffffffffffffffffffffff021916908373ffffffffffffffffffffffffffffffffffffffff1602179055505050508173ffffffffffffffffffffffffffffffffffffffff1663095ea7b3858a6040518363ffffffff1660e01b81526004016124ef929190614a31565b602060405180830381600087803b15801561250957600080fd5b505af115801561251d573d6000803e3d6000fd5b505050506040513d601f19601f820116820180604052508101906125419190614a92565b508073ffffffffffffffffffffffffffffffffffffffff1663095ea7b385886040518363ffffffff1660e01b815260040161257d929190614a31565b602060405180830381600087803b15801561259757600080fd5b505af11580156125ab573d6000803e3d6000fd5b505050506040513d601f19601f820116820180604052508101906125cf9190614a92565b508173ffffffffffffffffffffffffffffffffffffffff166323b872dd86868b6040518463ffffffff1660e01b815260040161260d93929190614c72565b602060405180830381600087803b15801561262757600080fd5b505af115801561263b573d6000803e3d6000fd5b505050506040513d601f19601f8201168201806040525081019061265f9190614a92565b508073ffffffffffffffffffffffffffffffffffffffff166323b872dd8686896040518463ffffffff1660e01b815260040161269d93929190614c72565b602060405180830381600087803b1580156126b757600080fd5b505af11580156126cb573d6000803e3d6000fd5b505050506040513d601f19601f820116820180604052508101906126ef9190614a92565b506040518060400160405280600381526020017f4152420000000000000000000000000000000000000000000000000000000000815250805190602001208273ffffffffffffffffffffffffffffffffffffffff166306fdde036040518163ffffffff1660e01b815260040160006040518083038186803b15801561277357600080fd5b505afa158015612787573d6000803e3d6000fd5b505050506040513d6000823e3d601f19601f820116820180604052508101906127b09190614c29565b805190602001201415612d7057886000806101000a81548173ffffffffffffffffffffffffffffffffffffffff021916908373ffffffffffffffffffffffffffffffffffffffff16021790555087601060008773ffffffffffffffffffffffffffffffffffffffff1673ffffffffffffffffffffffffffffffffffffffff1681526020019081526020016000206000600360009054906101000a900473ffffffffffffffffffffffffffffffffffffffff1673ffffffffffffffffffffffffffffffffffffffff1673ffffffffffffffffffffffffffffffffffffffff16815260200190815260200160002060008b73ffffffffffffffffffffffffffffffffffffffff1673ffffffffffffffffffffffffffffffffffffffff16815260200190815260200160002060008282546128e8919061492a565b9250508190555085601060008773ffffffffffffffffffffffffffffffffffffffff1673ffffffffffffffffffffffffffffffffffffffff1681526020019081526020016000206000600360009054906101000a900473ffffffffffffffffffffffffffffffffffffffff1673ffffffffffffffffffffffffffffffffffffffff1673ffffffffffffffffffffffffffffffffffffffff16815260200190815260200160002060008973ffffffffffffffffffffffffffffffffffffffff1673ffffffffffffffffffffffffffffffffffffffff16815260200190815260200160002060008282546129da919061492a565b925050819055506000612ba58a601060008973ffffffffffffffffffffffffffffffffffffffff1673ffffffffffffffffffffffffffffffffffffffff1681526020019081526020016000206000600360009054906101000a900473ffffffffffffffffffffffffffffffffffffffff1673ffffffffffffffffffffffffffffffffffffffff1673ffffffffffffffffffffffffffffffffffffffff16815260200190815260200160002060008d73ffffffffffffffffffffffffffffffffffffffff1673ffffffffffffffffffffffffffffffffffffffff168152602001908152602001600020548a601060008b73ffffffffffffffffffffffffffffffffffffffff1673ffffffffffffffffffffffffffffffffffffffff1681526020019081526020016000206000600360009054906101000a900473ffffffffffffffffffffffffffffffffffffffff1673ffffffffffffffffffffffffffffffffffffffff1673ffffffffffffffffffffffffffffffffffffffff16815260200190815260200160002060008d73ffffffffffffffffffffffffffffffffffffffff1673ffffffffffffffffffffffffffffffffffffffff168152602001908152602001600020546102a2565b90508860116000600360009054906101000a900473ffffffffffffffffffffffffffffffffffffffff1673ffffffffffffffffffffffffffffffffffffffff1673ffffffffffffffffffffffffffffffffffffffff16815260200190815260200160002060008c73ffffffffffffffffffffffffffffffffffffffff1673ffffffffffffffffffffffffffffffffffffffff1681526020019081526020016000206000828254612c55919061492a565b925050819055508660116000600360009054906101000a900473ffffffffffffffffffffffffffffffffffffffff1673ffffffffffffffffffffffffffffffffffffffff1673ffffffffffffffffffffffffffffffffffffffff16815260200190815260200160002060008a73ffffffffffffffffffffffffffffffffffffffff1673ffffffffffffffffffffffffffffffffffffffff1681526020019081526020016000206000828254612d0a919061492a565b92505081905550612d3e8682600360009054906101000a900473ffffffffffffffffffffffffffffffffffffffff16613ce2565b670de0b6b3a764000081612d5291906148d0565b60076000828254612d63919061492a565b9250508190555050613bf9565b6040518060400160405280600481526020017f5553445400000000000000000000000000000000000000000000000000000000815250805190602001208273ffffffffffffffffffffffffffffffffffffffff166306fdde036040518163ffffffff1660e01b815260040160006040518083038186803b158015612df357600080fd5b505afa158015612e07573d6000803e3d6000fd5b505050506040513d6000823e3d601f19601f82011682018060405250810190612e309190614c29565b8051906020012014156133f15788600160006101000a81548173ffffffffffffffffffffffffffffffffffffffff021916908373ffffffffffffffffffffffffffffffffffffffff16021790555087601060008773ffffffffffffffffffffffffffffffffffffffff1673ffffffffffffffffffffffffffffffffffffffff1681526020019081526020016000206000600460009054906101000a900473ffffffffffffffffffffffffffffffffffffffff1673ffffffffffffffffffffffffffffffffffffffff1673ffffffffffffffffffffffffffffffffffffffff16815260200190815260200160002060008b73ffffffffffffffffffffffffffffffffffffffff1673ffffffffffffffffffffffffffffffffffffffff1681526020019081526020016000206000828254612f69919061492a565b9250508190555085601060008773ffffffffffffffffffffffffffffffffffffffff1673ffffffffffffffffffffffffffffffffffffffff1681526020019081526020016000206000600460009054906101000a900473ffffffffffffffffffffffffffffffffffffffff1673ffffffffffffffffffffffffffffffffffffffff1673ffffffffffffffffffffffffffffffffffffffff16815260200190815260200160002060008973ffffffffffffffffffffffffffffffffffffffff1673ffffffffffffffffffffffffffffffffffffffff168152602001908152602001600020600082825461305b919061492a565b9250508190555060006132268a601060008973ffffffffffffffffffffffffffffffffffffffff1673ffffffffffffffffffffffffffffffffffffffff1681526020019081526020016000206000600460009054906101000a900473ffffffffffffffffffffffffffffffffffffffff1673ffffffffffffffffffffffffffffffffffffffff1673ffffffffffffffffffffffffffffffffffffffff16815260200190815260200160002060008d73ffffffffffffffffffffffffffffffffffffffff1673ffffffffffffffffffffffffffffffffffffffff168152602001908152602001600020548a601060008b73ffffffffffffffffffffffffffffffffffffffff1673ffffffffffffffffffffffffffffffffffffffff1681526020019081526020016000206000600460009054906101000a900473ffffffffffffffffffffffffffffffffffffffff1673ffffffffffffffffffffffffffffffffffffffff1673ffffffffffffffffffffffffffffffffffffffff16815260200190815260200160002060008d73ffffffffffffffffffffffffffffffffffffffff1673ffffffffffffffffffffffffffffffffffffffff168152602001908152602001600020546102a2565b90508860116000600460009054906101000a900473ffffffffffffffffffffffffffffffffffffffff1673ffffffffffffffffffffffffffffffffffffffff1673ffffffffffffffffffffffffffffffffffffffff16815260200190815260200160002060008c73ffffffffffffffffffffffffffffffffffffffff1673ffffffffffffffffffffffffffffffffffffffff16815260200190815260200160002060008282546132d6919061492a565b925050819055508660116000600460009054906101000a900473ffffffffffffffffffffffffffffffffffffffff1673ffffffffffffffffffffffffffffffffffffffff1673ffffffffffffffffffffffffffffffffffffffff16815260200190815260200160002060008a73ffffffffffffffffffffffffffffffffffffffff1673ffffffffffffffffffffffffffffffffffffffff168152602001908152602001600020600082825461338b919061492a565b925050819055506133bf8682600460009054906101000a900473ffffffffffffffffffffffffffffffffffffffff16613eb8565b670de0b6b3a7640000816133d391906148d0565b600760008282546133e4919061492a565b9250508190555050613bf8565b6040518060400160405280600381526020017f4554480000000000000000000000000000000000000000000000000000000000815250805190602001208273ffffffffffffffffffffffffffffffffffffffff166306fdde036040518163ffffffff1660e01b815260040160006040518083038186803b15801561347457600080fd5b505afa158015613488573d6000803e3d6000fd5b505050506040513d6000823e3d601f19601f820116820180604052508101906134b19190614c29565b805190602001201415613bbc5788600260006101000a81548173ffffffffffffffffffffffffffffffffffffffff021916908373ffffffffffffffffffffffffffffffffffffffff16021790555087601060008773ffffffffffffffffffffffffffffffffffffffff1673ffffffffffffffffffffffffffffffffffffffff1681526020019081526020016000206000600560009054906101000a900473ffffffffffffffffffffffffffffffffffffffff1673ffffffffffffffffffffffffffffffffffffffff1673ffffffffffffffffffffffffffffffffffffffff16815260200190815260200160002060008b73ffffffffffffffffffffffffffffffffffffffff1673ffffffffffffffffffffffffffffffffffffffff16815260200190815260200160002060008282546135ea919061492a565b9250508190555085601060008773ffffffffffffffffffffffffffffffffffffffff1673ffffffffffffffffffffffffffffffffffffffff1681526020019081526020016000206000600560009054906101000a900473ffffffffffffffffffffffffffffffffffffffff1673ffffffffffffffffffffffffffffffffffffffff1673ffffffffffffffffffffffffffffffffffffffff16815260200190815260200160002060008973ffffffffffffffffffffffffffffffffffffffff1673ffffffffffffffffffffffffffffffffffffffff16815260200190815260200160002060008282546136dc919061492a565b9250508190555060006138a78a601060008973ffffffffffffffffffffffffffffffffffffffff1673ffffffffffffffffffffffffffffffffffffffff1681526020019081526020016000206000600560009054906101000a900473ffffffffffffffffffffffffffffffffffffffff1673ffffffffffffffffffffffffffffffffffffffff1673ffffffffffffffffffffffffffffffffffffffff16815260200190815260200160002060008d73ffffffffffffffffffffffffffffffffffffffff1673ffffffffffffffffffffffffffffffffffffffff168152602001908152602001600020548a601060008b73ffffffffffffffffffffffffffffffffffffffff1673ffffffffffffffffffffffffffffffffffffffff1681526020019081526020016000206000600560009054906101000a900473ffffffffffffffffffffffffffffffffffffffff1673ffffffffffffffffffffffffffffffffffffffff1673ffffffffffffffffffffffffffffffffffffffff16815260200190815260200160002060008d73ffffffffffffffffffffffffffffffffffffffff1673ffffffffffffffffffffffffffffffffffffffff168152602001908152602001600020546102a2565b90508860116000600560009054906101000a900473ffffffffffffffffffffffffffffffffffffffff1673ffffffffffffffffffffffffffffffffffffffff1673ffffffffffffffffffffffffffffffffffffffff16815260200190815260200160002060008c73ffffffffffffffffffffffffffffffffffffffff1673ffffffffffffffffffffffffffffffffffffffff1681526020019081526020016000206000828254613957919061492a565b925050819055508660116000600560009054906101000a900473ffffffffffffffffffffffffffffffffffffffff1673ffffffffffffffffffffffffffffffffffffffff1673ffffffffffffffffffffffffffffffffffffffff16815260200190815260200160002060008a73ffffffffffffffffffffffffffffffffffffffff1673ffffffffffffffffffffffffffffffffffffffff1681526020019081526020016000206000828254613a0c919061492a565b9250508190555060116000600560009054906101000a900473ffffffffffffffffffffffffffffffffffffffff1673ffffffffffffffffffffffffffffffffffffffff1673ffffffffffffffffffffffffffffffffffffffff16815260200190815260200160002060008b73ffffffffffffffffffffffffffffffffffffffff1673ffffffffffffffffffffffffffffffffffffffff16815260200190815260200160002054600e8190555060116000600560009054906101000a900473ffffffffffffffffffffffffffffffffffffffff1673ffffffffffffffffffffffffffffffffffffffff1673ffffffffffffffffffffffffffffffffffffffff16815260200190815260200160002060008973ffffffffffffffffffffffffffffffffffffffff1673ffffffffffffffffffffffffffffffffffffffff16815260200190815260200160002054600981905550613b8a8682600560009054906101000a900473ffffffffffffffffffffffffffffffffffffffff1661408e565b670de0b6b3a764000081613b9e91906148d0565b60076000828254613baf919061492a565b9250508190555050613bf7565b6040517f08c379a0000000000000000000000000000000000000000000000000000000008152600401613bee90614cf5565b60405180910390fd5b5b5b505050505050505050565b600080821415613c175760019050613c56565b60005b6000831115613c45578080613c2e90614d7d565b915050600a83613c3e919061489f565b9250613c1a565b600181613c529190614980565b9150505b919050565b600080821415613c6e5760009050613cdd565b60038211613c7f5760019050613cdd565b60006002600184613c90919061492a565b613c9a919061489f565b905060008390505b80821015613cd7578190506002828386613cbc919061489f565b613cc6919061492a565b613cd0919061489f565b9150613ca2565b80925050505b919050565b8073ffffffffffffffffffffffffffffffffffffffff1663a0712d68836040518263ffffffff1660e01b8152600401613d1b9190614382565b600060405180830381600087803b158015613d3557600080fd5b505af1158015613d49573d6000803e3d6000fd5b505050508073ffffffffffffffffffffffffffffffffffffffff1663095ea7b384670de0b6b3a764000085613d7e91906148d0565b6040518363ffffffff1660e01b8152600401613d9b929190614a31565b602060405180830381600087803b158015613db557600080fd5b505af1158015613dc9573d6000803e3d6000fd5b505050506040513d601f19601f82011682018060405250810190613ded9190614a92565b508073ffffffffffffffffffffffffffffffffffffffff166323b872dd600360009054906101000a900473ffffffffffffffffffffffffffffffffffffffff1685670de0b6b3a764000086613e4291906148d0565b6040518463ffffffff1660e01b8152600401613e6093929190614c72565b602060405180830381600087803b158015613e7a57600080fd5b505af1158015613e8e573d6000803e3d6000fd5b505050506040513d601f19601f82011682018060405250810190613eb29190614a92565b50505050565b8073ffffffffffffffffffffffffffffffffffffffff1663a0712d68836040518263ffffffff1660e01b8152600401613ef19190614382565b600060405180830381600087803b158015613f0b57600080fd5b505af1158015613f1f573d6000803e3d6000fd5b505050508073ffffffffffffffffffffffffffffffffffffffff1663095ea7b384670de0b6b3a764000085613f5491906148d0565b6040518363ffffffff1660e01b8152600401613f71929190614a31565b602060405180830381600087803b158015613f8b57600080fd5b505af1158015613f9f573d6000803e3d6000fd5b505050506040513d601f19601f82011682018060405250810190613fc39190614a92565b508073ffffffffffffffffffffffffffffffffffffffff166323b872dd600460009054906101000a900473ffffffffffffffffffffffffffffffffffffffff1685670de0b6b3a76400008661401891906148d0565b6040518463ffffffff1660e01b815260040161403693929190614c72565b602060405180830381600087803b15801561405057600080fd5b505af1158015614064573d6000803e3d6000fd5b505050506040513d601f19601f820116820180604052508101906140889190614a92565b50505050565b8073ffffffffffffffffffffffffffffffffffffffff1663a0712d68836040518263ffffffff1660e01b81526004016140c79190614382565b600060405180830381600087803b1580156140e157600080fd5b505af11580156140f5573d6000803e3d6000fd5b505050508073ffffffffffffffffffffffffffffffffffffffff1663095ea7b384670de0b6b3a76400008561412a91906148d0565b6040518363ffffffff1660e01b8152600401614147929190614a31565b602060405180830381600087803b15801561416157600080fd5b505af1158015614175573d6000803e3d6000fd5b505050506040513d601f19601f820116820180604052508101906141999190614a92565b508073ffffffffffffffffffffffffffffffffffffffff166323b872dd600560009054906101000a900473ffffffffffffffffffffffffffffffffffffffff1685670de0b6b3a7640000866141ee91906148d0565b6040518463ffffffff1660e01b815260040161420c93929190614c72565b602060405180830381600087803b15801561422657600080fd5b505af115801561423a573d6000803e3d6000fd5b505050506040513d601f19601f8201168201806040525081019061425e9190614a92565b50505050565b6000604051905090565b600080fd5b600080fd5b600073ffffffffffffffffffffffffffffffffffffffff82169050919050565b60006142a382614278565b9050919050565b6142b381614298565b81146142be57600080fd5b50565b6000813590506142d0816142aa565b92915050565b6000819050919050565b6142e9816142d6565b81146142f457600080fd5b50565b600081359050614306816142e0565b92915050565b600080600080608085870312156143265761432561426e565b5b6000614334878288016142c1565b9450506020614345878288016142f7565b9350506040614356878288016142c1565b9250506060614367878288016142f7565b91505092959194509250565b61437c816142d6565b82525050565b60006020820190506143976000830184614373565b92915050565b600080600080600060a086880312156143b9576143b861426e565b5b60006143c7888289016142c1565b95505060206143d8888289016142f7565b94505060406143e9888289016142c1565b93505060606143fa888289016142c1565b925050608061440b888289016142c1565b9150509295509295909350565b600060408201905061442d6000830185614373565b61443a6020830184614373565b9392505050565b60008060006060848603121561445a5761445961426e565b5b6000614468868287016142c1565b9350506020614479868287016142c1565b925050604061448a868287016142c1565b9150509250925092565b61449d81614298565b82525050565b600060c0820190506144b86000830189614373565b6144c56020830188614373565b6144d26040830187614373565b6144df6060830186614494565b6144ec6080830185614494565b6144f960a0830184614494565b979650505050505050565b6000806040838503121561451b5761451a61426e565b5b6000614529858286016142c1565b925050602061453a858286016142c1565b9150509250929050565b60008060006060848603121561455d5761455c61426e565b5b600061456b868287016142c1565b935050602061457c868287016142f7565b925050604061458d868287016142c1565b9150509250925092565b600080600080600080600060e0888a0312156145b6576145b561426e565b5b60006145c48a828b016142c1565b97505060206145d58a828b016142f7565b96505060406145e68a828b016142c1565b95505060606145f78a828b016142f7565b94505060806146088a828b016142c1565b93505060a06146198a828b016142c1565b92505060c061462a8a828b016142c1565b91505092959891949750929550565b60006020828403121561464f5761464e61426e565b5b600061465d848285016142f7565b91505092915050565b600060208201905061467b6000830184614494565b92915050565b600081519050614690816142e0565b92915050565b6000602082840312156146ac576146ab61426e565b5b60006146ba84828501614681565b91505092915050565b7f4e487b7100000000000000000000000000000000000000000000000000000000600052601160045260246000fd5b60008160011c9050919050565b6000808291508390505b600185111561474957808604811115614725576147246146c3565b5b60018516156147345780820291505b8081029050614742856146f2565b9450614709565b94509492505050565b600082614762576001905061481e565b81614770576000905061481e565b81600181146147865760028114614790576147bf565b600191505061481e565b60ff8411156147a2576147a16146c3565b5b8360020a9150848211156147b9576147b86146c3565b5b5061481e565b5060208310610133831016604e8410600b84101617156147f45782820a9050838111156147ef576147ee6146c3565b5b61481e565b61480184848460016146ff565b92509050818404811115614818576148176146c3565b5b81810290505b9392505050565b6000614830826142d6565b915061483b836142d6565b92506148687fffffffffffffffffffffffffffffffffffffffffffffffffffffffffffffffff8484614752565b905092915050565b7f4e487b7100000000000000000000000000000000000000000000000000000000600052601260045260246000fd5b60006148aa826142d6565b91506148b5836142d6565b9250826148c5576148c4614870565b5b828204905092915050565b60006148db826142d6565b91506148e6836142d6565b9250817fffffffffffffffffffffffffffffffffffffffffffffffffffffffffffffffff048311821515161561491f5761491e6146c3565b5b828202905092915050565b6000614935826142d6565b9150614940836142d6565b9250827fffffffffffffffffffffffffffffffffffffffffffffffffffffffffffffffff03821115614975576149746146c3565b5b828201905092915050565b600061498b826142d6565b9150614996836142d6565b9250828210156149a9576149a86146c3565b5b828203905092915050565b600082825260208201905092915050565b7f696e73756666696369656e74206c7020616d6f756e7400000000000000000000600082015250565b60006149fb6016836149b4565b9150614a06826149c5565b602082019050919050565b60006020820190508181036000830152614a2a816149ee565b9050919050565b6000604082019050614a466000830185614494565b614a536020830184614373565b9392505050565b60008115159050919050565b614a6f81614a5a565b8114614a7a57600080fd5b50565b600081519050614a8c81614a66565b92915050565b600060208284031215614aa857614aa761426e565b5b6000614ab684828501614a7d565b91505092915050565b600080fd5b600080fd5b6000601f19601f8301169050919050565b7f4e487b7100000000000000000000000000000000000000000000000000000000600052604160045260246000fd5b614b1282614ac9565b810181811067ffffffffffffffff82111715614b3157614b30614ada565b5b80604052505050565b6000614b44614264565b9050614b508282614b09565b919050565b600067ffffffffffffffff821115614b7057614b6f614ada565b5b614b7982614ac9565b9050602081019050919050565b60005b83811015614ba4578082015181840152602081019050614b89565b83811115614bb3576000848401525b50505050565b6000614bcc614bc784614b55565b614b3a565b905082815260208101848484011115614be857614be7614ac4565b5b614bf3848285614b86565b509392505050565b600082601f830112614c1057614c0f614abf565b5b8151614c20848260208601614bb9565b91505092915050565b600060208284031215614c3f57614c3e61426e565b5b600082015167ffffffffffffffff811115614c5d57614c5c614273565b5b614c6984828501614bfb565b91505092915050565b6000606082019050614c876000830186614494565b614c946020830185614494565b614ca16040830184614373565b949350505050565b7f556e737570706f7274656420746f6b656e000000000000000000000000000000600082015250565b6000614cdf6011836149b4565b9150614cea82614ca9565b602082019050919050565b60006020820190508181036000830152614d0e81614cd2565b9050919050565b600081519050614d24816142aa565b92915050565b600080600060608486031215614d4357614d4261426e565b5b6000614d5186828701614d15565b9350506020614d6286828701614d15565b9250506040614d7386828701614d15565b9150509250925092565b6000614d88826142d6565b91507fffffffffffffffffffffffffffffffffffffffffffffffffffffffffffffffff821415614dbb57614dba6146c3565b5b60018201905091905056fea2646970667358221220194d1649ab391ee676eb45889e707935582ef62217cb934138fb219e550641ca64736f6c63430008090033",
  "linkReferences": {},
  "deployedLinkReferences": {}
}