{
  "_format": "hh-sol-artifact-1",
  "contractName": "Liquid",
  "sourceName": "contracts/Liquid.sol",
  "abi": [
    {
      "inputs": [],
      "stateMutability": "nonpayable",
      "type": "constructor"
    },
    {
      "inputs": [
        {
          "internalType": "address",
          "name": "",
          "type": "address"
        },
        {
          "internalType": "address",
          "name": "",
          "type": "address"
        },
        {
          "internalType": "address",
          "name": "",
          "type": "address"
        }
      ],
      "name": "Accounts",
      "outputs": [
        {
          "internalType": "uint256",
          "name": "",
          "type": "uint256"
        }
      ],
      "stateMutability": "view",
      "type": "function"
    },
    {
      "inputs": [
        {
          "internalType": "address",
          "name": "",
          "type": "address"
        },
        {
          "internalType": "address",
          "name": "",
          "type": "address"
        }
      ],
      "name": "Lpcalc",
      "outputs": [
        {
          "internalType": "uint256",
          "name": "",
          "type": "uint256"
        }
      ],
      "stateMutability": "view",
      "type": "function"
    },
    {
      "inputs": [
        {
          "internalType": "address",
          "name": "_token1",
          "type": "address"
        },
        {
          "internalType": "uint256",
          "name": "amount1",
          "type": "uint256"
        },
        {
          "internalType": "address",
          "name": "_token2",
          "type": "address"
        },
        {
          "internalType": "uint256",
          "name": "amount2",
          "type": "uint256"
        }
      ],
      "name": "calclending",
      "outputs": [
        {
          "internalType": "uint256",
          "name": "",
          "type": "uint256"
        }
      ],
      "stateMutability": "nonpayable",
      "type": "function"
    },
    {
      "inputs": [],
      "name": "checkTest",
      "outputs": [
        {
          "internalType": "uint256",
          "name": "token1",
          "type": "uint256"
        },
        {
          "internalType": "uint256",
          "name": "asd1",
          "type": "uint256"
        },
        {
          "internalType": "uint256",
          "name": "lp",
          "type": "uint256"
        },
        {
          "internalType": "address",
          "name": "arbtoken",
          "type": "address"
        },
        {
          "internalType": "address",
          "name": "usdttoken",
          "type": "address"
        },
        {
          "internalType": "address",
          "name": "ethtoken",
          "type": "address"
        }
      ],
      "stateMutability": "view",
      "type": "function"
    },
    {
      "inputs": [],
      "name": "count3",
      "outputs": [
        {
          "internalType": "uint256",
          "name": "",
          "type": "uint256"
        }
      ],
      "stateMutability": "view",
      "type": "function"
    },
    {
      "inputs": [],
      "name": "count4",
      "outputs": [
        {
          "internalType": "uint256",
          "name": "",
          "type": "uint256"
        }
      ],
      "stateMutability": "view",
      "type": "function"
    },
    {
      "inputs": [
        {
          "internalType": "address",
          "name": "_lpaddress",
          "type": "address"
        },
        {
          "internalType": "uint256",
          "name": "_amount",
          "type": "uint256"
        },
        {
          "internalType": "address",
          "name": "_userAccount",
          "type": "address"
        },
        {
          "internalType": "address",
          "name": "_factoryAddress",
          "type": "address"
        },
        {
          "internalType": "address",
          "name": "_ASDAddress",
          "type": "address"
        }
      ],
      "name": "doRemoveLiquid",
      "outputs": [],
      "stateMutability": "nonpayable",
      "type": "function"
    },
    {
      "inputs": [
        {
          "internalType": "uint256",
          "name": "number",
          "type": "uint256"
        }
      ],
      "name": "getDigitCount",
      "outputs": [
        {
          "internalType": "uint256",
          "name": "",
          "type": "uint256"
        }
      ],
      "stateMutability": "pure",
      "type": "function"
    },
    {
      "inputs": [],
      "name": "lpcalc",
      "outputs": [
        {
          "internalType": "uint256",
          "name": "",
          "type": "uint256"
        }
      ],
      "stateMutability": "view",
      "type": "function"
    },
    {
      "inputs": [
        {
          "internalType": "address",
          "name": "_token1",
          "type": "address"
        },
        {
          "internalType": "uint256",
          "name": "amount1",
          "type": "uint256"
        },
        {
          "internalType": "address",
          "name": "_token2",
          "type": "address"
        },
        {
          "internalType": "uint256",
          "name": "amount2",
          "type": "uint256"
        },
        {
          "internalType": "address",
          "name": "_userAccount",
          "type": "address"
        },
        {
          "internalType": "address",
          "name": "_factoryAddress",
          "type": "address"
        },
        {
          "internalType": "address",
          "name": "_pairAddress",
          "type": "address"
        }
      ],
      "name": "makeLiquid",
      "outputs": [],
      "stateMutability": "nonpayable",
      "type": "function"
    },
    {
      "inputs": [],
      "name": "totalAmount",
      "outputs": [
        {
          "internalType": "uint256",
          "name": "",
          "type": "uint256"
        }
      ],
      "stateMutability": "view",
      "type": "function"
    }
  ],
  "bytecode": "0x608060405267016345785d8a0000600f5534801561001c57600080fd5b506145ca8061002c6000396000f3fe608060405234801561001057600080fd5b50600436106100a95760003560e01c8063607c94f011610071578063607c94f0146101665780637b1d829c146101895780638ad3d516146101a75780638e56dfd9146101c5578063d2dcb80b146101f5578063e319be0a14610211576100a9565b80630394fbc2146100ae57806308bac402146100de5780630f5d5117146100fa5780631a39d8ef1461011857806357ce515314610136575b600080fd5b6100c860048036038101906100c39190613b56565b610241565b6040516100d59190613bcc565b60405180910390f35b6100f860048036038101906100f39190613be7565b610a9e565b005b610102611aaf565b60405161010f9190613bcc565b60405180910390f35b610120611ab5565b60405161012d9190613bcc565b60405180910390f35b610150600480360381019061014b9190613c62565b611abb565b60405161015d9190613bcc565b60405180910390f35b61016e611aed565b60405161018096959493929190613cc4565b60405180910390f35b610191611b7a565b60405161019e9190613bcc565b60405180910390f35b6101af611b80565b6040516101bc9190613bcc565b60405180910390f35b6101df60048036038101906101da9190613d25565b611b86565b6040516101ec9190613bcc565b60405180910390f35b61020f600480360381019061020a9190613d65565b611bab565b005b61022b60048036038101906102269190613e07565b61344e565b6040516102389190613bcc565b60405180910390f35b6000808573ffffffffffffffffffffffffffffffffffffffff166370a08231306040518263ffffffff1660e01b815260040161027d9190613e34565b60206040518083038186803b15801561029557600080fd5b505afa1580156102a9573d6000803e3d6000fd5b505050506040513d601f19601f820116820180604052508101906102cd9190613e64565b118015610362575060008373ffffffffffffffffffffffffffffffffffffffff166370a08231306040518263ffffffff1660e01b81526004016103109190613e34565b60206040518083038186803b15801561032857600080fd5b505afa15801561033c573d6000803e3d6000fd5b505050506040513d601f19601f820116820180604052508101906103609190613e64565b115b156105ec5760006103fa8673ffffffffffffffffffffffffffffffffffffffff166370a08231306040518263ffffffff1660e01b81526004016103a59190613e34565b60206040518083038186803b1580156103bd57600080fd5b505afa1580156103d1573d6000803e3d6000fd5b505050506040513d601f19601f820116820180604052508101906103f59190613e64565b61344e565b9050600061048f8573ffffffffffffffffffffffffffffffffffffffff166370a08231306040518263ffffffff1660e01b815260040161043a9190613e34565b60206040518083038186803b15801561045257600080fd5b505afa158015610466573d6000803e3d6000fd5b505050506040513d601f19601f8201168201806040525081019061048a9190613e64565b61344e565b90506105e381600a6104a19190613ff3565b8673ffffffffffffffffffffffffffffffffffffffff166370a08231306040518263ffffffff1660e01b81526004016104da9190613e34565b60206040518083038186803b1580156104f257600080fd5b505afa158015610506573d6000803e3d6000fd5b505050506040513d601f19601f8201168201806040525081019061052a9190613e64565b610534919061406d565b83600a6105419190613ff3565b8973ffffffffffffffffffffffffffffffffffffffff166370a08231306040518263ffffffff1660e01b815260040161057a9190613e34565b60206040518083038186803b15801561059257600080fd5b505afa1580156105a6573d6000803e3d6000fd5b505050506040513d601f19601f820116820180604052508101906105ca9190613e64565b6105d4919061406d565b6105de919061409e565b6134a5565b60068190555050505b610688848673ffffffffffffffffffffffffffffffffffffffff166370a08231306040518263ffffffff1660e01b81526004016106299190613e34565b60206040518083038186803b15801561064157600080fd5b505afa158015610655573d6000803e3d6000fd5b505050506040513d601f19601f820116820180604052508101906106799190613e64565b61068391906140f8565b61344e565b600b8190555061072a828473ffffffffffffffffffffffffffffffffffffffff166370a08231306040518263ffffffff1660e01b81526004016106cb9190613e34565b60206040518083038186803b1580156106e357600080fd5b505afa1580156106f7573d6000803e3d6000fd5b505050506040513d601f19601f8201168201806040525081019061071b9190613e64565b61072591906140f8565b61344e565b600c81905550600c54600b5410156108d157600b54600c5461074c919061414e565b600a6107589190613ff3565b600c54600a6107679190613ff3565b838573ffffffffffffffffffffffffffffffffffffffff166370a08231306040518263ffffffff1660e01b81526004016107a19190613e34565b60206040518083038186803b1580156107b957600080fd5b505afa1580156107cd573d6000803e3d6000fd5b505050506040513d601f19601f820116820180604052508101906107f19190613e64565b6107fb91906140f8565b610805919061406d565b61080f919061409e565b600b54600a61081e9190613ff3565b858773ffffffffffffffffffffffffffffffffffffffff166370a08231306040518263ffffffff1660e01b81526004016108589190613e34565b60206040518083038186803b15801561087057600080fd5b505afa158015610884573d6000803e3d6000fd5b505050506040513d601f19601f820116820180604052508101906108a89190613e64565b6108b291906140f8565b6108bc919061406d565b6108c6919061409e565b600d81905550610a6f565b600c54600b541115610a6e57600c54600a6108ec9190613ff3565b828473ffffffffffffffffffffffffffffffffffffffff166370a08231306040518263ffffffff1660e01b81526004016109269190613e34565b60206040518083038186803b15801561093e57600080fd5b505afa158015610952573d6000803e3d6000fd5b505050506040513d601f19601f820116820180604052508101906109769190613e64565b61098091906140f8565b61098a919061406d565b600c54600b5461099a919061414e565b600a6109a69190613ff3565b600b54600a6109b59190613ff3565b868873ffffffffffffffffffffffffffffffffffffffff166370a08231306040518263ffffffff1660e01b81526004016109ef9190613e34565b60206040518083038186803b158015610a0757600080fd5b505afa158015610a1b573d6000803e3d6000fd5b505050506040513d601f19601f82011682018060405250810190610a3f9190613e64565b610a4991906140f8565b610a53919061406d565b610a5d919061409e565b610a67919061409e565b600d819055505b5b6000600654610a7f600d546134a5565b610a89919061414e565b905080600a8190555080915050949350505050565b838573ffffffffffffffffffffffffffffffffffffffff166318160ddd6040518163ffffffff1660e01b815260040160206040518083038186803b158015610ae557600080fd5b505afa158015610af9573d6000803e3d6000fd5b505050506040513d601f19601f82011682018060405250810190610b1d9190613e64565b1015610b5e576040517f08c379a0000000000000000000000000000000000000000000000000000000008152600401610b55906141df565b60405180910390fd5b8473ffffffffffffffffffffffffffffffffffffffff1663095ea7b383866040518363ffffffff1660e01b8152600401610b999291906141ff565b602060405180830381600087803b158015610bb357600080fd5b505af1158015610bc7573d6000803e3d6000fd5b505050506040513d601f19601f82011682018060405250810190610beb9190614260565b506000606485610bfb919061409e565b9050600060075482610c0d919061406d565b90506040518060400160405280600581526020017f4152424c50000000000000000000000000000000000000000000000000000000815250805190602001208773ffffffffffffffffffffffffffffffffffffffff166306fdde036040518163ffffffff1660e01b815260040160006040518083038186803b158015610c9257600080fd5b505afa158015610ca6573d6000803e3d6000fd5b505050506040513d6000823e3d601f19601f82011682018060405250810190610ccf91906143f7565b80519060200120141561107757606481601160008a73ffffffffffffffffffffffffffffffffffffffff1673ffffffffffffffffffffffffffffffffffffffff16815260200190815260200160002060008060009054906101000a900473ffffffffffffffffffffffffffffffffffffffff1673ffffffffffffffffffffffffffffffffffffffff1673ffffffffffffffffffffffffffffffffffffffff16815260200190815260200160002054610d87919061409e565b610d91919061406d565b600881905550606481601160008a73ffffffffffffffffffffffffffffffffffffffff1673ffffffffffffffffffffffffffffffffffffffff16815260200190815260200160002060008673ffffffffffffffffffffffffffffffffffffffff1673ffffffffffffffffffffffffffffffffffffffff16815260200190815260200160002054610e21919061409e565b610e2b919061406d565b6009819055508673ffffffffffffffffffffffffffffffffffffffff166323b872dd8689896040518463ffffffff1660e01b8152600401610e6e93929190614440565b602060405180830381600087803b158015610e8857600080fd5b505af1158015610e9c573d6000803e3d6000fd5b505050506040513d601f19601f82011682018060405250810190610ec09190614260565b508673ffffffffffffffffffffffffffffffffffffffff16636161eb1888886040518363ffffffff1660e01b8152600401610efc9291906141ff565b600060405180830381600087803b158015610f1657600080fd5b505af1158015610f2a573d6000803e3d6000fd5b5050505060008054906101000a900473ffffffffffffffffffffffffffffffffffffffff1673ffffffffffffffffffffffffffffffffffffffff166323b872dd85876008546040518463ffffffff1660e01b8152600401610f8d93929190614440565b602060405180830381600087803b158015610fa757600080fd5b505af1158015610fbb573d6000803e3d6000fd5b505050506040513d601f19601f82011682018060405250810190610fdf9190614260565b508273ffffffffffffffffffffffffffffffffffffffff166323b872dd85876009546040518463ffffffff1660e01b815260040161101f93929190614440565b602060405180830381600087803b15801561103957600080fd5b505af115801561104d573d6000803e3d6000fd5b505050506040513d601f19601f820116820180604052508101906110719190614260565b50611aa6565b6040518060400160405280600681526020017f555344544c500000000000000000000000000000000000000000000000000000815250805190602001208773ffffffffffffffffffffffffffffffffffffffff166306fdde036040518163ffffffff1660e01b815260040160006040518083038186803b1580156110fa57600080fd5b505afa15801561110e573d6000803e3d6000fd5b505050506040513d6000823e3d601f19601f8201168201806040525081019061113791906143f7565b80519060200120141561157057606481601160008a73ffffffffffffffffffffffffffffffffffffffff1673ffffffffffffffffffffffffffffffffffffffff1681526020019081526020016000206000600160009054906101000a900473ffffffffffffffffffffffffffffffffffffffff1673ffffffffffffffffffffffffffffffffffffffff1673ffffffffffffffffffffffffffffffffffffffff168152602001908152602001600020546111f0919061409e565b6111fa919061406d565b600881905550606481601160008a73ffffffffffffffffffffffffffffffffffffffff1673ffffffffffffffffffffffffffffffffffffffff16815260200190815260200160002060008673ffffffffffffffffffffffffffffffffffffffff1673ffffffffffffffffffffffffffffffffffffffff1681526020019081526020016000205461128a919061409e565b611294919061406d565b6009819055508673ffffffffffffffffffffffffffffffffffffffff166323b872dd8689896040518463ffffffff1660e01b81526004016112d793929190614440565b602060405180830381600087803b1580156112f157600080fd5b505af1158015611305573d6000803e3d6000fd5b505050506040513d601f19601f820116820180604052508101906113299190614260565b508673ffffffffffffffffffffffffffffffffffffffff1663095ea7b385886040518363ffffffff1660e01b81526004016113659291906141ff565b602060405180830381600087803b15801561137f57600080fd5b505af1158015611393573d6000803e3d6000fd5b505050506040513d601f19601f820116820180604052508101906113b79190614260565b508673ffffffffffffffffffffffffffffffffffffffff16636161eb1888886040518363ffffffff1660e01b81526004016113f39291906141ff565b600060405180830381600087803b15801561140d57600080fd5b505af1158015611421573d6000803e3d6000fd5b50505050600160009054906101000a900473ffffffffffffffffffffffffffffffffffffffff1673ffffffffffffffffffffffffffffffffffffffff166323b872dd85876008546040518463ffffffff1660e01b815260040161148693929190614440565b602060405180830381600087803b1580156114a057600080fd5b505af11580156114b4573d6000803e3d6000fd5b505050506040513d601f19601f820116820180604052508101906114d89190614260565b508273ffffffffffffffffffffffffffffffffffffffff166323b872dd85876009546040518463ffffffff1660e01b815260040161151893929190614440565b602060405180830381600087803b15801561153257600080fd5b505af1158015611546573d6000803e3d6000fd5b505050506040513d601f19601f8201168201806040525081019061156a9190614260565b50611aa5565b6040518060400160405280600581526020017f4554484c50000000000000000000000000000000000000000000000000000000815250805190602001208773ffffffffffffffffffffffffffffffffffffffff166306fdde036040518163ffffffff1660e01b815260040160006040518083038186803b1580156115f357600080fd5b505afa158015611607573d6000803e3d6000fd5b505050506040513d6000823e3d601f19601f8201168201806040525081019061163091906143f7565b805190602001201415611a6957606481601160008a73ffffffffffffffffffffffffffffffffffffffff1673ffffffffffffffffffffffffffffffffffffffff1681526020019081526020016000206000600260009054906101000a900473ffffffffffffffffffffffffffffffffffffffff1673ffffffffffffffffffffffffffffffffffffffff1673ffffffffffffffffffffffffffffffffffffffff168152602001908152602001600020546116e9919061409e565b6116f3919061406d565b600881905550606481601160008a73ffffffffffffffffffffffffffffffffffffffff1673ffffffffffffffffffffffffffffffffffffffff16815260200190815260200160002060008673ffffffffffffffffffffffffffffffffffffffff1673ffffffffffffffffffffffffffffffffffffffff16815260200190815260200160002054611783919061409e565b61178d919061406d565b6009819055508673ffffffffffffffffffffffffffffffffffffffff166323b872dd8689896040518463ffffffff1660e01b81526004016117d093929190614440565b602060405180830381600087803b1580156117ea57600080fd5b505af11580156117fe573d6000803e3d6000fd5b505050506040513d601f19601f820116820180604052508101906118229190614260565b508673ffffffffffffffffffffffffffffffffffffffff1663095ea7b385886040518363ffffffff1660e01b815260040161185e9291906141ff565b602060405180830381600087803b15801561187857600080fd5b505af115801561188c573d6000803e3d6000fd5b505050506040513d601f19601f820116820180604052508101906118b09190614260565b508673ffffffffffffffffffffffffffffffffffffffff16636161eb1888886040518363ffffffff1660e01b81526004016118ec9291906141ff565b600060405180830381600087803b15801561190657600080fd5b505af115801561191a573d6000803e3d6000fd5b50505050600260009054906101000a900473ffffffffffffffffffffffffffffffffffffffff1673ffffffffffffffffffffffffffffffffffffffff166323b872dd85876008546040518463ffffffff1660e01b815260040161197f93929190614440565b602060405180830381600087803b15801561199957600080fd5b505af11580156119ad573d6000803e3d6000fd5b505050506040513d601f19601f820116820180604052508101906119d19190614260565b508273ffffffffffffffffffffffffffffffffffffffff166323b872dd85876009546040518463ffffffff1660e01b8152600401611a1193929190614440565b602060405180830381600087803b158015611a2b57600080fd5b505af1158015611a3f573d6000803e3d6000fd5b505050506040513d601f19601f82011682018060405250810190611a639190614260565b50611aa4565b6040517f08c379a0000000000000000000000000000000000000000000000000000000008152600401611a9b906144c3565b60405180910390fd5b5b5b50505050505050565b600a5481565b600d5481565b601060205282600052604060002060205281600052604060002060205280600052604060002060009250925050505481565b60008060008060008060085460095460075460008054906101000a900473ffffffffffffffffffffffffffffffffffffffff16600160009054906101000a900473ffffffffffffffffffffffffffffffffffffffff16600260009054906101000a900473ffffffffffffffffffffffffffffffffffffffff16955095509550955095509550909192939495565b600b5481565b600c5481565b6011602052816000526040600020602052806000526040600020600091509150505481565b6000808891508690508273ffffffffffffffffffffffffffffffffffffffff1663d1e9a5fd6040518163ffffffff1660e01b815260040160606040518083038186803b158015611bfa57600080fd5b505afa158015611c0e573d6000803e3d6000fd5b505050506040513d601f19601f82011682018060405250810190611c3291906144f8565b6003600060046000600560008691906101000a81548173ffffffffffffffffffffffffffffffffffffffff021916908373ffffffffffffffffffffffffffffffffffffffff1602179055508591906101000a81548173ffffffffffffffffffffffffffffffffffffffff021916908373ffffffffffffffffffffffffffffffffffffffff1602179055508491906101000a81548173ffffffffffffffffffffffffffffffffffffffff021916908373ffffffffffffffffffffffffffffffffffffffff1602179055505050508173ffffffffffffffffffffffffffffffffffffffff1663095ea7b3858a6040518363ffffffff1660e01b8152600401611d399291906141ff565b602060405180830381600087803b158015611d5357600080fd5b505af1158015611d67573d6000803e3d6000fd5b505050506040513d601f19601f82011682018060405250810190611d8b9190614260565b508073ffffffffffffffffffffffffffffffffffffffff1663095ea7b385886040518363ffffffff1660e01b8152600401611dc79291906141ff565b602060405180830381600087803b158015611de157600080fd5b505af1158015611df5573d6000803e3d6000fd5b505050506040513d601f19601f82011682018060405250810190611e199190614260565b508173ffffffffffffffffffffffffffffffffffffffff166323b872dd86868b6040518463ffffffff1660e01b8152600401611e5793929190614440565b602060405180830381600087803b158015611e7157600080fd5b505af1158015611e85573d6000803e3d6000fd5b505050506040513d601f19601f82011682018060405250810190611ea99190614260565b508073ffffffffffffffffffffffffffffffffffffffff166323b872dd8686896040518463ffffffff1660e01b8152600401611ee793929190614440565b602060405180830381600087803b158015611f0157600080fd5b505af1158015611f15573d6000803e3d6000fd5b505050506040513d601f19601f82011682018060405250810190611f399190614260565b506040518060400160405280600381526020017f4152420000000000000000000000000000000000000000000000000000000000815250805190602001208273ffffffffffffffffffffffffffffffffffffffff166306fdde036040518163ffffffff1660e01b815260040160006040518083038186803b158015611fbd57600080fd5b505afa158015611fd1573d6000803e3d6000fd5b505050506040513d6000823e3d601f19601f82011682018060405250810190611ffa91906143f7565b8051906020012014156125ba57886000806101000a81548173ffffffffffffffffffffffffffffffffffffffff021916908373ffffffffffffffffffffffffffffffffffffffff16021790555087601060008773ffffffffffffffffffffffffffffffffffffffff1673ffffffffffffffffffffffffffffffffffffffff1681526020019081526020016000206000600360009054906101000a900473ffffffffffffffffffffffffffffffffffffffff1673ffffffffffffffffffffffffffffffffffffffff1673ffffffffffffffffffffffffffffffffffffffff16815260200190815260200160002060008b73ffffffffffffffffffffffffffffffffffffffff1673ffffffffffffffffffffffffffffffffffffffff168152602001908152602001600020600082825461213291906140f8565b9250508190555085601060008773ffffffffffffffffffffffffffffffffffffffff1673ffffffffffffffffffffffffffffffffffffffff1681526020019081526020016000206000600360009054906101000a900473ffffffffffffffffffffffffffffffffffffffff1673ffffffffffffffffffffffffffffffffffffffff1673ffffffffffffffffffffffffffffffffffffffff16815260200190815260200160002060008973ffffffffffffffffffffffffffffffffffffffff1673ffffffffffffffffffffffffffffffffffffffff168152602001908152602001600020600082825461222491906140f8565b9250508190555060006123ef8a601060008973ffffffffffffffffffffffffffffffffffffffff1673ffffffffffffffffffffffffffffffffffffffff1681526020019081526020016000206000600360009054906101000a900473ffffffffffffffffffffffffffffffffffffffff1673ffffffffffffffffffffffffffffffffffffffff1673ffffffffffffffffffffffffffffffffffffffff16815260200190815260200160002060008d73ffffffffffffffffffffffffffffffffffffffff1673ffffffffffffffffffffffffffffffffffffffff168152602001908152602001600020548a601060008b73ffffffffffffffffffffffffffffffffffffffff1673ffffffffffffffffffffffffffffffffffffffff1681526020019081526020016000206000600360009054906101000a900473ffffffffffffffffffffffffffffffffffffffff1673ffffffffffffffffffffffffffffffffffffffff1673ffffffffffffffffffffffffffffffffffffffff16815260200190815260200160002060008d73ffffffffffffffffffffffffffffffffffffffff1673ffffffffffffffffffffffffffffffffffffffff16815260200190815260200160002054610241565b90508860116000600360009054906101000a900473ffffffffffffffffffffffffffffffffffffffff1673ffffffffffffffffffffffffffffffffffffffff1673ffffffffffffffffffffffffffffffffffffffff16815260200190815260200160002060008c73ffffffffffffffffffffffffffffffffffffffff1673ffffffffffffffffffffffffffffffffffffffff168152602001908152602001600020600082825461249f91906140f8565b925050819055508660116000600360009054906101000a900473ffffffffffffffffffffffffffffffffffffffff1673ffffffffffffffffffffffffffffffffffffffff1673ffffffffffffffffffffffffffffffffffffffff16815260200190815260200160002060008a73ffffffffffffffffffffffffffffffffffffffff1673ffffffffffffffffffffffffffffffffffffffff168152602001908152602001600020600082825461255491906140f8565b925050819055506125888682600360009054906101000a900473ffffffffffffffffffffffffffffffffffffffff1661352c565b670de0b6b3a76400008161259c919061409e565b600760008282546125ad91906140f8565b9250508190555050613443565b6040518060400160405280600481526020017f5553445400000000000000000000000000000000000000000000000000000000815250805190602001208273ffffffffffffffffffffffffffffffffffffffff166306fdde036040518163ffffffff1660e01b815260040160006040518083038186803b15801561263d57600080fd5b505afa158015612651573d6000803e3d6000fd5b505050506040513d6000823e3d601f19601f8201168201806040525081019061267a91906143f7565b805190602001201415612c3b5788600160006101000a81548173ffffffffffffffffffffffffffffffffffffffff021916908373ffffffffffffffffffffffffffffffffffffffff16021790555087601060008773ffffffffffffffffffffffffffffffffffffffff1673ffffffffffffffffffffffffffffffffffffffff1681526020019081526020016000206000600460009054906101000a900473ffffffffffffffffffffffffffffffffffffffff1673ffffffffffffffffffffffffffffffffffffffff1673ffffffffffffffffffffffffffffffffffffffff16815260200190815260200160002060008b73ffffffffffffffffffffffffffffffffffffffff1673ffffffffffffffffffffffffffffffffffffffff16815260200190815260200160002060008282546127b391906140f8565b9250508190555085601060008773ffffffffffffffffffffffffffffffffffffffff1673ffffffffffffffffffffffffffffffffffffffff1681526020019081526020016000206000600460009054906101000a900473ffffffffffffffffffffffffffffffffffffffff1673ffffffffffffffffffffffffffffffffffffffff1673ffffffffffffffffffffffffffffffffffffffff16815260200190815260200160002060008973ffffffffffffffffffffffffffffffffffffffff1673ffffffffffffffffffffffffffffffffffffffff16815260200190815260200160002060008282546128a591906140f8565b925050819055506000612a708a601060008973ffffffffffffffffffffffffffffffffffffffff1673ffffffffffffffffffffffffffffffffffffffff1681526020019081526020016000206000600460009054906101000a900473ffffffffffffffffffffffffffffffffffffffff1673ffffffffffffffffffffffffffffffffffffffff1673ffffffffffffffffffffffffffffffffffffffff16815260200190815260200160002060008d73ffffffffffffffffffffffffffffffffffffffff1673ffffffffffffffffffffffffffffffffffffffff168152602001908152602001600020548a601060008b73ffffffffffffffffffffffffffffffffffffffff1673ffffffffffffffffffffffffffffffffffffffff1681526020019081526020016000206000600460009054906101000a900473ffffffffffffffffffffffffffffffffffffffff1673ffffffffffffffffffffffffffffffffffffffff1673ffffffffffffffffffffffffffffffffffffffff16815260200190815260200160002060008d73ffffffffffffffffffffffffffffffffffffffff1673ffffffffffffffffffffffffffffffffffffffff16815260200190815260200160002054610241565b90508860116000600460009054906101000a900473ffffffffffffffffffffffffffffffffffffffff1673ffffffffffffffffffffffffffffffffffffffff1673ffffffffffffffffffffffffffffffffffffffff16815260200190815260200160002060008c73ffffffffffffffffffffffffffffffffffffffff1673ffffffffffffffffffffffffffffffffffffffff1681526020019081526020016000206000828254612b2091906140f8565b925050819055508660116000600460009054906101000a900473ffffffffffffffffffffffffffffffffffffffff1673ffffffffffffffffffffffffffffffffffffffff1673ffffffffffffffffffffffffffffffffffffffff16815260200190815260200160002060008a73ffffffffffffffffffffffffffffffffffffffff1673ffffffffffffffffffffffffffffffffffffffff1681526020019081526020016000206000828254612bd591906140f8565b92505081905550612c098682600460009054906101000a900473ffffffffffffffffffffffffffffffffffffffff16613702565b670de0b6b3a764000081612c1d919061409e565b60076000828254612c2e91906140f8565b9250508190555050613442565b6040518060400160405280600381526020017f4554480000000000000000000000000000000000000000000000000000000000815250805190602001208273ffffffffffffffffffffffffffffffffffffffff166306fdde036040518163ffffffff1660e01b815260040160006040518083038186803b158015612cbe57600080fd5b505afa158015612cd2573d6000803e3d6000fd5b505050506040513d6000823e3d601f19601f82011682018060405250810190612cfb91906143f7565b8051906020012014156134065788600260006101000a81548173ffffffffffffffffffffffffffffffffffffffff021916908373ffffffffffffffffffffffffffffffffffffffff16021790555087601060008773ffffffffffffffffffffffffffffffffffffffff1673ffffffffffffffffffffffffffffffffffffffff1681526020019081526020016000206000600560009054906101000a900473ffffffffffffffffffffffffffffffffffffffff1673ffffffffffffffffffffffffffffffffffffffff1673ffffffffffffffffffffffffffffffffffffffff16815260200190815260200160002060008b73ffffffffffffffffffffffffffffffffffffffff1673ffffffffffffffffffffffffffffffffffffffff1681526020019081526020016000206000828254612e3491906140f8565b9250508190555085601060008773ffffffffffffffffffffffffffffffffffffffff1673ffffffffffffffffffffffffffffffffffffffff1681526020019081526020016000206000600560009054906101000a900473ffffffffffffffffffffffffffffffffffffffff1673ffffffffffffffffffffffffffffffffffffffff1673ffffffffffffffffffffffffffffffffffffffff16815260200190815260200160002060008973ffffffffffffffffffffffffffffffffffffffff1673ffffffffffffffffffffffffffffffffffffffff1681526020019081526020016000206000828254612f2691906140f8565b9250508190555060006130f18a601060008973ffffffffffffffffffffffffffffffffffffffff1673ffffffffffffffffffffffffffffffffffffffff1681526020019081526020016000206000600560009054906101000a900473ffffffffffffffffffffffffffffffffffffffff1673ffffffffffffffffffffffffffffffffffffffff1673ffffffffffffffffffffffffffffffffffffffff16815260200190815260200160002060008d73ffffffffffffffffffffffffffffffffffffffff1673ffffffffffffffffffffffffffffffffffffffff168152602001908152602001600020548a601060008b73ffffffffffffffffffffffffffffffffffffffff1673ffffffffffffffffffffffffffffffffffffffff1681526020019081526020016000206000600560009054906101000a900473ffffffffffffffffffffffffffffffffffffffff1673ffffffffffffffffffffffffffffffffffffffff1673ffffffffffffffffffffffffffffffffffffffff16815260200190815260200160002060008d73ffffffffffffffffffffffffffffffffffffffff1673ffffffffffffffffffffffffffffffffffffffff16815260200190815260200160002054610241565b90508860116000600560009054906101000a900473ffffffffffffffffffffffffffffffffffffffff1673ffffffffffffffffffffffffffffffffffffffff1673ffffffffffffffffffffffffffffffffffffffff16815260200190815260200160002060008c73ffffffffffffffffffffffffffffffffffffffff1673ffffffffffffffffffffffffffffffffffffffff16815260200190815260200160002060008282546131a191906140f8565b925050819055508660116000600560009054906101000a900473ffffffffffffffffffffffffffffffffffffffff1673ffffffffffffffffffffffffffffffffffffffff1673ffffffffffffffffffffffffffffffffffffffff16815260200190815260200160002060008a73ffffffffffffffffffffffffffffffffffffffff1673ffffffffffffffffffffffffffffffffffffffff168152602001908152602001600020600082825461325691906140f8565b9250508190555060116000600560009054906101000a900473ffffffffffffffffffffffffffffffffffffffff1673ffffffffffffffffffffffffffffffffffffffff1673ffffffffffffffffffffffffffffffffffffffff16815260200190815260200160002060008b73ffffffffffffffffffffffffffffffffffffffff1673ffffffffffffffffffffffffffffffffffffffff16815260200190815260200160002054600e8190555060116000600560009054906101000a900473ffffffffffffffffffffffffffffffffffffffff1673ffffffffffffffffffffffffffffffffffffffff1673ffffffffffffffffffffffffffffffffffffffff16815260200190815260200160002060008973ffffffffffffffffffffffffffffffffffffffff1673ffffffffffffffffffffffffffffffffffffffff168152602001908152602001600020546009819055506133d48682600560009054906101000a900473ffffffffffffffffffffffffffffffffffffffff166138d8565b670de0b6b3a7640000816133e8919061409e565b600760008282546133f991906140f8565b9250508190555050613441565b6040517f08c379a0000000000000000000000000000000000000000000000000000000008152600401613438906144c3565b60405180910390fd5b5b5b505050505050505050565b60008082141561346157600190506134a0565b60005b600083111561348f5780806134789061454b565b915050600a83613488919061406d565b9250613464565b60018161349c919061414e565b9150505b919050565b6000808214156134b85760009050613527565b600382116134c95760019050613527565b600060026001846134da91906140f8565b6134e4919061406d565b905060008390505b80821015613521578190506002828386613506919061406d565b61351091906140f8565b61351a919061406d565b91506134ec565b80925050505b919050565b8073ffffffffffffffffffffffffffffffffffffffff1663a0712d68836040518263ffffffff1660e01b81526004016135659190613bcc565b600060405180830381600087803b15801561357f57600080fd5b505af1158015613593573d6000803e3d6000fd5b505050508073ffffffffffffffffffffffffffffffffffffffff1663095ea7b384670de0b6b3a7640000856135c8919061409e565b6040518363ffffffff1660e01b81526004016135e59291906141ff565b602060405180830381600087803b1580156135ff57600080fd5b505af1158015613613573d6000803e3d6000fd5b505050506040513d601f19601f820116820180604052508101906136379190614260565b508073ffffffffffffffffffffffffffffffffffffffff166323b872dd600360009054906101000a900473ffffffffffffffffffffffffffffffffffffffff1685670de0b6b3a76400008661368c919061409e565b6040518463ffffffff1660e01b81526004016136aa93929190614440565b602060405180830381600087803b1580156136c457600080fd5b505af11580156136d8573d6000803e3d6000fd5b505050506040513d601f19601f820116820180604052508101906136fc9190614260565b50505050565b8073ffffffffffffffffffffffffffffffffffffffff1663a0712d68836040518263ffffffff1660e01b815260040161373b9190613bcc565b600060405180830381600087803b15801561375557600080fd5b505af1158015613769573d6000803e3d6000fd5b505050508073ffffffffffffffffffffffffffffffffffffffff1663095ea7b384670de0b6b3a76400008561379e919061409e565b6040518363ffffffff1660e01b81526004016137bb9291906141ff565b602060405180830381600087803b1580156137d557600080fd5b505af11580156137e9573d6000803e3d6000fd5b505050506040513d601f19601f8201168201806040525081019061380d9190614260565b508073ffffffffffffffffffffffffffffffffffffffff166323b872dd600460009054906101000a900473ffffffffffffffffffffffffffffffffffffffff1685670de0b6b3a764000086613862919061409e565b6040518463ffffffff1660e01b815260040161388093929190614440565b602060405180830381600087803b15801561389a57600080fd5b505af11580156138ae573d6000803e3d6000fd5b505050506040513d601f19601f820116820180604052508101906138d29190614260565b50505050565b8073ffffffffffffffffffffffffffffffffffffffff1663a0712d68836040518263ffffffff1660e01b81526004016139119190613bcc565b600060405180830381600087803b15801561392b57600080fd5b505af115801561393f573d6000803e3d6000fd5b505050508073ffffffffffffffffffffffffffffffffffffffff1663095ea7b384670de0b6b3a764000085613974919061409e565b6040518363ffffffff1660e01b81526004016139919291906141ff565b602060405180830381600087803b1580156139ab57600080fd5b505af11580156139bf573d6000803e3d6000fd5b505050506040513d601f19601f820116820180604052508101906139e39190614260565b508073ffffffffffffffffffffffffffffffffffffffff166323b872dd600560009054906101000a900473ffffffffffffffffffffffffffffffffffffffff1685670de0b6b3a764000086613a38919061409e565b6040518463ffffffff1660e01b8152600401613a5693929190614440565b602060405180830381600087803b158015613a7057600080fd5b505af1158015613a84573d6000803e3d6000fd5b505050506040513d601f19601f82011682018060405250810190613aa89190614260565b50505050565b6000604051905090565b600080fd5b600080fd5b600073ffffffffffffffffffffffffffffffffffffffff82169050919050565b6000613aed82613ac2565b9050919050565b613afd81613ae2565b8114613b0857600080fd5b50565b600081359050613b1a81613af4565b92915050565b6000819050919050565b613b3381613b20565b8114613b3e57600080fd5b50565b600081359050613b5081613b2a565b92915050565b60008060008060808587031215613b7057613b6f613ab8565b5b6000613b7e87828801613b0b565b9450506020613b8f87828801613b41565b9350506040613ba087828801613b0b565b9250506060613bb187828801613b41565b91505092959194509250565b613bc681613b20565b82525050565b6000602082019050613be16000830184613bbd565b92915050565b600080600080600060a08688031215613c0357613c02613ab8565b5b6000613c1188828901613b0b565b9550506020613c2288828901613b41565b9450506040613c3388828901613b0b565b9350506060613c4488828901613b0b565b9250506080613c5588828901613b0b565b9150509295509295909350565b600080600060608486031215613c7b57613c7a613ab8565b5b6000613c8986828701613b0b565b9350506020613c9a86828701613b0b565b9250506040613cab86828701613b0b565b9150509250925092565b613cbe81613ae2565b82525050565b600060c082019050613cd96000830189613bbd565b613ce66020830188613bbd565b613cf36040830187613bbd565b613d006060830186613cb5565b613d0d6080830185613cb5565b613d1a60a0830184613cb5565b979650505050505050565b60008060408385031215613d3c57613d3b613ab8565b5b6000613d4a85828601613b0b565b9250506020613d5b85828601613b0b565b9150509250929050565b600080600080600080600060e0888a031215613d8457613d83613ab8565b5b6000613d928a828b01613b0b565b9750506020613da38a828b01613b41565b9650506040613db48a828b01613b0b565b9550506060613dc58a828b01613b41565b9450506080613dd68a828b01613b0b565b93505060a0613de78a828b01613b0b565b92505060c0613df88a828b01613b0b565b91505092959891949750929550565b600060208284031215613e1d57613e1c613ab8565b5b6000613e2b84828501613b41565b91505092915050565b6000602082019050613e496000830184613cb5565b92915050565b600081519050613e5e81613b2a565b92915050565b600060208284031215613e7a57613e79613ab8565b5b6000613e8884828501613e4f565b91505092915050565b7f4e487b7100000000000000000000000000000000000000000000000000000000600052601160045260246000fd5b60008160011c9050919050565b6000808291508390505b6001851115613f1757808604811115613ef357613ef2613e91565b5b6001851615613f025780820291505b8081029050613f1085613ec0565b9450613ed7565b94509492505050565b600082613f305760019050613fec565b81613f3e5760009050613fec565b8160018114613f545760028114613f5e57613f8d565b6001915050613fec565b60ff841115613f7057613f6f613e91565b5b8360020a915084821115613f8757613f86613e91565b5b50613fec565b5060208310610133831016604e8410600b8410161715613fc25782820a905083811115613fbd57613fbc613e91565b5b613fec565b613fcf8484846001613ecd565b92509050818404811115613fe657613fe5613e91565b5b81810290505b9392505050565b6000613ffe82613b20565b915061400983613b20565b92506140367fffffffffffffffffffffffffffffffffffffffffffffffffffffffffffffffff8484613f20565b905092915050565b7f4e487b7100000000000000000000000000000000000000000000000000000000600052601260045260246000fd5b600061407882613b20565b915061408383613b20565b9250826140935761409261403e565b5b828204905092915050565b60006140a982613b20565b91506140b483613b20565b9250817fffffffffffffffffffffffffffffffffffffffffffffffffffffffffffffffff04831182151516156140ed576140ec613e91565b5b828202905092915050565b600061410382613b20565b915061410e83613b20565b9250827fffffffffffffffffffffffffffffffffffffffffffffffffffffffffffffffff0382111561414357614142613e91565b5b828201905092915050565b600061415982613b20565b915061416483613b20565b92508282101561417757614176613e91565b5b828203905092915050565b600082825260208201905092915050565b7f696e73756666696369656e74206c7020616d6f756e7400000000000000000000600082015250565b60006141c9601683614182565b91506141d482614193565b602082019050919050565b600060208201905081810360008301526141f8816141bc565b9050919050565b60006040820190506142146000830185613cb5565b6142216020830184613bbd565b9392505050565b60008115159050919050565b61423d81614228565b811461424857600080fd5b50565b60008151905061425a81614234565b92915050565b60006020828403121561427657614275613ab8565b5b60006142848482850161424b565b91505092915050565b600080fd5b600080fd5b6000601f19601f8301169050919050565b7f4e487b7100000000000000000000000000000000000000000000000000000000600052604160045260246000fd5b6142e082614297565b810181811067ffffffffffffffff821117156142ff576142fe6142a8565b5b80604052505050565b6000614312613aae565b905061431e82826142d7565b919050565b600067ffffffffffffffff82111561433e5761433d6142a8565b5b61434782614297565b9050602081019050919050565b60005b83811015614372578082015181840152602081019050614357565b83811115614381576000848401525b50505050565b600061439a61439584614323565b614308565b9050828152602081018484840111156143b6576143b5614292565b5b6143c1848285614354565b509392505050565b600082601f8301126143de576143dd61428d565b5b81516143ee848260208601614387565b91505092915050565b60006020828403121561440d5761440c613ab8565b5b600082015167ffffffffffffffff81111561442b5761442a613abd565b5b614437848285016143c9565b91505092915050565b60006060820190506144556000830186613cb5565b6144626020830185613cb5565b61446f6040830184613bbd565b949350505050565b7f556e737570706f7274656420746f6b656e000000000000000000000000000000600082015250565b60006144ad601183614182565b91506144b882614477565b602082019050919050565b600060208201905081810360008301526144dc816144a0565b9050919050565b6000815190506144f281613af4565b92915050565b60008060006060848603121561451157614510613ab8565b5b600061451f868287016144e3565b9350506020614530868287016144e3565b9250506040614541868287016144e3565b9150509250925092565b600061455682613b20565b91507fffffffffffffffffffffffffffffffffffffffffffffffffffffffffffffffff82141561458957614588613e91565b5b60018201905091905056fea26469706673582212205b71b7c0ac495d3a4b11f08c664338d083bbfcdea865b3f57079607c201f7d0b64736f6c63430008090033",
  "linkReferences": {},
  "deployedLinkReferences": {}
}