{
  "_format": "hh-sol-artifact-1",
  "contractName": "Factory_v1",
  "sourceName": "contracts/Factory_v1.sol",
  "abi": [
    {
      "inputs": [
        {
          "internalType": "address",
          "name": "_deployAddress",
          "type": "address"
        },
        {
          "internalType": "address",
          "name": "_sDeployAddress",
          "type": "address"
        },
        {
          "internalType": "address",
          "name": "_ETHtokenAddress",
          "type": "address"
        }
      ],
      "stateMutability": "nonpayable",
      "type": "constructor"
    },
    {
      "anonymous": false,
      "inputs": [
        {
          "indexed": false,
          "internalType": "uint256",
          "name": "tokenTotalLp",
          "type": "uint256"
        }
      ],
      "name": "CalcLendingEvent",
      "type": "event"
    },
    {
      "inputs": [],
      "name": "ARBtokenAddress",
      "outputs": [
        {
          "internalType": "address",
          "name": "",
          "type": "address"
        }
      ],
      "stateMutability": "view",
      "type": "function"
    },
    {
      "inputs": [],
      "name": "ASDtokenAddress",
      "outputs": [
        {
          "internalType": "address",
          "name": "",
          "type": "address"
        }
      ],
      "stateMutability": "view",
      "type": "function"
    },
    {
      "inputs": [],
      "name": "ArbLpLv",
      "outputs": [
        {
          "internalType": "uint256",
          "name": "",
          "type": "uint256"
        }
      ],
      "stateMutability": "view",
      "type": "function"
    },
    {
      "inputs": [],
      "name": "ArbLpaddress",
      "outputs": [
        {
          "internalType": "address",
          "name": "",
          "type": "address"
        }
      ],
      "stateMutability": "view",
      "type": "function"
    },
    {
      "inputs": [],
      "name": "ArbPrice",
      "outputs": [
        {
          "internalType": "uint256",
          "name": "",
          "type": "uint256"
        }
      ],
      "stateMutability": "view",
      "type": "function"
    },
    {
      "inputs": [],
      "name": "ArbpoolLv",
      "outputs": [
        {
          "internalType": "uint256",
          "name": "",
          "type": "uint256"
        }
      ],
      "stateMutability": "view",
      "type": "function"
    },
    {
      "inputs": [],
      "name": "ETHtokenAddress",
      "outputs": [
        {
          "internalType": "address",
          "name": "",
          "type": "address"
        }
      ],
      "stateMutability": "view",
      "type": "function"
    },
    {
      "inputs": [],
      "name": "EthLpLv",
      "outputs": [
        {
          "internalType": "uint256",
          "name": "",
          "type": "uint256"
        }
      ],
      "stateMutability": "view",
      "type": "function"
    },
    {
      "inputs": [],
      "name": "EthLpaddress",
      "outputs": [
        {
          "internalType": "address",
          "name": "",
          "type": "address"
        }
      ],
      "stateMutability": "view",
      "type": "function"
    },
    {
      "inputs": [],
      "name": "EthPrice",
      "outputs": [
        {
          "internalType": "uint256",
          "name": "",
          "type": "uint256"
        }
      ],
      "stateMutability": "view",
      "type": "function"
    },
    {
      "inputs": [],
      "name": "EthpoolLv",
      "outputs": [
        {
          "internalType": "uint256",
          "name": "",
          "type": "uint256"
        }
      ],
      "stateMutability": "view",
      "type": "function"
    },
    {
      "inputs": [
        {
          "internalType": "address",
          "name": "_differLptoken",
          "type": "address"
        },
        {
          "internalType": "uint256",
          "name": "_amount",
          "type": "uint256"
        },
        {
          "internalType": "uint256",
          "name": "month",
          "type": "uint256"
        }
      ],
      "name": "LpStaking",
      "outputs": [],
      "stateMutability": "nonpayable",
      "type": "function"
    },
    {
      "inputs": [
        {
          "internalType": "address",
          "name": "",
          "type": "address"
        }
      ],
      "name": "LvContents",
      "outputs": [
        {
          "internalType": "uint256",
          "name": "poolLv",
          "type": "uint256"
        },
        {
          "internalType": "uint256",
          "name": "LptokenLv",
          "type": "uint256"
        }
      ],
      "stateMutability": "view",
      "type": "function"
    },
    {
      "inputs": [],
      "name": "USDTtokenAddress",
      "outputs": [
        {
          "internalType": "address",
          "name": "",
          "type": "address"
        }
      ],
      "stateMutability": "view",
      "type": "function"
    },
    {
      "inputs": [],
      "name": "UsdtLpLv",
      "outputs": [
        {
          "internalType": "uint256",
          "name": "",
          "type": "uint256"
        }
      ],
      "stateMutability": "view",
      "type": "function"
    },
    {
      "inputs": [],
      "name": "UsdtLpaddress",
      "outputs": [
        {
          "internalType": "address",
          "name": "",
          "type": "address"
        }
      ],
      "stateMutability": "view",
      "type": "function"
    },
    {
      "inputs": [],
      "name": "UsdtPrice",
      "outputs": [
        {
          "internalType": "uint256",
          "name": "",
          "type": "uint256"
        }
      ],
      "stateMutability": "view",
      "type": "function"
    },
    {
      "inputs": [],
      "name": "UsdtpoolLv",
      "outputs": [
        {
          "internalType": "uint256",
          "name": "",
          "type": "uint256"
        }
      ],
      "stateMutability": "view",
      "type": "function"
    },
    {
      "inputs": [],
      "name": "VASDtokenAddress",
      "outputs": [
        {
          "internalType": "address",
          "name": "",
          "type": "address"
        }
      ],
      "stateMutability": "view",
      "type": "function"
    },
    {
      "inputs": [
        {
          "internalType": "address",
          "name": "_differentToken",
          "type": "address"
        },
        {
          "internalType": "uint256",
          "name": "_amount1",
          "type": "uint256"
        },
        {
          "internalType": "address",
          "name": "_AsdToken",
          "type": "address"
        },
        {
          "internalType": "uint256",
          "name": "_amount2",
          "type": "uint256"
        }
      ],
      "name": "addLiquid_1",
      "outputs": [],
      "stateMutability": "nonpayable",
      "type": "function"
    },
    {
      "inputs": [],
      "name": "backAmount",
      "outputs": [
        {
          "internalType": "uint256",
          "name": "",
          "type": "uint256"
        }
      ],
      "stateMutability": "view",
      "type": "function"
    },
    {
      "inputs": [],
      "name": "buyToken",
      "outputs": [],
      "stateMutability": "payable",
      "type": "function"
    },
    {
      "inputs": [],
      "name": "checkPool",
      "outputs": [
        {
          "internalType": "address",
          "name": "",
          "type": "address"
        },
        {
          "internalType": "address",
          "name": "",
          "type": "address"
        },
        {
          "internalType": "address",
          "name": "",
          "type": "address"
        }
      ],
      "stateMutability": "view",
      "type": "function"
    },
    {
      "inputs": [
        {
          "internalType": "address",
          "name": "_randomAddress",
          "type": "address"
        }
      ],
      "name": "checkToken",
      "outputs": [
        {
          "internalType": "uint256",
          "name": "",
          "type": "uint256"
        }
      ],
      "stateMutability": "view",
      "type": "function"
    },
    {
      "inputs": [
        {
          "internalType": "address",
          "name": "_differLp",
          "type": "address"
        },
        {
          "internalType": "address",
          "name": "_ArbAddress",
          "type": "address"
        },
        {
          "internalType": "address",
          "name": "_UsdtAddress",
          "type": "address"
        },
        {
          "internalType": "address",
          "name": "_EthAddress",
          "type": "address"
        }
      ],
      "name": "claimFee",
      "outputs": [],
      "stateMutability": "nonpayable",
      "type": "function"
    },
    {
      "inputs": [
        {
          "internalType": "address",
          "name": "_differentToken",
          "type": "address"
        },
        {
          "internalType": "address",
          "name": "_AsdToken",
          "type": "address"
        }
      ],
      "name": "createPool",
      "outputs": [],
      "stateMutability": "nonpayable",
      "type": "function"
    },
    {
      "inputs": [],
      "name": "factoryAddress",
      "outputs": [
        {
          "internalType": "address",
          "name": "",
          "type": "address"
        }
      ],
      "stateMutability": "view",
      "type": "function"
    },
    {
      "inputs": [],
      "name": "factoryLevel",
      "outputs": [
        {
          "internalType": "uint256",
          "name": "",
          "type": "uint256"
        }
      ],
      "stateMutability": "view",
      "type": "function"
    },
    {
      "inputs": [],
      "name": "isPossible",
      "outputs": [
        {
          "internalType": "bool",
          "name": "",
          "type": "bool"
        }
      ],
      "stateMutability": "view",
      "type": "function"
    },
    {
      "inputs": [],
      "name": "liquidAddress",
      "outputs": [
        {
          "internalType": "address",
          "name": "",
          "type": "address"
        }
      ],
      "stateMutability": "view",
      "type": "function"
    },
    {
      "inputs": [],
      "name": "lqAmountARB",
      "outputs": [
        {
          "internalType": "uint256",
          "name": "",
          "type": "uint256"
        }
      ],
      "stateMutability": "view",
      "type": "function"
    },
    {
      "inputs": [],
      "name": "lqAmountASD",
      "outputs": [
        {
          "internalType": "uint256",
          "name": "",
          "type": "uint256"
        }
      ],
      "stateMutability": "view",
      "type": "function"
    },
    {
      "inputs": [],
      "name": "lqAmountETH",
      "outputs": [
        {
          "internalType": "uint256",
          "name": "",
          "type": "uint256"
        }
      ],
      "stateMutability": "view",
      "type": "function"
    },
    {
      "inputs": [],
      "name": "lqAmountUSDT",
      "outputs": [
        {
          "internalType": "uint256",
          "name": "",
          "type": "uint256"
        }
      ],
      "stateMutability": "view",
      "type": "function"
    },
    {
      "inputs": [],
      "name": "pairAddress",
      "outputs": [
        {
          "internalType": "address",
          "name": "",
          "type": "address"
        }
      ],
      "stateMutability": "view",
      "type": "function"
    },
    {
      "inputs": [],
      "name": "poolAddress",
      "outputs": [
        {
          "internalType": "address",
          "name": "",
          "type": "address"
        }
      ],
      "stateMutability": "view",
      "type": "function"
    },
    {
      "inputs": [
        {
          "internalType": "address",
          "name": "_Lptoken",
          "type": "address"
        },
        {
          "internalType": "uint256",
          "name": "_level",
          "type": "uint256"
        }
      ],
      "name": "poolLvup",
      "outputs": [],
      "stateMutability": "nonpayable",
      "type": "function"
    },
    {
      "inputs": [
        {
          "internalType": "address",
          "name": "_ETHtokenAddress",
          "type": "address"
        },
        {
          "internalType": "uint256",
          "name": "_amount",
          "type": "uint256"
        }
      ],
      "name": "refundToken",
      "outputs": [],
      "stateMutability": "nonpayable",
      "type": "function"
    },
    {
      "inputs": [],
      "name": "setPrice",
      "outputs": [],
      "stateMutability": "nonpayable",
      "type": "function"
    },
    {
      "inputs": [],
      "name": "stakingAddress",
      "outputs": [
        {
          "internalType": "address",
          "name": "",
          "type": "address"
        }
      ],
      "stateMutability": "view",
      "type": "function"
    },
    {
      "inputs": [],
      "name": "swapAddress",
      "outputs": [
        {
          "internalType": "address",
          "name": "",
          "type": "address"
        }
      ],
      "stateMutability": "view",
      "type": "function"
    },
    {
      "inputs": [
        {
          "internalType": "address",
          "name": "_diffrentToken",
          "type": "address"
        },
        {
          "internalType": "address",
          "name": "_AsdToken",
          "type": "address"
        },
        {
          "internalType": "uint256",
          "name": "_amount",
          "type": "uint256"
        }
      ],
      "name": "swapToken",
      "outputs": [],
      "stateMutability": "nonpayable",
      "type": "function"
    },
    {
      "inputs": [],
      "name": "taxAddress",
      "outputs": [
        {
          "internalType": "address",
          "name": "",
          "type": "address"
        }
      ],
      "stateMutability": "view",
      "type": "function"
    },
    {
      "inputs": [
        {
          "internalType": "address",
          "name": "_Lptoken",
          "type": "address"
        },
        {
          "internalType": "uint256",
          "name": "_level",
          "type": "uint256"
        }
      ],
      "name": "tokenLvManagement",
      "outputs": [],
      "stateMutability": "nonpayable",
      "type": "function"
    },
    {
      "inputs": [
        {
          "internalType": "address",
          "name": "_differLpToken",
          "type": "address"
        },
        {
          "internalType": "uint256",
          "name": "_amount",
          "type": "uint256"
        },
        {
          "internalType": "address",
          "name": "_AsdToken",
          "type": "address"
        }
      ],
      "name": "withDrawLiquid",
      "outputs": [],
      "stateMutability": "nonpayable",
      "type": "function"
    },
    {
      "inputs": [],
      "name": "withDrawStaking",
      "outputs": [],
      "stateMutability": "nonpayable",
      "type": "function"
    }
  ],
  "bytecode": "0x60806040523480156200001157600080fd5b5060405162006b3e38038062006b3e833981810160405281019062000037919062000533565b30600260006101000a81548173ffffffffffffffffffffffffffffffffffffffff021916908373ffffffffffffffffffffffffffffffffffffffff1602179055508282826040516200008990620004bb565b6200009793929190620005a0565b604051809103906000f080158015620000b4573d6000803e3d6000fd5b50601f60016101000a81548173ffffffffffffffffffffffffffffffffffffffff021916908373ffffffffffffffffffffffffffffffffffffffff160217905550601f60019054906101000a900473ffffffffffffffffffffffffffffffffffffffff16600b60006101000a81548173ffffffffffffffffffffffffffffffffffffffff021916908373ffffffffffffffffffffffffffffffffffffffff1602179055508173ffffffffffffffffffffffffffffffffffffffff16639d76ea586040518163ffffffff1660e01b815260040160206040518083038186803b1580156200019f57600080fd5b505afa158015620001b4573d6000803e3d6000fd5b505050506040513d601f19601f82011682018060405250810190620001da9190620005dd565b600760006101000a81548173ffffffffffffffffffffffffffffffffffffffff021916908373ffffffffffffffffffffffffffffffffffffffff1602179055508273ffffffffffffffffffffffffffffffffffffffff1663ee136a566040518163ffffffff1660e01b815260040160606040518083038186803b1580156200026157600080fd5b505afa15801562000276573d6000803e3d6000fd5b505050506040513d601f19601f820116820180604052508101906200029c919062000533565b6008600060096000600a60008691906101000a81548173ffffffffffffffffffffffffffffffffffffffff021916908373ffffffffffffffffffffffffffffffffffffffff1602179055508591906101000a81548173ffffffffffffffffffffffffffffffffffffffff021916908373ffffffffffffffffffffffffffffffffffffffff1602179055508491906101000a81548173ffffffffffffffffffffffffffffffffffffffff021916908373ffffffffffffffffffffffffffffffffffffffff1602179055505050508173ffffffffffffffffffffffffffffffffffffffff1663b470e8e86040518163ffffffff1660e01b8152600401604080518083038186803b158015620003ae57600080fd5b505afa158015620003c3573d6000803e3d6000fd5b505050506040513d601f19601f82011682018060405250810190620003e991906200060f565b600c6000600d60008491906101000a81548173ffffffffffffffffffffffffffffffffffffffff021916908373ffffffffffffffffffffffffffffffffffffffff1602179055508391906101000a81548173ffffffffffffffffffffffffffffffffffffffff021916908373ffffffffffffffffffffffffffffffffffffffff160217905550505080600560006101000a81548173ffffffffffffffffffffffffffffffffffffffff021916908373ffffffffffffffffffffffffffffffffffffffff16021790555050505062000656565b612dc48062003d7a83390190565b600080fd5b600073ffffffffffffffffffffffffffffffffffffffff82169050919050565b6000620004fb82620004ce565b9050919050565b6200050d81620004ee565b81146200051957600080fd5b50565b6000815190506200052d8162000502565b92915050565b6000806000606084860312156200054f576200054e620004c9565b5b60006200055f868287016200051c565b935050602062000572868287016200051c565b925050604062000585868287016200051c565b9150509250925092565b6200059a81620004ee565b82525050565b6000606082019050620005b760008301866200058f565b620005c660208301856200058f565b620005d560408301846200058f565b949350505050565b600060208284031215620005f657620005f5620004c9565b5b600062000606848285016200051c565b91505092915050565b60008060408385031215620006295762000628620004c9565b5b600062000639858286016200051c565b92505060206200064c858286016200051c565b9150509250929050565b61371480620006666000396000f3fe60806040526004361061027c5760003560e01c806373da26181161014f578063b513af58116100c1578063e34336151161007a578063e3433615146108e4578063e41e06b61461090d578063ebcde5f314610936578063f1880b2414610961578063fcc617181461099e578063ff7698c5146109c95761027c565b8063b513af58146107f8578063b7bda68f14610823578063cfcad8691461084e578063d7b4be2414610877578063da7e0582146108a2578063da93d0d1146108cd5761027c565b8063966dae0e11610113578063966dae0e1461071b5780639a335b20146107465780639e493d2d1461076f578063a482171914610798578063a8b08982146107a2578063aca0a592146107cd5761027c565b806373da26181461065a578063741ac304146106835780637afb892e146106ae57806380f6d782146106d957806393924d3c146107045761027c565b80634627cf86116101f35780635ced16d2116101ac5780635ced16d21461055a5780635ec976b91461058557806360564f36146105b05780636f056b99146105db57806371b881b71461060457806371dc44a51461062f5761027c565b80634627cf86146104565780634713b784146104815780634771218a146104ac578063492f924f146104d95780634aa006e0146105045780635572eab91461052f5761027c565b80631d15546d116102455780631d15546d146103565780632cc812bc146103815780633d1b719f146103ac5780633f2699d0146103d7578063436d41721461040057806343d537ce1461042b5761027c565b8062b210f61461028157806308d4d479146102ac5780630c0a7630146102d7578063169f97ae146103005780631755ff211461032b575b600080fd5b34801561028d57600080fd5b50610296610a07565b6040516102a39190612b7d565b60405180910390f35b3480156102b857600080fd5b506102c1610a0d565b6040516102ce9190612b7d565b60405180910390f35b3480156102e357600080fd5b506102fe60048036038101906102f99190612c36565b610a13565b005b34801561030c57600080fd5b50610315610ad5565b6040516103229190612c98565b60405180910390f35b34801561033757600080fd5b50610340610afb565b60405161034d9190612c98565b60405180910390f35b34801561036257600080fd5b5061036b610b21565b6040516103789190612c98565b60405180910390f35b34801561038d57600080fd5b50610396610b47565b6040516103a39190612b7d565b60405180910390f35b3480156103b857600080fd5b506103c1610b4d565b6040516103ce9190612c98565b60405180910390f35b3480156103e357600080fd5b506103fe60048036038101906103f99190612cb3565b610b73565b005b34801561040c57600080fd5b50610415610eb7565b6040516104229190612b7d565b60405180910390f35b34801561043757600080fd5b50610440610ebd565b60405161044d9190612b7d565b60405180910390f35b34801561046257600080fd5b5061046b610ec3565b6040516104789190612b7d565b60405180910390f35b34801561048d57600080fd5b50610496610ec9565b6040516104a39190612c98565b60405180910390f35b3480156104b857600080fd5b506104c1610eef565b6040516104d093929190612cf3565b60405180910390f35b3480156104e557600080fd5b506104ee610f68565b6040516104fb9190612b7d565b60405180910390f35b34801561051057600080fd5b50610519610f6e565b6040516105269190612b7d565b60405180910390f35b34801561053b57600080fd5b50610544610f74565b6040516105519190612b7d565b60405180910390f35b34801561056657600080fd5b5061056f610f7a565b60405161057c9190612c98565b60405180910390f35b34801561059157600080fd5b5061059a610fa0565b6040516105a79190612b7d565b60405180910390f35b3480156105bc57600080fd5b506105c5610fa6565b6040516105d29190612b7d565b60405180910390f35b3480156105e757600080fd5b5061060260048036038101906105fd9190612cb3565b610fac565b005b34801561061057600080fd5b5061061961120d565b6040516106269190612c98565b60405180910390f35b34801561063b57600080fd5b50610644611233565b6040516106519190612b7d565b60405180910390f35b34801561066657600080fd5b50610681600480360381019061067c9190612d2a565b611239565b005b34801561068f57600080fd5b50610698611651565b6040516106a59190612b7d565b60405180910390f35b3480156106ba57600080fd5b506106c3611657565b6040516106d09190612dac565b60405180910390f35b3480156106e557600080fd5b506106ee61166a565b6040516106fb9190612c98565b60405180910390f35b34801561071057600080fd5b50610719611690565b005b34801561072757600080fd5b50610730611749565b60405161073d9190612c98565b60405180910390f35b34801561075257600080fd5b5061076d60048036038101906107689190612cb3565b61176f565b005b34801561077b57600080fd5b5061079660048036038101906107919190612dc7565b611ab3565b005b6107a0611bd9565b005b3480156107ae57600080fd5b506107b7611cb2565b6040516107c49190612c98565b60405180910390f35b3480156107d957600080fd5b506107e2611cd8565b6040516107ef9190612b7d565b60405180910390f35b34801561080457600080fd5b5061080d611cde565b60405161081a9190612c98565b60405180910390f35b34801561082f57600080fd5b50610838611d04565b6040516108459190612c98565b60405180910390f35b34801561085a57600080fd5b5061087560048036038101906108709190612e2e565b611d2a565b005b34801561088357600080fd5b5061088c611ee1565b6040516108999190612c98565b60405180910390f35b3480156108ae57600080fd5b506108b7611f07565b6040516108c49190612c98565b60405180910390f35b3480156108d957600080fd5b506108e2611f2d565b005b3480156108f057600080fd5b5061090b60048036038101906109069190612e81565b611fed565b005b34801561091957600080fd5b50610934600480360381019061092f9190612ec1565b61264e565b005b34801561094257600080fd5b5061094b612a63565b6040516109589190612c98565b60405180910390f35b34801561096d57600080fd5b5061098860048036038101906109839190612f14565b612a89565b6040516109959190612b7d565b60405180910390f35b3480156109aa57600080fd5b506109b3612b20565b6040516109c09190612b7d565b60405180910390f35b3480156109d557600080fd5b506109f060048036038101906109eb9190612f14565b612b26565b6040516109fe929190612f41565b60405180910390f35b601c5481565b60175481565b6000339050601f60019054906101000a900473ffffffffffffffffffffffffffffffffffffffff1673ffffffffffffffffffffffffffffffffffffffff1663080a14f4858584600260009054906101000a900473ffffffffffffffffffffffffffffffffffffffff16876040518663ffffffff1660e01b8152600401610a9d959493929190612f6a565b600060405180830381600087803b158015610ab757600080fd5b505af1158015610acb573d6000803e3d6000fd5b5050505050505050565b601060009054906101000a900473ffffffffffffffffffffffffffffffffffffffff1681565b600b60009054906101000a900473ffffffffffffffffffffffffffffffffffffffff1681565b600360009054906101000a900473ffffffffffffffffffffffffffffffffffffffff1681565b601d5481565b600560009054906101000a900473ffffffffffffffffffffffffffffffffffffffff1681565b60008273ffffffffffffffffffffffffffffffffffffffff166306fdde036040518163ffffffff1660e01b815260040160006040518083038186803b158015610bbb57600080fd5b505afa158015610bcf573d6000803e3d6000fd5b505050506040513d6000823e3d601f19601f82011682018060405250810190610bf89190613127565b9050610c39816040518060400160405280600581526020017f4152424c50000000000000000000000000000000000000000000000000000000815250612b49565b15610cb357816011819055508160206000600e60009054906101000a900473ffffffffffffffffffffffffffffffffffffffff1673ffffffffffffffffffffffffffffffffffffffff1673ffffffffffffffffffffffffffffffffffffffff16815260200190815260200160002060000181905550610e23565b610cf2816040518060400160405280600681526020017f555344544c500000000000000000000000000000000000000000000000000000815250612b49565b15610d6c57816013819055508160206000600f60009054906101000a900473ffffffffffffffffffffffffffffffffffffffff1673ffffffffffffffffffffffffffffffffffffffff1673ffffffffffffffffffffffffffffffffffffffff16815260200190815260200160002060000181905550610e22565b610dab816040518060400160405280600581526020017f4554484c50000000000000000000000000000000000000000000000000000000815250612b49565b15610e2157816015819055508160206000601060009054906101000a900473ffffffffffffffffffffffffffffffffffffffff1673ffffffffffffffffffffffffffffffffffffffff1673ffffffffffffffffffffffffffffffffffffffff168152602001908152602001600020600001819055505b5b5b600860009054906101000a900473ffffffffffffffffffffffffffffffffffffffff1673ffffffffffffffffffffffffffffffffffffffff1663c41a2e1f84846040518363ffffffff1660e01b8152600401610e80929190613170565b600060405180830381600087803b158015610e9a57600080fd5b505af1158015610eae573d6000803e3d6000fd5b50505050505050565b60165481565b60115481565b60125481565b600960009054906101000a900473ffffffffffffffffffffffffffffffffffffffff1681565b6000806000600e60009054906101000a900473ffffffffffffffffffffffffffffffffffffffff16600f60009054906101000a900473ffffffffffffffffffffffffffffffffffffffff16601060009054906101000a900473ffffffffffffffffffffffffffffffffffffffff16925092509250909192565b60005481565b60145481565b601b5481565b600f60009054906101000a900473ffffffffffffffffffffffffffffffffffffffff1681565b60135481565b601e5481565b600560009054906101000a900473ffffffffffffffffffffffffffffffffffffffff1673ffffffffffffffffffffffffffffffffffffffff168273ffffffffffffffffffffffffffffffffffffffff161461103c576040517f08c379a0000000000000000000000000000000000000000000000000000000008152600401611033906131f6565b60405180910390fd5b60008273ffffffffffffffffffffffffffffffffffffffff166370a08231336040518263ffffffff1660e01b81526004016110779190612c98565b60206040518083038186803b15801561108f57600080fd5b505afa1580156110a3573d6000803e3d6000fd5b505050506040513d601f19601f820116820180604052508101906110c7919061322b565b90508181101561110c576040517f08c379a0000000000000000000000000000000000000000000000000000000008152600401611103906132a4565b60405180910390fd5b8273ffffffffffffffffffffffffffffffffffffffff16636161eb1833846040518363ffffffff1660e01b8152600401611147929190613170565b600060405180830381600087803b15801561116157600080fd5b505af1158015611175573d6000803e3d6000fd5b50505050601f60019054906101000a900473ffffffffffffffffffffffffffffffffffffffff1673ffffffffffffffffffffffffffffffffffffffff16638e54e40d33846040518363ffffffff1660e01b81526004016111d69291906132e5565b600060405180830381600087803b1580156111f057600080fd5b505af1158015611204573d6000803e3d6000fd5b50505050505050565b600460009054906101000a900473ffffffffffffffffffffffffffffffffffffffff1681565b601a5481565b6000339050601f60019054906101000a900473ffffffffffffffffffffffffffffffffffffffff1673ffffffffffffffffffffffffffffffffffffffff1663caadbea08686868686600260009054906101000a900473ffffffffffffffffffffffffffffffffffffffff166040518763ffffffff1660e01b81526004016112c59695949392919061330e565b600060405180830381600087803b1580156112df57600080fd5b505af11580156112f3573d6000803e3d6000fd5b5050505060008573ffffffffffffffffffffffffffffffffffffffff166306fdde036040518163ffffffff1660e01b815260040160006040518083038186803b15801561133f57600080fd5b505afa158015611353573d6000803e3d6000fd5b505050506040513d6000823e3d601f19601f8201168201806040525081019061137c9190613127565b90506113bd816040518060400160405280600381526020017f4152420000000000000000000000000000000000000000000000000000000000815250612b49565b1561146d57601f60019054906101000a900473ffffffffffffffffffffffffffffffffffffffff1673ffffffffffffffffffffffffffffffffffffffff166308d4d4796040518163ffffffff1660e01b815260040160206040518083038186803b15801561142a57600080fd5b505afa15801561143e573d6000803e3d6000fd5b505050506040513d601f19601f82011682018060405250810190611462919061322b565b601781905550611649565b6114ac816040518060400160405280600481526020017f5553445400000000000000000000000000000000000000000000000000000000815250612b49565b1561155c57601f60019054906101000a900473ffffffffffffffffffffffffffffffffffffffff1673ffffffffffffffffffffffffffffffffffffffff1663fcc617186040518163ffffffff1660e01b815260040160206040518083038186803b15801561151957600080fd5b505afa15801561152d573d6000803e3d6000fd5b505050506040513d601f19601f82011682018060405250810190611551919061322b565b601881905550611648565b61159b816040518060400160405280600381526020017f4554480000000000000000000000000000000000000000000000000000000000815250612b49565b1561164757601f60019054906101000a900473ffffffffffffffffffffffffffffffffffffffff1673ffffffffffffffffffffffffffffffffffffffff1663741ac3046040518163ffffffff1660e01b815260040160206040518083038186803b15801561160857600080fd5b505afa15801561161c573d6000803e3d6000fd5b505050506040513d601f19601f82011682018060405250810190611640919061322b565b6019819055505b5b5b505050505050565b60195481565b601f60009054906101000a900460ff1681565b600a60009054906101000a900473ffffffffffffffffffffffffffffffffffffffff1681565b6000339050601f60019054906101000a900473ffffffffffffffffffffffffffffffffffffffff1673ffffffffffffffffffffffffffffffffffffffff16639e271cec82600260009054906101000a900473ffffffffffffffffffffffffffffffffffffffff166040518363ffffffff1660e01b815260040161171492919061336f565b600060405180830381600087803b15801561172e57600080fd5b505af1158015611742573d6000803e3d6000fd5b5050505050565b600260009054906101000a900473ffffffffffffffffffffffffffffffffffffffff1681565b60008273ffffffffffffffffffffffffffffffffffffffff166306fdde036040518163ffffffff1660e01b815260040160006040518083038186803b1580156117b757600080fd5b505afa1580156117cb573d6000803e3d6000fd5b505050506040513d6000823e3d601f19601f820116820180604052508101906117f49190613127565b9050611835816040518060400160405280600581526020017f4152424c50000000000000000000000000000000000000000000000000000000815250612b49565b156118af57816012819055508160206000600e60009054906101000a900473ffffffffffffffffffffffffffffffffffffffff1673ffffffffffffffffffffffffffffffffffffffff1673ffffffffffffffffffffffffffffffffffffffff16815260200190815260200160002060010181905550611a1f565b6118ee816040518060400160405280600681526020017f555344544c500000000000000000000000000000000000000000000000000000815250612b49565b1561196857816014819055508160206000600f60009054906101000a900473ffffffffffffffffffffffffffffffffffffffff1673ffffffffffffffffffffffffffffffffffffffff1673ffffffffffffffffffffffffffffffffffffffff16815260200190815260200160002060010181905550611a1e565b6119a7816040518060400160405280600581526020017f4554484c50000000000000000000000000000000000000000000000000000000815250612b49565b15611a1d57816016819055508160206000601060009054906101000a900473ffffffffffffffffffffffffffffffffffffffff1673ffffffffffffffffffffffffffffffffffffffff1673ffffffffffffffffffffffffffffffffffffffff168152602001908152602001600020600101819055505b5b5b600860009054906101000a900473ffffffffffffffffffffffffffffffffffffffff1673ffffffffffffffffffffffffffffffffffffffff1663eafaef5184846040518363ffffffff1660e01b8152600401611a7c929190613170565b600060405180830381600087803b158015611a9657600080fd5b505af1158015611aaa573d6000803e3d6000fd5b50505050505050565b600d60009054906101000a900473ffffffffffffffffffffffffffffffffffffffff1673ffffffffffffffffffffffffffffffffffffffff1663575a3028856040518263ffffffff1660e01b8152600401611b0e9190612c98565b600060405180830381600087803b158015611b2857600080fd5b505af1158015611b3c573d6000803e3d6000fd5b50505050600d60009054906101000a900473ffffffffffffffffffffffffffffffffffffffff1673ffffffffffffffffffffffffffffffffffffffff16639e493d2d858585856040518563ffffffff1660e01b8152600401611ba19493929190613398565b600060405180830381600087803b158015611bbb57600080fd5b505af1158015611bcf573d6000803e3d6000fd5b5050505050505050565b60003411611c1c576040517f08c379a0000000000000000000000000000000000000000000000000000000008152600401611c1390613429565b60405180910390fd5b6000339050601f60019054906101000a900473ffffffffffffffffffffffffffffffffffffffff1673ffffffffffffffffffffffffffffffffffffffff16635280212134836040518363ffffffff1660e01b8152600401611c7d9190612c98565b6000604051808303818588803b158015611c9657600080fd5b505af1158015611caa573d6000803e3d6000fd5b505050505050565b600860009054906101000a900473ffffffffffffffffffffffffffffffffffffffff1681565b60155481565b600660009054906101000a900473ffffffffffffffffffffffffffffffffffffffff1681565b600d60009054906101000a900473ffffffffffffffffffffffffffffffffffffffff1681565b600033905060008473ffffffffffffffffffffffffffffffffffffffff166370a08231836040518263ffffffff1660e01b8152600401611d6a9190612c98565b60206040518083038186803b158015611d8257600080fd5b505afa158015611d96573d6000803e3d6000fd5b505050506040513d601f19601f82011682018060405250810190611dba919061322b565b905080841115611dff576040517f08c379a0000000000000000000000000000000000000000000000000000000008152600401611df690613495565b60405180910390fd5b601f60019054906101000a900473ffffffffffffffffffffffffffffffffffffffff1673ffffffffffffffffffffffffffffffffffffffff166310d69c4f8684600260009054906101000a900473ffffffffffffffffffffffffffffffffffffffff168888600760009054906101000a900473ffffffffffffffffffffffffffffffffffffffff166040518763ffffffff1660e01b8152600401611ea8969594939291906134b5565b600060405180830381600087803b158015611ec257600080fd5b505af1158015611ed6573d6000803e3d6000fd5b505050505050505050565b600c60009054906101000a900473ffffffffffffffffffffffffffffffffffffffff1681565b600760009054906101000a900473ffffffffffffffffffffffffffffffffffffffff1681565b600a60009054906101000a900473ffffffffffffffffffffffffffffffffffffffff1673ffffffffffffffffffffffffffffffffffffffff166353c9fc2c6040518163ffffffff1660e01b815260040160606040518083038186803b158015611f9557600080fd5b505afa158015611fa9573d6000803e3d6000fd5b505050506040513d601f19601f82011682018060405250810190611fcd9190613516565b601b6000601c6000601d6000869190505585919050558491905055505050565b601f60019054906101000a900473ffffffffffffffffffffffffffffffffffffffff1673ffffffffffffffffffffffffffffffffffffffff1663fe1218a68383600260009054906101000a900473ffffffffffffffffffffffffffffffffffffffff166040518463ffffffff1660e01b815260040161206e93929190612cf3565b600060405180830381600087803b15801561208857600080fd5b505af115801561209c573d6000803e3d6000fd5b50505050601f60019054906101000a900473ffffffffffffffffffffffffffffffffffffffff1673ffffffffffffffffffffffffffffffffffffffff1663a8b089826040518163ffffffff1660e01b815260040160206040518083038186803b15801561210857600080fd5b505afa15801561211c573d6000803e3d6000fd5b505050506040513d601f19601f82011682018060405250810190612140919061357e565b600860006101000a81548173ffffffffffffffffffffffffffffffffffffffff021916908373ffffffffffffffffffffffffffffffffffffffff160217905550600860009054906101000a900473ffffffffffffffffffffffffffffffffffffffff1673ffffffffffffffffffffffffffffffffffffffff1663d1e9a5fd6040518163ffffffff1660e01b815260040160606040518083038186803b1580156121e857600080fd5b505afa1580156121fc573d6000803e3d6000fd5b505050506040513d601f19601f8201168201806040525081019061222091906135ab565b600e6000600f6000601060008691906101000a81548173ffffffffffffffffffffffffffffffffffffffff021916908373ffffffffffffffffffffffffffffffffffffffff1602179055508591906101000a81548173ffffffffffffffffffffffffffffffffffffffff021916908373ffffffffffffffffffffffffffffffffffffffff1602179055508491906101000a81548173ffffffffffffffffffffffffffffffffffffffff021916908373ffffffffffffffffffffffffffffffffffffffff160217905550505050600860009054906101000a900473ffffffffffffffffffffffffffffffffffffffff1673ffffffffffffffffffffffffffffffffffffffff16639a0b71186040518163ffffffff1660e01b815260040160c06040518083038186803b15801561235457600080fd5b505afa158015612368573d6000803e3d6000fd5b505050506040513d601f19601f8201168201806040525081019061238c91906135fe565b6011600060126000601360006014600060156000601660008c919050558b919050558a9190505589919050558891905055879190505550505050505060115460206000600e60009054906101000a900473ffffffffffffffffffffffffffffffffffffffff1673ffffffffffffffffffffffffffffffffffffffff1673ffffffffffffffffffffffffffffffffffffffff1681526020019081526020016000206000018190555060125460206000600e60009054906101000a900473ffffffffffffffffffffffffffffffffffffffff1673ffffffffffffffffffffffffffffffffffffffff1673ffffffffffffffffffffffffffffffffffffffff1681526020019081526020016000206001018190555060135460206000600f60009054906101000a900473ffffffffffffffffffffffffffffffffffffffff1673ffffffffffffffffffffffffffffffffffffffff1673ffffffffffffffffffffffffffffffffffffffff1681526020019081526020016000206000018190555060145460206000600f60009054906101000a900473ffffffffffffffffffffffffffffffffffffffff1673ffffffffffffffffffffffffffffffffffffffff1673ffffffffffffffffffffffffffffffffffffffff1681526020019081526020016000206001018190555060155460206000601060009054906101000a900473ffffffffffffffffffffffffffffffffffffffff1673ffffffffffffffffffffffffffffffffffffffff1673ffffffffffffffffffffffffffffffffffffffff1681526020019081526020016000206000018190555060165460206000601060009054906101000a900473ffffffffffffffffffffffffffffffffffffffff1673ffffffffffffffffffffffffffffffffffffffff1673ffffffffffffffffffffffffffffffffffffffff168152602001908152602001600020600101819055505050565b6000339050601f60019054906101000a900473ffffffffffffffffffffffffffffffffffffffff1673ffffffffffffffffffffffffffffffffffffffff16639663d27c858584600260009054906101000a900473ffffffffffffffffffffffffffffffffffffffff16876040518663ffffffff1660e01b81526004016126d895949392919061368b565b600060405180830381600087803b1580156126f257600080fd5b505af1158015612706573d6000803e3d6000fd5b5050505060008473ffffffffffffffffffffffffffffffffffffffff166306fdde036040518163ffffffff1660e01b815260040160006040518083038186803b15801561275257600080fd5b505afa158015612766573d6000803e3d6000fd5b505050506040513d6000823e3d601f19601f8201168201806040525081019061278f9190613127565b90506127d0816040518060400160405280600581526020017f4152424c50000000000000000000000000000000000000000000000000000000815250612b49565b1561288057601f60019054906101000a900473ffffffffffffffffffffffffffffffffffffffff1673ffffffffffffffffffffffffffffffffffffffff166308d4d4796040518163ffffffff1660e01b815260040160206040518083038186803b15801561283d57600080fd5b505afa158015612851573d6000803e3d6000fd5b505050506040513d601f19601f82011682018060405250810190612875919061322b565b601781905550612a5c565b6128bf816040518060400160405280600681526020017f555344544c500000000000000000000000000000000000000000000000000000815250612b49565b1561296f57601f60019054906101000a900473ffffffffffffffffffffffffffffffffffffffff1673ffffffffffffffffffffffffffffffffffffffff1663fcc617186040518163ffffffff1660e01b815260040160206040518083038186803b15801561292c57600080fd5b505afa158015612940573d6000803e3d6000fd5b505050506040513d601f19601f82011682018060405250810190612964919061322b565b601881905550612a5b565b6129ae816040518060400160405280600581526020017f4554484c50000000000000000000000000000000000000000000000000000000815250612b49565b15612a5a57601f60019054906101000a900473ffffffffffffffffffffffffffffffffffffffff1673ffffffffffffffffffffffffffffffffffffffff1663741ac3046040518163ffffffff1660e01b815260040160206040518083038186803b158015612a1b57600080fd5b505afa158015612a2f573d6000803e3d6000fd5b505050506040513d601f19601f82011682018060405250810190612a53919061322b565b6019819055505b5b5b5050505050565b600e60009054906101000a900473ffffffffffffffffffffffffffffffffffffffff1681565b6000803390508273ffffffffffffffffffffffffffffffffffffffff166370a08231826040518263ffffffff1660e01b8152600401612ac89190612c98565b60206040518083038186803b158015612ae057600080fd5b505afa158015612af4573d6000803e3d6000fd5b505050506040513d601f19601f82011682018060405250810190612b18919061322b565b915050919050565b60185481565b602080528060005260406000206000915090508060000154908060010154905082565b60008180519060200120838051906020012014905092915050565b6000819050919050565b612b7781612b64565b82525050565b6000602082019050612b926000830184612b6e565b92915050565b6000604051905090565b600080fd5b600080fd5b600073ffffffffffffffffffffffffffffffffffffffff82169050919050565b6000612bd782612bac565b9050919050565b612be781612bcc565b8114612bf257600080fd5b50565b600081359050612c0481612bde565b92915050565b612c1381612b64565b8114612c1e57600080fd5b50565b600081359050612c3081612c0a565b92915050565b600080600060608486031215612c4f57612c4e612ba2565b5b6000612c5d86828701612bf5565b9350506020612c6e86828701612bf5565b9250506040612c7f86828701612c21565b9150509250925092565b612c9281612bcc565b82525050565b6000602082019050612cad6000830184612c89565b92915050565b60008060408385031215612cca57612cc9612ba2565b5b6000612cd885828601612bf5565b9250506020612ce985828601612c21565b9150509250929050565b6000606082019050612d086000830186612c89565b612d156020830185612c89565b612d226040830184612c89565b949350505050565b60008060008060808587031215612d4457612d43612ba2565b5b6000612d5287828801612bf5565b9450506020612d6387828801612c21565b9350506040612d7487828801612bf5565b9250506060612d8587828801612c21565b91505092959194509250565b60008115159050919050565b612da681612d91565b82525050565b6000602082019050612dc16000830184612d9d565b92915050565b60008060008060808587031215612de157612de0612ba2565b5b6000612def87828801612bf5565b9450506020612e0087828801612bf5565b9350506040612e1187828801612bf5565b9250506060612e2287828801612bf5565b91505092959194509250565b600080600060608486031215612e4757612e46612ba2565b5b6000612e5586828701612bf5565b9350506020612e6686828701612c21565b9250506040612e7786828701612c21565b9150509250925092565b60008060408385031215612e9857612e97612ba2565b5b6000612ea685828601612bf5565b9250506020612eb785828601612bf5565b9150509250929050565b600080600060608486031215612eda57612ed9612ba2565b5b6000612ee886828701612bf5565b9350506020612ef986828701612c21565b9250506040612f0a86828701612bf5565b9150509250925092565b600060208284031215612f2a57612f29612ba2565b5b6000612f3884828501612bf5565b91505092915050565b6000604082019050612f566000830185612b6e565b612f636020830184612b6e565b9392505050565b600060a082019050612f7f6000830188612c89565b612f8c6020830187612c89565b612f996040830186612c89565b612fa66060830185612c89565b612fb36080830184612b6e565b9695505050505050565b600080fd5b600080fd5b6000601f19601f8301169050919050565b7f4e487b7100000000000000000000000000000000000000000000000000000000600052604160045260246000fd5b61301082612fc7565b810181811067ffffffffffffffff8211171561302f5761302e612fd8565b5b80604052505050565b6000613042612b98565b905061304e8282613007565b919050565b600067ffffffffffffffff82111561306e5761306d612fd8565b5b61307782612fc7565b9050602081019050919050565b60005b838110156130a2578082015181840152602081019050613087565b838111156130b1576000848401525b50505050565b60006130ca6130c584613053565b613038565b9050828152602081018484840111156130e6576130e5612fc2565b5b6130f1848285613084565b509392505050565b600082601f83011261310e5761310d612fbd565b5b815161311e8482602086016130b7565b91505092915050565b60006020828403121561313d5761313c612ba2565b5b600082015167ffffffffffffffff81111561315b5761315a612ba7565b5b613167848285016130f9565b91505092915050565b60006040820190506131856000830185612c89565b6131926020830184612b6e565b9392505050565b600082825260208201905092915050565b7f636865636b2074686520726967687420746f6b656e0000000000000000000000600082015250565b60006131e0601583613199565b91506131eb826131aa565b602082019050919050565b6000602082019050818103600083015261320f816131d3565b9050919050565b60008151905061322581612c0a565b92915050565b60006020828403121561324157613240612ba2565b5b600061324f84828501613216565b91505092915050565b7f636865636b2074686520616d6f756e7400000000000000000000000000000000600082015250565b600061328e601083613199565b915061329982613258565b602082019050919050565b600060208201905081810360008301526132bd81613281565b9050919050565b60006132cf82612bac565b9050919050565b6132df816132c4565b82525050565b60006040820190506132fa60008301856132d6565b6133076020830184612b6e565b9392505050565b600060c0820190506133236000830189612c89565b6133306020830188612b6e565b61333d6040830187612c89565b61334a6060830186612b6e565b6133576080830185612c89565b61336460a0830184612c89565b979650505050505050565b60006040820190506133846000830185612c89565b6133916020830184612c89565b9392505050565b60006080820190506133ad6000830187612c89565b6133ba6020830186612c89565b6133c76040830185612c89565b6133d46060830184612c89565b95945050505050565b7f636865636b2074686520657468657220616d6f756e7400000000000000000000600082015250565b6000613413601683613199565b915061341e826133dd565b602082019050919050565b6000602082019050818103600083015261344281613406565b9050919050565b7f636865636b20746865204c7042616c616e636500000000000000000000000000600082015250565b600061347f601383613199565b915061348a82613449565b602082019050919050565b600060208201905081810360008301526134ae81613472565b9050919050565b600060c0820190506134ca6000830189612c89565b6134d76020830188612c89565b6134e46040830187612c89565b6134f16060830186612b6e565b6134fe6080830185612b6e565b61350b60a0830184612c89565b979650505050505050565b60008060006060848603121561352f5761352e612ba2565b5b600061353d86828701613216565b935050602061354e86828701613216565b925050604061355f86828701613216565b9150509250925092565b60008151905061357881612bde565b92915050565b60006020828403121561359457613593612ba2565b5b60006135a284828501613569565b91505092915050565b6000806000606084860312156135c4576135c3612ba2565b5b60006135d286828701613569565b93505060206135e386828701613569565b92505060406135f486828701613569565b9150509250925092565b60008060008060008060c0878903121561361b5761361a612ba2565b5b600061362989828a01613216565b965050602061363a89828a01613216565b955050604061364b89828a01613216565b945050606061365c89828a01613216565b935050608061366d89828a01613216565b92505060a061367e89828a01613216565b9150509295509295509295565b600060a0820190506136a06000830188612c89565b6136ad6020830187612b6e565b6136ba6040830186612c89565b6136c76060830185612c89565b6136d46080830184612c89565b969550505050505056fea2646970667358221220188f70b612829c8b6f3d1b271a9773334017a1f57081f098c7cccea32685999864736f6c6343000809003360806040523480156200001157600080fd5b5060405162002dc438038062002dc4833981810160405281019062000037919062000382565b306000806101000a81548173ffffffffffffffffffffffffffffffffffffffff021916908373ffffffffffffffffffffffffffffffffffffffff1602179055508273ffffffffffffffffffffffffffffffffffffffff1663ee136a566040518163ffffffff1660e01b815260040160606040518083038186803b158015620000be57600080fd5b505afa158015620000d3573d6000803e3d6000fd5b505050506040513d601f19601f82011682018060405250810190620000f9919062000382565b6007600060086000600960008691906101000a81548173ffffffffffffffffffffffffffffffffffffffff021916908373ffffffffffffffffffffffffffffffffffffffff1602179055508591906101000a81548173ffffffffffffffffffffffffffffffffffffffff021916908373ffffffffffffffffffffffffffffffffffffffff1602179055508491906101000a81548173ffffffffffffffffffffffffffffffffffffffff021916908373ffffffffffffffffffffffffffffffffffffffff1602179055505050508173ffffffffffffffffffffffffffffffffffffffff1663b470e8e86040518163ffffffff1660e01b8152600401604080518083038186803b1580156200020b57600080fd5b505afa15801562000220573d6000803e3d6000fd5b505050506040513d601f19601f82011682018060405250810190620002469190620003de565b600a6000600b60008491906101000a81548173ffffffffffffffffffffffffffffffffffffffff021916908373ffffffffffffffffffffffffffffffffffffffff1602179055508391906101000a81548173ffffffffffffffffffffffffffffffffffffffff021916908373ffffffffffffffffffffffffffffffffffffffff160217905550505080600360006101000a81548173ffffffffffffffffffffffffffffffffffffffff021916908373ffffffffffffffffffffffffffffffffffffffff16021790555050505062000425565b600080fd5b600073ffffffffffffffffffffffffffffffffffffffff82169050919050565b60006200034a826200031d565b9050919050565b6200035c816200033d565b81146200036857600080fd5b50565b6000815190506200037c8162000351565b92915050565b6000806000606084860312156200039e576200039d62000318565b5b6000620003ae868287016200036b565b9350506020620003c1868287016200036b565b9250506040620003d4868287016200036b565b9150509250925092565b60008060408385031215620003f857620003f762000318565b5b600062000408858286016200036b565b92505060206200041b858286016200036b565b9150509250929050565b61298f80620004356000396000f3fe6080604052600436106101e35760003560e01c806380f6d78211610102578063d2313ff111610095578063fa82bec211610064578063fa82bec214610693578063fbc5780a146106be578063fcc61718146106e9578063fe1218a614610714576101e3565b8063d2313ff1146105d5578063d7b4be2414610600578063e319be0a1461062b578063ebcde5f314610668576101e3565b8063a7339d11116100d1578063a7339d111461052b578063a8b0898214610556578063b7bda68f14610581578063caadbea0146105ac576101e3565b806380f6d782146104855780638e54e40d146104b05780639663d27c146104d95780639e271cec14610502576101e3565b80634aac67721161017a57806371b881b71161014957806371b881b7146103d9578063741ac30414610404578063786180681461042f5780637afb892e1461045a576101e3565b80634aac67721461033c5780635280212114610367578063532d7397146103835780635ced16d2146103ae576101e3565b80631755ff21116101b65780631755ff21146102905780631d15546d146102bb5780633d1b719f146102e65780634713b78414610311576101e3565b8063080a14f4146101e857806308d4d4791461021157806310d69c4f1461023c578063169f97ae14610265575b600080fd5b3480156101f457600080fd5b5061020f600480360381019061020a9190611c3f565b61073d565b005b34801561021d57600080fd5b506102266107d9565b6040516102339190611cc9565b60405180910390f35b34801561024857600080fd5b50610263600480360381019061025e9190611ce4565b6107df565b005b34801561027157600080fd5b5061027a61087e565b6040516102879190611d80565b60405180910390f35b34801561029c57600080fd5b506102a56108a4565b6040516102b29190611d80565b60405180910390f35b3480156102c757600080fd5b506102d06108c8565b6040516102dd9190611d80565b60405180910390f35b3480156102f257600080fd5b506102fb6108ee565b6040516103089190611d80565b60405180910390f35b34801561031d57600080fd5b50610326610914565b6040516103339190611d80565b60405180910390f35b34801561034857600080fd5b5061035161093a565b60405161035e9190611cc9565b60405180910390f35b610381600480360381019061037c9190611d9b565b610940565b005b34801561038f57600080fd5b50610398610b63565b6040516103a59190611cc9565b60405180910390f35b3480156103ba57600080fd5b506103c3610b69565b6040516103d09190611d80565b60405180910390f35b3480156103e557600080fd5b506103ee610b8f565b6040516103fb9190611d80565b60405180910390f35b34801561041057600080fd5b50610419610bb5565b6040516104269190611cc9565b60405180910390f35b34801561043b57600080fd5b50610444610bbb565b6040516104519190611cc9565b60405180910390f35b34801561046657600080fd5b5061046f610bc1565b60405161047c9190611de3565b60405180910390f35b34801561049157600080fd5b5061049a610bd4565b6040516104a79190611d80565b60405180910390f35b3480156104bc57600080fd5b506104d760048036038101906104d29190611e3c565b610bfa565b005b3480156104e557600080fd5b5061050060048036038101906104fb9190611e7c565b610c88565b005b34801561050e57600080fd5b5061052960048036038101906105249190611ef7565b6113e7565b005b34801561053757600080fd5b5061054061147a565b60405161054d9190611cc9565b60405180910390f35b34801561056257600080fd5b5061056b611480565b6040516105789190611d80565b60405180910390f35b34801561058d57600080fd5b506105966114a6565b6040516105a39190611d80565b60405180910390f35b3480156105b857600080fd5b506105d360048036038101906105ce9190611f37565b6114cc565b005b3480156105e157600080fd5b506105ea6118a0565b6040516105f79190611cc9565b60405180910390f35b34801561060c57600080fd5b506106156118a6565b6040516106229190611d80565b60405180910390f35b34801561063757600080fd5b50610652600480360381019061064d9190611fc4565b6118cc565b60405161065f9190611cc9565b60405180910390f35b34801561067457600080fd5b5061067d611942565b60405161068a9190611d80565b60405180910390f35b34801561069f57600080fd5b506106a8611968565b6040516106b59190611cc9565b60405180910390f35b3480156106ca57600080fd5b506106d361196e565b6040516106e09190611cc9565b60405180910390f35b3480156106f557600080fd5b506106fe611974565b60405161070b9190611cc9565b60405180910390f35b34801561072057600080fd5b5061073b60048036038101906107369190611ff1565b61197a565b005b600960009054906101000a900473ffffffffffffffffffffffffffffffffffffffff1673ffffffffffffffffffffffffffffffffffffffff166351b429a086868686866040518663ffffffff1660e01b81526004016107a0959493929190612044565b600060405180830381600087803b1580156107ba57600080fd5b505af11580156107ce573d6000803e3d6000fd5b505050505050505050565b60125481565b600a60009054906101000a900473ffffffffffffffffffffffffffffffffffffffff1673ffffffffffffffffffffffffffffffffffffffff1663a7f8cd098787878787876040518763ffffffff1660e01b815260040161084496959493929190612097565b600060405180830381600087803b15801561085e57600080fd5b505af1158015610872573d6000803e3d6000fd5b50505050505050505050565b600660009054906101000a900473ffffffffffffffffffffffffffffffffffffffff1681565b60008054906101000a900473ffffffffffffffffffffffffffffffffffffffff1681565b600160009054906101000a900473ffffffffffffffffffffffffffffffffffffffff1681565b600360009054906101000a900473ffffffffffffffffffffffffffffffffffffffff1681565b600860009054906101000a900473ffffffffffffffffffffffffffffffffffffffff1681565b600c5481565b600073ffffffffffffffffffffffffffffffffffffffff16600360009054906101000a900473ffffffffffffffffffffffffffffffffffffffff1673ffffffffffffffffffffffffffffffffffffffff1614156109d2576040517f08c379a00000000000000000000000000000000000000000000000000000000081526004016109c990612155565b60405180910390fd5b60006109dd346118cc565b9050600081600a6109ee91906122d7565b346109f99190612351565b9050600360009054906101000a900473ffffffffffffffffffffffffffffffffffffffff1673ffffffffffffffffffffffffffffffffffffffff1663e234496382846040518363ffffffff1660e01b8152600401610a58929190612382565b600060405180830381600087803b158015610a7257600080fd5b505af1158015610a86573d6000803e3d6000fd5b50505050600360009054906101000a900473ffffffffffffffffffffffffffffffffffffffff1673ffffffffffffffffffffffffffffffffffffffff166323b872dd600360009054906101000a900473ffffffffffffffffffffffffffffffffffffffff1685346040518463ffffffff1660e01b8152600401610b0b939291906123ab565b602060405180830381600087803b158015610b2557600080fd5b505af1158015610b39573d6000803e3d6000fd5b505050506040513d601f19601f82011682018060405250810190610b5d919061240e565b50505050565b600e5481565b600560009054906101000a900473ffffffffffffffffffffffffffffffffffffffff1681565b600260009054906101000a900473ffffffffffffffffffffffffffffffffffffffff1681565b60145481565b600d5481565b601060009054906101000a900460ff1681565b600960009054906101000a900473ffffffffffffffffffffffffffffffffffffffff1681565b80471015610c3d576040517f08c379a0000000000000000000000000000000000000000000000000000000008152600401610c3490612487565b60405180910390fd5b8173ffffffffffffffffffffffffffffffffffffffff166108fc829081150290604051600060405180830381858888f19350505050158015610c83573d6000803e3d6000fd5b505050565b600860009054906101000a900473ffffffffffffffffffffffffffffffffffffffff1673ffffffffffffffffffffffffffffffffffffffff166308bac40286868686866040518663ffffffff1660e01b8152600401610ceb9594939291906124a7565b600060405180830381600087803b158015610d0557600080fd5b505af1158015610d19573d6000803e3d6000fd5b50505050600860009054906101000a900473ffffffffffffffffffffffffffffffffffffffff1673ffffffffffffffffffffffffffffffffffffffff1663607c94f06040518163ffffffff1660e01b815260040160c06040518083038186803b158015610d8557600080fd5b505afa158015610d99573d6000803e3d6000fd5b505050506040513d601f19601f82011682018060405250810190610dbd9190612524565b600c6000600d6000600e60006001600060026000600360008c91906101000a81548173ffffffffffffffffffffffffffffffffffffffff021916908373ffffffffffffffffffffffffffffffffffffffff1602179055508b91906101000a81548173ffffffffffffffffffffffffffffffffffffffff021916908373ffffffffffffffffffffffffffffffffffffffff1602179055508a91906101000a81548173ffffffffffffffffffffffffffffffffffffffff021916908373ffffffffffffffffffffffffffffffffffffffff16021790555089919050558891905055879190505550505050505060008573ffffffffffffffffffffffffffffffffffffffff166306fdde036040518163ffffffff1660e01b815260040160006040518083038186803b158015610eef57600080fd5b505afa158015610f03573d6000803e3d6000fd5b505050506040513d6000823e3d601f19601f82011682018060405250810190610f2c919061271b565b90506000670de0b6b3a7640000600c54610f469190612351565b90506000670de0b6b3a7640000600d54610f609190612351565b9050610fa1836040518060400160405280600581526020017f4152424c50000000000000000000000000000000000000000000000000000000815250611b7c565b156110e1578160116000600160009054906101000a900473ffffffffffffffffffffffffffffffffffffffff1673ffffffffffffffffffffffffffffffffffffffff1673ffffffffffffffffffffffffffffffffffffffff16815260200190815260200160002060008282546110179190612764565b9250508190555080601160008673ffffffffffffffffffffffffffffffffffffffff1673ffffffffffffffffffffffffffffffffffffffff168152602001908152602001600020600082825461106d9190612764565b9250508190555060116000600160009054906101000a900473ffffffffffffffffffffffffffffffffffffffff1673ffffffffffffffffffffffffffffffffffffffff1673ffffffffffffffffffffffffffffffffffffffff168152602001908152602001600020546012819055506113dd565b611120836040518060400160405280600681526020017f555344544c500000000000000000000000000000000000000000000000000000815250611b7c565b15611260578160116000600260009054906101000a900473ffffffffffffffffffffffffffffffffffffffff1673ffffffffffffffffffffffffffffffffffffffff1673ffffffffffffffffffffffffffffffffffffffff16815260200190815260200160002060008282546111969190612764565b9250508190555080601160008673ffffffffffffffffffffffffffffffffffffffff1673ffffffffffffffffffffffffffffffffffffffff16815260200190815260200160002060008282546111ec9190612764565b9250508190555060116000600260009054906101000a900473ffffffffffffffffffffffffffffffffffffffff1673ffffffffffffffffffffffffffffffffffffffff1673ffffffffffffffffffffffffffffffffffffffff168152602001908152602001600020546013819055506113dc565b61129f836040518060400160405280600581526020017f4554484c50000000000000000000000000000000000000000000000000000000815250611b7c565b156113db578160116000600360009054906101000a900473ffffffffffffffffffffffffffffffffffffffff1673ffffffffffffffffffffffffffffffffffffffff1673ffffffffffffffffffffffffffffffffffffffff16815260200190815260200160002060008282546113159190612764565b9250508190555080601160008673ffffffffffffffffffffffffffffffffffffffff1673ffffffffffffffffffffffffffffffffffffffff168152602001908152602001600020600082825461136b9190612764565b9250508190555060116000600360009054906101000a900473ffffffffffffffffffffffffffffffffffffffff1673ffffffffffffffffffffffffffffffffffffffff1673ffffffffffffffffffffffffffffffffffffffff168152602001908152602001600020546014819055505b5b5b5050505050505050565b600a60009054906101000a900473ffffffffffffffffffffffffffffffffffffffff1673ffffffffffffffffffffffffffffffffffffffff1663c7d8c82383836040518363ffffffff1660e01b8152600401611444929190612798565b600060405180830381600087803b15801561145e57600080fd5b505af1158015611472573d6000803e3d6000fd5b505050505050565b60155481565b600760009054906101000a900473ffffffffffffffffffffffffffffffffffffffff1681565b600b60009054906101000a900473ffffffffffffffffffffffffffffffffffffffff1681565b600860009054906101000a900473ffffffffffffffffffffffffffffffffffffffff1673ffffffffffffffffffffffffffffffffffffffff1663d2dcb80b878787878787600760009054906101000a900473ffffffffffffffffffffffffffffffffffffffff166040518863ffffffff1660e01b815260040161155597969594939291906127c1565b600060405180830381600087803b15801561156f57600080fd5b505af1158015611583573d6000803e3d6000fd5b505050506000670de0b6b3a76400008661159d9190612351565b90506000670de0b6b3a7640000856115b59190612351565b905081601160008a73ffffffffffffffffffffffffffffffffffffffff1673ffffffffffffffffffffffffffffffffffffffff16815260200190815260200160002060008282546116069190612830565b9250508190555080601160008873ffffffffffffffffffffffffffffffffffffffff1673ffffffffffffffffffffffffffffffffffffffff168152602001908152602001600020600082825461165c9190612830565b9250508190555060008873ffffffffffffffffffffffffffffffffffffffff166306fdde036040518163ffffffff1660e01b815260040160006040518083038186803b1580156116ab57600080fd5b505afa1580156116bf573d6000803e3d6000fd5b505050506040513d6000823e3d601f19601f820116820180604052508101906116e8919061271b565b9050611729816040518060400160405280600381526020017f4152420000000000000000000000000000000000000000000000000000000000815250611b7c565b1561177957601160008a73ffffffffffffffffffffffffffffffffffffffff1673ffffffffffffffffffffffffffffffffffffffff16815260200190815260200160002054601281905550611895565b6117b8816040518060400160405280600481526020017f5553445400000000000000000000000000000000000000000000000000000000815250611b7c565b1561180857601160008a73ffffffffffffffffffffffffffffffffffffffff1673ffffffffffffffffffffffffffffffffffffffff16815260200190815260200160002054601381905550611894565b611847816040518060400160405280600381526020017f4554480000000000000000000000000000000000000000000000000000000000815250611b7c565b1561189357601160008a73ffffffffffffffffffffffffffffffffffffffff1673ffffffffffffffffffffffffffffffffffffffff168152602001908152602001600020546014819055505b5b5b505050505050505050565b60175481565b600a60009054906101000a900473ffffffffffffffffffffffffffffffffffffffff1681565b6000808214156118df576001905061193d565b600080600f819055505b600083111561192c5780806118fd90612886565b915050600f600081548092919061191390612886565b9190505550600a836119259190612351565b92506118e9565b6001816119399190612764565b9150505b919050565b600460009054906101000a900473ffffffffffffffffffffffffffffffffffffffff1681565b600f5481565b60165481565b60135481565b600760009054906101000a900473ffffffffffffffffffffffffffffffffffffffff1673ffffffffffffffffffffffffffffffffffffffff16630b026fd48484846040518463ffffffff1660e01b81526004016119d9939291906128cf565b600060405180830381600087803b1580156119f357600080fd5b505af1158015611a07573d6000803e3d6000fd5b50505050600760009054906101000a900473ffffffffffffffffffffffffffffffffffffffff1673ffffffffffffffffffffffffffffffffffffffff1663d1e9a5fd6040518163ffffffff1660e01b815260040160606040518083038186803b158015611a7357600080fd5b505afa158015611a87573d6000803e3d6000fd5b505050506040513d601f19601f82011682018060405250810190611aab9190612906565b6004600060056000600660008691906101000a81548173ffffffffffffffffffffffffffffffffffffffff021916908373ffffffffffffffffffffffffffffffffffffffff1602179055508591906101000a81548173ffffffffffffffffffffffffffffffffffffffff021916908373ffffffffffffffffffffffffffffffffffffffff1602179055508491906101000a81548173ffffffffffffffffffffffffffffffffffffffff021916908373ffffffffffffffffffffffffffffffffffffffff160217905550505050505050565b60008180519060200120838051906020012014905092915050565b6000604051905090565b600080fd5b600080fd5b600073ffffffffffffffffffffffffffffffffffffffff82169050919050565b6000611bd682611bab565b9050919050565b611be681611bcb565b8114611bf157600080fd5b50565b600081359050611c0381611bdd565b92915050565b6000819050919050565b611c1c81611c09565b8114611c2757600080fd5b50565b600081359050611c3981611c13565b92915050565b600080600080600060a08688031215611c5b57611c5a611ba1565b5b6000611c6988828901611bf4565b9550506020611c7a88828901611bf4565b9450506040611c8b88828901611bf4565b9350506060611c9c88828901611bf4565b9250506080611cad88828901611c2a565b9150509295509295909350565b611cc381611c09565b82525050565b6000602082019050611cde6000830184611cba565b92915050565b60008060008060008060c08789031215611d0157611d00611ba1565b5b6000611d0f89828a01611bf4565b9650506020611d2089828a01611bf4565b9550506040611d3189828a01611bf4565b9450506060611d4289828a01611c2a565b9350506080611d5389828a01611c2a565b92505060a0611d6489828a01611bf4565b9150509295509295509295565b611d7a81611bcb565b82525050565b6000602082019050611d956000830184611d71565b92915050565b600060208284031215611db157611db0611ba1565b5b6000611dbf84828501611bf4565b91505092915050565b60008115159050919050565b611ddd81611dc8565b82525050565b6000602082019050611df86000830184611dd4565b92915050565b6000611e0982611bab565b9050919050565b611e1981611dfe565b8114611e2457600080fd5b50565b600081359050611e3681611e10565b92915050565b60008060408385031215611e5357611e52611ba1565b5b6000611e6185828601611e27565b9250506020611e7285828601611c2a565b9150509250929050565b600080600080600060a08688031215611e9857611e97611ba1565b5b6000611ea688828901611bf4565b9550506020611eb788828901611c2a565b9450506040611ec888828901611bf4565b9350506060611ed988828901611bf4565b9250506080611eea88828901611bf4565b9150509295509295909350565b60008060408385031215611f0e57611f0d611ba1565b5b6000611f1c85828601611bf4565b9250506020611f2d85828601611bf4565b9150509250929050565b60008060008060008060c08789031215611f5457611f53611ba1565b5b6000611f6289828a01611bf4565b9650506020611f7389828a01611c2a565b9550506040611f8489828a01611bf4565b9450506060611f9589828a01611c2a565b9350506080611fa689828a01611bf4565b92505060a0611fb789828a01611bf4565b9150509295509295509295565b600060208284031215611fda57611fd9611ba1565b5b6000611fe884828501611c2a565b91505092915050565b60008060006060848603121561200a57612009611ba1565b5b600061201886828701611bf4565b935050602061202986828701611bf4565b925050604061203a86828701611bf4565b9150509250925092565b600060a0820190506120596000830188611d71565b6120666020830187611d71565b6120736040830186611d71565b6120806060830185611d71565b61208d6080830184611cba565b9695505050505050565b600060c0820190506120ac6000830189611d71565b6120b96020830188611d71565b6120c66040830187611d71565b6120d36060830186611cba565b6120e06080830185611cba565b6120ed60a0830184611d71565b979650505050505050565b600082825260208201905092915050565b7f636865636b2074686520746f6b656e206d616b65640000000000000000000000600082015250565b600061213f6015836120f8565b915061214a82612109565b602082019050919050565b6000602082019050818103600083015261216e81612132565b9050919050565b7f4e487b7100000000000000000000000000000000000000000000000000000000600052601160045260246000fd5b60008160011c9050919050565b6000808291508390505b60018511156121fb578086048111156121d7576121d6612175565b5b60018516156121e65780820291505b80810290506121f4856121a4565b94506121bb565b94509492505050565b60008261221457600190506122d0565b8161222257600090506122d0565b8160018114612238576002811461224257612271565b60019150506122d0565b60ff84111561225457612253612175565b5b8360020a91508482111561226b5761226a612175565b5b506122d0565b5060208310610133831016604e8410600b84101617156122a65782820a9050838111156122a1576122a0612175565b5b6122d0565b6122b384848460016121b1565b925090508184048111156122ca576122c9612175565b5b81810290505b9392505050565b60006122e282611c09565b91506122ed83611c09565b925061231a7fffffffffffffffffffffffffffffffffffffffffffffffffffffffffffffffff8484612204565b905092915050565b7f4e487b7100000000000000000000000000000000000000000000000000000000600052601260045260246000fd5b600061235c82611c09565b915061236783611c09565b92508261237757612376612322565b5b828204905092915050565b60006040820190506123976000830185611cba565b6123a46020830184611cba565b9392505050565b60006060820190506123c06000830186611d71565b6123cd6020830185611d71565b6123da6040830184611cba565b949350505050565b6123eb81611dc8565b81146123f657600080fd5b50565b600081519050612408816123e2565b92915050565b60006020828403121561242457612423611ba1565b5b6000612432848285016123f9565b91505092915050565b7f4e6f7420656e6f7567682045544820696e20636f6e7472616374000000000000600082015250565b6000612471601a836120f8565b915061247c8261243b565b602082019050919050565b600060208201905081810360008301526124a081612464565b9050919050565b600060a0820190506124bc6000830188611d71565b6124c96020830187611cba565b6124d66040830186611d71565b6124e36060830185611d71565b6124f06080830184611d71565b9695505050505050565b60008151905061250981611c13565b92915050565b60008151905061251e81611bdd565b92915050565b60008060008060008060c0878903121561254157612540611ba1565b5b600061254f89828a016124fa565b965050602061256089828a016124fa565b955050604061257189828a016124fa565b945050606061258289828a0161250f565b935050608061259389828a0161250f565b92505060a06125a489828a0161250f565b9150509295509295509295565b600080fd5b600080fd5b6000601f19601f8301169050919050565b7f4e487b7100000000000000000000000000000000000000000000000000000000600052604160045260246000fd5b612604826125bb565b810181811067ffffffffffffffff82111715612623576126226125cc565b5b80604052505050565b6000612636611b97565b905061264282826125fb565b919050565b600067ffffffffffffffff821115612662576126616125cc565b5b61266b826125bb565b9050602081019050919050565b60005b8381101561269657808201518184015260208101905061267b565b838111156126a5576000848401525b50505050565b60006126be6126b984612647565b61262c565b9050828152602081018484840111156126da576126d96125b6565b5b6126e5848285612678565b509392505050565b600082601f830112612702576127016125b1565b5b81516127128482602086016126ab565b91505092915050565b60006020828403121561273157612730611ba1565b5b600082015167ffffffffffffffff81111561274f5761274e611ba6565b5b61275b848285016126ed565b91505092915050565b600061276f82611c09565b915061277a83611c09565b92508282101561278d5761278c612175565b5b828203905092915050565b60006040820190506127ad6000830185611d71565b6127ba6020830184611d71565b9392505050565b600060e0820190506127d6600083018a611d71565b6127e36020830189611cba565b6127f06040830188611d71565b6127fd6060830187611cba565b61280a6080830186611d71565b61281760a0830185611d71565b61282460c0830184611d71565b98975050505050505050565b600061283b82611c09565b915061284683611c09565b9250827fffffffffffffffffffffffffffffffffffffffffffffffffffffffffffffffff0382111561287b5761287a612175565b5b828201905092915050565b600061289182611c09565b91507fffffffffffffffffffffffffffffffffffffffffffffffffffffffffffffffff8214156128c4576128c3612175565b5b600182019050919050565b60006060820190506128e46000830186611d71565b6128f16020830185611d71565b6128fe6040830184611d71565b949350505050565b60008060006060848603121561291f5761291e611ba1565b5b600061292d8682870161250f565b935050602061293e8682870161250f565b925050604061294f8682870161250f565b915050925092509256fea26469706673582212202f7d8b74b6c1fde117968d7c72ec01714012b1e1c050f026b12e7b031796ace464736f6c63430008090033",
  "linkReferences": {},
  "deployedLinkReferences": {}
}