{
  "_format": "hh-sol-artifact-1",
  "contractName": "Pool",
  "sourceName": "contracts/Pool.sol",
  "abi": [
    {
      "inputs": [
        {
          "internalType": "address",
          "name": "_deployaddress",
          "type": "address"
        },
        {
          "internalType": "address",
          "name": "_sDeployAddress",
          "type": "address"
        },
        {
          "internalType": "address",
          "name": "_ETHtokenAddress",
          "type": "address"
        }
      ],
      "stateMutability": "nonpayable",
      "type": "constructor"
    },
    {
      "inputs": [],
      "name": "ARBtokenAddress",
      "outputs": [
        {
          "internalType": "address",
          "name": "",
          "type": "address"
        }
      ],
      "stateMutability": "view",
      "type": "function"
    },
    {
      "inputs": [],
      "name": "ArbLpaddress",
      "outputs": [
        {
          "internalType": "address",
          "name": "",
          "type": "address"
        }
      ],
      "stateMutability": "view",
      "type": "function"
    },
    {
      "inputs": [],
      "name": "ETHtokenAddress",
      "outputs": [
        {
          "internalType": "address",
          "name": "",
          "type": "address"
        }
      ],
      "stateMutability": "view",
      "type": "function"
    },
    {
      "inputs": [],
      "name": "EthLpaddress",
      "outputs": [
        {
          "internalType": "address",
          "name": "",
          "type": "address"
        }
      ],
      "stateMutability": "view",
      "type": "function"
    },
    {
      "inputs": [
        {
          "internalType": "address",
          "name": "_userAccount",
          "type": "address"
        },
        {
          "internalType": "address",
          "name": "_factoryAddress",
          "type": "address"
        },
        {
          "internalType": "address",
          "name": "_differToken",
          "type": "address"
        },
        {
          "internalType": "uint256",
          "name": "_differAmount",
          "type": "uint256"
        }
      ],
      "name": "Swithdraw",
      "outputs": [],
      "stateMutability": "nonpayable",
      "type": "function"
    },
    {
      "inputs": [],
      "name": "USDTtokenAddress",
      "outputs": [
        {
          "internalType": "address",
          "name": "",
          "type": "address"
        }
      ],
      "stateMutability": "view",
      "type": "function"
    },
    {
      "inputs": [],
      "name": "UsdtLpaddress",
      "outputs": [
        {
          "internalType": "address",
          "name": "",
          "type": "address"
        }
      ],
      "stateMutability": "view",
      "type": "function"
    },
    {
      "inputs": [
        {
          "internalType": "address",
          "name": "_userAccount",
          "type": "address"
        },
        {
          "internalType": "address",
          "name": "_factoryAddress",
          "type": "address"
        },
        {
          "internalType": "address",
          "name": "_asdToken",
          "type": "address"
        }
      ],
      "name": "claimWithdraw",
      "outputs": [],
      "stateMutability": "nonpayable",
      "type": "function"
    },
    {
      "inputs": [
        {
          "internalType": "address",
          "name": "_userAccount",
          "type": "address"
        }
      ],
      "name": "depositEther",
      "outputs": [],
      "stateMutability": "payable",
      "type": "function"
    },
    {
      "inputs": [
        {
          "internalType": "address",
          "name": "_token1",
          "type": "address"
        },
        {
          "internalType": "uint256",
          "name": "_amount1",
          "type": "uint256"
        },
        {
          "internalType": "address",
          "name": "_token2",
          "type": "address"
        },
        {
          "internalType": "uint256",
          "name": "_amount2",
          "type": "uint256"
        },
        {
          "internalType": "address",
          "name": "_userAccount",
          "type": "address"
        },
        {
          "internalType": "address",
          "name": "_factoryAddress",
          "type": "address"
        }
      ],
      "name": "differLiquid",
      "outputs": [],
      "stateMutability": "nonpayable",
      "type": "function"
    },
    {
      "inputs": [
        {
          "internalType": "address",
          "name": "_token1",
          "type": "address"
        },
        {
          "internalType": "address",
          "name": "_token2",
          "type": "address"
        },
        {
          "internalType": "address",
          "name": "_contractAddress",
          "type": "address"
        }
      ],
      "name": "differLpPool",
      "outputs": [],
      "stateMutability": "nonpayable",
      "type": "function"
    },
    {
      "inputs": [
        {
          "internalType": "address",
          "name": "_userAccount",
          "type": "address"
        },
        {
          "internalType": "address",
          "name": "_factoryAddress",
          "type": "address"
        },
        {
          "internalType": "address",
          "name": "_differLp",
          "type": "address"
        },
        {
          "internalType": "uint256",
          "name": "_amount",
          "type": "uint256"
        }
      ],
      "name": "differLpWithdraw",
      "outputs": [],
      "stateMutability": "nonpayable",
      "type": "function"
    },
    {
      "inputs": [
        {
          "internalType": "address",
          "name": "_differLptoken",
          "type": "address"
        },
        {
          "internalType": "address",
          "name": "_userAccount",
          "type": "address"
        },
        {
          "internalType": "address",
          "name": "_factoryAddress",
          "type": "address"
        },
        {
          "internalType": "uint256",
          "name": "_amount",
          "type": "uint256"
        },
        {
          "internalType": "uint256",
          "name": "_month",
          "type": "uint256"
        },
        {
          "internalType": "address",
          "name": "_VASDtokenAddress",
          "type": "address"
        }
      ],
      "name": "differLpstaking",
      "outputs": [],
      "stateMutability": "nonpayable",
      "type": "function"
    },
    {
      "inputs": [],
      "name": "digiCount",
      "outputs": [
        {
          "internalType": "uint256",
          "name": "",
          "type": "uint256"
        }
      ],
      "stateMutability": "view",
      "type": "function"
    },
    {
      "inputs": [],
      "name": "firstAmount",
      "outputs": [
        {
          "internalType": "uint256",
          "name": "",
          "type": "uint256"
        }
      ],
      "stateMutability": "view",
      "type": "function"
    },
    {
      "inputs": [],
      "name": "firstNum",
      "outputs": [
        {
          "internalType": "uint256",
          "name": "",
          "type": "uint256"
        }
      ],
      "stateMutability": "view",
      "type": "function"
    },
    {
      "inputs": [],
      "name": "firstTokenMon",
      "outputs": [
        {
          "internalType": "uint256",
          "name": "",
          "type": "uint256"
        }
      ],
      "stateMutability": "view",
      "type": "function"
    },
    {
      "inputs": [],
      "name": "firstTokenName",
      "outputs": [
        {
          "internalType": "address",
          "name": "",
          "type": "address"
        }
      ],
      "stateMutability": "view",
      "type": "function"
    },
    {
      "inputs": [],
      "name": "getAmount",
      "outputs": [
        {
          "internalType": "uint256",
          "name": "",
          "type": "uint256"
        },
        {
          "internalType": "uint256",
          "name": "",
          "type": "uint256"
        }
      ],
      "stateMutability": "view",
      "type": "function"
    },
    {
      "inputs": [
        {
          "internalType": "uint256",
          "name": "number",
          "type": "uint256"
        }
      ],
      "name": "getDigitCount",
      "outputs": [
        {
          "internalType": "uint256",
          "name": "",
          "type": "uint256"
        }
      ],
      "stateMutability": "nonpayable",
      "type": "function"
    },
    {
      "inputs": [
        {
          "internalType": "address",
          "name": "_userAccount",
          "type": "address"
        },
        {
          "internalType": "address",
          "name": "_differLp",
          "type": "address"
        }
      ],
      "name": "getInfor",
      "outputs": [],
      "stateMutability": "nonpayable",
      "type": "function"
    },
    {
      "inputs": [
        {
          "internalType": "address",
          "name": "_differToken",
          "type": "address"
        }
      ],
      "name": "getToken",
      "outputs": [
        {
          "internalType": "uint256",
          "name": "",
          "type": "uint256"
        }
      ],
      "stateMutability": "view",
      "type": "function"
    },
    {
      "inputs": [],
      "name": "isPossible",
      "outputs": [
        {
          "internalType": "bool",
          "name": "",
          "type": "bool"
        }
      ],
      "stateMutability": "view",
      "type": "function"
    },
    {
      "inputs": [],
      "name": "liquidAddress",
      "outputs": [
        {
          "internalType": "address",
          "name": "",
          "type": "address"
        }
      ],
      "stateMutability": "view",
      "type": "function"
    },
    {
      "inputs": [],
      "name": "lqAmountARB",
      "outputs": [
        {
          "internalType": "uint256",
          "name": "",
          "type": "uint256"
        }
      ],
      "stateMutability": "view",
      "type": "function"
    },
    {
      "inputs": [],
      "name": "lqAmountASD1",
      "outputs": [
        {
          "internalType": "uint256",
          "name": "",
          "type": "uint256"
        }
      ],
      "stateMutability": "view",
      "type": "function"
    },
    {
      "inputs": [],
      "name": "lqAmountASD2",
      "outputs": [
        {
          "internalType": "uint256",
          "name": "",
          "type": "uint256"
        }
      ],
      "stateMutability": "view",
      "type": "function"
    },
    {
      "inputs": [],
      "name": "lqAmountASD3",
      "outputs": [
        {
          "internalType": "uint256",
          "name": "",
          "type": "uint256"
        }
      ],
      "stateMutability": "view",
      "type": "function"
    },
    {
      "inputs": [],
      "name": "lqAmountETH",
      "outputs": [
        {
          "internalType": "uint256",
          "name": "",
          "type": "uint256"
        }
      ],
      "stateMutability": "view",
      "type": "function"
    },
    {
      "inputs": [],
      "name": "lqAmountUSDT",
      "outputs": [
        {
          "internalType": "uint256",
          "name": "",
          "type": "uint256"
        }
      ],
      "stateMutability": "view",
      "type": "function"
    },
    {
      "inputs": [],
      "name": "pairAddress",
      "outputs": [
        {
          "internalType": "address",
          "name": "",
          "type": "address"
        }
      ],
      "stateMutability": "view",
      "type": "function"
    },
    {
      "inputs": [],
      "name": "poolAddress",
      "outputs": [
        {
          "internalType": "address",
          "name": "",
          "type": "address"
        }
      ],
      "stateMutability": "view",
      "type": "function"
    },
    {
      "inputs": [
        {
          "internalType": "address",
          "name": "_differLptoken",
          "type": "address"
        },
        {
          "internalType": "uint256",
          "name": "_amount",
          "type": "uint256"
        },
        {
          "internalType": "address",
          "name": "_AsdToken",
          "type": "address"
        }
      ],
      "name": "refundAmount",
      "outputs": [],
      "stateMutability": "nonpayable",
      "type": "function"
    },
    {
      "inputs": [
        {
          "internalType": "address payable",
          "name": "recipient",
          "type": "address"
        },
        {
          "internalType": "uint256",
          "name": "amount",
          "type": "uint256"
        }
      ],
      "name": "refundEther",
      "outputs": [],
      "stateMutability": "nonpayable",
      "type": "function"
    },
    {
      "inputs": [
        {
          "internalType": "address",
          "name": "_differLptoken",
          "type": "address"
        },
        {
          "internalType": "uint256",
          "name": "_amount",
          "type": "uint256"
        },
        {
          "internalType": "address",
          "name": "_userAccount",
          "type": "address"
        },
        {
          "internalType": "address",
          "name": "_factoryAddress",
          "type": "address"
        },
        {
          "internalType": "address",
          "name": "_AsdToken",
          "type": "address"
        }
      ],
      "name": "removeLiquid",
      "outputs": [],
      "stateMutability": "nonpayable",
      "type": "function"
    },
    {
      "inputs": [
        {
          "internalType": "address",
          "name": "_userAccount",
          "type": "address"
        },
        {
          "internalType": "address",
          "name": "_factoryAddress",
          "type": "address"
        },
        {
          "internalType": "address",
          "name": "_differToken",
          "type": "address"
        },
        {
          "internalType": "uint256",
          "name": "_differAmount",
          "type": "uint256"
        }
      ],
      "name": "sDeposit",
      "outputs": [],
      "stateMutability": "nonpayable",
      "type": "function"
    },
    {
      "inputs": [],
      "name": "sDepositAddress",
      "outputs": [
        {
          "internalType": "address",
          "name": "",
          "type": "address"
        }
      ],
      "stateMutability": "view",
      "type": "function"
    },
    {
      "inputs": [],
      "name": "secondAmount",
      "outputs": [
        {
          "internalType": "uint256",
          "name": "",
          "type": "uint256"
        }
      ],
      "stateMutability": "view",
      "type": "function"
    },
    {
      "inputs": [],
      "name": "secondNum",
      "outputs": [
        {
          "internalType": "uint256",
          "name": "",
          "type": "uint256"
        }
      ],
      "stateMutability": "view",
      "type": "function"
    },
    {
      "inputs": [],
      "name": "stakingAddress",
      "outputs": [
        {
          "internalType": "address",
          "name": "",
          "type": "address"
        }
      ],
      "stateMutability": "view",
      "type": "function"
    },
    {
      "inputs": [],
      "name": "swapAddress",
      "outputs": [
        {
          "internalType": "address",
          "name": "",
          "type": "address"
        }
      ],
      "stateMutability": "view",
      "type": "function"
    },
    {
      "inputs": [
        {
          "internalType": "address",
          "name": "_diffrentToken",
          "type": "address"
        },
        {
          "internalType": "address",
          "name": "_AsdToken",
          "type": "address"
        },
        {
          "internalType": "address",
          "name": "_userAccount",
          "type": "address"
        },
        {
          "internalType": "address",
          "name": "_contractAddress",
          "type": "address"
        },
        {
          "internalType": "uint256",
          "name": "_amount",
          "type": "uint256"
        }
      ],
      "name": "swapToken",
      "outputs": [],
      "stateMutability": "nonpayable",
      "type": "function"
    },
    {
      "inputs": [],
      "name": "taxAddress",
      "outputs": [
        {
          "internalType": "address",
          "name": "",
          "type": "address"
        }
      ],
      "stateMutability": "view",
      "type": "function"
    },
    {
      "inputs": [
        {
          "internalType": "address",
          "name": "",
          "type": "address"
        },
        {
          "internalType": "address",
          "name": "",
          "type": "address"
        }
      ],
      "name": "testinfo",
      "outputs": [
        {
          "internalType": "bool",
          "name": "",
          "type": "bool"
        }
      ],
      "stateMutability": "view",
      "type": "function"
    },
    {
      "inputs": [],
      "name": "totalLpAmount",
      "outputs": [
        {
          "internalType": "uint256",
          "name": "",
          "type": "uint256"
        }
      ],
      "stateMutability": "view",
      "type": "function"
    },
    {
      "inputs": [],
      "name": "withdrawAsd",
      "outputs": [
        {
          "internalType": "uint256",
          "name": "",
          "type": "uint256"
        }
      ],
      "stateMutability": "view",
      "type": "function"
    },
    {
      "inputs": [],
      "name": "withdrawtoken1",
      "outputs": [
        {
          "internalType": "uint256",
          "name": "",
          "type": "uint256"
        }
      ],
      "stateMutability": "view",
      "type": "function"
    }
  ],
  "bytecode": "0x60806040523480156200001157600080fd5b5060405162003c1838038062003c188339818101604052810190620000379190620003c7565b306000806101000a81548173ffffffffffffffffffffffffffffffffffffffff021916908373ffffffffffffffffffffffffffffffffffffffff1602179055508273ffffffffffffffffffffffffffffffffffffffff1663ee136a566040518163ffffffff1660e01b815260040160606040518083038186803b158015620000be57600080fd5b505afa158015620000d3573d6000803e3d6000fd5b505050506040513d601f19601f82011682018060405250810190620000f99190620003c7565b6007600060086000600960008691906101000a81548173ffffffffffffffffffffffffffffffffffffffff021916908373ffffffffffffffffffffffffffffffffffffffff1602179055508591906101000a81548173ffffffffffffffffffffffffffffffffffffffff021916908373ffffffffffffffffffffffffffffffffffffffff1602179055508491906101000a81548173ffffffffffffffffffffffffffffffffffffffff021916908373ffffffffffffffffffffffffffffffffffffffff1602179055505050508173ffffffffffffffffffffffffffffffffffffffff1663b470e8e86040518163ffffffff1660e01b815260040160606040518083038186803b1580156200020c57600080fd5b505afa15801562000221573d6000803e3d6000fd5b505050506040513d601f19601f82011682018060405250810190620002479190620003c7565b600a6000600b6000600c60008691906101000a81548173ffffffffffffffffffffffffffffffffffffffff021916908373ffffffffffffffffffffffffffffffffffffffff1602179055508591906101000a81548173ffffffffffffffffffffffffffffffffffffffff021916908373ffffffffffffffffffffffffffffffffffffffff1602179055508491906101000a81548173ffffffffffffffffffffffffffffffffffffffff021916908373ffffffffffffffffffffffffffffffffffffffff16021790555050505080600360006101000a81548173ffffffffffffffffffffffffffffffffffffffff021916908373ffffffffffffffffffffffffffffffffffffffff16021790555050505062000423565b600080fd5b600073ffffffffffffffffffffffffffffffffffffffff82169050919050565b60006200038f8262000362565b9050919050565b620003a18162000382565b8114620003ad57600080fd5b50565b600081519050620003c18162000396565b92915050565b600080600060608486031215620003e357620003e26200035d565b5b6000620003f386828701620003b0565b93505060206200040686828701620003b0565b92505060406200041986828701620003b0565b9150509250925092565b6137e580620004336000396000f3fe6080604052600436106102875760003560e01c80636e13f9681161015a578063caadbea0116100c1578063ebcde5f31161007a578063ebcde5f31461096f578063f0c1a7211461099a578063fa82bec2146109d7578063fbc5780a14610a02578063fcc6171814610a2d578063fe1218a614610a5857610287565b8063caadbea01461085c578063d2313ff114610885578063d321fe29146108b0578063d5cf089b146108dc578063d7b4be2414610907578063e319be0a1461093257610287565b80638e54e40d116101135780638e54e40d146107605780639663d27c14610789578063a7339d11146107b2578063a8b08982146107dd578063b299586514610808578063b7bda68f1461083157610287565b80636e13f9681461065e57806371b881b714610689578063741ac304146106b457806378618068146106df5780637afb892e1461070a57806380f6d7821461073557610287565b80633416a4ee116101fe5780634aac6772116101b75780634aac6772146105595780634e86443f1461058457806352802121146105af578063532d7397146105cb57806359770438146105f65780635ced16d21461063357610287565b80633416a4ee1461045b5780633d1b719f1461048457806341a1f85b146104af578063428c24e2146104da57806343388b7f146105055780634713b7841461052e57610287565b806310d69c4f1161025057806310d69c4f1461035f5780631453ade414610388578063169f97ae146103b15780631755ff21146103dc5780631d15546d14610407578063330bbf101461043257610287565b80622a6d2e1461028c578063062887f8146102b7578063080a14f4146102e257806308d4d4791461030b5780630dd1d04e14610336575b600080fd5b34801561029857600080fd5b506102a1610a81565b6040516102ae91906125fb565b60405180910390f35b3480156102c357600080fd5b506102cc610aa7565b6040516102d9919061262f565b60405180910390f35b3480156102ee57600080fd5b50610309600480360381019061030491906126b6565b610aad565b005b34801561031757600080fd5b50610320610b49565b60405161032d919061262f565b60405180910390f35b34801561034257600080fd5b5061035d60048036038101906103589190612731565b610b4f565b005b34801561036b57600080fd5b5061038660048036038101906103819190612784565b610be5565b005b34801561039457600080fd5b506103af60048036038101906103aa9190612811565b610c84565b005b3480156103bd57600080fd5b506103c6610d1d565b6040516103d391906125fb565b60405180910390f35b3480156103e857600080fd5b506103f1610d43565b6040516103fe91906125fb565b60405180910390f35b34801561041357600080fd5b5061041c610d67565b60405161042991906125fb565b60405180910390f35b34801561043e57600080fd5b5061045960048036038101906104549190612878565b610d8d565b005b34801561046757600080fd5b50610482600480360381019061047d9190612811565b61101a565b005b34801561049057600080fd5b506104996110b3565b6040516104a691906125fb565b60405180910390f35b3480156104bb57600080fd5b506104c46110d9565b6040516104d191906125fb565b60405180910390f35b3480156104e657600080fd5b506104ef6110ff565b6040516104fc919061262f565b60405180910390f35b34801561051157600080fd5b5061052c600480360381019061052791906128b8565b611105565b005b34801561053a57600080fd5b5061054361124e565b60405161055091906125fb565b60405180910390f35b34801561056557600080fd5b5061056e611274565b60405161057b919061262f565b60405180910390f35b34801561059057600080fd5b5061059961127a565b6040516105a6919061262f565b60405180910390f35b6105c960048036038101906105c4919061290b565b611280565b005b3480156105d757600080fd5b506105e06114a3565b6040516105ed919061262f565b60405180910390f35b34801561060257600080fd5b5061061d6004803603810190610618919061290b565b6114a9565b60405161062a919061262f565b60405180910390f35b34801561063f57600080fd5b5061064861153b565b60405161065591906125fb565b60405180910390f35b34801561066a57600080fd5b50610673611561565b604051610680919061262f565b60405180910390f35b34801561069557600080fd5b5061069e611567565b6040516106ab91906125fb565b60405180910390f35b3480156106c057600080fd5b506106c961158d565b6040516106d6919061262f565b60405180910390f35b3480156106eb57600080fd5b506106f4611593565b604051610701919061262f565b60405180910390f35b34801561071657600080fd5b5061071f611599565b60405161072c9190612953565b60405180910390f35b34801561074157600080fd5b5061074a6115ac565b60405161075791906125fb565b60405180910390f35b34801561076c57600080fd5b50610787600480360381019061078291906129ac565b6115d2565b005b34801561079557600080fd5b506107b060048036038101906107ab91906129ec565b611660565b005b3480156107be57600080fd5b506107c7611dbf565b6040516107d4919061262f565b60405180910390f35b3480156107e957600080fd5b506107f2611dc5565b6040516107ff91906125fb565b60405180910390f35b34801561081457600080fd5b5061082f600480360381019061082a9190612811565b611deb565b005b34801561083d57600080fd5b50610846611e84565b60405161085391906125fb565b60405180910390f35b34801561086857600080fd5b50610883600480360381019061087e9190612a67565b611eaa565b005b34801561089157600080fd5b5061089a61227e565b6040516108a7919061262f565b60405180910390f35b3480156108bc57600080fd5b506108c5612284565b6040516108d3929190612af4565b60405180910390f35b3480156108e857600080fd5b506108f1612295565b6040516108fe919061262f565b60405180910390f35b34801561091357600080fd5b5061091c61229b565b60405161092991906125fb565b60405180910390f35b34801561093e57600080fd5b5061095960048036038101906109549190612b1d565b6122c1565b604051610966919061262f565b60405180910390f35b34801561097b57600080fd5b50610984612337565b60405161099191906125fb565b60405180910390f35b3480156109a657600080fd5b506109c160048036038101906109bc9190612878565b61235d565b6040516109ce9190612953565b60405180910390f35b3480156109e357600080fd5b506109ec61238b565b6040516109f9919061262f565b60405180910390f35b348015610a0e57600080fd5b50610a17612391565b604051610a24919061262f565b60405180910390f35b348015610a3957600080fd5b50610a42612397565b604051610a4f919061262f565b60405180910390f35b348015610a6457600080fd5b50610a7f6004803603810190610a7a9190612731565b61239d565b005b601460009054906101000a900473ffffffffffffffffffffffffffffffffffffffff1681565b60135481565b600960009054906101000a900473ffffffffffffffffffffffffffffffffffffffff1673ffffffffffffffffffffffffffffffffffffffff166351b429a086868686866040518663ffffffff1660e01b8152600401610b10959493929190612b4a565b600060405180830381600087803b158015610b2a57600080fd5b505af1158015610b3e573d6000803e3d6000fd5b505050505050505050565b60195481565b600c60009054906101000a900473ffffffffffffffffffffffffffffffffffffffff1673ffffffffffffffffffffffffffffffffffffffff166302933b448484846040518463ffffffff1660e01b8152600401610bae93929190612b9d565b600060405180830381600087803b158015610bc857600080fd5b505af1158015610bdc573d6000803e3d6000fd5b50505050505050565b600a60009054906101000a900473ffffffffffffffffffffffffffffffffffffffff1673ffffffffffffffffffffffffffffffffffffffff1663a7f8cd098787878787876040518763ffffffff1660e01b8152600401610c4a96959493929190612bd4565b600060405180830381600087803b158015610c6457600080fd5b505af1158015610c78573d6000803e3d6000fd5b50505050505050505050565b600a60009054906101000a900473ffffffffffffffffffffffffffffffffffffffff1673ffffffffffffffffffffffffffffffffffffffff1663a6c46bc2858585856040518563ffffffff1660e01b8152600401610ce59493929190612c35565b600060405180830381600087803b158015610cff57600080fd5b505af1158015610d13573d6000803e3d6000fd5b5050505050505050565b600660009054906101000a900473ffffffffffffffffffffffffffffffffffffffff1681565b60008054906101000a900473ffffffffffffffffffffffffffffffffffffffff1681565b600160009054906101000a900473ffffffffffffffffffffffffffffffffffffffff1681565b600a60009054906101000a900473ffffffffffffffffffffffffffffffffffffffff1673ffffffffffffffffffffffffffffffffffffffff16639020783383836040518363ffffffff1660e01b8152600401610dea929190612c7a565b600060405180830381600087803b158015610e0457600080fd5b505af1158015610e18573d6000803e3d6000fd5b505050506040513d6000823e3d601f19601f82011682018060405250810190610e419190612ee9565b5050600a60009054906101000a900473ffffffffffffffffffffffffffffffffffffffff1673ffffffffffffffffffffffffffffffffffffffff166360d586f86040518163ffffffff1660e01b815260040160c060405180830381600087803b158015610ead57600080fd5b505af1158015610ec1573d6000803e3d6000fd5b505050506040513d601f19601f82011682018060405250810190610ee59190612f61565b6012600060136000601460006015600060166000601760008c919050558b919050558a919050558991906101000a81548173ffffffffffffffffffffffffffffffffffffffff021916908373ffffffffffffffffffffffffffffffffffffffff16021790555088919050558791905055505050505050600a60009054906101000a900473ffffffffffffffffffffffffffffffffffffffff1673ffffffffffffffffffffffffffffffffffffffff1663c515205d6040518163ffffffff1660e01b8152600401602060405180830381600087803b158015610fc557600080fd5b505af1158015610fd9573d6000803e3d6000fd5b505050506040513d601f19601f82011682018060405250810190610ffd919061301a565b601160006101000a81548160ff0219169083151502179055505050565b600c60009054906101000a900473ffffffffffffffffffffffffffffffffffffffff1673ffffffffffffffffffffffffffffffffffffffff16633416a4ee858585856040518563ffffffff1660e01b815260040161107b9493929190612c35565b600060405180830381600087803b15801561109557600080fd5b505af11580156110a9573d6000803e3d6000fd5b5050505050505050565b600360009054906101000a900473ffffffffffffffffffffffffffffffffffffffff1681565b600c60009054906101000a900473ffffffffffffffffffffffffffffffffffffffff1681565b60125481565b600860009054906101000a900473ffffffffffffffffffffffffffffffffffffffff1673ffffffffffffffffffffffffffffffffffffffff1663d21a3e068484846040518463ffffffff1660e01b815260040161116493929190613047565b600060405180830381600087803b15801561117e57600080fd5b505af1158015611192573d6000803e3d6000fd5b50505050600860009054906101000a900473ffffffffffffffffffffffffffffffffffffffff1673ffffffffffffffffffffffffffffffffffffffff166336f6c6336040518163ffffffff1660e01b8152600401604080518083038186803b1580156111fd57600080fd5b505afa158015611211573d6000803e3d6000fd5b505050506040513d601f19601f82011682018060405250810190611235919061307e565b600d6000600e6000849190505583919050555050505050565b600860009054906101000a900473ffffffffffffffffffffffffffffffffffffffff1681565b600d5481565b60165481565b600073ffffffffffffffffffffffffffffffffffffffff16600360009054906101000a900473ffffffffffffffffffffffffffffffffffffffff1673ffffffffffffffffffffffffffffffffffffffff161415611312576040517f08c379a00000000000000000000000000000000000000000000000000000000081526004016113099061311b565b60405180910390fd5b600061131d346122c1565b9050600081600a61132e919061329d565b346113399190613317565b9050600360009054906101000a900473ffffffffffffffffffffffffffffffffffffffff1673ffffffffffffffffffffffffffffffffffffffff1663e234496382846040518363ffffffff1660e01b8152600401611398929190612af4565b600060405180830381600087803b1580156113b257600080fd5b505af11580156113c6573d6000803e3d6000fd5b50505050600360009054906101000a900473ffffffffffffffffffffffffffffffffffffffff1673ffffffffffffffffffffffffffffffffffffffff166323b872dd600360009054906101000a900473ffffffffffffffffffffffffffffffffffffffff1685346040518463ffffffff1660e01b815260040161144b93929190613348565b602060405180830381600087803b15801561146557600080fd5b505af1158015611479573d6000803e3d6000fd5b505050506040513d601f19601f8201168201806040525081019061149d919061301a565b50505050565b600f5481565b60008173ffffffffffffffffffffffffffffffffffffffff166370a08231336040518263ffffffff1660e01b81526004016114e491906125fb565b60206040518083038186803b1580156114fc57600080fd5b505afa158015611510573d6000803e3d6000fd5b505050506040513d601f19601f82011682018060405250810190611534919061337f565b9050919050565b600560009054906101000a900473ffffffffffffffffffffffffffffffffffffffff1681565b60175481565b600260009054906101000a900473ffffffffffffffffffffffffffffffffffffffff1681565b601b5481565b600e5481565b601160009054906101000a900460ff1681565b600960009054906101000a900473ffffffffffffffffffffffffffffffffffffffff1681565b80471015611615576040517f08c379a000000000000000000000000000000000000000000000000000000000815260040161160c906133f8565b60405180910390fd5b8173ffffffffffffffffffffffffffffffffffffffff166108fc829081150290604051600060405180830381858888f1935050505015801561165b573d6000803e3d6000fd5b505050565b600860009054906101000a900473ffffffffffffffffffffffffffffffffffffffff1673ffffffffffffffffffffffffffffffffffffffff166308bac40286868686866040518663ffffffff1660e01b81526004016116c3959493929190613418565b600060405180830381600087803b1580156116dd57600080fd5b505af11580156116f1573d6000803e3d6000fd5b50505050600860009054906101000a900473ffffffffffffffffffffffffffffffffffffffff1673ffffffffffffffffffffffffffffffffffffffff1663607c94f06040518163ffffffff1660e01b815260040160c06040518083038186803b15801561175d57600080fd5b505afa158015611771573d6000803e3d6000fd5b505050506040513d601f19601f82011682018060405250810190611795919061346b565b600d6000600e6000600f60006001600060026000600360008c91906101000a81548173ffffffffffffffffffffffffffffffffffffffff021916908373ffffffffffffffffffffffffffffffffffffffff1602179055508b91906101000a81548173ffffffffffffffffffffffffffffffffffffffff021916908373ffffffffffffffffffffffffffffffffffffffff1602179055508a91906101000a81548173ffffffffffffffffffffffffffffffffffffffff021916908373ffffffffffffffffffffffffffffffffffffffff16021790555089919050558891905055879190505550505050505060008573ffffffffffffffffffffffffffffffffffffffff166306fdde036040518163ffffffff1660e01b815260040160006040518083038186803b1580156118c757600080fd5b505afa1580156118db573d6000803e3d6000fd5b505050506040513d6000823e3d601f19601f8201168201806040525081019061190491906135d1565b90506000670de0b6b3a7640000600d5461191e9190613317565b90506000670de0b6b3a7640000600e546119389190613317565b9050611979836040518060400160405280600581526020017f4152424c5000000000000000000000000000000000000000000000000000000081525061259f565b15611ab9578160186000600160009054906101000a900473ffffffffffffffffffffffffffffffffffffffff1673ffffffffffffffffffffffffffffffffffffffff1673ffffffffffffffffffffffffffffffffffffffff16815260200190815260200160002060008282546119ef919061361a565b9250508190555080601860008673ffffffffffffffffffffffffffffffffffffffff1673ffffffffffffffffffffffffffffffffffffffff1681526020019081526020016000206000828254611a45919061361a565b9250508190555060186000600160009054906101000a900473ffffffffffffffffffffffffffffffffffffffff1673ffffffffffffffffffffffffffffffffffffffff1673ffffffffffffffffffffffffffffffffffffffff16815260200190815260200160002054601981905550611db5565b611af8836040518060400160405280600681526020017f555344544c50000000000000000000000000000000000000000000000000000081525061259f565b15611c38578160186000600260009054906101000a900473ffffffffffffffffffffffffffffffffffffffff1673ffffffffffffffffffffffffffffffffffffffff1673ffffffffffffffffffffffffffffffffffffffff1681526020019081526020016000206000828254611b6e919061361a565b9250508190555080601860008673ffffffffffffffffffffffffffffffffffffffff1673ffffffffffffffffffffffffffffffffffffffff1681526020019081526020016000206000828254611bc4919061361a565b9250508190555060186000600260009054906101000a900473ffffffffffffffffffffffffffffffffffffffff1673ffffffffffffffffffffffffffffffffffffffff1673ffffffffffffffffffffffffffffffffffffffff16815260200190815260200160002054601a81905550611db4565b611c77836040518060400160405280600581526020017f4554484c5000000000000000000000000000000000000000000000000000000081525061259f565b15611db3578160186000600360009054906101000a900473ffffffffffffffffffffffffffffffffffffffff1673ffffffffffffffffffffffffffffffffffffffff1673ffffffffffffffffffffffffffffffffffffffff1681526020019081526020016000206000828254611ced919061361a565b9250508190555080601860008673ffffffffffffffffffffffffffffffffffffffff1673ffffffffffffffffffffffffffffffffffffffff1681526020019081526020016000206000828254611d43919061361a565b9250508190555060186000600360009054906101000a900473ffffffffffffffffffffffffffffffffffffffff1673ffffffffffffffffffffffffffffffffffffffff1673ffffffffffffffffffffffffffffffffffffffff16815260200190815260200160002054601b819055505b5b5b5050505050505050565b601c5481565b600760009054906101000a900473ffffffffffffffffffffffffffffffffffffffff1681565b600c60009054906101000a900473ffffffffffffffffffffffffffffffffffffffff1673ffffffffffffffffffffffffffffffffffffffff1663b90cdbb5858585856040518563ffffffff1660e01b8152600401611e4c9493929190612c35565b600060405180830381600087803b158015611e6657600080fd5b505af1158015611e7a573d6000803e3d6000fd5b5050505050505050565b600b60009054906101000a900473ffffffffffffffffffffffffffffffffffffffff1681565b600860009054906101000a900473ffffffffffffffffffffffffffffffffffffffff1673ffffffffffffffffffffffffffffffffffffffff1663d2dcb80b878787878787600760009054906101000a900473ffffffffffffffffffffffffffffffffffffffff166040518863ffffffff1660e01b8152600401611f33979695949392919061364e565b600060405180830381600087803b158015611f4d57600080fd5b505af1158015611f61573d6000803e3d6000fd5b505050506000670de0b6b3a764000086611f7b9190613317565b90506000670de0b6b3a764000085611f939190613317565b905081601860008a73ffffffffffffffffffffffffffffffffffffffff1673ffffffffffffffffffffffffffffffffffffffff1681526020019081526020016000206000828254611fe491906136bd565b9250508190555080601860008873ffffffffffffffffffffffffffffffffffffffff1673ffffffffffffffffffffffffffffffffffffffff168152602001908152602001600020600082825461203a91906136bd565b9250508190555060008873ffffffffffffffffffffffffffffffffffffffff166306fdde036040518163ffffffff1660e01b815260040160006040518083038186803b15801561208957600080fd5b505afa15801561209d573d6000803e3d6000fd5b505050506040513d6000823e3d601f19601f820116820180604052508101906120c691906135d1565b9050612107816040518060400160405280600381526020017f415242000000000000000000000000000000000000000000000000000000000081525061259f565b1561215757601860008a73ffffffffffffffffffffffffffffffffffffffff1673ffffffffffffffffffffffffffffffffffffffff16815260200190815260200160002054601981905550612273565b612196816040518060400160405280600481526020017f555344540000000000000000000000000000000000000000000000000000000081525061259f565b156121e657601860008a73ffffffffffffffffffffffffffffffffffffffff1673ffffffffffffffffffffffffffffffffffffffff16815260200190815260200160002054601a81905550612272565b612225816040518060400160405280600381526020017f455448000000000000000000000000000000000000000000000000000000000081525061259f565b1561227157601860008a73ffffffffffffffffffffffffffffffffffffffff1673ffffffffffffffffffffffffffffffffffffffff16815260200190815260200160002054601b819055505b5b5b505050505050505050565b601e5481565b600080600d54600e54915091509091565b60155481565b600a60009054906101000a900473ffffffffffffffffffffffffffffffffffffffff1681565b6000808214156122d45760019050612332565b6000806010819055505b60008311156123215780806122f290613713565b9150506010600081548092919061230890613713565b9190505550600a8361231a9190613317565b92506122de565b60018161232e919061361a565b9150505b919050565b600460009054906101000a900473ffffffffffffffffffffffffffffffffffffffff1681565b602080528160005260406000206020528060005260406000206000915091509054906101000a900460ff1681565b60105481565b601d5481565b601a5481565b600760009054906101000a900473ffffffffffffffffffffffffffffffffffffffff1673ffffffffffffffffffffffffffffffffffffffff16630b026fd48484846040518463ffffffff1660e01b81526004016123fc93929190612b9d565b600060405180830381600087803b15801561241657600080fd5b505af115801561242a573d6000803e3d6000fd5b50505050600760009054906101000a900473ffffffffffffffffffffffffffffffffffffffff1673ffffffffffffffffffffffffffffffffffffffff1663d1e9a5fd6040518163ffffffff1660e01b815260040160606040518083038186803b15801561249657600080fd5b505afa1580156124aa573d6000803e3d6000fd5b505050506040513d601f19601f820116820180604052508101906124ce919061375c565b6004600060056000600660008691906101000a81548173ffffffffffffffffffffffffffffffffffffffff021916908373ffffffffffffffffffffffffffffffffffffffff1602179055508591906101000a81548173ffffffffffffffffffffffffffffffffffffffff021916908373ffffffffffffffffffffffffffffffffffffffff1602179055508491906101000a81548173ffffffffffffffffffffffffffffffffffffffff021916908373ffffffffffffffffffffffffffffffffffffffff160217905550505050505050565b60008180519060200120838051906020012014905092915050565b600073ffffffffffffffffffffffffffffffffffffffff82169050919050565b60006125e5826125ba565b9050919050565b6125f5816125da565b82525050565b600060208201905061261060008301846125ec565b92915050565b6000819050919050565b61262981612616565b82525050565b60006020820190506126446000830184612620565b92915050565b6000604051905090565b600080fd5b600080fd5b612667816125da565b811461267257600080fd5b50565b6000813590506126848161265e565b92915050565b61269381612616565b811461269e57600080fd5b50565b6000813590506126b08161268a565b92915050565b600080600080600060a086880312156126d2576126d1612654565b5b60006126e088828901612675565b95505060206126f188828901612675565b945050604061270288828901612675565b935050606061271388828901612675565b9250506080612724888289016126a1565b9150509295509295909350565b60008060006060848603121561274a57612749612654565b5b600061275886828701612675565b935050602061276986828701612675565b925050604061277a86828701612675565b9150509250925092565b60008060008060008060c087890312156127a1576127a0612654565b5b60006127af89828a01612675565b96505060206127c089828a01612675565b95505060406127d189828a01612675565b94505060606127e289828a016126a1565b93505060806127f389828a016126a1565b92505060a061280489828a01612675565b9150509295509295509295565b6000806000806080858703121561282b5761282a612654565b5b600061283987828801612675565b945050602061284a87828801612675565b935050604061285b87828801612675565b925050606061286c878288016126a1565b91505092959194509250565b6000806040838503121561288f5761288e612654565b5b600061289d85828601612675565b92505060206128ae85828601612675565b9150509250929050565b6000806000606084860312156128d1576128d0612654565b5b60006128df86828701612675565b93505060206128f0868287016126a1565b925050604061290186828701612675565b9150509250925092565b60006020828403121561292157612920612654565b5b600061292f84828501612675565b91505092915050565b60008115159050919050565b61294d81612938565b82525050565b60006020820190506129686000830184612944565b92915050565b6000612979826125ba565b9050919050565b6129898161296e565b811461299457600080fd5b50565b6000813590506129a681612980565b92915050565b600080604083850312156129c3576129c2612654565b5b60006129d185828601612997565b92505060206129e2858286016126a1565b9150509250929050565b600080600080600060a08688031215612a0857612a07612654565b5b6000612a1688828901612675565b9550506020612a27888289016126a1565b9450506040612a3888828901612675565b9350506060612a4988828901612675565b9250506080612a5a88828901612675565b9150509295509295909350565b60008060008060008060c08789031215612a8457612a83612654565b5b6000612a9289828a01612675565b9650506020612aa389828a016126a1565b9550506040612ab489828a01612675565b9450506060612ac589828a016126a1565b9350506080612ad689828a01612675565b92505060a0612ae789828a01612675565b9150509295509295509295565b6000604082019050612b096000830185612620565b612b166020830184612620565b9392505050565b600060208284031215612b3357612b32612654565b5b6000612b41848285016126a1565b91505092915050565b600060a082019050612b5f60008301886125ec565b612b6c60208301876125ec565b612b7960408301866125ec565b612b8660608301856125ec565b612b936080830184612620565b9695505050505050565b6000606082019050612bb260008301866125ec565b612bbf60208301856125ec565b612bcc60408301846125ec565b949350505050565b600060c082019050612be960008301896125ec565b612bf660208301886125ec565b612c0360408301876125ec565b612c106060830186612620565b612c1d6080830185612620565b612c2a60a08301846125ec565b979650505050505050565b6000608082019050612c4a60008301876125ec565b612c5760208301866125ec565b612c6460408301856125ec565b612c716060830184612620565b95945050505050565b6000604082019050612c8f60008301856125ec565b612c9c60208301846125ec565b9392505050565b600080fd5b6000601f19601f8301169050919050565b7f4e487b7100000000000000000000000000000000000000000000000000000000600052604160045260246000fd5b612cf182612ca8565b810181811067ffffffffffffffff82111715612d1057612d0f612cb9565b5b80604052505050565b6000612d2361264a565b9050612d2f8282612ce8565b919050565b600067ffffffffffffffff821115612d4f57612d4e612cb9565b5b602082029050602081019050919050565b600080fd5b600081519050612d748161265e565b92915050565b6000612d8d612d8884612d34565b612d19565b90508083825260208201905060208402830185811115612db057612daf612d60565b5b835b81811015612dd95780612dc58882612d65565b845260208401935050602081019050612db2565b5050509392505050565b600082601f830112612df857612df7612ca3565b5b8151612e08848260208601612d7a565b91505092915050565b600067ffffffffffffffff821115612e2c57612e2b612cb9565b5b602082029050602081019050919050565b600081519050612e4c8161268a565b92915050565b6000612e65612e6084612e11565b612d19565b90508083825260208201905060208402830185811115612e8857612e87612d60565b5b835b81811015612eb15780612e9d8882612e3d565b845260208401935050602081019050612e8a565b5050509392505050565b600082601f830112612ed057612ecf612ca3565b5b8151612ee0848260208601612e52565b91505092915050565b60008060408385031215612f0057612eff612654565b5b600083015167ffffffffffffffff811115612f1e57612f1d612659565b5b612f2a85828601612de3565b925050602083015167ffffffffffffffff811115612f4b57612f4a612659565b5b612f5785828601612ebb565b9150509250929050565b60008060008060008060c08789031215612f7e57612f7d612654565b5b6000612f8c89828a01612e3d565b9650506020612f9d89828a01612e3d565b9550506040612fae89828a01612d65565b9450506060612fbf89828a01612e3d565b9350506080612fd089828a01612e3d565b92505060a0612fe189828a01612e3d565b9150509295509295509295565b612ff781612938565b811461300257600080fd5b50565b60008151905061301481612fee565b92915050565b6000602082840312156130305761302f612654565b5b600061303e84828501613005565b91505092915050565b600060608201905061305c60008301866125ec565b6130696020830185612620565b61307660408301846125ec565b949350505050565b6000806040838503121561309557613094612654565b5b60006130a385828601612e3d565b92505060206130b485828601612e3d565b9150509250929050565b600082825260208201905092915050565b7f636865636b2074686520746f6b656e206d616b65640000000000000000000000600082015250565b60006131056015836130be565b9150613110826130cf565b602082019050919050565b60006020820190508181036000830152613134816130f8565b9050919050565b7f4e487b7100000000000000000000000000000000000000000000000000000000600052601160045260246000fd5b60008160011c9050919050565b6000808291508390505b60018511156131c15780860481111561319d5761319c61313b565b5b60018516156131ac5780820291505b80810290506131ba8561316a565b9450613181565b94509492505050565b6000826131da5760019050613296565b816131e85760009050613296565b81600181146131fe576002811461320857613237565b6001915050613296565b60ff84111561321a5761321961313b565b5b8360020a9150848211156132315761323061313b565b5b50613296565b5060208310610133831016604e8410600b841016171561326c5782820a9050838111156132675761326661313b565b5b613296565b6132798484846001613177565b925090508184048111156132905761328f61313b565b5b81810290505b9392505050565b60006132a882612616565b91506132b383612616565b92506132e07fffffffffffffffffffffffffffffffffffffffffffffffffffffffffffffffff84846131ca565b905092915050565b7f4e487b7100000000000000000000000000000000000000000000000000000000600052601260045260246000fd5b600061332282612616565b915061332d83612616565b92508261333d5761333c6132e8565b5b828204905092915050565b600060608201905061335d60008301866125ec565b61336a60208301856125ec565b6133776040830184612620565b949350505050565b60006020828403121561339557613394612654565b5b60006133a384828501612e3d565b91505092915050565b7f4e6f7420656e6f7567682045544820696e20636f6e7472616374000000000000600082015250565b60006133e2601a836130be565b91506133ed826133ac565b602082019050919050565b60006020820190508181036000830152613411816133d5565b9050919050565b600060a08201905061342d60008301886125ec565b61343a6020830187612620565b61344760408301866125ec565b61345460608301856125ec565b61346160808301846125ec565b9695505050505050565b60008060008060008060c0878903121561348857613487612654565b5b600061349689828a01612e3d565b96505060206134a789828a01612e3d565b95505060406134b889828a01612e3d565b94505060606134c989828a01612d65565b93505060806134da89828a01612d65565b92505060a06134eb89828a01612d65565b9150509295509295509295565b600080fd5b600067ffffffffffffffff82111561351857613517612cb9565b5b61352182612ca8565b9050602081019050919050565b60005b8381101561354c578082015181840152602081019050613531565b8381111561355b576000848401525b50505050565b600061357461356f846134fd565b612d19565b9050828152602081018484840111156135905761358f6134f8565b5b61359b84828561352e565b509392505050565b600082601f8301126135b8576135b7612ca3565b5b81516135c8848260208601613561565b91505092915050565b6000602082840312156135e7576135e6612654565b5b600082015167ffffffffffffffff81111561360557613604612659565b5b613611848285016135a3565b91505092915050565b600061362582612616565b915061363083612616565b9250828210156136435761364261313b565b5b828203905092915050565b600060e082019050613663600083018a6125ec565b6136706020830189612620565b61367d60408301886125ec565b61368a6060830187612620565b61369760808301866125ec565b6136a460a08301856125ec565b6136b160c08301846125ec565b98975050505050505050565b60006136c882612616565b91506136d383612616565b9250827fffffffffffffffffffffffffffffffffffffffffffffffffffffffffffffffff038211156137085761370761313b565b5b828201905092915050565b600061371e82612616565b91507fffffffffffffffffffffffffffffffffffffffffffffffffffffffffffffffff8214156137515761375061313b565b5b600182019050919050565b60008060006060848603121561377557613774612654565b5b600061378386828701612d65565b935050602061379486828701612d65565b92505060406137a586828701612d65565b915050925092509256fea26469706673582212201b6e4f24c342371c656cb51535640c9945c8e0f8a8613416c47e69582274863d64736f6c63430008090033",
  "linkReferences": {},
  "deployedLinkReferences": {}
}