{
  "_format": "hh-sol-artifact-1",
  "contractName": "Pool",
  "sourceName": "contracts/Pool.sol",
  "abi": [
    {
      "inputs": [
        {
          "internalType": "address",
          "name": "_deployaddress",
          "type": "address"
        },
        {
          "internalType": "address",
          "name": "_sDeployAddress",
          "type": "address"
        },
        {
          "internalType": "address",
          "name": "_ETHtokenAddress",
          "type": "address"
        }
      ],
      "stateMutability": "nonpayable",
      "type": "constructor"
    },
    {
      "inputs": [],
      "name": "ARBtokenAddress",
      "outputs": [
        {
          "internalType": "address",
          "name": "",
          "type": "address"
        }
      ],
      "stateMutability": "view",
      "type": "function"
    },
    {
      "inputs": [],
      "name": "ArbLpaddress",
      "outputs": [
        {
          "internalType": "address",
          "name": "",
          "type": "address"
        }
      ],
      "stateMutability": "view",
      "type": "function"
    },
    {
      "inputs": [],
      "name": "ETHtokenAddress",
      "outputs": [
        {
          "internalType": "address",
          "name": "",
          "type": "address"
        }
      ],
      "stateMutability": "view",
      "type": "function"
    },
    {
      "inputs": [],
      "name": "EthLpaddress",
      "outputs": [
        {
          "internalType": "address",
          "name": "",
          "type": "address"
        }
      ],
      "stateMutability": "view",
      "type": "function"
    },
    {
      "inputs": [],
      "name": "USDTtokenAddress",
      "outputs": [
        {
          "internalType": "address",
          "name": "",
          "type": "address"
        }
      ],
      "stateMutability": "view",
      "type": "function"
    },
    {
      "inputs": [],
      "name": "UsdtLpaddress",
      "outputs": [
        {
          "internalType": "address",
          "name": "",
          "type": "address"
        }
      ],
      "stateMutability": "view",
      "type": "function"
    },
    {
      "inputs": [
        {
          "internalType": "address",
          "name": "_userAccount",
          "type": "address"
        }
      ],
      "name": "depositEther",
      "outputs": [],
      "stateMutability": "payable",
      "type": "function"
    },
    {
      "inputs": [
        {
          "internalType": "address",
          "name": "_token1",
          "type": "address"
        },
        {
          "internalType": "uint256",
          "name": "_amount1",
          "type": "uint256"
        },
        {
          "internalType": "address",
          "name": "_token2",
          "type": "address"
        },
        {
          "internalType": "uint256",
          "name": "_amount2",
          "type": "uint256"
        },
        {
          "internalType": "address",
          "name": "_userAccount",
          "type": "address"
        },
        {
          "internalType": "address",
          "name": "_factoryAddress",
          "type": "address"
        }
      ],
      "name": "differLiquid",
      "outputs": [],
      "stateMutability": "nonpayable",
      "type": "function"
    },
    {
      "inputs": [
        {
          "internalType": "address",
          "name": "_token1",
          "type": "address"
        },
        {
          "internalType": "address",
          "name": "_token2",
          "type": "address"
        },
        {
          "internalType": "address",
          "name": "_contractAddress",
          "type": "address"
        }
      ],
      "name": "differLpPool",
      "outputs": [],
      "stateMutability": "nonpayable",
      "type": "function"
    },
    {
      "inputs": [
        {
          "internalType": "address",
          "name": "_userAccount",
          "type": "address"
        },
        {
          "internalType": "address",
          "name": "_factoryAddress",
          "type": "address"
        }
      ],
      "name": "differLpWithdraw",
      "outputs": [],
      "stateMutability": "nonpayable",
      "type": "function"
    },
    {
      "inputs": [
        {
          "internalType": "address",
          "name": "_differLptoken",
          "type": "address"
        },
        {
          "internalType": "address",
          "name": "_userAccount",
          "type": "address"
        },
        {
          "internalType": "address",
          "name": "_factoryAddress",
          "type": "address"
        },
        {
          "internalType": "uint256",
          "name": "_amount",
          "type": "uint256"
        },
        {
          "internalType": "uint256",
          "name": "_month",
          "type": "uint256"
        },
        {
          "internalType": "address",
          "name": "_VASDtokenAddress",
          "type": "address"
        }
      ],
      "name": "differLpstaking",
      "outputs": [],
      "stateMutability": "nonpayable",
      "type": "function"
    },
    {
      "inputs": [],
      "name": "digiCount",
      "outputs": [
        {
          "internalType": "uint256",
          "name": "",
          "type": "uint256"
        }
      ],
      "stateMutability": "view",
      "type": "function"
    },
    {
      "inputs": [
        {
          "internalType": "uint256",
          "name": "number",
          "type": "uint256"
        }
      ],
      "name": "getDigitCount",
      "outputs": [
        {
          "internalType": "uint256",
          "name": "",
          "type": "uint256"
        }
      ],
      "stateMutability": "nonpayable",
      "type": "function"
    },
    {
      "inputs": [],
      "name": "isPossible",
      "outputs": [
        {
          "internalType": "bool",
          "name": "",
          "type": "bool"
        }
      ],
      "stateMutability": "view",
      "type": "function"
    },
    {
      "inputs": [],
      "name": "liquidAddress",
      "outputs": [
        {
          "internalType": "address",
          "name": "",
          "type": "address"
        }
      ],
      "stateMutability": "view",
      "type": "function"
    },
    {
      "inputs": [],
      "name": "lqAmountARB",
      "outputs": [
        {
          "internalType": "uint256",
          "name": "",
          "type": "uint256"
        }
      ],
      "stateMutability": "view",
      "type": "function"
    },
    {
      "inputs": [],
      "name": "lqAmountASD1",
      "outputs": [
        {
          "internalType": "uint256",
          "name": "",
          "type": "uint256"
        }
      ],
      "stateMutability": "view",
      "type": "function"
    },
    {
      "inputs": [],
      "name": "lqAmountASD2",
      "outputs": [
        {
          "internalType": "uint256",
          "name": "",
          "type": "uint256"
        }
      ],
      "stateMutability": "view",
      "type": "function"
    },
    {
      "inputs": [],
      "name": "lqAmountASD3",
      "outputs": [
        {
          "internalType": "uint256",
          "name": "",
          "type": "uint256"
        }
      ],
      "stateMutability": "view",
      "type": "function"
    },
    {
      "inputs": [],
      "name": "lqAmountETH",
      "outputs": [
        {
          "internalType": "uint256",
          "name": "",
          "type": "uint256"
        }
      ],
      "stateMutability": "view",
      "type": "function"
    },
    {
      "inputs": [],
      "name": "lqAmountUSDT",
      "outputs": [
        {
          "internalType": "uint256",
          "name": "",
          "type": "uint256"
        }
      ],
      "stateMutability": "view",
      "type": "function"
    },
    {
      "inputs": [],
      "name": "pairAddress",
      "outputs": [
        {
          "internalType": "address",
          "name": "",
          "type": "address"
        }
      ],
      "stateMutability": "view",
      "type": "function"
    },
    {
      "inputs": [],
      "name": "poolAddress",
      "outputs": [
        {
          "internalType": "address",
          "name": "",
          "type": "address"
        }
      ],
      "stateMutability": "view",
      "type": "function"
    },
    {
      "inputs": [
        {
          "internalType": "address payable",
          "name": "recipient",
          "type": "address"
        },
        {
          "internalType": "uint256",
          "name": "amount",
          "type": "uint256"
        }
      ],
      "name": "refundEther",
      "outputs": [],
      "stateMutability": "nonpayable",
      "type": "function"
    },
    {
      "inputs": [
        {
          "internalType": "address",
          "name": "_differLptoken",
          "type": "address"
        },
        {
          "internalType": "uint256",
          "name": "_amount",
          "type": "uint256"
        },
        {
          "internalType": "address",
          "name": "_userAccount",
          "type": "address"
        },
        {
          "internalType": "address",
          "name": "_factoryAddress",
          "type": "address"
        },
        {
          "internalType": "address",
          "name": "_AsdToken",
          "type": "address"
        }
      ],
      "name": "removeLiquid",
      "outputs": [],
      "stateMutability": "nonpayable",
      "type": "function"
    },
    {
      "inputs": [],
      "name": "stakingAddress",
      "outputs": [
        {
          "internalType": "address",
          "name": "",
          "type": "address"
        }
      ],
      "stateMutability": "view",
      "type": "function"
    },
    {
      "inputs": [],
      "name": "swapAddress",
      "outputs": [
        {
          "internalType": "address",
          "name": "",
          "type": "address"
        }
      ],
      "stateMutability": "view",
      "type": "function"
    },
    {
      "inputs": [
        {
          "internalType": "address",
          "name": "_diffrentToken",
          "type": "address"
        },
        {
          "internalType": "address",
          "name": "_AsdToken",
          "type": "address"
        },
        {
          "internalType": "address",
          "name": "_userAccount",
          "type": "address"
        },
        {
          "internalType": "address",
          "name": "_contractAddress",
          "type": "address"
        },
        {
          "internalType": "uint256",
          "name": "_amount",
          "type": "uint256"
        }
      ],
      "name": "swapToken",
      "outputs": [],
      "stateMutability": "nonpayable",
      "type": "function"
    },
    {
      "inputs": [],
      "name": "taxAddress",
      "outputs": [
        {
          "internalType": "address",
          "name": "",
          "type": "address"
        }
      ],
      "stateMutability": "view",
      "type": "function"
    },
    {
      "inputs": [],
      "name": "totalLpAmount",
      "outputs": [
        {
          "internalType": "uint256",
          "name": "",
          "type": "uint256"
        }
      ],
      "stateMutability": "view",
      "type": "function"
    },
    {
      "inputs": [],
      "name": "withdrawAsd",
      "outputs": [
        {
          "internalType": "uint256",
          "name": "",
          "type": "uint256"
        }
      ],
      "stateMutability": "view",
      "type": "function"
    },
    {
      "inputs": [],
      "name": "withdrawtoken1",
      "outputs": [
        {
          "internalType": "uint256",
          "name": "",
          "type": "uint256"
        }
      ],
      "stateMutability": "view",
      "type": "function"
    }
  ],
  "bytecode": "0x60806040523480156200001157600080fd5b5060405162002dc438038062002dc4833981810160405281019062000037919062000382565b306000806101000a81548173ffffffffffffffffffffffffffffffffffffffff021916908373ffffffffffffffffffffffffffffffffffffffff1602179055508273ffffffffffffffffffffffffffffffffffffffff1663ee136a566040518163ffffffff1660e01b815260040160606040518083038186803b158015620000be57600080fd5b505afa158015620000d3573d6000803e3d6000fd5b505050506040513d601f19601f82011682018060405250810190620000f9919062000382565b6007600060086000600960008691906101000a81548173ffffffffffffffffffffffffffffffffffffffff021916908373ffffffffffffffffffffffffffffffffffffffff1602179055508591906101000a81548173ffffffffffffffffffffffffffffffffffffffff021916908373ffffffffffffffffffffffffffffffffffffffff1602179055508491906101000a81548173ffffffffffffffffffffffffffffffffffffffff021916908373ffffffffffffffffffffffffffffffffffffffff1602179055505050508173ffffffffffffffffffffffffffffffffffffffff1663b470e8e86040518163ffffffff1660e01b8152600401604080518083038186803b1580156200020b57600080fd5b505afa15801562000220573d6000803e3d6000fd5b505050506040513d601f19601f82011682018060405250810190620002469190620003de565b600a6000600b60008491906101000a81548173ffffffffffffffffffffffffffffffffffffffff021916908373ffffffffffffffffffffffffffffffffffffffff1602179055508391906101000a81548173ffffffffffffffffffffffffffffffffffffffff021916908373ffffffffffffffffffffffffffffffffffffffff160217905550505080600360006101000a81548173ffffffffffffffffffffffffffffffffffffffff021916908373ffffffffffffffffffffffffffffffffffffffff16021790555050505062000425565b600080fd5b600073ffffffffffffffffffffffffffffffffffffffff82169050919050565b60006200034a826200031d565b9050919050565b6200035c816200033d565b81146200036857600080fd5b50565b6000815190506200037c8162000351565b92915050565b6000806000606084860312156200039e576200039d62000318565b5b6000620003ae868287016200036b565b9350506020620003c1868287016200036b565b9250506040620003d4868287016200036b565b9150509250925092565b60008060408385031215620003f857620003f762000318565b5b600062000408858286016200036b565b92505060206200041b858286016200036b565b9150509250929050565b61298f80620004356000396000f3fe6080604052600436106101e35760003560e01c806380f6d78211610102578063d2313ff111610095578063fa82bec211610064578063fa82bec214610693578063fbc5780a146106be578063fcc61718146106e9578063fe1218a614610714576101e3565b8063d2313ff1146105d5578063d7b4be2414610600578063e319be0a1461062b578063ebcde5f314610668576101e3565b8063a7339d11116100d1578063a7339d111461052b578063a8b0898214610556578063b7bda68f14610581578063caadbea0146105ac576101e3565b806380f6d782146104855780638e54e40d146104b05780639663d27c146104d95780639e271cec14610502576101e3565b80634aac67721161017a57806371b881b71161014957806371b881b7146103d9578063741ac30414610404578063786180681461042f5780637afb892e1461045a576101e3565b80634aac67721461033c5780635280212114610367578063532d7397146103835780635ced16d2146103ae576101e3565b80631755ff21116101b65780631755ff21146102905780631d15546d146102bb5780633d1b719f146102e65780634713b78414610311576101e3565b8063080a14f4146101e857806308d4d4791461021157806310d69c4f1461023c578063169f97ae14610265575b600080fd5b3480156101f457600080fd5b5061020f600480360381019061020a9190611c3f565b61073d565b005b34801561021d57600080fd5b506102266107d9565b6040516102339190611cc9565b60405180910390f35b34801561024857600080fd5b50610263600480360381019061025e9190611ce4565b6107df565b005b34801561027157600080fd5b5061027a61087e565b6040516102879190611d80565b60405180910390f35b34801561029c57600080fd5b506102a56108a4565b6040516102b29190611d80565b60405180910390f35b3480156102c757600080fd5b506102d06108c8565b6040516102dd9190611d80565b60405180910390f35b3480156102f257600080fd5b506102fb6108ee565b6040516103089190611d80565b60405180910390f35b34801561031d57600080fd5b50610326610914565b6040516103339190611d80565b60405180910390f35b34801561034857600080fd5b5061035161093a565b60405161035e9190611cc9565b60405180910390f35b610381600480360381019061037c9190611d9b565b610940565b005b34801561038f57600080fd5b50610398610b63565b6040516103a59190611cc9565b60405180910390f35b3480156103ba57600080fd5b506103c3610b69565b6040516103d09190611d80565b60405180910390f35b3480156103e557600080fd5b506103ee610b8f565b6040516103fb9190611d80565b60405180910390f35b34801561041057600080fd5b50610419610bb5565b6040516104269190611cc9565b60405180910390f35b34801561043b57600080fd5b50610444610bbb565b6040516104519190611cc9565b60405180910390f35b34801561046657600080fd5b5061046f610bc1565b60405161047c9190611de3565b60405180910390f35b34801561049157600080fd5b5061049a610bd4565b6040516104a79190611d80565b60405180910390f35b3480156104bc57600080fd5b506104d760048036038101906104d29190611e3c565b610bfa565b005b3480156104e557600080fd5b5061050060048036038101906104fb9190611e7c565b610c88565b005b34801561050e57600080fd5b5061052960048036038101906105249190611ef7565b6113e7565b005b34801561053757600080fd5b5061054061147a565b60405161054d9190611cc9565b60405180910390f35b34801561056257600080fd5b5061056b611480565b6040516105789190611d80565b60405180910390f35b34801561058d57600080fd5b506105966114a6565b6040516105a39190611d80565b60405180910390f35b3480156105b857600080fd5b506105d360048036038101906105ce9190611f37565b6114cc565b005b3480156105e157600080fd5b506105ea6118a0565b6040516105f79190611cc9565b60405180910390f35b34801561060c57600080fd5b506106156118a6565b6040516106229190611d80565b60405180910390f35b34801561063757600080fd5b50610652600480360381019061064d9190611fc4565b6118cc565b60405161065f9190611cc9565b60405180910390f35b34801561067457600080fd5b5061067d611942565b60405161068a9190611d80565b60405180910390f35b34801561069f57600080fd5b506106a8611968565b6040516106b59190611cc9565b60405180910390f35b3480156106ca57600080fd5b506106d361196e565b6040516106e09190611cc9565b60405180910390f35b3480156106f557600080fd5b506106fe611974565b60405161070b9190611cc9565b60405180910390f35b34801561072057600080fd5b5061073b60048036038101906107369190611ff1565b61197a565b005b600960009054906101000a900473ffffffffffffffffffffffffffffffffffffffff1673ffffffffffffffffffffffffffffffffffffffff166351b429a086868686866040518663ffffffff1660e01b81526004016107a0959493929190612044565b600060405180830381600087803b1580156107ba57600080fd5b505af11580156107ce573d6000803e3d6000fd5b505050505050505050565b60125481565b600a60009054906101000a900473ffffffffffffffffffffffffffffffffffffffff1673ffffffffffffffffffffffffffffffffffffffff1663a7f8cd098787878787876040518763ffffffff1660e01b815260040161084496959493929190612097565b600060405180830381600087803b15801561085e57600080fd5b505af1158015610872573d6000803e3d6000fd5b50505050505050505050565b600660009054906101000a900473ffffffffffffffffffffffffffffffffffffffff1681565b60008054906101000a900473ffffffffffffffffffffffffffffffffffffffff1681565b600160009054906101000a900473ffffffffffffffffffffffffffffffffffffffff1681565b600360009054906101000a900473ffffffffffffffffffffffffffffffffffffffff1681565b600860009054906101000a900473ffffffffffffffffffffffffffffffffffffffff1681565b600c5481565b600073ffffffffffffffffffffffffffffffffffffffff16600360009054906101000a900473ffffffffffffffffffffffffffffffffffffffff1673ffffffffffffffffffffffffffffffffffffffff1614156109d2576040517f08c379a00000000000000000000000000000000000000000000000000000000081526004016109c990612155565b60405180910390fd5b60006109dd346118cc565b9050600081600a6109ee91906122d7565b346109f99190612351565b9050600360009054906101000a900473ffffffffffffffffffffffffffffffffffffffff1673ffffffffffffffffffffffffffffffffffffffff1663e234496382846040518363ffffffff1660e01b8152600401610a58929190612382565b600060405180830381600087803b158015610a7257600080fd5b505af1158015610a86573d6000803e3d6000fd5b50505050600360009054906101000a900473ffffffffffffffffffffffffffffffffffffffff1673ffffffffffffffffffffffffffffffffffffffff166323b872dd600360009054906101000a900473ffffffffffffffffffffffffffffffffffffffff1685346040518463ffffffff1660e01b8152600401610b0b939291906123ab565b602060405180830381600087803b158015610b2557600080fd5b505af1158015610b39573d6000803e3d6000fd5b505050506040513d601f19601f82011682018060405250810190610b5d919061240e565b50505050565b600e5481565b600560009054906101000a900473ffffffffffffffffffffffffffffffffffffffff1681565b600260009054906101000a900473ffffffffffffffffffffffffffffffffffffffff1681565b60145481565b600d5481565b601060009054906101000a900460ff1681565b600960009054906101000a900473ffffffffffffffffffffffffffffffffffffffff1681565b80471015610c3d576040517f08c379a0000000000000000000000000000000000000000000000000000000008152600401610c3490612487565b60405180910390fd5b8173ffffffffffffffffffffffffffffffffffffffff166108fc829081150290604051600060405180830381858888f19350505050158015610c83573d6000803e3d6000fd5b505050565b600860009054906101000a900473ffffffffffffffffffffffffffffffffffffffff1673ffffffffffffffffffffffffffffffffffffffff166308bac40286868686866040518663ffffffff1660e01b8152600401610ceb9594939291906124a7565b600060405180830381600087803b158015610d0557600080fd5b505af1158015610d19573d6000803e3d6000fd5b50505050600860009054906101000a900473ffffffffffffffffffffffffffffffffffffffff1673ffffffffffffffffffffffffffffffffffffffff1663607c94f06040518163ffffffff1660e01b815260040160c06040518083038186803b158015610d8557600080fd5b505afa158015610d99573d6000803e3d6000fd5b505050506040513d601f19601f82011682018060405250810190610dbd9190612524565b600c6000600d6000600e60006001600060026000600360008c91906101000a81548173ffffffffffffffffffffffffffffffffffffffff021916908373ffffffffffffffffffffffffffffffffffffffff1602179055508b91906101000a81548173ffffffffffffffffffffffffffffffffffffffff021916908373ffffffffffffffffffffffffffffffffffffffff1602179055508a91906101000a81548173ffffffffffffffffffffffffffffffffffffffff021916908373ffffffffffffffffffffffffffffffffffffffff16021790555089919050558891905055879190505550505050505060008573ffffffffffffffffffffffffffffffffffffffff166306fdde036040518163ffffffff1660e01b815260040160006040518083038186803b158015610eef57600080fd5b505afa158015610f03573d6000803e3d6000fd5b505050506040513d6000823e3d601f19601f82011682018060405250810190610f2c919061271b565b90506000670de0b6b3a7640000600c54610f469190612351565b90506000670de0b6b3a7640000600d54610f609190612351565b9050610fa1836040518060400160405280600581526020017f4152424c50000000000000000000000000000000000000000000000000000000815250611b7c565b156110e1578160116000600160009054906101000a900473ffffffffffffffffffffffffffffffffffffffff1673ffffffffffffffffffffffffffffffffffffffff1673ffffffffffffffffffffffffffffffffffffffff16815260200190815260200160002060008282546110179190612764565b9250508190555080601160008673ffffffffffffffffffffffffffffffffffffffff1673ffffffffffffffffffffffffffffffffffffffff168152602001908152602001600020600082825461106d9190612764565b9250508190555060116000600160009054906101000a900473ffffffffffffffffffffffffffffffffffffffff1673ffffffffffffffffffffffffffffffffffffffff1673ffffffffffffffffffffffffffffffffffffffff168152602001908152602001600020546012819055506113dd565b611120836040518060400160405280600681526020017f555344544c500000000000000000000000000000000000000000000000000000815250611b7c565b15611260578160116000600260009054906101000a900473ffffffffffffffffffffffffffffffffffffffff1673ffffffffffffffffffffffffffffffffffffffff1673ffffffffffffffffffffffffffffffffffffffff16815260200190815260200160002060008282546111969190612764565b9250508190555080601160008673ffffffffffffffffffffffffffffffffffffffff1673ffffffffffffffffffffffffffffffffffffffff16815260200190815260200160002060008282546111ec9190612764565b9250508190555060116000600260009054906101000a900473ffffffffffffffffffffffffffffffffffffffff1673ffffffffffffffffffffffffffffffffffffffff1673ffffffffffffffffffffffffffffffffffffffff168152602001908152602001600020546013819055506113dc565b61129f836040518060400160405280600581526020017f4554484c50000000000000000000000000000000000000000000000000000000815250611b7c565b156113db578160116000600360009054906101000a900473ffffffffffffffffffffffffffffffffffffffff1673ffffffffffffffffffffffffffffffffffffffff1673ffffffffffffffffffffffffffffffffffffffff16815260200190815260200160002060008282546113159190612764565b9250508190555080601160008673ffffffffffffffffffffffffffffffffffffffff1673ffffffffffffffffffffffffffffffffffffffff168152602001908152602001600020600082825461136b9190612764565b9250508190555060116000600360009054906101000a900473ffffffffffffffffffffffffffffffffffffffff1673ffffffffffffffffffffffffffffffffffffffff1673ffffffffffffffffffffffffffffffffffffffff168152602001908152602001600020546014819055505b5b5b5050505050505050565b600a60009054906101000a900473ffffffffffffffffffffffffffffffffffffffff1673ffffffffffffffffffffffffffffffffffffffff1663c7d8c82383836040518363ffffffff1660e01b8152600401611444929190612798565b600060405180830381600087803b15801561145e57600080fd5b505af1158015611472573d6000803e3d6000fd5b505050505050565b60155481565b600760009054906101000a900473ffffffffffffffffffffffffffffffffffffffff1681565b600b60009054906101000a900473ffffffffffffffffffffffffffffffffffffffff1681565b600860009054906101000a900473ffffffffffffffffffffffffffffffffffffffff1673ffffffffffffffffffffffffffffffffffffffff1663d2dcb80b878787878787600760009054906101000a900473ffffffffffffffffffffffffffffffffffffffff166040518863ffffffff1660e01b815260040161155597969594939291906127c1565b600060405180830381600087803b15801561156f57600080fd5b505af1158015611583573d6000803e3d6000fd5b505050506000670de0b6b3a76400008661159d9190612351565b90506000670de0b6b3a7640000856115b59190612351565b905081601160008a73ffffffffffffffffffffffffffffffffffffffff1673ffffffffffffffffffffffffffffffffffffffff16815260200190815260200160002060008282546116069190612830565b9250508190555080601160008873ffffffffffffffffffffffffffffffffffffffff1673ffffffffffffffffffffffffffffffffffffffff168152602001908152602001600020600082825461165c9190612830565b9250508190555060008873ffffffffffffffffffffffffffffffffffffffff166306fdde036040518163ffffffff1660e01b815260040160006040518083038186803b1580156116ab57600080fd5b505afa1580156116bf573d6000803e3d6000fd5b505050506040513d6000823e3d601f19601f820116820180604052508101906116e8919061271b565b9050611729816040518060400160405280600381526020017f4152420000000000000000000000000000000000000000000000000000000000815250611b7c565b1561177957601160008a73ffffffffffffffffffffffffffffffffffffffff1673ffffffffffffffffffffffffffffffffffffffff16815260200190815260200160002054601281905550611895565b6117b8816040518060400160405280600481526020017f5553445400000000000000000000000000000000000000000000000000000000815250611b7c565b1561180857601160008a73ffffffffffffffffffffffffffffffffffffffff1673ffffffffffffffffffffffffffffffffffffffff16815260200190815260200160002054601381905550611894565b611847816040518060400160405280600381526020017f4554480000000000000000000000000000000000000000000000000000000000815250611b7c565b1561189357601160008a73ffffffffffffffffffffffffffffffffffffffff1673ffffffffffffffffffffffffffffffffffffffff168152602001908152602001600020546014819055505b5b5b505050505050505050565b60175481565b600a60009054906101000a900473ffffffffffffffffffffffffffffffffffffffff1681565b6000808214156118df576001905061193d565b600080600f819055505b600083111561192c5780806118fd90612886565b915050600f600081548092919061191390612886565b9190505550600a836119259190612351565b92506118e9565b6001816119399190612764565b9150505b919050565b600460009054906101000a900473ffffffffffffffffffffffffffffffffffffffff1681565b600f5481565b60165481565b60135481565b600760009054906101000a900473ffffffffffffffffffffffffffffffffffffffff1673ffffffffffffffffffffffffffffffffffffffff16630b026fd48484846040518463ffffffff1660e01b81526004016119d9939291906128cf565b600060405180830381600087803b1580156119f357600080fd5b505af1158015611a07573d6000803e3d6000fd5b50505050600760009054906101000a900473ffffffffffffffffffffffffffffffffffffffff1673ffffffffffffffffffffffffffffffffffffffff1663d1e9a5fd6040518163ffffffff1660e01b815260040160606040518083038186803b158015611a7357600080fd5b505afa158015611a87573d6000803e3d6000fd5b505050506040513d601f19601f82011682018060405250810190611aab9190612906565b6004600060056000600660008691906101000a81548173ffffffffffffffffffffffffffffffffffffffff021916908373ffffffffffffffffffffffffffffffffffffffff1602179055508591906101000a81548173ffffffffffffffffffffffffffffffffffffffff021916908373ffffffffffffffffffffffffffffffffffffffff1602179055508491906101000a81548173ffffffffffffffffffffffffffffffffffffffff021916908373ffffffffffffffffffffffffffffffffffffffff160217905550505050505050565b60008180519060200120838051906020012014905092915050565b6000604051905090565b600080fd5b600080fd5b600073ffffffffffffffffffffffffffffffffffffffff82169050919050565b6000611bd682611bab565b9050919050565b611be681611bcb565b8114611bf157600080fd5b50565b600081359050611c0381611bdd565b92915050565b6000819050919050565b611c1c81611c09565b8114611c2757600080fd5b50565b600081359050611c3981611c13565b92915050565b600080600080600060a08688031215611c5b57611c5a611ba1565b5b6000611c6988828901611bf4565b9550506020611c7a88828901611bf4565b9450506040611c8b88828901611bf4565b9350506060611c9c88828901611bf4565b9250506080611cad88828901611c2a565b9150509295509295909350565b611cc381611c09565b82525050565b6000602082019050611cde6000830184611cba565b92915050565b60008060008060008060c08789031215611d0157611d00611ba1565b5b6000611d0f89828a01611bf4565b9650506020611d2089828a01611bf4565b9550506040611d3189828a01611bf4565b9450506060611d4289828a01611c2a565b9350506080611d5389828a01611c2a565b92505060a0611d6489828a01611bf4565b9150509295509295509295565b611d7a81611bcb565b82525050565b6000602082019050611d956000830184611d71565b92915050565b600060208284031215611db157611db0611ba1565b5b6000611dbf84828501611bf4565b91505092915050565b60008115159050919050565b611ddd81611dc8565b82525050565b6000602082019050611df86000830184611dd4565b92915050565b6000611e0982611bab565b9050919050565b611e1981611dfe565b8114611e2457600080fd5b50565b600081359050611e3681611e10565b92915050565b60008060408385031215611e5357611e52611ba1565b5b6000611e6185828601611e27565b9250506020611e7285828601611c2a565b9150509250929050565b600080600080600060a08688031215611e9857611e97611ba1565b5b6000611ea688828901611bf4565b9550506020611eb788828901611c2a565b9450506040611ec888828901611bf4565b9350506060611ed988828901611bf4565b9250506080611eea88828901611bf4565b9150509295509295909350565b60008060408385031215611f0e57611f0d611ba1565b5b6000611f1c85828601611bf4565b9250506020611f2d85828601611bf4565b9150509250929050565b60008060008060008060c08789031215611f5457611f53611ba1565b5b6000611f6289828a01611bf4565b9650506020611f7389828a01611c2a565b9550506040611f8489828a01611bf4565b9450506060611f9589828a01611c2a565b9350506080611fa689828a01611bf4565b92505060a0611fb789828a01611bf4565b9150509295509295509295565b600060208284031215611fda57611fd9611ba1565b5b6000611fe884828501611c2a565b91505092915050565b60008060006060848603121561200a57612009611ba1565b5b600061201886828701611bf4565b935050602061202986828701611bf4565b925050604061203a86828701611bf4565b9150509250925092565b600060a0820190506120596000830188611d71565b6120666020830187611d71565b6120736040830186611d71565b6120806060830185611d71565b61208d6080830184611cba565b9695505050505050565b600060c0820190506120ac6000830189611d71565b6120b96020830188611d71565b6120c66040830187611d71565b6120d36060830186611cba565b6120e06080830185611cba565b6120ed60a0830184611d71565b979650505050505050565b600082825260208201905092915050565b7f636865636b2074686520746f6b656e206d616b65640000000000000000000000600082015250565b600061213f6015836120f8565b915061214a82612109565b602082019050919050565b6000602082019050818103600083015261216e81612132565b9050919050565b7f4e487b7100000000000000000000000000000000000000000000000000000000600052601160045260246000fd5b60008160011c9050919050565b6000808291508390505b60018511156121fb578086048111156121d7576121d6612175565b5b60018516156121e65780820291505b80810290506121f4856121a4565b94506121bb565b94509492505050565b60008261221457600190506122d0565b8161222257600090506122d0565b8160018114612238576002811461224257612271565b60019150506122d0565b60ff84111561225457612253612175565b5b8360020a91508482111561226b5761226a612175565b5b506122d0565b5060208310610133831016604e8410600b84101617156122a65782820a9050838111156122a1576122a0612175565b5b6122d0565b6122b384848460016121b1565b925090508184048111156122ca576122c9612175565b5b81810290505b9392505050565b60006122e282611c09565b91506122ed83611c09565b925061231a7fffffffffffffffffffffffffffffffffffffffffffffffffffffffffffffffff8484612204565b905092915050565b7f4e487b7100000000000000000000000000000000000000000000000000000000600052601260045260246000fd5b600061235c82611c09565b915061236783611c09565b92508261237757612376612322565b5b828204905092915050565b60006040820190506123976000830185611cba565b6123a46020830184611cba565b9392505050565b60006060820190506123c06000830186611d71565b6123cd6020830185611d71565b6123da6040830184611cba565b949350505050565b6123eb81611dc8565b81146123f657600080fd5b50565b600081519050612408816123e2565b92915050565b60006020828403121561242457612423611ba1565b5b6000612432848285016123f9565b91505092915050565b7f4e6f7420656e6f7567682045544820696e20636f6e7472616374000000000000600082015250565b6000612471601a836120f8565b915061247c8261243b565b602082019050919050565b600060208201905081810360008301526124a081612464565b9050919050565b600060a0820190506124bc6000830188611d71565b6124c96020830187611cba565b6124d66040830186611d71565b6124e36060830185611d71565b6124f06080830184611d71565b9695505050505050565b60008151905061250981611c13565b92915050565b60008151905061251e81611bdd565b92915050565b60008060008060008060c0878903121561254157612540611ba1565b5b600061254f89828a016124fa565b965050602061256089828a016124fa565b955050604061257189828a016124fa565b945050606061258289828a0161250f565b935050608061259389828a0161250f565b92505060a06125a489828a0161250f565b9150509295509295509295565b600080fd5b600080fd5b6000601f19601f8301169050919050565b7f4e487b7100000000000000000000000000000000000000000000000000000000600052604160045260246000fd5b612604826125bb565b810181811067ffffffffffffffff82111715612623576126226125cc565b5b80604052505050565b6000612636611b97565b905061264282826125fb565b919050565b600067ffffffffffffffff821115612662576126616125cc565b5b61266b826125bb565b9050602081019050919050565b60005b8381101561269657808201518184015260208101905061267b565b838111156126a5576000848401525b50505050565b60006126be6126b984612647565b61262c565b9050828152602081018484840111156126da576126d96125b6565b5b6126e5848285612678565b509392505050565b600082601f830112612702576127016125b1565b5b81516127128482602086016126ab565b91505092915050565b60006020828403121561273157612730611ba1565b5b600082015167ffffffffffffffff81111561274f5761274e611ba6565b5b61275b848285016126ed565b91505092915050565b600061276f82611c09565b915061277a83611c09565b92508282101561278d5761278c612175565b5b828203905092915050565b60006040820190506127ad6000830185611d71565b6127ba6020830184611d71565b9392505050565b600060e0820190506127d6600083018a611d71565b6127e36020830189611cba565b6127f06040830188611d71565b6127fd6060830187611cba565b61280a6080830186611d71565b61281760a0830185611d71565b61282460c0830184611d71565b98975050505050505050565b600061283b82611c09565b915061284683611c09565b9250827fffffffffffffffffffffffffffffffffffffffffffffffffffffffffffffffff0382111561287b5761287a612175565b5b828201905092915050565b600061289182611c09565b91507fffffffffffffffffffffffffffffffffffffffffffffffffffffffffffffffff8214156128c4576128c3612175565b5b600182019050919050565b60006060820190506128e46000830186611d71565b6128f16020830185611d71565b6128fe6040830184611d71565b949350505050565b60008060006060848603121561291f5761291e611ba1565b5b600061292d8682870161250f565b935050602061293e8682870161250f565b925050604061294f8682870161250f565b915050925092509256fea26469706673582212202f7d8b74b6c1fde117968d7c72ec01714012b1e1c050f026b12e7b031796ace464736f6c63430008090033",
  "linkReferences": {},
  "deployedLinkReferences": {}
}