{
  "_format": "hh-sol-artifact-1",
  "contractName": "TokenPrice",
  "sourceName": "contracts/TokenPrice.sol",
  "abi": [
    {
      "inputs": [
        {
          "internalType": "address",
          "name": "_priceFeed",
          "type": "address"
        }
      ],
      "stateMutability": "nonpayable",
      "type": "constructor"
    },
    {
      "inputs": [],
      "name": "getPrice",
      "outputs": [
        {
          "internalType": "uint256",
          "name": "",
          "type": "uint256"
        }
      ],
      "stateMutability": "view",
      "type": "function"
    }
  ],
  "bytecode": "0x608060405234801561001057600080fd5b50604051610461380380610461833981810160405281019061003291906100db565b806000806101000a81548173ffffffffffffffffffffffffffffffffffffffff021916908373ffffffffffffffffffffffffffffffffffffffff16021790555050610108565b600080fd5b600073ffffffffffffffffffffffffffffffffffffffff82169050919050565b60006100a88261007d565b9050919050565b6100b88161009d565b81146100c357600080fd5b50565b6000815190506100d5816100af565b92915050565b6000602082840312156100f1576100f0610078565b5b60006100ff848285016100c6565b91505092915050565b61034a806101176000396000f3fe608060405234801561001057600080fd5b506004361061002b5760003560e01c806398d5fdca14610030575b600080fd5b61003861004e565b6040516100459190610158565b60405180910390f35b60008060008054906101000a900473ffffffffffffffffffffffffffffffffffffffff1673ffffffffffffffffffffffffffffffffffffffff1663feaf968c6040518163ffffffff1660e01b815260040160a06040518083038186803b1580156100b757600080fd5b505afa1580156100cb573d6000803e3d6000fd5b505050506040513d601f19601f820116820180604052508101906100ef919061021c565b50505091505060008113610138576040517f08c379a000000000000000000000000000000000000000000000000000000000815260040161012f906102f4565b60405180910390fd5b8091505090565b6000819050919050565b6101528161013f565b82525050565b600060208201905061016d6000830184610149565b92915050565b600080fd5b600069ffffffffffffffffffff82169050919050565b61019781610178565b81146101a257600080fd5b50565b6000815190506101b48161018e565b92915050565b6000819050919050565b6101cd816101ba565b81146101d857600080fd5b50565b6000815190506101ea816101c4565b92915050565b6101f98161013f565b811461020457600080fd5b50565b600081519050610216816101f0565b92915050565b600080600080600060a0868803121561023857610237610173565b5b6000610246888289016101a5565b9550506020610257888289016101db565b945050604061026888828901610207565b935050606061027988828901610207565b925050608061028a888289016101a5565b9150509295509295909350565b600082825260208201905092915050565b7f496e76616c696420707269636500000000000000000000000000000000000000600082015250565b60006102de600d83610297565b91506102e9826102a8565b602082019050919050565b6000602082019050818103600083015261030d816102d1565b905091905056fea26469706673582212204ed7c8279815964bfd9186c3c8d6d0b93c7e3875f15f0596ff7d6e7a46314d2964736f6c63430008090033",
  "linkReferences": {},
  "deployedLinkReferences": {}
}