{
  "_format": "hh-sol-artifact-1",
  "contractName": "Swap",
  "sourceName": "contracts/Swap.sol",
  "abi": [
    {
      "inputs": [
        {
          "internalType": "uint256",
          "name": "_feePercentage",
          "type": "uint256"
        }
      ],
      "stateMutability": "nonpayable",
      "type": "constructor"
    },
    {
      "inputs": [],
      "name": "ASDSwapPercent",
      "outputs": [
        {
          "internalType": "uint256",
          "name": "",
          "type": "uint256"
        }
      ],
      "stateMutability": "view",
      "type": "function"
    },
    {
      "inputs": [],
      "name": "ArbAddress",
      "outputs": [
        {
          "internalType": "address",
          "name": "",
          "type": "address"
        }
      ],
      "stateMutability": "view",
      "type": "function"
    },
    {
      "inputs": [],
      "name": "ArbPrice",
      "outputs": [
        {
          "internalType": "uint256",
          "name": "",
          "type": "uint256"
        }
      ],
      "stateMutability": "view",
      "type": "function"
    },
    {
      "inputs": [],
      "name": "ArbSwapPercent",
      "outputs": [
        {
          "internalType": "uint256",
          "name": "",
          "type": "uint256"
        }
      ],
      "stateMutability": "view",
      "type": "function"
    },
    {
      "inputs": [],
      "name": "EthAddress",
      "outputs": [
        {
          "internalType": "address",
          "name": "",
          "type": "address"
        }
      ],
      "stateMutability": "view",
      "type": "function"
    },
    {
      "inputs": [],
      "name": "EthPrice",
      "outputs": [
        {
          "internalType": "uint256",
          "name": "",
          "type": "uint256"
        }
      ],
      "stateMutability": "view",
      "type": "function"
    },
    {
      "inputs": [],
      "name": "EthSwapPercent",
      "outputs": [
        {
          "internalType": "uint256",
          "name": "",
          "type": "uint256"
        }
      ],
      "stateMutability": "view",
      "type": "function"
    },
    {
      "inputs": [],
      "name": "UsdtAddress",
      "outputs": [
        {
          "internalType": "address",
          "name": "",
          "type": "address"
        }
      ],
      "stateMutability": "view",
      "type": "function"
    },
    {
      "inputs": [],
      "name": "UsdtPrice",
      "outputs": [
        {
          "internalType": "uint256",
          "name": "",
          "type": "uint256"
        }
      ],
      "stateMutability": "view",
      "type": "function"
    },
    {
      "inputs": [],
      "name": "UsdtSwapPercent",
      "outputs": [
        {
          "internalType": "uint256",
          "name": "",
          "type": "uint256"
        }
      ],
      "stateMutability": "view",
      "type": "function"
    },
    {
      "inputs": [
        {
          "internalType": "uint256",
          "name": "_amountToSwap",
          "type": "uint256"
        },
        {
          "internalType": "uint256",
          "name": "_valueA",
          "type": "uint256"
        },
        {
          "internalType": "uint256",
          "name": "_valueB",
          "type": "uint256"
        }
      ],
      "name": "calculateAmountB",
      "outputs": [
        {
          "internalType": "uint256",
          "name": "",
          "type": "uint256"
        }
      ],
      "stateMutability": "pure",
      "type": "function"
    },
    {
      "inputs": [
        {
          "internalType": "uint256",
          "name": "amountA",
          "type": "uint256"
        }
      ],
      "name": "calculateFeesAndAmountToSwap",
      "outputs": [
        {
          "internalType": "uint256",
          "name": "feeAmount",
          "type": "uint256"
        },
        {
          "internalType": "uint256",
          "name": "amountToSwap",
          "type": "uint256"
        }
      ],
      "stateMutability": "view",
      "type": "function"
    },
    {
      "inputs": [
        {
          "internalType": "address",
          "name": "tokenA",
          "type": "address"
        },
        {
          "internalType": "address",
          "name": "tokenB",
          "type": "address"
        },
        {
          "internalType": "address",
          "name": "_userAccount",
          "type": "address"
        },
        {
          "internalType": "address",
          "name": "_contractAddress",
          "type": "address"
        },
        {
          "internalType": "uint256",
          "name": "amountA",
          "type": "uint256"
        },
        {
          "internalType": "uint256",
          "name": "amountB",
          "type": "uint256"
        },
        {
          "internalType": "uint256",
          "name": "feeAmount",
          "type": "uint256"
        },
        {
          "internalType": "uint256",
          "name": "amountToSwap",
          "type": "uint256"
        }
      ],
      "name": "conductTransfer",
      "outputs": [],
      "stateMutability": "payable",
      "type": "function"
    },
    {
      "inputs": [
        {
          "internalType": "address",
          "name": "tokenA",
          "type": "address"
        },
        {
          "internalType": "address",
          "name": "tokenB",
          "type": "address"
        },
        {
          "internalType": "address",
          "name": "_userAccount",
          "type": "address"
        },
        {
          "internalType": "address",
          "name": "_contractAddress",
          "type": "address"
        },
        {
          "internalType": "uint256",
          "name": "amountA",
          "type": "uint256"
        }
      ],
      "name": "differTokenSwap",
      "outputs": [],
      "stateMutability": "nonpayable",
      "type": "function"
    },
    {
      "inputs": [],
      "name": "feePercentage",
      "outputs": [
        {
          "internalType": "uint256",
          "name": "",
          "type": "uint256"
        }
      ],
      "stateMutability": "view",
      "type": "function"
    },
    {
      "inputs": [],
      "name": "feeRecipient",
      "outputs": [
        {
          "internalType": "address",
          "name": "",
          "type": "address"
        }
      ],
      "stateMutability": "view",
      "type": "function"
    },
    {
      "inputs": [],
      "name": "priceOracle",
      "outputs": [
        {
          "internalType": "contract TokenPriceOracle",
          "name": "",
          "type": "address"
        }
      ],
      "stateMutability": "view",
      "type": "function"
    },
    {
      "inputs": [],
      "name": "supplyPrice",
      "outputs": [
        {
          "internalType": "uint256",
          "name": "",
          "type": "uint256"
        },
        {
          "internalType": "uint256",
          "name": "",
          "type": "uint256"
        },
        {
          "internalType": "uint256",
          "name": "",
          "type": "uint256"
        }
      ],
      "stateMutability": "view",
      "type": "function"
    },
    {
      "inputs": [],
      "name": "testValue",
      "outputs": [
        {
          "internalType": "uint256",
          "name": "",
          "type": "uint256"
        }
      ],
      "stateMutability": "view",
      "type": "function"
    },
    {
      "inputs": [
        {
          "internalType": "string",
          "name": "",
          "type": "string"
        }
      ],
      "name": "tokenInfo",
      "outputs": [
        {
          "internalType": "uint256",
          "name": "",
          "type": "uint256"
        }
      ],
      "stateMutability": "view",
      "type": "function"
    }
  ],
  "bytecode": "0x60806040527362cae0fa2da220f43a51f86db2edb36dca9a5a08600b60006101000a81548173ffffffffffffffffffffffffffffffffffffffff021916908373ffffffffffffffffffffffffffffffffffffffff160217905550730a023a3423d9b27a0be48c768ccf2dd7877fef5e600c60006101000a81548173ffffffffffffffffffffffffffffffffffffffff021916908373ffffffffffffffffffffffffffffffffffffffff160217905550732ee9bfb2d319b31a573ea15774b755715988e99d600d60006101000a81548173ffffffffffffffffffffffffffffffffffffffff021916908373ffffffffffffffffffffffffffffffffffffffff1602179055503480156200011057600080fd5b50604051620017dd380380620017dd833981810160405281019062000136919062000261565b306000806101000a81548173ffffffffffffffffffffffffffffffffffffffff021916908373ffffffffffffffffffffffffffffffffffffffff16021790555080600181905550642bd64d1690600e6040516200019390620002ee565b9081526020016040518091039020819055506306b7cfd2600e604051620001ba9062000355565b9081526020016040518091039020819055506305f5f524600e604051620001e190620003bc565b9081526020016040518091039020819055506305f5f524600e604051620002089062000423565b908152602001604051809103902081905550506200043a565b600080fd5b6000819050919050565b6200023b8162000226565b81146200024757600080fd5b50565b6000815190506200025b8162000230565b92915050565b6000602082840312156200027a576200027962000221565b5b60006200028a848285016200024a565b91505092915050565b600081905092915050565b7f4554480000000000000000000000000000000000000000000000000000000000600082015250565b6000620002d660038362000293565b9150620002e3826200029e565b600382019050919050565b6000620002fb82620002c7565b9150819050919050565b7f4152420000000000000000000000000000000000000000000000000000000000600082015250565b60006200033d60038362000293565b91506200034a8262000305565b600382019050919050565b600062000362826200032e565b9150819050919050565b7f5553445400000000000000000000000000000000000000000000000000000000600082015250565b6000620003a460048362000293565b9150620003b1826200036c565b600482019050919050565b6000620003c98262000395565b9150819050919050565b7f4153440000000000000000000000000000000000000000000000000000000000600082015250565b60006200040b60038362000293565b91506200041882620003d3565b600382019050919050565b60006200043082620003fc565b9150819050919050565b611393806200044a6000396000f3fe60806040526004361061011e5760003560e01c806361f62302116100a0578063a1973af111610064578063a1973af1146103cd578063a469d8ae1461040a578063baf0bfd314610435578063f015ad3314610460578063fd8765761461047c5761011e565b806361f62302146102f657806388eed374146103215780638af5de721461034c5780638e10aa0814610377578063a001ecdd146103a25761011e565b806351b429a0116100e757806351b429a0146101fa57806353c9fc2c146102235780635572eab914610250578063580fcf811461027b578063587bbca2146102b95761011e565b8062b210f6146101235780632630c12f1461014e5780632cc812bc1461017957806340a70239146101a457806346904840146101cf575b600080fd5b34801561012f57600080fd5b506101386104a7565b6040516101459190610b34565b60405180910390f35b34801561015a57600080fd5b506101636104ad565b6040516101709190610bce565b60405180910390f35b34801561018557600080fd5b5061018e6104d3565b60405161019b9190610b34565b60405180910390f35b3480156101b057600080fd5b506101b96104d9565b6040516101c69190610b34565b60405180910390f35b3480156101db57600080fd5b506101e46104df565b6040516101f19190610c0a565b60405180910390f35b34801561020657600080fd5b50610221600480360381019061021c9190610c91565b610503565b005b34801561022f57600080fd5b50610238610697565b60405161024793929190610d0c565b60405180910390f35b34801561025c57600080fd5b506102656106b0565b6040516102729190610b34565b60405180910390f35b34801561028757600080fd5b506102a2600480360381019061029d9190610d43565b6106b6565b6040516102b0929190610d70565b60405180910390f35b3480156102c557600080fd5b506102e060048036038101906102db9190610edf565b610707565b6040516102ed9190610b34565b60405180910390f35b34801561030257600080fd5b5061030b610735565b6040516103189190610c0a565b60405180910390f35b34801561032d57600080fd5b5061033661075b565b6040516103439190610b34565b60405180910390f35b34801561035857600080fd5b50610361610761565b60405161036e9190610b34565b60405180910390f35b34801561038357600080fd5b5061038c610767565b6040516103999190610c0a565b60405180910390f35b3480156103ae57600080fd5b506103b761078d565b6040516103c49190610b34565b60405180910390f35b3480156103d957600080fd5b506103f460048036038101906103ef9190610f28565b610793565b6040516104019190610b34565b60405180910390f35b34801561041657600080fd5b5061041f610813565b60405161042c9190610b34565b60405180910390f35b34801561044157600080fd5b5061044a610819565b6040516104579190610c0a565b60405180910390f35b61047a60048036038101906104759190610f7b565b61083f565b005b34801561048857600080fd5b50610491610b15565b60405161049e9190610b34565b60405180910390f35b60035481565b600a60009054906101000a900473ffffffffffffffffffffffffffffffffffffffff1681565b60025481565b60085481565b60008054906101000a900473ffffffffffffffffffffffffffffffffffffffff1681565b6000806000808873ffffffffffffffffffffffffffffffffffffffff166306fdde036040518163ffffffff1660e01b815260040160006040518083038186803b15801561054f57600080fd5b505afa158015610563573d6000803e3d6000fd5b505050506040513d6000823e3d601f19601f8201168201806040525081019061058c91906110d4565b905060008873ffffffffffffffffffffffffffffffffffffffff166306fdde036040518163ffffffff1660e01b815260040160006040518083038186803b1580156105d657600080fd5b505afa1580156105ea573d6000803e3d6000fd5b505050506040513d6000823e3d601f19601f8201168201806040525081019061061391906110d4565b90506000600e836040516106279190611164565b90815260200160405180910390205490506000600e8360405161064a9190611164565b9081526020016040518091039020549050610664886106b6565b8096508197505050610677858383610793565b96506106898c8c8c8c8c8c8c8c61083f565b505050505050505050505050565b6000806000600454600354600254925092509250909192565b60045481565b600080600066038d7ea4c680006001546106d091906111aa565b905080670de0b6b3a7640000856106e79190611233565b6106f191906111aa565b925082846106ff9190611264565b915050915091565b600e818051602081018201805184825260208301602085012081835280955050505050506000915090505481565b600c60009054906101000a900473ffffffffffffffffffffffffffffffffffffffff1681565b60055481565b60095481565b600d60009054906101000a900473ffffffffffffffffffffffffffffffffffffffff1681565b60015481565b600080600080848610156107d15785856107ad9190611233565b9150600190508187826107c091906111aa565b6107ca9190611233565b9250610806565b84861115610805576001915084866107e99190611233565b90508187826107f891906111aa565b6108029190611233565b92505b5b8293505050509392505050565b60065481565b600b60009054906101000a900473ffffffffffffffffffffffffffffffffffffffff1681565b8773ffffffffffffffffffffffffffffffffffffffff1663095ea7b386866040518363ffffffff1660e01b815260040161087a929190611298565b602060405180830381600087803b15801561089457600080fd5b505af11580156108a8573d6000803e3d6000fd5b505050506040513d601f19601f820116820180604052508101906108cc91906112f9565b508673ffffffffffffffffffffffffffffffffffffffff1663095ea7b386856040518363ffffffff1660e01b8152600401610908929190611298565b602060405180830381600087803b15801561092257600080fd5b505af1158015610936573d6000803e3d6000fd5b505050506040513d601f19601f8201168201806040525081019061095a91906112f9565b508773ffffffffffffffffffffffffffffffffffffffff166323b872dd8787846040518463ffffffff1660e01b815260040161099893929190611326565b602060405180830381600087803b1580156109b257600080fd5b505af11580156109c6573d6000803e3d6000fd5b505050506040513d601f19601f820116820180604052508101906109ea91906112f9565b508773ffffffffffffffffffffffffffffffffffffffff166323b872dd8787856040518463ffffffff1660e01b8152600401610a2893929190611326565b602060405180830381600087803b158015610a4257600080fd5b505af1158015610a56573d6000803e3d6000fd5b505050506040513d601f19601f82011682018060405250810190610a7a91906112f9565b508673ffffffffffffffffffffffffffffffffffffffff166323b872dd8688866040518463ffffffff1660e01b8152600401610ab893929190611326565b602060405180830381600087803b158015610ad257600080fd5b505af1158015610ae6573d6000803e3d6000fd5b505050506040513d601f19601f82011682018060405250810190610b0a91906112f9565b505050505050505050565b60075481565b6000819050919050565b610b2e81610b1b565b82525050565b6000602082019050610b496000830184610b25565b92915050565b600073ffffffffffffffffffffffffffffffffffffffff82169050919050565b6000819050919050565b6000610b94610b8f610b8a84610b4f565b610b6f565b610b4f565b9050919050565b6000610ba682610b79565b9050919050565b6000610bb882610b9b565b9050919050565b610bc881610bad565b82525050565b6000602082019050610be36000830184610bbf565b92915050565b6000610bf482610b4f565b9050919050565b610c0481610be9565b82525050565b6000602082019050610c1f6000830184610bfb565b92915050565b6000604051905090565b600080fd5b600080fd5b610c4281610be9565b8114610c4d57600080fd5b50565b600081359050610c5f81610c39565b92915050565b610c6e81610b1b565b8114610c7957600080fd5b50565b600081359050610c8b81610c65565b92915050565b600080600080600060a08688031215610cad57610cac610c2f565b5b6000610cbb88828901610c50565b9550506020610ccc88828901610c50565b9450506040610cdd88828901610c50565b9350506060610cee88828901610c50565b9250506080610cff88828901610c7c565b9150509295509295909350565b6000606082019050610d216000830186610b25565b610d2e6020830185610b25565b610d3b6040830184610b25565b949350505050565b600060208284031215610d5957610d58610c2f565b5b6000610d6784828501610c7c565b91505092915050565b6000604082019050610d856000830185610b25565b610d926020830184610b25565b9392505050565b600080fd5b600080fd5b6000601f19601f8301169050919050565b7f4e487b7100000000000000000000000000000000000000000000000000000000600052604160045260246000fd5b610dec82610da3565b810181811067ffffffffffffffff82111715610e0b57610e0a610db4565b5b80604052505050565b6000610e1e610c25565b9050610e2a8282610de3565b919050565b600067ffffffffffffffff821115610e4a57610e49610db4565b5b610e5382610da3565b9050602081019050919050565b82818337600083830152505050565b6000610e82610e7d84610e2f565b610e14565b905082815260208101848484011115610e9e57610e9d610d9e565b5b610ea9848285610e60565b509392505050565b600082601f830112610ec657610ec5610d99565b5b8135610ed6848260208601610e6f565b91505092915050565b600060208284031215610ef557610ef4610c2f565b5b600082013567ffffffffffffffff811115610f1357610f12610c34565b5b610f1f84828501610eb1565b91505092915050565b600080600060608486031215610f4157610f40610c2f565b5b6000610f4f86828701610c7c565b9350506020610f6086828701610c7c565b9250506040610f7186828701610c7c565b9150509250925092565b600080600080600080600080610100898b031215610f9c57610f9b610c2f565b5b6000610faa8b828c01610c50565b9850506020610fbb8b828c01610c50565b9750506040610fcc8b828c01610c50565b9650506060610fdd8b828c01610c50565b9550506080610fee8b828c01610c7c565b94505060a0610fff8b828c01610c7c565b93505060c06110108b828c01610c7c565b92505060e06110218b828c01610c7c565b9150509295985092959890939650565b60005b8381101561104f578082015181840152602081019050611034565b8381111561105e576000848401525b50505050565b600061107761107284610e2f565b610e14565b90508281526020810184848401111561109357611092610d9e565b5b61109e848285611031565b509392505050565b600082601f8301126110bb576110ba610d99565b5b81516110cb848260208601611064565b91505092915050565b6000602082840312156110ea576110e9610c2f565b5b600082015167ffffffffffffffff81111561110857611107610c34565b5b611114848285016110a6565b91505092915050565b600081519050919050565b600081905092915050565b600061113e8261111d565b6111488185611128565b9350611158818560208601611031565b80840191505092915050565b60006111708284611133565b915081905092915050565b7f4e487b7100000000000000000000000000000000000000000000000000000000600052601160045260246000fd5b60006111b582610b1b565b91506111c083610b1b565b9250817fffffffffffffffffffffffffffffffffffffffffffffffffffffffffffffffff04831182151516156111f9576111f861117b565b5b828202905092915050565b7f4e487b7100000000000000000000000000000000000000000000000000000000600052601260045260246000fd5b600061123e82610b1b565b915061124983610b1b565b92508261125957611258611204565b5b828204905092915050565b600061126f82610b1b565b915061127a83610b1b565b92508282101561128d5761128c61117b565b5b828203905092915050565b60006040820190506112ad6000830185610bfb565b6112ba6020830184610b25565b9392505050565b60008115159050919050565b6112d6816112c1565b81146112e157600080fd5b50565b6000815190506112f3816112cd565b92915050565b60006020828403121561130f5761130e610c2f565b5b600061131d848285016112e4565b91505092915050565b600060608201905061133b6000830186610bfb565b6113486020830185610bfb565b6113556040830184610b25565b94935050505056fea26469706673582212201a5bffce79677e3f49aeb6c2a36d8005fab38c41ab2f5b8ae32e9e11ff91cf0a64736f6c63430008090033",
  "linkReferences": {},
  "deployedLinkReferences": {}
}